:020000040000FA
:04000000FEEF7FF0A0
:1010000000010000000A00000064000000E8030086
:101010000010270000A086010040420F0080969833
:101020000000E1F50500CA9A3B0909522D53656E8F
:10103000736F7220636F756E7420544553540D0A9C
:1010400000094B50552041505343313239390D0A74
:101050000A0A0A0009092D2D2D2D202D2D2D2D0DCB
:101060000A0A0009092D2D2D2D202D2D2D2D0D0ABB
:101070000009095445535420434F44450D0A000DBF
:101080000A0A0A0A0A0A0A0A0A000D256C752020B3
:10109000202020003E200000190E266E000E276E34
:1010A0004CEF09F0250E2818D8B459EF08F05BEF83
:1010B00008F060EF08F02850E9EC0BF04CEF09F075
:1010C000000E1F6E6BEF08F01F886BEF08F0C00E6C
:1010D0001F1287EF08F060005FF0F6FF600063F01A
:1010E000F7FF174A182AF86A08006F00D4FF28F0A3
:1010F0002850000AD8B461EF09F06C0AD8B464EF44
:1011000008F0190AD8B467EF08F04CEF09F01FA8EF
:101110008CEF08F08EEF08F0A6EF08F060009BF06F
:10112000D9FF60009FF0DAFF6F0078FF22F06F00B8
:1011300078FF23F06F0078FF24F06F0078FF25F030
:10114000040E2626000E2722BEEF08F060009BF05A
:10115000D9FF60009FF0DAFF6F0078FF1DF06F008D
:1011600074FF1EF0600074F022F0600078F023F04D
:10117000246A256A020E2626000E2722010E286EFA
:101180002850040D010EF324F66E100EF420F76EB5
:10119000F86A000EF8220900F550225C0900F550AB
:1011A00023580900F55024580900F5502558D8B0A7
:1011B000DCEF08F0DEEF08F0E0EF08F0EAEF08F00F
:1011C000282A0A0E2818D8A4E8EF08F0EAEF08F059
:1011D000C0EF08F06000A0F020F0216A3FEF09F0B6
:1011E000600080F01DF0600084F01EF0D8901D3685
:1011F0001E36D8901D361E36010E1D24F66E100EBA
:101200001E20F76EF86A000EF82209006F00D4FF66
:1012100005F009006F00D4FF06F009006F00D4FF4D
:1012200007F00A006F00D4FF08F0600088F001F0BA
:1012300060008CF002F0600090F003F0600094F029
:1012400004F01DEC0AF0600004F00EF0600008F0FD
:101250000FF060000CF010F0600010F011F00A0EBA
:10126000126E000E136E000E146E000E156E09EC59
:101270000BF00E50300F286E2850E9EC0BF02006D2
:10128000D8A02106202806E12128D8A44AEF09F099
:101290004CEF09F0F0EF08F060005FF0F6FF60003F
:1012A00063F0F7FF174A182AF86A08006F00D4FFA6
:1012B00028F02850D8A45FEF09F061EF09F052EF51
:1012C00008F01200CBEC0BF07F0E176E100E186EAC
:1012D0004CEC08F0710E176E100E186E4CEC08F006
:1012E000630E176E100E186E4CEC08F0290E176E78
:1012F000100E186E4CEC08F0540E176E100E186E8F
:101300004CEC08F0410E176E100E186E4CEC08F005
:10131000940E176E100E186E4CEC08F0BD82000E85
:101320002F6E000E306E000E316E000E326EC0EC6D
:101330000BF00009D8B49FEF09F0A1EF09F0BDEF61
:1013400009F073EC0AF0336E7FEC0BF00009D8B4AF
:10135000ACEF09F0AEEF09F0BDEF09F03350A7ECA8
:101360000BF00D0E3318D8A4B8EF09F0BAEF09F05E
:10137000BDEF09F00A0EA7EC0BF0C592500EE82E57
:10138000FED7C582CAEF09F0010E2F26000E3022CB
:1013900031223222CDB2CFEF09F0D1EF09F0C4EF04
:1013A00009F06000BCF001F06000C0F002F06000E5
:1013B000C4F003F06000C8F004F00A0E056E000EE1
:1013C000066E000E076E000E086E1DEC0AF060003F
:1013D00004F02BF0600008F02CF060000CF02DF011
:1013E000600010F02EF08A0E176E100E186E60005E
:1013F000ACF019F06000B0F01AF06000B4F01BF02F
:101400006000B8F01CF04CEC08F0000E2F6E000EDF
:10141000306E000E316E000E326E020E2A6ED40E49
:10142000296E850EE82EFED7292EFCD72A2EFAD754
:1014300000F097EF09F0FEEF7FF0000E096E000E4E
:101440000A6E000E0B6E000E0C6E05500610071093
:101450000810D8B42EEF0AF030EF0AF066EF0AF069
:10146000010E0D6E3AEF0AF0D890053606360736B3
:1014700008360D2A08AE3FEF0AF041EF0AF034EFCC
:101480000AF0D89009360A360B360C360550015C46
:10149000065002580750035808500458D8A053EF7C
:1014A0000AF055EF0AF05EEF0AF00550015E0650B3
:1014B000025A0750035A0850045A0980D89008323B
:1014C0000732063205320D2E41EF0AF0600024F09B
:1014D00001F0600028F002F060002CF003F06000E2
:1014E00030F004F012003901A6A579EF0AF07BEF85
:1014F0000AF073EF0AF0000E3A6E3D01E1A783EFA8
:101500000AF085EF0AF092EF0AF03A8202D892EFE1
:101510000AF00500FA6E3850FD6E3950FE6EFF6A13
:10152000FA5012003D01E1A398EF0AF09AEF0AF099
:10153000A7EF0AF03A8402D8A7EF0AF00500FA6E86
:101540003650FD6E3750FE6EFF6AFA5012003A5068
:10155000D8B4ADEF0AF0AFEF0AF0BBEF0AF002D853
:10156000BBEF0AF00500FA6E3450FD6E3550FE6E8A
:10157000FF6AFA5012003D01D0511200000EBE6EFB
:10158000000EBD6E000EBA6E000EBB6E000EBC6E7D
:10159000070EC66EC268BF0EC36EC468C568FD0E76
:1015A0003A01706F60697F0E506F070E806F40695F
:1015B000000E716F000E816F000E516F000E416FB3
:1015C000000E616F000E5A6F000E5B6F000E6A6FA7
:1015D000000E6B6F000E7A6F000E7B6F000E826F35
:1015E000000E426F000E526F000E626F000E726F9F
:1015F0004369536963697369070E836F446954696A
:10160000646974690F0E846F0F0EE86F160E0E6F0B
:1016100012001250131014101510D8B412EF0BF062
:1016200014EF0BF044EF0BF0010E166E1EEF0BF0F3
:10163000D8901236133614361536162A15AE23EF07
:101640000BF025EF0BF018EF0BF012500E5C13505F
:101650000F581450105815501158D8A032EF0BF0F5
:1016600034EF0BF03CEF0BF012500E5E13500F5A9C
:101670001450105A1550115AD89015321432133292
:101680001232162E25EF0BF0600038F00EF06000DD
:101690003CF00FF0600040F010F0600044F011F0FA
:1016A0001200000E3D01D46F000ED66F000ED86FF1
:1016B000B00EDA6F800EDB6F000EDC6FE10EDD6FB7
:1016C000040EDE6F000EDF6F000EE06F000EE16FA4
:1016D000000EE26FE60E016E170E026EDBEC0BF0F1
:1016E000E40E016E170E026ED4EC0BF0E80E016EE4
:1016F000170E026EE2EC0BF0000E3A6E1200000EB6
:10170000016E3901A6A787EF0BF089EF0BF093EF7D
:101710000BF03D01DAAB8FEF0BF091EF0BF093EF95
:101720000BF0010E016E01501200000E3901C06F66
:10173000000EC16F000EC26F000EC36F000EC46FAB
:10174000000EC56F000EC66F000EC76F1200016E4F
:101750003901A6A7AEEF0BF0B0EF0BF0A8EF0BF03E
:10176000600007F0D2FD1200600E3901D96F000E43
:10177000DB6F000EDD6F070EDF6F000EDE6F1200F5
:101780003901A6B5C6EF0BF0C9EF0BF0010ECAEF99
:101790000BF0000E120095EC0BF0BEEC0AF0B4EC6E
:1017A0000BF051EC0BF01200600004F036F060001A
:1017B00008F037F01200600004F038F0600008F024
:1017C00039F01200600004F034F0600008F035F0E9
:1017D0001200026E0250A7EC0BF012003A6A0001F0
:0A17E00062EF09F01200120012007F
:04FFFC00EEEF0BF029
:020000040020DA
:10000000FF0FFF0FFF0FFF0FFF0FFF0FFF0FFF0F80
:020000040030CA
:0A000000ECFEF7FF9FFFFFFFFFFF7C
:00000001FF
