:020000040000FA
:04000000FEEF7FF0A0
:10D33800120012001200120012001200B280120035
:10D34800AC8E1200A6801200A4EC69F01200026EE6
:10D35800025029EC6AF01200600004F0CAF0600084
:10D3680008F0CBF01200600004F0CEF0600008F086
:10D37800CFF01200600004F0CCF0600008F0CDF0AF
:10D388001200600004F0C4F0600008F0C5F012005C
:10D39800600004F0C8F0600008F0C9F012006000F6
:10D3A80004F0C6F0600008F0C7F012004150534383
:10D3B8003132393900286E756C6C29003901A6B5EF
:10D3C800E8EF69F0EBEF69F0010EECEF69F0000EA1
:10D3D80012003901A3B7F3EF69F0F6EF69F0010E17
:10D3E800F7EF69F0000E1200880E7E6E000E7D6E5B
:10D3F800000E7C6E3F015E51FC0B01095E6F12004E
:10D40800620E3901D96F000EDB6F000EDD6F070E5B
:10D41800DF6F000EDE6F1200800E6E6E120E6D6EE4
:10D42800800E6C6E3F015F51FC0B01095F6F1200AB
:10D43800016E3901A3A923EF6AF025EF6AF01DEF09
:10D448006AF0600007F0EAFD1200016E3901A6A734
:10D4580030EF6AF032EF6AF02AEF6AF0600007F006
:10D46800D2FD1200A2EC6AF00009D8B43EEF6AF0CF
:10D4780040EF6AF036EF6AF0BC0E1CEC6AF012005E
:10D48800010EAE6E000EAD6E000EAF6EBB0EAB6E33
:10D49800000EAA6E3901A495C00EAC6E1200000EE3
:10D4A8003901C06F000EC16F000EC26F000EC36F4E
:10D4B800000EC46F000EC56F000EC66F000EC76F5A
:10D4C800120020EED4F010EE08F0080E6F006FFF87
:10D4D800E3FFE806FBE2080E026E000E036E080E7C
:10D4E800046E3BEC6FF0120053EC6AF0DBEC6FF06B
:10D4F80004EC6AF0F8EC69F0FBEC6AF044EC6AF0D2
:10D5080010EC6AF016EC6BF05CEC6CF08BEC6CF0E9
:10D518001200A6826F0090FE08F06F0094FE07F0DC
:10D528000750036E0850056E60000CF006F06000AE
:10D5380014F001F0600018F002F01200000E016E05
:10D548003901A3A9AAEF6AF0ACEF6AF0B6EF6AF066
:10D558003D01F2ABB2EF6AF0B4EF6AF0B6EF6AF0F1
:10D56800010E016E01501200000E016E3901A6A7CE
:10D57800C0EF6AF0C2EF6AF0CCEF6AF03D01DAABB7
:10D58800C8EF6AF0CAEF6AF0CCEF6AF0010E016EDC
:10D59800015012009E0E0001A26F000EA36F000E34
:10D5A800946F000E956F600070F296F0600074F250
:10D5B80097F0A20E986F000E996FD4EC6DF01200E0
:10D5C800015003026F00CCFF05F06F00D0FF06F09A
:10D5D80001500402F350062602500302F3500626B7
:10D5E800600014F001F0600018F002F01200000E64
:10D5F800A76E000EA86E0A0EA96EA568A468390168
:10D60800A69DA4506F0094FE01F0026A600004F029
:10D6180002F0016A01100001D06F0250D16F030EB1
:10D62800A66E1200000EB36E000EB46E010EB56E3B
:10D638006D0EB16E840EB06E3901A491B0506F00BA
:10D64800C4FE01F0026A600004F002F0016A0110F1
:10D658000001D26F0250D36F330EB26E1200D00E9B
:10D66800036EFF0E046E600004F005F0600008F021
:10D6780006F0035005260450062206500AE10A0E59
:10D68800055CD8A04AEF6BF04DEF6BF0010E4EEF42
:10D698006BF0000E016E026A1200600004F003F0E5
:10D6A800600008F004F05BEF6BF0014A022A6000AA
:10D6B80007F0D9FF60000BF0DAFFDF50D8A467EF5E
:10D6C8006BF069EF6BF059EF6BF00350015C016E82
:10D6D80004500258026E1200B40EF66ED30EF76EA6
:10D6E800000EF86E00EED4F010EE10F009006F0096
:10D6F800D7FFEEFFE550E150F9E101EE48F012EEF8
:10D70800B8F3EE6AE550E150FCE1E250FAE100EED0
:10D7180060F0340EEE6AE806FDE100018BEF7AF066
:10D72800000E126E000E116EA8EF6BF0600040F054
:10D7380003F0046A600038F005F060003CF006F081
:10D7480024EC72F0114A122A11500C24D96E12508E
:10D758000D20DA6EDF50106E1050D8A4B6EF6BF0C3
:10D76800B8EF6BF09AEF6BF0120014BEC6EF6BF0D7
:10D77800145006E11304D8B0C4EF6BF0C6EF6BF099
:10D78800D8EF6BF060004CF015F0600050F016F028
:10D79800151E161E154A162A600054F013F0600074
:10D7A80058F014F0DEEF6BF060004CF013F06000FE
:10D7B80050F014F01200A2EC6AF00009D8B4E7EFB8
:10D7C8006BF0E9EF6BF0DFEF6BF0B90E1CEC6AF071
:10D7D800A2EC6AF00009D8B4F4EF6BF0F6EF6BF046
:10D7E800ECEF6BF0000E1CEC6AF0A2EC6AF000099A
:10D7F800D8B401EF6CF003EF6CF0F9EF6BF0010EA9
:10D808001CEC6AF01200026EA2EC6AF00009D8B4AF
:10D8180010EF6CF012EF6CF008EF6CF0B80E1CEC27
:10D828006AF0A2EC6AF00009D8B41DEF6CF01FEFA3
:10D838006CF015EF6CF0010E1CEC6AF0A2EC6AF0CB
:10D848000009D8B42AEF6CF02CEF6CF022EF6CF0E2
:10D8580002501CEC6AF01200010E076E200E01182F
:10D868000210D8B43AEF6CF03CEF6CF057EF6CF064
:10D87800F70E036EFF0E046E600004F005F0600002
:10D8880008F006F00350052604500622065009E168
:10D89800050E055CD8A053EF6CF055EF6CF057EF10
:10D8A8006CF0000E076E60001CF001F0026A1200B6
:10D8B800000E3D01D46F000ED66F000ED86FB00E6B
:10D8C800DA6F800EDB6F000EDC6F380EDD6F010E35
:10D8D800DE6F000EDF6F000EE06F000EE16F000ECE
:10D8E800E26F3A0E016ED30E026ECCEC69F03C0E7C
:10D8F800016ED30E026ED3EC69F0380E016ED30EB2
:10D90800026EC5EC69F0000E0001686F1200000E8F
:10D918003D01EC6F000EED6F000EEE6F000EEF6F25
:10D92800000EF06F000EF16FB00EF26F800EF36F05
:10D93800000EF46F190EF56F000EF66F000EF76FFC
:10D94800000EF86F000EF96F000EFA6F400E016EB0
:10D95800D30E026EB7EC69F0420E016ED30E026E62
:10D96800BEEC69F03E0E016ED30E026EB0EC69F0AB
:10D97800000E0001696F1200026EA2EC6AF0000945
:10D98800D8B4C9EF6CF0CBEF6CF0C1EF6CF0C10EFE
:10D998001CEC6AF0A2EC6AF00009D8B4D6EF6CF07F
:10D9A800D8EF6CF0CEEF6CF002501CEC6AF0A2ECF1
:10D9B8006AF00009D8B4E3EF6CF0E5EF6CF0DBEF48
:10D9C8006CF0C50E1CEC6AF0A2EC6AF00009D8B441
:10D9D800F0EF6CF0F2EF6CF0E8EF6CF002501CEC3A
:10D9E8006AF01200026EA2EC6AF00009D8B4FFEFE8
:10D9F8006CF001EF6DF0F7EF6CF0C20E1CEC6AF002
:10DA0800A2EC6AF00009D8B40CEF6DF00EEF6DF0DF
:10DA180004EF6DF002501CEC6AF0A2EC6AF0000909
:10DA2800D8B419EF6DF01BEF6DF011EF6DF0C50E66
:10DA38001CEC6AF0A2EC6AF00009D8B426EF6DF08D
:10DA480028EF6DF01EEF6DF002501CEC6AF012002A
:10DA5800026EA2EC6AF00009D8B435EF6DF037EF2A
:10DA68006DF02DEF6DF0C10E1CEC6AF0A2EC6AF0BF
:10DA78000009D8B442EF6DF044EF6DF03AEF6DF065
:10DA880002501CEC6AF0A2EC6AF00009D8B44FEF1F
:10DA98006DF051EF6DF047EF6DF0C60E1CEC6AF0BB
:10DAA800A2EC6AF00009D8B45CEF6DF05EEF6DF09F
:10DAB80054EF6DF002501CEC6AF01200A2EC6AF010
:10DAC8000009D8B46AEF6DF06CEF6DF062EF6DF09D
:10DAD800CD82B60E1CEC6AF0EDEC69F00009D8B402
:10DAE80078EF6DF07AEF6DF070EF6DF0ECEC6EF0B2
:10DAF800086EEDEC69F00009D8B485EF6DF087EF9A
:10DB08006DF07DEF6DF0ECEC6EF0096E0950056E6E
:10DB1800046A08500424066E000E0520076ECD9294
:10DB2800600018F002F060001CF003F01200A00E74
:10DB38000001A46F000EA56F600070F2A6F06000EF
:10DB480074F2A7F0000EA96F000EA86F000EAB6F5D
:10DB5800000EAA6FA60E946F000E956F600078F203
:10DB680096F060007CF297F0A40E986F000E996F03
:10DB7800D4EC6DF0600050F2A2F0600054F2A3F013
:10DB88000001A8519C25D96EA9519D21DA6E000E7D
:10DB9800DF6E600088F29CF060008CF29DF012004D
:10DBA800600058F29AF060005CF29BF0000E0001F1
:10DBB800616F000E606FF8EF6DF0600050F242F098
:10DBC800600054F243F09A0E446E000E456E6000F9
:10DBD80060F246F0600064F247F07BEC7CF0425063
:10DBE800000160274350612360006BF2F6FF60007C
:10DBF8006FF2F7FFF86A0800F5500009D8A407EF9C
:10DC08006EF009EF6EF0E1EF6DF0600080F194F0D6
:10DC1800600084F195F01200A2EC6AF00009D8B413
:10DC280018EF6EF01AEF6EF010EF6EF0BA0E1CECF3
:10DC38006AF0EDEC69F00009D8B425EF6EF027EF33
:10DC48006EF01DEF6EF033EF6EF0EDEC69F0000949
:10DC5800D8B431EF6EF033EF6EF029EF6EF0ECECE4
:10DC68006EF0630AD8A43BEF6EF03DEF6EF029EF3B
:10DC78006EF0A2EC6AF00009D8B445EF6EF047EFF9
:10DC88006EF03DEF6EF0B70E1CEC6AF0CA0E026E35
:10DC9800FF0E036E080E046E3BEC6FF01200720E5E
:10DCA80000019C6FFF0E9D6FCEEC6AF0A2EC6AF04B
:10DCB8000009D8B462EF6EF064EF6EF05AEF6EF0C0
:10DCC800B10E1CEC6AF0EDEC69F00009D8B46FEF06
:10DCD8006EF071EF6EF067EF6EF0ECEC6EF0000135
:10DCE800A86FEDEC69F00009D8B47DEF6EF07FEF16
:10DCF8006EF075EF6EF0ECEC6EF00001A96FD30ECC
:10DD08009C6FFF0E9D6FA951A76FA66BA851A62502
:10DD18009E6F000EA7219F6FCEEC6AF00001A951FB
:10DD2800A76FA66BA851A625A46F000EA721A56F03
:10DD380012003901A6A5A3EF6EF0A5EF6EF09DEFD6
:10DD48006EF0000E0001686F3D01E1A7AEEF6EF0C6
:10DD5800B0EF6EF0BEEF6EF00001688302D8BEEF40
:10DD68006EF00500FA6EC851FD6EC951FE6EFF6A6D
:10DD7800FA5012003D01E1A3C4EF6EF0C6EF6EF059
:10DD8800D4EF6EF00001688502D8D4EF6EF005007C
:10DD9800FA6EC651FD6EC751FE6EFF6AFA50120048
:10DDA80000016851D8B4DBEF6EF0DDEF6EF0E9EFFB
:10DDB8006EF002D8E9EF6EF00500FA6EC451FD6E00
:10DDC800C551FE6EFF6AFA5012003D01D051120093
:10DDD8003901A3A7F2EF6EF0F4EF6EF0ECEF6EF0FE
:10DDE800000E0001696F3D01F9A7FDEF6EF0FFEF2E
:10DDF8006EF00DEF6FF00001698302D80DEF6FF040
:10DE08000500FA6ECE51FD6ECF51FE6EFF6AFA50D4
:10DE180012003D01F9A313EF6FF015EF6FF023EF38
:10DE28006FF00001698502D823EF6FF00500FA6EE4
:10DE3800CC51FD6ECD51FE6EFF6AFA501200000102
:10DE48006951D8B42AEF6FF02CEF6FF038EF6FF00C
:10DE580002D838EF6FF00500FA6ECA51FD6ECB514B
:10DE6800FE6EFF6AFA5012003D01E8511200000EE2
:10DE7800076EA2EC6AF00009D8B445EF6FF047EFDF
:10DE88006FF03DEF6FF0B80E1CEC6AF0A2EC6AF090
:10DE98000009D8B452EF6FF054EF6FF04AEF6FF00B
:10DEA80004501CEC6AF081EF6FF0A2EC6AF00009F4
:10DEB800D8B461EF6FF063EF6FF081EF6FF0075048
:10DEC8000224056E000E0320066E600017F0F6FFB0
:10DED80060001BF0F7FF000EF86E0F0EF76403D01A
:10DEE8000800F55007D06F00DBFFE1FF6F00DFFF90
:10DEF800E2FFE7501CEC6AF0072A0450075CD8A040
:10DF080088EF6FF08AEF6FF059EF6FF01200026E32
:10DF1800A2EC6AF00009D8B494EF6FF096EF6FF0B6
:10DF28008CEF6FF0BB0E1CEC6AF0A2EC6AF00009F3
:10DF3800D8B4A1EF6FF0A3EF6FF099EF6FF0025034
:10DF48001CEC6AF0A2EC6AF00009D8B4AEEF6FF0EE
:10DF5800B0EF6FF0A6EF6FF0010E1CEC6AF0A2ECC8
:10DF68006AF00009D8B4BBEF6FF0BDEF6FF0B3EF04
:10DF78006FF0140E1CEC6AF0A2EC6AF00009D8B439
:10DF8800C8EF6FF0CAEF6FF0C0EF6FF0030E1CEC34
:10DF98006AF0A2EC6AF00009D8B4D5EF6FF0D7EFB9
:10DFA8006FF0CDEF6FF0020E1CEC6AF01200000E5D
:10DFB800BE6E000EBD6E000EBA6E000EBB6E000E79
:10DFC800BC6E070EC66EC268BF0EC36EAF0EC46EBF
:10DFD800FC0EC56E3A0170697F0E606F5F0E506F60
:10DFE800070E806F4069000E716F000E816F000E82
:10DFF800516F000E416F000E616F000E5A6F000ED8
:10E008005B6F000E6A6F000E6B6F000E7A6F000E6A
:10E018007B6F000E826F000E426F000E526F000E73
:10E02800626F000E726F4369536963697369070E03
:10E03800836F44695469646974690F0E846F0F0EA5
:10E04800E86F160E0E6F0D0E146F130E166F170E67
:10E05800E56F1200000E0001AE6F000EB06F060EE5
:10E06800AF6FA2EC6AF00009D8B43DEF70F03FEF53
:10E0780070F035EF70F0810E1CEC6AF05AEF70F01A
:10E08800EDEC69F00009D8B44CEF70F04EEF70F089
:10E098005AEF70F0A70E0001AE25D96EDA6A000EAD
:10E0A800DA22ECEC6EF0DF6E0001AE2B0001AE510F
:10E0B800A46FA56BAF51A45DA551800AA66FB0519E
:10E0C800800AA659D8A06BEF70F06DEF70F044EF9E
:10E0D80070F0A70EAF25D96E000EB021DA6E000ED3
:10E0E800DF6E030E9C6FFE0E9D6FA70E9E6F000ED7
:10E0F8009F6FCEEC6AF0A70E026E000E036E6000F2
:10E10800BCF204F03BEC6FF01200000E0001B86F97
:10E1180053EC6EF0600090F2B5F0600094F2B6F047
:10E12800AC0E00019C6F000E9D6FE30E9E6FFF0EFC
:10E138009F6F6000D4F2A0F06000D8F2A1F09BECD1
:10E148006DF000019C51B76FA2EC6AF00009D8B4D9
:10E15800B0EF70F0B2EF70F0A8EF70F0B80E1CECF2
:10E168006AF0A2EC6AF00009D8B4BDEF70F0BFEF16
:10E1780070F0B5EF70F00001B7511CEC6AF0DBEFFE
:10E1880070F0A2EC6AF00009D8B4CDEF70F0CFEFD0
:10E1980070F0DBEF70F0AC0E0001B825D96EDA6ACA
:10E1A800000EDA22DF501CEC6AF00001B82B0001E7
:10E1B800B751B85DD8A0E3EF70F0E5EF70F0C5EFA8
:10E1C80070F01200000E0001A76F000EA66F6C0E13
:10E1D8009C6FFF0E9D6F180EA625D96E0C0EA721F9
:10E1E800DA6EDF50A46FA56BD890A437A537D89006
:10E1F800A437A537600090F29EF0600094F29FF07B
:10E20800CEEC6AF06C0E00019C6FFF0E9D6F300E15
:10E21800A625D96E080EA721DA6EDF50A46FA56B6C
:10E22800D890A437A537D890A437A537600090F2C6
:10E238009EF0600094F29FF0CEEC6AF0E90E0001C7
:10E248009C6FFF0E9D6F480EA625D96E040EA72160
:10E25800DA6EDF50A46FA56BA43BA53BF00EA517A3
:10E26800A4510F0BA513F00EA417600090F29EF0B6
:10E27800600094F29FF0CEEC6AF00001A64BA72B49
:10E28800E80EA65D030EA759D8A04DEF71F04FEF29
:10E2980071F0EBEF70F01200A2EC6AF00009D8B44C
:10E2A80058EF71F05AEF71F050EF71F0CD82870E90
:10E2B8001CEC6AF0000E126EEDEC69F00009D8B49F
:10E2C80068EF71F06AEF71F060EF71F0080E1224D8
:10E2D800D96EDA6A000EDA22ECEC6EF0DF6EEDEC45
:10E2E80069F00009D8B47BEF71F07DEF71F073EF3E
:10E2F80071F00D0E1224D96EDA6A000EDA22ECECF7
:10E308006EF0DF6E0D0E1224D96EDA6A000EDA2274
:10E31800DF50046E0450066E056A080E1224D96E8A
:10E32800DA6A000EDA22DF50076E07500526000E63
:10E3380006221250020D8A0EF324D96E000EF42024
:10E34800DA6E600017F0DEFF60001BF0DDFF122AB6
:10E35800040E1264B2EF71F0B4EF71F060EF71F077
:10E36800CD928A0E026E000E036E120050EC71F010
:10E37800600008F0A4F060000CF0A5F05B0E00014E
:10E388009C6FFF0E9D6F600093F2D9FF600097F2BB
:10E39800DAFF6F0078FF9EF06F0074FF9FF0CEECFD
:10E3A8006AF06C0E00019C6FFF0E9D6F20EE02F06C
:10E3B800A451D926A551DA226F0078FF9EF06F008C
:10E3C80074FF9FF0CEEC6AF06C0E00019C6FFF0E9C
:10E3D8009D6F20EE04F0A451D926A551DA226F00D2
:10E3E80078FF9EF06F0074FF9FF0CEEC6AF06C0E21
:10E3F80000019C6FFF0E9D6F20EE06F0A451D926F8
:10E40800A551DA226F0078FF9EF06F0074FF9FF02D
:10E41800CEEC6AF0F30E00019C6FFF0E9D6F20EEAC
:10E4280008F0A451D926A551DA226F0078FF9EF092
:10E438006F0074FF9FF0CEEC6AF0BAEF71F0120033
:10E4480005500610D8B42BEF72F02DEF72F036EFAE
:10E4580072F005500610D8A434EF72F036EF72F05F
:10E468003BEF72F00350ABEC69F08FEF72F020EEE7
:10E4780004F00550D9260650DA22DE50DE10D8B452
:10E4880048EF72F04AEF72F065EF72F020EE04F098
:10E498000550D9260650DA2210EE02F00550E12682
:10E4A8000650E222DE50E65CE650800A0B6EDE5033
:10E4B800800A0B58D8B063EF72F065EF72F08FEFF7
:10E4C80072F020EE02F00550D9260650DA226F00CD
:10E4D80078FF07F06F0074FF08F0600017F0D9FFAD
:10E4E80060001BF0DAFF6F0078FF09F06F0074FF1F
:10E4F8000AF007500924D96E08500A20DA6E600025
:10E508000FF0DFFF20EE02F00550D9260650DA2280
:10E51800DE2A000EDD22120009500A100B100C1022
:10E528000D100E100F101010D8B49DEF72F09FEF61
:10E5380072F0E7EF72F0010E116EADEF72F0D89045
:10E5480009360A360B360C360D360E360F361036AF
:10E55800112A10AEB2EF72F0B4EF72F0A3EF72F0BE
:10E568000950015C0A5002580B5003580C500458CB
:10E578000D5005580E5006580F500758105008589F
:10E58800D8A0C9EF72F0CBEF72F0DBEF72F0095050
:10E59800015E0A50025A0B50035A0C50045A0D508F
:10E5A800055A0E50065A0F50075A1050085AD8905C
:10E5B80010320F320E320D320C320B320A3209325F
:10E5C800112EB4EF72F0600004F001F0600008F062
:10E5D80002F060000CF003F0600010F004F060003E
:10E5E80014F005F0600018F006F060001CF007F069
:10E5F800600020F008F01200000166A106EF73F039
:10E6080008EF73F016EF73F0600054F00CF0600040
:10E6180058F00DF060004CF00EF0600050F00FF074
:10E6280094EC6BF018BE1BEF73F01DEF73F025EF41
:10E6380073F060005CF01CF0600060F01DF029EFE2
:10E6480073F0000E1D6E000E1C6E000E1B6E000E89
:10E658001A6E3DEF73F0000E046E200E036E60001C
:10E668004CF005F0600050F006F024EC72F01A4A05
:10E678001B2A1C501A5C1B50800A196E1D50800AF8
:10E688001958D8A04AEF73F04CEF73F02FEF73F0DE
:10E69800000166B152EF73F054EF73F062EF73F05C
:10E6A800600054F00CF0600058F00DF060004CF081
:10E6B8000EF0600050F00FF094EC6BF0600054F036
:10E6C80001F0600058F002F051EC6BF01C5001248E
:10E6D800136E1D500220146E1200EF0E00019C6F85
:10E6E800FF0E9D6FCEEC6AF0C00E00019C6FFF0E0E
:10E6F8009D6FCEEC6AF08C0E00019C6FFE0E9D6F34
:10E70800CEEC6AF0B50E00019C6FFF0E9D6FCEEC4B
:10E718006AF0A80E00019C6FFF0E9D6FCEEC6AF0A8
:10E72800E30E00019C6FFE0E9D6FCEEC6AF0C90EE1
:10E7380000019C6FFE0E9D6FCEEC6AF06B0E00011F
:10E748009C6FFE0E9D6FCEEC6AF0FC0E00019C6F74
:10E75800FE0E9D6FCEEC6AF0260E00019C6FFE0E39
:10E768009D6FCEEC6AF0490E00019C6FFE0E9D6F06
:10E77800CEEC6AF0AD0E00019C6FFE0E9D6FCEECE4
:10E788006AF0DB0E00019C6FFD0E9D6FCEEC6AF007
:10E79800440E00019C6FFF0E9D6FCEEC6AF0140EC4
:10E7A80000019C6FFF0E9D6FCEEC6AF0880E000191
:10E7B8009C6FFF0E9D6FCEEC6AF02C0E00019C6FD3
:10E7C800FF0E9D6FCEEC6AF09A0E00019C6FFF0E53
:10E7D8009D6FCEEC6AF0120020EE11F0070EDE6A93
:10E7E800E806FDE209500A100B100C100D100E106F
:10E7F8000F101010D8B403EF74F005EF74F057EF52
:10E8080074F0010E196E13EF74F0D89009360A36B9
:10E818000B360C360D360E360F361036192A10AE5A
:10E8280018EF74F01AEF74F009EF74F0D8901136FD
:10E83800123613361436153616361736183609506A
:10E84800015C0A5002580B5003580C5004580D50E4
:10E8580005580E5006580F50075810500858D8A0A1
:10E8680038EF74F03AEF74F04BEF74F00950015E32
:10E878000A50025A0B50035A0C50045A0D50055AAC
:10E888000E50065A0F50075A1050085A1180D89047
:10E8980010320F320E320D320C320B320A3209327C
:10E8A800192E1AEF74F0600044F001F0600048F08F
:10E8B80002F060004CF003F0600050F004F06000DB
:10E8C80054F005F0600058F006F060005CF007F0C6
:10E8D800600060F008F01200000E126E08BE79EFBA
:10E8E80074F077EF74F08BEF74F0081E071E061EA5
:10E8F800051E041E031E021E016C000E02220322C6
:10E9080004220522062207220822010E126E10BEDA
:10E9180092EF74F090EF74F0A2EF74F0101E0F1ED7
:10E928000E1E0D1E0C1E0B1E0A1E096C000E0A225E
:10E938000B220C220D220E220F22102209500A103F
:10E948000B100C100D100E100F101010D8B4AFEFE4
:10E9580074F0B1EF74F0F9EF74F0010E116EBFEFBF
:10E9680074F0D89009360A360B360C360D360E364A
:10E978000F361036112A10AEC4EF74F0C6EF74F0DB
:10E98800B5EF74F00950015C0A5002580B50035857
:10E998000C5004580D5005580E5006580F50075883
:10E9A80010500858D8A0DBEF74F0DDEF74F0EDEFED
:10E9B80074F00950015E0A50025A0B50035A0C5069
:10E9C800045A0D50055A0E50065A0F50075A105047
:10E9D800085AD89010320F320E320D320C320B32E8
:10E9E8000A320932112EC6EF74F01250D8B4FFEF74
:10E9F80074F001EF75F011EF75F0081E071E061E82
:10EA0800051E041E031E021E016C000E02220322B4
:10EA180004220522062207220822600004F001F0E1
:10EA2800600008F002F060000CF003F0600010F0E5
:10EA380004F0600014F005F0600018F006F06000C3
:10EA48001CF007F0600020F008F01200000E126EB3
:10EA580010BE33EF75F031EF75F045EF75F0101E0D
:10EA68000F1E0E1E0D1E0C1E0B1E0A1E096C000E1C
:10EA78000A220B220C220D220E220F221022010E36
:10EA8800126E08BE4CEF75F04AEF75F05EEF75F048
:10EA9800081E071E061E051E041E031E021E016C0C
:10EAA800000E02220322042205220622072208223F
:10EAB800010E121A20EE13F0070EDE6AE806FDE2D8
:10EAC80009500A100B100C100D100E100F1010101A
:10EAD800D8B471EF75F073EF75F0C5EF75F0010EEE
:10EAE800116E81EF75F0D89009360A360B360C3660
:10EAF8000D360E360F361036112A10AE86EF75F029
:10EB080088EF75F077EF75F0D89013361436153610
:10EB180016361736183619361A360950015C0A5057
:10EB280002580B5003580C5004580D5005580E50FD
:10EB380006580F50075810500858D8A0A6EF75F07F
:10EB4800A8EF75F0B9EF75F00950015E0A50025A46
:10EB58000B50035A0C50045A0D50055A0E50065AC1
:10EB68000F50075A1050085A1380D89010320F329D
:10EB78000E320D320C320B320A320932112E88EF66
:10EB880075F01250D8B4CBEF75F0CDEF75F0DDEF1E
:10EB980075F01A1E191E181E171E161E151E141E95
:10EBA800136C000E1422152216221722182219227D
:10EBB8001A2260004CF001F0600050F002F0600092
:10EBC80054F003F0600058F004F060005CF005F0C9
:10EBD800600060F006F0600064F007F0600068F024
:10EBE80008F0120020EEDDF010EE11F0060E6F00B6
:10EBF8006FFFE3FFE806FBE2600038F01CF06000FE
:10EC08003CF01DF01C501D10D8A40DEF76F00FEF4E
:10EC180076F013EF76F0110E1C6E000E1D6E60007C
:10EC280070F001F0600074F002F051EC6BF06000DD
:10EC380004F020F0600008F021F0600090F11EF070
:10EC4800600094F11FF01FBE2CEF76F02EEF76F0E7
:10EC580045EF76F020501E5C1F50800A106E215040
:10EC6800800A1058D8A03BEF76F03DEF76F03FEFE2
:10EC780076F045EF76F0600078F020F060007CF0E8
:10EC880021F0600080F01EF0600084F01FF060004A
:10EC980088F11AF060008CF11BF0000166B157EFA3
:10ECA80076F059EF76F078EF76F069EF76F0000EAF
:10ECB800046E200E036E600030F005F0600034F042
:10ECC80006F024EC72F0204A212A1A50205C2150C8
:10ECD800800A106E1B50800A1058D8A076EF76F084
:10ECE80078EF76F05BEF76F0000E196E000E186E76
:10ECF80095EF76F0600073F0D9FF600077F0DAFFE7
:10ED0800DF50106E1050036E046A600030F005F09A
:10ED1800600034F006F024EC72F01C4A1D2A184AF0
:10ED2800192A1E50185C1950800A106E1F50800A4C
:10ED38001058D8A0A2EF76F0A4EF76F07EEF76F028
:10ED4800000166A1AAEF76F0ACEF76F0CBEF76F093
:10ED5800BCEF76F0000E046E200E036E600030F0FB
:10ED680005F0600034F006F024EC72F0204A212A05
:10ED78001A50205C2150800A106E1B50800A1058CF
:10ED8800D8A0C9EF76F0CBEF76F0AEEF76F0600062
:10ED980080F00CF0600084F00DF01200000E166E8A
:10EDA800000E156E000E0F6E000E0E6EDEEF76F082
:10EDB800084A092A010E146E600023F0F6FF60006D
:10EDC80027F0F7FFF86A0800F550200AD8B4EFEFEB
:10EDD80076F0F1EF76F011EF77F0F70E0A6EFF0E8E
:10EDE8000B6E600023F0F6FF600027F0F7FFF86A6B
:10EDF8000800F5500C6E0D6A0A500C260B500D22B7
:10EE08000D5009E1050E0C5CD8A00DEF77F00FEF5F
:10EE180077F011EF77F0000E146E600050F010F0EC
:10EE2800116A10501110D8A41CEF77F01EEF77F07C
:10EE3800DCEF76F028EF77F0000E0F6E010E0E6E05
:10EE4800084A092A65EF77F0600023F0F6FF6000B2
:10EE580027F0F7FFF86A0800F5500A6E0B6A0B50A6
:10EE6800000AD8B43AEF77F065EF77F00A502B0A2A
:10EE7800D8B424EF77F0060AD8B420EF77F065EF1E
:10EE880077F0600054F001F0600058F002F0000ED6
:10EE9800046E0A0E036EE4EC6AF0600023F0F6FFDD
:10EEA800600027F0F7FFF86A0800F550015E000ED1
:10EEB800025A300E0124156E000E0220166E24EF41
:10EEC80077F0D00E0A6EFF0E0B6E600023F0F6FF8F
:10EED800600027F0F7FFF86A0800F5500C6E0D6A1D
:10EEE8000A500C260B500D220D500AE10A0E0C5C3C
:10EEF800D8A081EF77F084EF77F0010E85EF77F0F7
:10EF0800000E126E136A12501310D8A48EEF77F009
:10EF180090EF77F045EF77F00E500F10D8A497EFE9
:10EF280077F099EF77F0ABEF77F0600054F00AF0E4
:10EF3800600058F00BF00A1E0B1E0A4A0B2A6000EC
:10EF480028F008F060002CF009F0B1EF77F06000CD
:10EF580054F008F0600058F009F01200000165BF95
:10EF6800B8EF77F0BAEF77F0BBEF77F0669365BF4D
:10EF7800C8EF77F0655106E16405D8B0C6EF77F0C1
:10EF8800C8EF77F0CEEF77F0000E316E010E306EDD
:10EF9800D4EF77F0600090F130F0600094F131F038
:10EFA800600088F132F060008CF133F0600080F08E
:10EFB80034F0600084F035F0600088F036F06000CE
:10EFC8008CF037F0600090F038F0600094F039F081
:10EFD800600098F03AF060009CF03BF0000E3D6E47
:10EFE8001F0E3C6E000E896F90EF78F03C06D8A09B
:10EFF8003D066A0E3C24D96E000E3D20DA6E600094
:10F00800D0F001F06000D4F002F06000D8F003F016
:10F018006000DCF004F06000E0F005F06000E4F06F
:10F0280006F06000E8F007F06000ECF008F00A0E67
:10F03800096E000E0A6E000E0B6E000E0C6E000EAE
:10F048000D6E000E0E6E000E0F6E000E106E90EC20
:10F0580072F0600004F028F0600008F029F0600009
:10F068000CF02AF0600010F02BF0600014F02CF087
:10F07800600018F02DF060001CF02EF0600020F009
:10F088002FF02850300FDF6E3006D8A03106320638
:10F09800D8A033066000D0F001F06000D4F002F090
:10F0A8006000D8F003F06000DCF004F06000E0F0ED
:10F0B80005F06000E4F006F06000E8F007F060009A
:10F0C800ECF008F00A0E096E000E0A6E000E0B6EC8
:10F0D800000E0C6E000E0D6E000E0E6E000E0F6E02
:10F0E800000E106EF0EC73F0600004F034F0600075
:10F0F80008F035F060000CF036F0600010F037F0E2
:10F10800600014F038F0600018F039F060001CF06E
:10F118003AF0600020F03BF03C503D10D8B497EF37
:10F1280078F099EF78F0CAEF78F03450351036104F
:10F138003710381039103A103B10D8A4A6EF78F0E1
:10F14800A8EF78F0FAEF77F031BEB5EF78F03150EC
:10F1580006E13004D8B0B3EF78F0B5EF78F0FAEF05
:10F1680077F033BEC0EF78F0335008E13204D8A00E
:10F17800C0EF78F0C2EF78F0CAEF78F0000166B31C
:10F18800C8EF78F0CAEF78F0FAEF77F0600078F01F
:10F1980013F060007CF014F06A0E3C24156E000E2B
:10F1A8003D20166E6000C8F017F06000CCF018F033
:10F1B80000EC73F060004CF01EF0600050F01FF09F
:10F1C8001200600080F038F0600084F039F06000D0
:10F1D80088F03AF060008CF03BF0600090F03CF072
:10F1E800600094F03DF0600098F03EF060009CF004
:10F1F8003FF03FBE02EF79F005EF79F0010E06EF20
:10F2080079F0000E366E376A36503710D8B40FEFE3
:10F2180079F011EF79F021EF79F03F1E3E1E3D1E87
:10F228003C1E3B1E3A1E391E386C000E39223A220B
:10F238003B223C223D223E223F22000165BF27EFB0
:10F2480079F029EF79F02AEF79F0669365BF37EF07
:10F2580079F0655106E16405D8B035EF79F037EFFC
:10F2680079F03DEF79F0000E336E010E326E43EF08
:10F2780079F0600090F132F0600094F133F06000B2
:10F2880088F134F060008CF135F036503710D8A48E
:10F2980050EF79F052EF79F059EF79F066A557EF12
:10F2A80079F059EF79F05CEF79F03406D8A035069B
:10F2B800000E416E1F0E406E000E896F02EF7AF04D
:10F2C8004006D8A041066A0E4024D96E000E41209F
:10F2D800DA6E6000E0F001F06000E4F002F0600037
:10F2E800E8F003F06000ECF004F06000F0F005F0E6
:10F2F8006000F4F006F06000F8F007F06000FCF041
:10F3080008F00A0E096E000E0A6E000E0B6E000E53
:10F318000C6E000E0D6E000E0E6E000E0F6E000EBF
:10F32800106E70EC74F0600004F028F0600008F0D3
:10F3380029F060000CF02AF0600010F02BF060005B
:10F3480014F02CF0600018F02DF060001CF02EF086
:10F35800600020F02FF06000A0F013F06000A8F02B
:10F3680014F0B9EC6BF01350300FDF6E3206D8A0F2
:10F3780033063406D8A035066000E0F001F06000DE
:10F38800E4F002F06000E8F003F06000ECF004F054
:10F398006000F0F005F06000F4F006F06000F8F0AE
:10F3A80007F06000FCF008F00A0E096E000E0A6E05
:10F3B800000E0B6E000E0C6E000E0D6E000E0E6E23
:10F3C800000E0F6E000E106E2AEC75F0600004F04F
:10F3D80038F0600008F039F060000CF03AF0600096
:10F3E80010F03BF0600014F03CF0600018F03DF0C5
:10F3F80060001CF03EF0600020F03FF041BE0DEFD1
:10F408007AF0415008E14004D8A00DEF7AF00FEFF0
:10F418007AF040EF7AF0385039103A103B103C102F
:10F428003D103E103F10D8A41CEF7AF01EEF7AF082
:10F4380064EF79F033BE2BEF7AF0335006E13204F3
:10F44800D8B029EF7AF02BEF7AF064EF79F035BE77
:10F4580036EF7AF0355008E13404D8A036EF7AF068
:10F4680038EF7AF040EF7AF0000166B33EEF7AF0B9
:10F4780040EF7AF064EF79F036503710D8A447EFB0
:10F488007AF049EF7AF051EF7AF0000166A54FEF74
:10F498007AF051EF7AF070EF7AF04006D8A0410682
:10F4A80036503710D8A45BEF7AF05DEF7AF063EF4F
:10F4B8007AF0000E316E2B0E306E67EF7AF0000E88
:10F4C800316E2D0E306E6A0E4024D96E000E41202A
:10F4D800DA6E6000C3F0DFFF600078F013F06000C0
:10F4E8007CF014F06A0E4024156E000E4120166E52
:10F4F8006000D0F017F06000D4F018F000EC73F062
:10F5080060004CF01EF0600050F01FF0120078EC24
:10F518006AF071EC73F089EC70F0F70E00019C6FE3
:10F52800FF0E9D6FCEEC6AF0DFEC6BF0CBAA9FEF7D
:10F538007AF0A1EF7AF0ABEF7AF0DE0E026EFF0EF2
:10F54800036E040E046E3BEC6FF0B3EF7AF0DB0E43
:10F55800026EFF0E036E070E046E3BEC6FF0A2EC1A
:10F5680069F0A8EC69F0A6EC69F0CBAABEEF7AF0D6
:10F57800C0EF7AF09CEF7BF0000E0001C26F000E26
:10F58800C16F10EC6EF08DEC6AF0390E01240001A9
:10F59800BB6F000E0220BC6F320E8BEC6FF095EF44
:10F5A8007BF08DEC6AF0600004F0BDF0600008F0BC
:10F5B800BEF00001BD51BB5DBE51BC59D8B0E7EFEC
:10F5C8007AF0E9EF7AF001EF7BF0BD1DB96FBE1D4F
:10F5D800BA6FBA5109E13A0EB95DD8A0F6EF7AF0E0
:10F5E800F8EF7AF001EF7BF036EC6AF0CBBAFFEF78
:10F5F8007AF001EF7BF0FAEF7AF050EC71F06000EE
:10F6080008F0BFF060000CF0C0F0180E0001C12532
:10F61800D96E0C0EC221DA6E10EE02F0BF51E1264F
:10F62800C051E2226F0098FFB9F06F0094FFBAF062
:10F63800D890BA33B933D890BA33B933B951DF6EE9
:10F64800300EC125D96E080EC221DA6E10EE06F012
:10F65800BF51E126C051E2226F0098FFB9F06F0058
:10F6680094FFBAF0D890BA33B933D890BA33B933D3
:10F67800B951DF6E480EC125D96E040EC221DA6E6B
:10F6880062EC6DF0040E0001B96FD89003320232BB
:10F69800B92F49EF7BF00250DF6EC14BC22BE80E49
:10F6A800C15D030EC259D8A05CEF7BF05EEF7BF022
:10F6B80067EF7BF036EC6AF0CBBA65EF7BF067EF6B
:10F6C8007BF060EF7BF06000FFF2D9FF600003F38E
:10F6D800DAFF010EDB5009E1FB0EDE5CD8A077EF04
:10F6E8007BF079EF7BF095EF7BF0000120EE08F0DE
:10F6F800BF51D926C051DA22010EDB5009E1FB0EB9
:10F70800DE5CD8A08AEF7BF08CEF7BF095EF7BF086
:10F7180036EC6AF0CBBA93EF7BF095EF7BF08EEF87
:10F728007BF0CBBA9AEF7BF09CEF7BF0D5EF7AF0C9
:10F73800CD80E2EC69F00009D8B4A5EF7BF0A7EF23
:10F748007BF076EF7CF0CD829DEC6EF00001C36F0C
:10F75800B8EC6AF00009D8B4B4EF7BF0B6EF7BF0F0
:10F76800C7EF7BF00001C35129EC6AF00D0E0001D0
:10F77800C319D8A4C2EF7BF0C4EF7BF0C7EF7BF0CE
:10F788000A0E29EC6AF0310E0001C319D8A4CFEF94
:10F798007BF0D1EF7BF0D5EF7BF053EC6EF075EF9B
:10F7A8007CF0320EC319D8A4DCEF7BF0DEEF7BF0DF
:10F7B800E2EF7BF089EC70F075EF7CF0400EC31936
:10F7C800D8A4E9EF7BF0EBEF7BF0EFEF7BF02EECCA
:10F7D80070F075EF7CF0030EC319D8A4F6EF7BF038
:10F7E800F8EF7BF0FDEF7BF0B70E1CEC6AF075EFDD
:10F7F8007CF0040EC319D8A404EF7CF006EF7CF06B
:10F808000AEF7CF0E6EC70F075EF7CF0130EC3198C
:10F81800D8A411EF7CF013EF7CF017EF7CF0BAEC72
:10F8280071F075EF7CF07E0EC319D8A41EEF7CF042
:10F8380020EF7CF024EF7CF065EC6AF075EF7CF04B
:10F848000D0EC319D8A42BEF7CF02DEF7CF031EF0F
:10F858007CF0DFEC6BF075EF7CF03C0EC319D8A49C
:10F8680038EF7CF03AEF7CF03FEF7CF0320EF6ECAC
:10F878006CF075EF7CF03E0EC319D8A446EF7CF00F
:10F8880048EF7CF04DEF7CF0320E2CEC6DF075EF0C
:10F898007CF07C0EC319D8A454EF7CF056EF7CF0B2
:10F8A8005BEF7CF0000EC0EC6CF075EF7CF01B0E8B
:10F8B800C319D8A462EF7CF064EF7CF068EF7CF0A9
:10F8C80071EC73F075EF7CF01F0EC3656EEF7CF082
:10F8D80070EF7CF075EF7CF0C35107EC6CF075EFBE
:10F8E8007CF0CD92CD909CEF7BF0FEEF7FF0600036
:10F8F80013F1D9FF600017F1DAFF6F007BFFF6FF05
:10F908006F0077FFF7FFF86A0800F550250AD8A4BA
:10F9180090EF7CF092EF7CF0C7EF7EF0600013F17F
:10F92800D9FF600017F1DAFFDE2A000EDD22000E93
:10F938000001636F000E626F62C066F063C067F01B
:10F9480064696569600013F1D9FF600017F1DAFF97
:10F958006F007BFFF6FF6F0077FFF7FFF86A08007C
:10F96800F5502A0AD8A4BBEF7CF0BDEF7CF0F0EF8D
:10F978007CF0600013F1D9FF600017F1DAFFDE2A8E
:10F98800000EDD2260001BF1D9FF60001FF1DAFFD5
:10F998006F007CFF48F0020EDE266F007CFF49F006
:10F9A800000EDD22600023F1D9FF600027F1DAFFA5
:10F9B8006F0078FF62F06F0074FF63F063BFE9EFD8
:10F9C8007CF0E7EF7CF040EF7DF06681626D631FAD
:10F9D800D8B0632B40EF7DF0600013F1D9FF6000D1
:10F9E80017F1DAFF6F0078FF08F06F0074FF09F075
:10F9F800D2EC76F0600020F062F0600024F063F052
:10FA08000FEF7DF0600013F1D9FF600017F1DAFF06
:10FA1800DE2A000EDD22D00E486EFF0E496E600011
:10FA280013F1D9FF600017F1DAFF6F007BFFF6FFD3
:10FA38006F0077FFF7FFF86A0800F5504A6E4B6AC7
:10FA480048504A2649504B224B500AE10A0E4A5C5C
:10FA5800D8A031EF7DF034EF7DF0010E35EF7DF069
:10FA6800000E5E6E5F6A5E505F10D8A43EEF7DF0B8
:10FA780040EF7DF006EF7DF0600013F1D9FF6000E4
:10FA880017F1DAFF6F007BFFF6FF6F0077FFF7FFD4
:10FA9800F86A0800F550640AD8B455EF7DF057EFBE
:10FAA8007DF06EEF7DF0600013F1D9FF600017F173
:10FAB800DAFF6F007BFFF6FF6F0077FFF7FFF86A4A
:10FAC8000800F550690AD8A46CEF7DF06EEF7DF060
:10FAD800C4EF7DF0600013F1D9FF600017F1DAFF81
:10FAE800DE2A000EDD2260001BF1D9FF60001FF145
:10FAF800DAFF6F007CFF48F0020EDE266F007CFF05
:10FB080049F0000EDD22600023F1D9FF600027F1E3
:10FB1800DAFF6F0078FF4CF06F0074FF4DF0000EB5
:10FB28004DBEFF0E4E6E4F6E506E516E526E536E3E
:10FB3800600008F11EF060000CF11FF0600030F169
:10FB480020F0600034F121F0600038F122F060000C
:10FB58003CF123F0600040F124F0600044F125F00E
:10FB6800600048F126F060004CF127F0E5EC78F0F1
:10FB7800600078F042F060007CF043F0EBEF7EF03C
:10FB8800600013F1D9FF600017F1DAFF6F007BFF07
:10FB9800F6FF6F0077FFF7FFF86A0800F550730A61
:10FBA800D8A4D9EF7DF0DBEF7DF016EF7EF0600092
:10FBB80013F1D9FF600017F1DAFFDE2A000EDD220B
:10FBC80060001BF1D9FF60001FF1DAFF6F007CFFB6
:10FBD80048F0020EDE266F007CFF49F0000EDD22A1
:10FBE800600023F1D9FF600027F1DAFF6F0078FF8A
:10FBF8005CF06F0074FF5DF0600008F10CF06000CD
:10FC08000CF10DF0600070F10EF0600074F10FF06F
:10FC1800F6EC75F0600030F042F0600034F043F02C
:10FC2800EBEF7EF0600013F1D9FF600017F1DAFF07
:10FC38006F007BFFF6FF6F0077FFF7FFF86A080099
:10FC4800F550750AD8A42BEF7EF02DEF7EF086EFE5
:10FC58007EF0600013F1D9FF600017F1DAFFDE2AA9
:10FC6800000EDD2260001BF1D9FF60001FF1DAFFF2
:10FC78006F007CFF48F0020EDE266F007CFF49F023
:10FC8800000EDD22600023F1D9FF600027F1DAFFC2
:10FC98006F0078FF4AF06F0074FF4BF0600028F1A6
:10FCA80054F060002CF155F0566A576A586A596A40
:10FCB8005A6A5B6A600008F11EF060000CF11FF0E0
:10FCC800600050F120F0600054F121F0600058F11C
:10FCD80022F060005CF123F0600060F124F0600025
:10FCE80064F125F0600068F126F060006CF127F0FF
:10FCF800B2EC77F0600078F042F060007CF043F0FE
:10FD0800EBEF7EF0600013F1D9FF600017F1DAFF26
:10FD18006F007BFFF6FF6F0077FFF7FFF86A0800B8
:10FD2800F550250AD8A49BEF7EF09DEF7EF0B8EF42
:10FD38007EF0600013F1D9FF600017F1DAFFDE2AC8
:10FD4800000EDD22000E046E250E036E600008F121
:10FD580005F060000CF106F024EC72F0000E436E22
:10FD6800010E426EEBEF7EF0600013F1D9FF6000E8
:10FD780017F1DAFFDE2A000EDD22000E436E000EB8
:10FD8800426EEBEF7EF0600013F1D9FF600017F1CF
:10FD9800DAFF6F007BFFF6FF6F0077FFF7FFF86A67
:10FDA8000800F550036E046A600008F105F0600071
:10FDB8000CF106F024EC72F0600013F1D9FF60003A
:10FDC80017F1DAFFDE2A000EDD22B2EF7EF0120014
:10FDD800003900090972657475726E2E204C43440F
:10FDE80020676F20746F207374617274206F6620AF
:10FDF8006C696E652074776F0D0A000D0A095468E6
:10FE080065205369676E61747572652066726F6DDF
:10FE1800203350692069733A2025730D0A000920A0
:10FE280020206374726C2B642E2044756D702073CF
:10FE3800656E736F7220312076616C7565730D0A7B
:10FE480000092020206374726C2B732E2050726975
:10FE58006E742053656E736F722056616C7565738E
:10FE68000D0A000909322E20446973706C617920EB
:10FE78006D562072656164696E6720696E204C4317
:10FE8800440D0A00094B5055204150534331323933
:10FE980039203370692D6D656E752D6261736963E4
:10FEA800330A0A0D0009097E2E204C4344206D6553
:10FEB80073736167652041505343313239390D0AF4
:10FEC800000909312E20446973706C6179206D56E0
:10FED8002072656164696E670D0A000909402E2069
:10FEE800506F6C6F6C75205369676E6174757265BD
:10FEF8003F0D0A00092020206374726C2B632E20AA
:10FF0800436C656172204C43440D0A0009093E2C7C
:10FF180020726F626F74207370696E2072696768EF
:10FF2800740D0A000920202020204573632C2050DE
:10FF380072696E74204D656E750D0A0009093C2CB6
:10FF480020726F626F74207370696E206C656674BE
:10FF58000D0A000D73656E736F722076616C75659E
:10FF680073203D202534752C20000D0A0942617448
:10FF78007465727920566F6C74616765203D200046
:10FF880009097C2C20726F626F742073746F700D76
:10FF98000A0009092D2D2D2D2D2D2D2D0D0A0A00B4
:10FFA80009092D2D2D2D2D2D2D2D0D0A0009092086
:10FFB800204D656E750A0D000D0A0A0A0A0A0A0A1A
:10FFC8000A0043616C20446F6E65002564206D56FD
:10FFD8000D0A004E6F20526F616D002575206D5619
:10FFE800002534750D0A00200D0A00253475003EE1
:03FFF800200000E6
:04FFFC0070EF6BF047
:020000040020DA
:10000000FF0FFF0FFF0FFF0FFF0FFF0FFF0FFF0F80
:020000040030CA
:0A000000ECFEF7FF9FFFFFFFFFFF7C
:00000001FF
