:020000040000FA
:040000000DEF00F010
:0400080019EF0BF0F1
:06001800FF002BEF0BF0CE
:1010000000094B50552041505343313239390A0AB7
:101010000D0009092D2D2D2D202D2D2D2D0A0A0D08
:101020000009092D2D2D2D202D2D2D2D0A0D000906
:10103000095445535420434F44450A0D00090945BE
:1010400043484F20544553540A0D00006000E3F01C
:10105000D9FF6000E7F0DAFF6F007BFFF6FF6F005B
:1010600077FFF7FFF86A0800F550250AD8A43BEF90
:1010700008F03DEF08F093EF08F06000E3F0D9FFCF
:101080006000E7F0DAFFDE2A000EDD22000E246E9B
:10109000000E236E60008CF027F0600090F028F0C6
:1010A000256826686000E3F0D9FF6000E7F0DAFF0A
:1010B0006F007BFFF6FF6F0077FFF7FFF86A08000D
:1010C000F550250AD8A467EF08F069EF08F084EF1F
:1010D00008F06000E3F0D9FF6000E7F0DAFFDE2AF5
:1010E000000EDD22000E2E6E250E2D6E6000D8F053
:1010F0002FF06000DCF030F07CEC09F0000E376E71
:10110000010E366EB7EF08F06000E3F0D9FF600023
:10111000E7F0DAFFDE2A000EDD22000E376E000E49
:10112000366EB7EF08F06000E3F0D9FF6000E7F03B
:10113000DAFF6F007BFFF6FF6F0077FFF7FFF86ABB
:101140000800F5502D6E2E6A6000D8F02FF0600078
:10115000DCF030F07CEC09F06000E3F0D9FF6000D7
:10116000E7F0DAFFDE2A000EDD227EEF08F0120043
:1011700054EC0BF02F0E446E100E456EF2EC0AF09C
:10118000210E446E100E456EF2EC0AF03D0E446ED8
:10119000100E456EF2EC0AF0120E446E100E456E03
:1011A000F2EC0AF0010E446E100E456EF2EC0AF0FD
:1011B000CD806DEC0BF00009D8B4E1EF08F0E3EF5F
:1011C00008F01AEF09F0CD82C7EC09F04A6EC6ECC0
:1011D0000AF00009D8B4EFEF08F0F1EF08F000EFE3
:1011E00009F04A503AEC0BF00D0E4A18D8A4FBEF68
:1011F00008F0FDEF08F000EF09F00A0E3AEC0BF0F2
:10120000DCEC0AF00009D8B408EF09F00AEF09F0A5
:1012100019EF09F04A5047EC0BF00D0E4A18D8A40C
:1012200014EF09F016EF09F019EF09F00A0E47EC78
:101230000BF0CD92CD90D8EF08F00DEF00F0000E3E
:10124000BE6E000EBD6E000EBA6E000EBB6E000EBE
:10125000BC6E070EC66EC268BF0EC36EBF0EC46EF4
:10126000FC0EC56E3A0170697F0E606F7F0E506F85
:10127000070E806F4069000E716F000E816F000EC7
:10128000516F000E416F000E616F000E5A6F000E1D
:101290005B6F000E6A6F000E6B6F000E7A6F000EB0
:1012A0007B6F000E826F000E426F000E526F000EB9
:1012B000626F000E726F4369536963697369070E49
:1012C000836F44695469646974690F0E846F579F12
:1012D000568F559F7C0E2B6E170E2C6EADEC0BF0BF
:1012E0003901908F0F0E3A01E86F160E0E6F130E34
:1012F000166F170EE56F12002F503010D8B483EF21
:1013000009F085EF09F08EEF09F02F503010D8A4C6
:101310008CEF09F08EEF09F093EF09F02D50B4EC4B
:101320000BF0C6EF09F020EE04F02F50D926305014
:10133000DA22DE50DE10D8B4A0EF09F0A2EF09F0F7
:10134000BDEF09F020EE04F02F50D9263050DA22FC
:1013500010EE02F02F50E1263050E222DE50E65C23
:10136000E650800A356EDE50800A3558D8B0BBEFA3
:1013700009F0BDEF09F0C6EF09F020EE02F02F50A2
:10138000D9263050DA22DE2A000EDD221200390181
:10139000A6A5CDEF09F0CFEF09F0C7EF09F0000ED9
:1013A000296E3D01E1A7D7EF09F0D9EF09F0E6EF8B
:1013B00009F0298202D8E6EF09F00500FA6E4F50D5
:1013C000FD6E5050FE6EFF6AFA5012003D01E1A31F
:1013D000ECEF09F0EEEF09F0FBEF09F0298402D8F9
:1013E000FBEF09F00500FA6E4D50FD6E4E50FE6E9B
:1013F000FF6AFA5012002950D8B401EF0AF003EF47
:101400000AF00FEF0AF002D80FEF0AF00500FA6EAB
:101410004B50FD6E4C50FE6EFF6AFA5012003D01BB
:10142000D05112006000F8F042F06000FCF043F090
:10143000000E226E000E216E34EF0AF06000F0F014
:1014400036F06000F4F037F0420E386E000E396E60
:10145000600000F13AF0600004F13BF026EC08F087
:10146000365021263750222260000BF1F6FF600033
:101470000FF1F7FFF86A0800F5500009D8A443EF10
:101480000AF045EF0AF01EEF0AF0600084F03CF02D
:10149000600088F03DF01200000E3D01EC6F000E80
:1014A000ED6F000EEE6F000EEF6F000EF06F000E8E
:1014B000F16FB00EF26F800EF36F000EF46F670ED7
:1014C000F56F000EF66F000EF76F000EF86F000E4E
:1014D000F96F000EFA6F000E2B6E000E2C6E9FEC53
:1014E0000BF0000E2B6E000E2C6E98EC0BF0000E25
:1014F0002B6E000E2C6EA6EC0BF0000E2A6E120066
:10150000000E3D01D46F000ED66F000ED86FB00EE6
:10151000DA6F800EDB6F000EDC6FE10EDD6F040E04
:10152000DE6F000EDF6F000EE06F000EE16F000E49
:10153000E26F780E2B6E170E2C6E8AEC0BF0760E87
:101540002B6E170E2C6E83EC0BF07A0E2B6E170E93
:101550002C6E91EC0BF0000E296E120057505810B3
:10156000D8B4B5EF0AF0B7EF0AF0C3EF0AF002D82B
:10157000C3EF0AF00500FA6E5750FD6E5850FE6E2C
:10158000FF6AFA5012003A01579F1200000E2B6EAC
:101590003901A6A7CEEF0AF0D0EF0AF0DAEF0AF091
:1015A0003D01DAABD6EF0AF0D8EF0AF0DAEF0AF035
:1015B000010E2B6E2B501200000E2B6E3901A3A9C9
:1015C000E4EF0AF0E6EF0AF0F0EF0AF03D01F2ABCB
:1015D000ECEF0AF0EEEF0AF0F0EF0AF0010E2B6EDE
:1015E0002B501200460E486E000E496E000E3C6EE7
:1015F000000E3D6E600010F13EF0600014F13FF00F
:10160000480E406E000E416E12EC0AF01200000E01
:101610003901C06F000EC16F000EC26F000EC36FA4
:10162000000EC46F000EC56F000EC66F000EC76FB0
:101630001200390190AF1FEF0BF021EF0BF02AEFF2
:101640000BF0A0AF26EF0BF028EF0BF02AEF0BF01A
:1016500078EC0BF0110000EE01F02A0EEE6AE806BD
:10166000FDE1080ED56E000ED66E000ED76E00019D
:10167000B8EF08F02B6E3901A6A741EF0BF043EF4E
:101680000BF03BEF0BF06000AFF0D2FD12002B6EC1
:101690003901A3A94EEF0BF050EF0BF048EF0BF020
:1016A0006000AFF0EAFD1200B9EC0BF007EC0BF0B4
:1016B0001FEC09F061EC0BF080EC0AF04CEC0AF046
:1016C0001200600E3901D96F000EDB6F000EDD6F66
:1016D000070EDF6F000EDE6F12003901A6B573EF43
:1016E0000BF076EF0BF0010E77EF0BF0000E12000F
:1016F0003A0157AF7EEF0BF080EF0BF082EF0BF06B
:10170000AEEC0AF012006000ACF04DF06000B0F0FA
:101710004EF012006000ACF04FF06000B0F050F0FE
:1017200012006000ACF04BF06000B0F04CF0120022
:101730006000ACF053F06000B0F054F012006000B4
:10174000ACF055F06000B0F056F012006000ACF064
:1017500051F06000B0F052F012006000ACF057F0B1
:101760006000B0F058F012002C6E2C503AEC0BF0E8
:0E1770001200D29A1200120012001200120093
:020000040020DA
:10000000FF0FFF0FFF0FFF0FFF0FFF0FFF0FFF0F80
:020000040030CA
:0A000000ECFEF7FF9FFFFFFFFFFF7C
:00000001FF
