:020000040000FA
:04000000FEEF7FF0A0
:10CE7000120012001200120012001200026E025084
:10CE8000AFEC67F01200600004F0D7F0600008F02B
:10CE9000D8F01200600004F0DBF0600008F0DCF075
:10CEA0001200600004F0D9F0600008F0DAF012001F
:10CEB000600004F0D1F0600008F0D2F012006000D1
:10CEC00004F0D5F0600008F0D6F01200600004F025
:10CED000D3F0600008F0D4F01200415053433132D7
:10CEE000393900286E756C6C2900B00EB96EF90ED8
:10CEF000B76E000EB66E3901A39F800EB86E120099
:10CF00003901A6B586EF67F089EF67F0010E8AEF69
:10CF100067F0000E12003901A3B791EF67F094EFAC
:10CF200067F0010E95EF67F0000E1200600E3901F8
:10CF3000D96F000EDB6F000EDD6F070EDF6F000E86
:10CF4000DE6F1200016E3901A3A9A9EF67F0ABEF04
:10CF500067F0A3EF67F0600007F0EAFD1200016ED2
:10CF60003901A6A7B6EF67F0B8EF67F0B0EF67F04A
:10CF7000600007F0D2FD120041EC68F00009D8B45F
:10CF8000C4EF67F0C6EF67F0BCEF67F0BC0EA2EC31
:10CF900067F01200DBEC67F010EC6DF096EC67F0D8
:10CFA00015EC68F084EC68F075EC67F0CAEC69F099
:10CFB000F9EC69F01200000E3901C06F000EC16F6C
:10CFC000000EC26F000EC36F000EC46F000EC56F5F
:10CFD000000EC66F000EC76F120020EEC1F010EEFB
:10CFE00008F0080E6F006FFFE3FFE806FBE2080E93
:10CFF000026E000E036E080E046E70EC6CF01200F0
:10D00000B2826F00C0FE08F06F00C4FE07F0075048
:10D01000036E0850056E60000CF006F0600014F01E
:10D0200001F0600018F002F01200000E3C01756F74
:10D030000C0E766F000E776F000E786F000E796F12
:10D04000020E7A6F000E7B6F000E7C6F000E7D6FFC
:10D05000810E746F1200000E016E3901A6A733EF26
:10D0600068F035EF68F03FEF68F03D01DAAB3BEF79
:10D0700068F03DEF68F03FEF68F0010E016E01507F
:10D080001200000E016E3901A3A949EF68F04BEFC1
:10D0900068F055EF68F03D01F2AB51EF68F053EFE7
:10D0A00068F055EF68F0010E016E01501200A40EF9
:10D0B0000001A86F000EA96F000E9A6F000E9B6F03
:10D0C000600088F29CF060008CF29DF0A80E9E6FCC
:10D0D000000E9F6F09EC6BF01200015003026F000D
:10D0E000CCFF05F06F00D0FF06F001500402F350B2
:10D0F000062602500302F3500626600014F001F0E9
:10D10000600018F002F01200000EB36E000EB46E54
:10D11000090EB56E000EB16E000EB06E3901A4910D
:10D12000B0506F00C4FE01F0026A600004F002F02B
:10D13000016A01100001DD6F0250DE6F070EB26E52
:10D140001200D00E036EFF0E046E600004F005F0B6
:10D15000600008F006F00350052604500622065031
:10D160000AE10A0E055CD8A0B8EF68F0BBEF68F0E2
:10D17000010EBCEF68F0000E016E026A1200600042
:10D1800004F003F0600008F004F0C9EF68F0014A11
:10D19000022A600007F0D9FF60000BF0DAFFDF50D1
:10D1A000D8A4D5EF68F0D7EF68F0C7EF68F0035068
:10D1B000015C016E04500258026E1200DA0EF66E27
:10D1C000CE0EF76E000EF86E00EEC1F010EE10F00D
:10D1D00009006F00D7FFEEFFE550E150F9E101EEE5
:10D1E00048F012EEB8F3EE6AE550E150FCE1E2508F
:10D1F000FAE100EE60F03A0EEE6AE806FDE10001A9
:10D2000083EF6EF0000E126E000E116E16EF69F0D5
:10D21000600040F003F0046A600038F005F0600040
:10D220003CF006F0BDEC6FF0114A122A11500C24AC
:10D23000D96E12500D20DA6EDF50106E1050D8A447
:10D2400024EF69F026EF69F008EF69F0120014BED0
:10D2500034EF69F0145006E11304D8B032EF69F0EE
:10D2600034EF69F046EF69F060004CF015F06000B3
:10D2700050F016F0151E161E154A162A600054F0BE
:10D2800013F0600058F014F04CEF69F060004CF0BF
:10D2900013F0600050F014F0120041EC68F0000947
:10D2A000D8B455EF69F057EF69F04DEF69F0B90E5A
:10D2B000A2EC67F041EC68F00009D8B462EF69F0C5
:10D2C00064EF69F05AEF69F0000EA2EC67F041ECF0
:10D2D00068F00009D8B46FEF69F071EF69F067EF9B
:10D2E00069F0010EA2EC67F01200026E41EC68F0EA
:10D2F0000009D8B47EEF69F080EF69F076EF69F04D
:10D30000B80EA2EC67F041EC68F00009D8B48BEFDE
:10D3100069F08DEF69F083EF69F0010EA2EC67F020
:10D3200041EC68F00009D8B498EF69F09AEF69F021
:10D3300090EF69F00250A2EC67F01200010E076E48
:10D34000200E01180210D8B4A8EF69F0AAEF69F016
:10D35000C5EF69F0F70E036EFF0E046E600004F077
:10D3600005F0600008F006F0035005260450062280
:10D37000065009E1050E055CD8A0C1EF69F0C3EFC6
:10D3800069F0C5EF69F0000E076E60001CF001F057
:10D39000026A1200000E3D01D46F000ED66F000E1F
:10D3A000D86FB00EDA6F800EDB6F000EDC6FE10E0F
:10D3B000DD6F040EDE6F000EDF6F000EE06F000EFB
:10D3C000E16F000EE26F720E016ECE0E026E5FEC28
:10D3D00067F0740E016ECE0E026E66EC67F0700E92
:10D3E000016ECE0E026E58EC67F0000E00016E6FFB
:10D3F0001200000E3D01EC6F000EED6F000EEE6F9F
:10D40000000EEF6F000EF06F000EF16FB00EF26FB6
:10D41000800EF36F000EF46F670EF56F000EF66F5F
:10D42000000EF76F000EF86F000EF96F000EFA6F26
:10D43000780E016ECE0E026E4AEC67F07A0E016E27
:10D44000CE0E026E51EC67F0760E016ECE0E026EBD
:10D4500043EC67F0000E00016F6F1200026E41ECAA
:10D4600068F00009D8B437EF6AF039EF6AF02FEFAF
:10D470006AF0C10EA2EC67F041EC68F00009D8B484
:10D4800044EF6AF046EF6AF03CEF6AF00250A2EC1B
:10D4900067F041EC68F00009D8B451EF6AF053EF3F
:10D4A0006AF049EF6AF0C50EA2EC67F041EC68F053
:10D4B0000009D8B45EEF6AF060EF6AF056EF6AF0E8
:10D4C0000250A2EC67F01200026E41EC68F0000915
:10D4D000D8B46DEF6AF06FEF6AF065EF6AF0C20ED4
:10D4E000A2EC67F041EC68F00009D8B47AEF6AF07A
:10D4F0007CEF6AF072EF6AF00250A2EC67F041EC48
:10D5000068F00009D8B487EF6AF089EF6AF07FEF1E
:10D510006AF0C50EA2EC67F041EC68F00009D8B4DF
:10D5200094EF6AF096EF6AF08CEF6AF00250A2EC8A
:10D5300067F01200026E41EC68F00009D8B4A3EF66
:10D540006AF0A5EF6AF09BEF6AF0C10EA2EC67F0FB
:10D5500041EC68F00009D8B4B0EF6AF0B2EF6AF0BD
:10D56000A8EF6AF00250A2EC67F041EC68F0000905
:10D57000D8B4BDEF6AF0BFEF6AF0B5EF6AF0C60E3F
:10D58000A2EC67F041EC68F00009D8B4CAEF6AF089
:10D59000CCEF6AF0C2EF6AF00250A2EC67F0120022
:10D5A000A60E0001AA6F000EAB6F600088F2ACF00F
:10D5B00060008CF2ADF0000EAF6F000EAE6F000E8B
:10D5C000B16F000EB06FAC0E9A6F000E9B6F6000D3
:10D5D00090F29CF0600094F29DF0AA0E9E6F000EF7
:10D5E0009F6F09EC6BF0600068F2A8F060006CF2CD
:10D5F000A9F00001AE51A225D96EAF51A321DA6E78
:10D60000000EDF6E6000A0F2A2F06000A4F2A3F0B2
:10D610001200600070F2A0F0600074F2A1F0000E41
:10D620000001616F000E606F2DEF6BF0600068F21B
:10D6300042F060006CF243F0A00E446E000E456EA6
:10D64000600078F246F060007CF247F068EC7CF015
:10D6500042500001602743506123600083F2F6FFCF
:10D66000600087F2F7FFF86A0800F5500009D8A4B7
:10D670003CEF6BF03EEF6BF016EF6BF0600080F16B
:10D680009AF0600084F19BF0120041EC68F0000910
:10D69000D8B44DEF6BF04FEF6BF045EF6BF0BA0E77
:10D6A000A2EC67F08BEC67F00009D8B45AEF6BF08E
:10D6B0005CEF6BF052EF6BF068EF6BF08BEC67F0A8
:10D6C0000009D8B466EF6BF068EF6BF05EEF6BF0BB
:10D6D00021EC6CF0630AD8A470EF6BF072EF6BF082
:10D6E0005EEF6BF041EC68F00009D8B47AEF6BF0B4
:10D6F0007CEF6BF072EF6BF0B70EA2EC67F0CB0E25
:10D70000026EFF0E036E080E046E70EC6CF01200D9
:10D71000650E0001A26FFF0EA36F57EC68F041EC9D
:10D7200068F00009D8B497EF6BF099EF6BF08FEFCA
:10D730006BF0B10EA2EC67F08BEC67F00009D8B487
:10D74000A4EF6BF0A6EF6BF09CEF6BF021EC6CF0AC
:10D750000001AE6F8BEC67F00009D8B4B2EF6BF04C
:10D76000B4EF6BF0AAEF6BF021EC6CF00001AF6F3F
:10D77000D40EA26FFF0EA36FAF51AD6FAC6BAE5165
:10D78000AC25A46F000EAD21A56F57EC68F0000129
:10D79000AF51AD6FAC6BAE51AC25AA6F000EAD2191
:10D7A000AB6F12003901A6A5D8EF6BF0DAEF6BF082
:10D7B000D2EF6BF0000E00016E6F3D01E1A7E3EFC9
:10D7C0006BF0E5EF6BF0F3EF6BF000016E8302D8C6
:10D7D000F3EF6BF00500FA6ED551FD6ED651FE6E7B
:10D7E000FF6AFA5012003D01E1A3F9EF6BF0FBEF85
:10D7F0006BF009EF6CF000016E8502D809EF6CF058
:10D800000500FA6ED351FD6ED451FE6EFF6AFA50D8
:10D81000120000016E51D8B410EF6CF012EF6CF0F2
:10D820001EEF6CF002D81EEF6CF00500FA6ED151BD
:10D83000FD6ED251FE6EFF6AFA5012003D01D051CA
:10D8400012003901A3A727EF6CF029EF6CF021EF4C
:10D850006CF0000E00016F6F3D01F9A732EF6CF024
:10D8600034EF6CF042EF6CF000016F8302D842EFAE
:10D870006CF00500FA6EDB51FD6EDC51FE6EFF6A46
:10D88000FA5012003D01F9A348EF6CF04AEF6CF03A
:10D8900058EF6CF000016F8502D858EF6CF005006E
:10D8A000FA6ED951FD6EDA51FE6EFF6AFA5012001F
:10D8B00000016F51D8B45FEF6CF061EF6CF06DEF69
:10D8C0006CF002D86DEF6CF00500FA6ED751FD6E6A
:10D8D000D851FE6EFF6AFA5012003D01E851120065
:10D8E000000E076E41EC68F00009D8B47AEF6CF0D6
:10D8F0007CEF6CF072EF6CF0B80EA2EC67F041ECCC
:10D9000068F00009D8B487EF6CF089EF6CF07FEF16
:10D910006CF00450A2EC67F0B6EF6CF041EC68F0EC
:10D920000009D8B496EF6CF098EF6CF0B6EF6CF09D
:10D9300007500224056E000E0320066E600017F0EB
:10D94000F6FF60001BF0F7FF000EF86E0F0EF76495
:10D9500003D00800F55007D06F00DBFFE1FF6F0038
:10D96000DFFFE2FFE750A2EC67F0072A0450075CF4
:10D97000D8A0BDEF6CF0BFEF6CF08EEF6CF0120032
:10D98000026E41EC68F00009D8B4C9EF6CF0CBEF3F
:10D990006CF0C1EF6CF0BB0EA2EC67F041EC68F0EC
:10D9A0000009D8B4D6EF6CF0D8EF6CF0CEEF6CF085
:10D9B0000250A2EC67F041EC68F00009D8B4E3EF44
:10D9C0006CF0E5EF6CF0DBEF6CF0010EA2EC67F0B1
:10D9D00041EC68F00009D8B4F0EF6CF0F2EF6CF0B5
:10D9E000E8EF6CF0140EA2EC67F041EC68F000096F
:10D9F000D8B4FDEF6CF0FFEF6CF0F5EF6CF0030EB8
:10DA0000A2EC67F041EC68F00009D8B40AEF6DF0C1
:10DA10000CEF6DF002EF6DF0020EA2EC67F0120059
:10DA2000000EBE6E000EBD6E000EBA6E000EBB6E16
:10DA3000000EBC6E070EC66EFE0EC26EBF0EC36E2B
:10DA4000BF0EC46EFC0EC56E3A0170697F0E606F2A
:10DA50005F0E506F070E806FFD0E406F000E716FEE
:10DA6000000E816F000E516F000E416F000E616F4E
:10DA7000000E5A6F000E5B6F000E6A6F000E6B6F28
:10DA8000000E7A6F000E7B6F000E826F000E426FE9
:10DA9000000E526F000E626F000E726F4369536981
:10DAA00063697369070E836F4469546964697469B3
:10DAB0000F0E846F0F0EE86F160E0E6F010ED96FEA
:10DAC000130E166F170EE56F010E006F1200000E99
:10DAD0000001B46F000EB66F060EB56F41EC68F032
:10DAE0000009D8B476EF6DF078EF6DF06EEF6DF061
:10DAF000810EA2EC67F093EF6DF08BEC67F00009FC
:10DB0000D8B485EF6DF087EF6DF093EF6DF0AD0E4B
:10DB10000001B425D96EDA6A000EDA2221EC6CF02D
:10DB2000DF6E0001B42B0001B451AA6FAB6BB5518D
:10DB3000AA5DAB51800AAC6FB651800AAC59D8A02F
:10DB4000A4EF6DF0A6EF6DF07DEF6DF0AD0EB52595
:10DB5000D96E000EB621DA6E000EDF6EDB0EA26FFC
:10DB6000FD0EA36FAD0EA46F000EA56F57EC68F00D
:10DB7000AD0E026E000E036E6000D4F204F070EC85
:10DB80006CF01200000E0001BE6F88EC6BF06000BC
:10DB9000A8F2BBF06000ACF2BCF0B20E0001A26FC4
:10DBA000000EA36FE40EA46FFF0EA56F6000ECF2F1
:10DBB000A6F06000F0F2A7F0D0EC6AF00001A251EC
:10DBC000BD6F41EC68F00009D8B4E9EF6DF0EBEF00
:10DBD0006DF0E1EF6DF0B80EA2EC67F041EC68F08B
:10DBE0000009D8B4F6EF6DF0F8EF6DF0EEEF6DF0E0
:10DBF0000001BD51A2EC67F014EF6EF041EC68F04B
:10DC00000009D8B406EF6EF008EF6EF014EF6EF076
:10DC1000B20E0001BE25D96EDA6A000EDA22DF509C
:10DC2000A2EC67F00001BE2B0001BD51BE5DD8A083
:10DC30001CEF6EF01EEF6EF0FEEF6DF01200000EA6
:10DC4000066E04BE28EF6EF026EF6EF02EEF6EF03B
:10DC5000036C041ED8B0042A010E066E02BE35EF16
:10DC60006EF033EF6EF03BEF6EF0016C021ED8B039
:10DC7000022A010E061A000E086E000E076E0350EF
:10DC80000410D8B446EF6EF048EF6EF070EF6EF00F
:10DC9000010E056E50EF6EF0D89003360436052A5B
:10DCA00004AE55EF6EF057EF6EF04CEF6EF0D8907B
:10DCB000073608360350015C04500258D8A063EFC1
:10DCC0006EF065EF6EF06AEF6EF00350015E045087
:10DCD000025A0780D89004320332052E57EF6EF0B7
:10DCE0000650D8B476EF6EF078EF6EF07CEF6EF001
:10DCF000076C081ED8B0082A60001CF001F0600014
:10DD000020F002F01200CAEC67F007EC72F0C2ECEF
:10DD10006DF0F80E0001A26FFF0EA36F57EC68F0D4
:10DD20004DEC69F0CBAA97EF6EF099EF6EF0A3EF90
:10DD30006EF0DF0E026EFF0E036E040E046E70ECCA
:10DD40006CF0ABEF6EF0DC0E026EFF0E036E070E92
:10DD5000046E70EC6CF0CBAAB0EF6EF0B2EF6EF028
:10DD6000B4EF6EF007EC7AF0CD8080EC67F000093C
:10DD7000D8B4BDEF6EF0BFEF6EF0E4EF6EF0CD8281
:10DD8000D2EC6BF00001C06F2BEC68F00009D8B446
:10DD9000CCEF6EF0CEEF6EF0DFEF6EF00001C05111
:10DDA000AFEC67F00D0E0001C019D8A4DAEF6EF0E9
:10DDB000DCEF6EF0DFEF6EF00A0EAFEC67F0000103
:10DDC000C051DCEC73F0CD92CD90ABEF6EF0FEEF76
:10DDD0007FF041EC68F00009D8B4F1EF6EF0F3EF9A
:10DDE0006EF0E9EF6EF0CD82870EA2EC67F0000EC8
:10DDF000126E8BEC67F00009D8B401EF6FF003EFFF
:10DE00006FF0F9EF6EF0080E1224D96EDA6A000E88
:10DE1000DA2221EC6CF0DF6E8BEC67F00009D8B4ED
:10DE200014EF6FF016EF6FF00CEF6FF00D0E122481
:10DE3000D96EDA6A000EDA2221EC6CF0DF6E0D0E7C
:10DE40001224D96EDA6A000EDA22DF50046E045012
:10DE5000066E056A080E1224D96EDA6A000EDA22FE
:10DE6000DF50076E07500526000E06221250020DE5
:10DE7000900EF324D96E000EF420DA6E600017F0D5
:10DE8000DEFF60001BF0DDFF122A040E12644BEF70
:10DE90006FF04DEF6FF0F9EF6EF0CD92900E026ED5
:10DEA000000E036E1200E9EC6EF0600008F0AAF0BC
:10DEB00060000CF0ABF04E0E0001A26FFF0EA36FDE
:10DEC0006000ABF2D9FF6000AFF2DAFF6F0078FFBD
:10DED000A4F06F0074FFA5F057EC68F05F0E00012E
:10DEE000A26FFF0EA36F20EE02F0AA51D926AB510C
:10DEF000DA226F0078FFA4F06F0074FFA5F057ECF2
:10DF000068F05F0E0001A26FFF0EA36F20EE04F019
:10DF1000AA51D926AB51DA226F0078FFA4F06F0026
:10DF200074FFA5F057EC68F05F0E0001A26FFF0EC2
:10DF3000A36F20EE06F0AA51D926AB51DA226F006A
:10DF400078FFA4F06F0074FFA5F057EC68F0F40EB2
:10DF50000001A26FFF0EA36F20EE08F0AA51D92690
:10DF6000AB51DA226F0078FFA4F06F0074FFA5F0C8
:10DF700057EC68F053EF6FF0120005500610D8B45C
:10DF8000C4EF6FF0C6EF6FF0CFEF6FF005500610E3
:10DF9000D8A4CDEF6FF0CFEF6FF0D4EF6FF0035058
:10DFA0003EEC67F028EF70F020EE04F00550D92623
:10DFB0000650DA22DE50DE10D8B4E1EF6FF0E3EF66
:10DFC0006FF0FEEF6FF020EE04F00550D9260650FA
:10DFD000DA2210EE02F00550E1260650E222DE5071
:10DFE000E65CE650800A0B6EDE50800A0B58D8B013
:10DFF000FCEF6FF0FEEF6FF028EF70F020EE02F014
:10E000000550D9260650DA226F0078FF07F06F001E
:10E0100074FF08F0600017F0D9FF60001BF0DAFF12
:10E020006F0078FF09F06F0074FF0AF007500924B1
:10E03000D96E08500A20DA6E60000FF0DFFF20EE84
:10E0400002F00550D9260650DA22DE2A000EDD2223
:10E05000120009500A100B100C100D100E100F10AA
:10E060001010D8B436EF70F038EF70F080EF70F029
:10E07000010E116E46EF70F0D89009360A360B3655
:10E080000C360D360E360F361036112A10AE4BEF09
:10E0900070F04DEF70F03CEF70F00950015C0A50E9
:10E0A00002580B5003580C5004580D5005580E5090
:10E0B00006580F50075810500858D8A062EF70F05B
:10E0C00064EF70F074EF70F00950015E0A50025A6C
:10E0D0000B50035A0C50045A0D50055A0E50065A54
:10E0E0000F50075A1050085AD89010320F320E3283
:10E0F0000D320C320B320A320932112E4DEF70F014
:10E10000600004F001F0600008F002F060000CF024
:10E1100003F0600010F004F0600014F005F06000FF
:10E1200018F006F060001CF007F0600020F008F026
:10E130001200000166A19FEF70F0A1EF70F0AFEF49
:10E1400070F0600054F00CF0600058F00DF06000CA
:10E150004CF00EF0600050F00FF002EC69F018BEC9
:10E16000B4EF70F0B6EF70F0BEEF70F060005CF0EE
:10E170001CF0600060F01DF0C2EF70F0000E1D6E2C
:10E18000000E1C6E000E1B6E000E1A6ED6EF70F0A5
:10E19000000E046E200E036E60004CF005F060006F
:10E1A00050F006F0BDEC6FF01A4A1B2A1C501A5CA6
:10E1B0001B50800A196E1D50800A1958D8A0E3EF31
:10E1C00070F0E5EF70F0C8EF70F0000166B1EBEFB2
:10E1D00070F0EDEF70F0FBEF70F0600054F00CF0B9
:10E1E000600058F00DF060004CF00EF0600050F050
:10E1F0000FF002EC69F0600054F001F0600058F09C
:10E2000002F0BFEC68F01C500124136E1D50022078
:10E21000146E120003BE0FEF71F011EF71F02DEFCD
:10E2200071F041EC68F00009D8B419EF71F01BEF00
:10E2300071F011EF71F0C10EA2EC67F041EC68F0E3
:10E240000009D8B426EF71F028EF71F01EEF71F0DD
:10E250000250A2EC67F048EF71F041EC68F0000961
:10E26000D8B435EF71F037EF71F02DEF71F0C20EC9
:10E27000A2EC67F041EC68F00009D8B442EF71F00D
:10E2800044EF71F03AEF71F002500008A2EC67F031
:10E2900005BE4DEF71F04FEF71F06BEF71F041EC97
:10E2A00068F00009D8B457EF71F059EF71F04FEFF3
:10E2B00071F0C50EA2EC67F041EC68F00009D8B42B
:10E2C00064EF71F066EF71F05CEF71F00450A2EC56
:10E2D00067F086EF71F041EC68F00009D8B473EF95
:10E2E00071F075EF71F06BEF71F0C60EA2EC67F094
:10E2F00041EC68F00009D8B480EF71F082EF71F062
:10E3000078EF71F004500008A2EC67F0120020EEE4
:10E3100011F0070EDE6AE806FDE209500A100B1044
:10E320000C100D100E100F101010D8B49AEF71F0E1
:10E330009CEF71F0EEEF71F0010E196EAAEF71F023
:10E34000D89009360A360B360C360D360E360F3697
:10E350001036192A10AEAFEF71F0B1EF71F0A0EFE7
:10E3600071F0D8901136123613361436153616362B
:10E37000173618360950015C0A5002580B500358E2
:10E380000C5004580D5005580E5006580F500758A1
:10E3900010500858D8A0CFEF71F0D1EF71F0E2EF34
:10E3A00071F00950015E0A50025A0B50035A0C508A
:10E3B000045A0D50055A0E50065A0F50075A105065
:10E3C000085A1180D89010320F320E320D320C32B2
:10E3D0000B320A320932192EB1EF71F0600044F0AD
:10E3E00001F0600048F002F060004CF003F06000C3
:10E3F00050F004F0600054F005F0600058F006F0B2
:10E4000060005CF007F0600060F008F01200F00EB1
:10E410000001A26FFF0EA36F57EC68F0C10E000160
:10E42000A26FFF0EA36F57EC68F0830E0001A26F7E
:10E43000FE0EA36F57EC68F0B60E0001A26FFF0E40
:10E44000A36F57EC68F0A90E0001A26FFF0EA36F37
:10E4500057EC68F0D60E0001A26FFE0EA36F57ECCA
:10E4600068F0BC0E0001A26FFE0EA36F57EC68F0BF
:10E47000430E0001A26FFE0EA36F57EC68F0EF0E83
:10E480000001A26FFE0EA36F57EC68F0FE0E0001B4
:10E49000A26FFD0EA36F57EC68F0210E0001A26F72
:10E4A000FE0EA36F57EC68F0640E0001A26FFE0E23
:10E4B000A36F57EC68F0A00E0001A26FFE0EA36FD1
:10E4C00057EC68F0B30E0001A26FFD0EA36F57EC7E
:10E4D00068F0370E0001A26FFF0EA36F57EC68F0D3
:10E4E000070E0001A26FFF0EA36F57EC68F07B0EC2
:10E4F0000001A26FFF0EA36F57EC68F01F0E000122
:10E50000A26FFF0EA36F57EC68F08D0E0001A26F93
:10E51000FF0EA36F57EC68F01200000E0001AD6F04
:10E52000000EAC6F5F0EA26FFF0EA36FA80EAC259E
:10E53000D96E0D0EAD21DA6EDF50AA6FAB6BD8909D
:10E54000AA37AB37D890AA37AB376000A8F2A4F04F
:10E550006000ACF2A5F057EC68F05F0E0001A26F0E
:10E56000FF0EA36F500EAC25D96E0B0EAD21DA6EE7
:10E57000DF50AA6FAB6BD890AA37AB37D890AA37C9
:10E58000AB376000A8F2A4F06000ACF2A5F057EC45
:10E5900068F05F0E0001A26FFF0EA36FF80EAC25AE
:10E5A000D96E080EAD21DA6EDF50AA6FAB6BD89032
:10E5B000AA37AB37D890AA37AB376000A8F2A4F0DF
:10E5C0006000ACF2A5F057EC68F05F0E0001A26F9E
:10E5D000FF0EA36FA00EAC25D96E060EAD21DA6E2C
:10E5E000DF50AA6FAB6BD890AA37AB37D890AA3759
:10E5F000AB376000A8F2A4F06000ACF2A5F057ECD5
:10E6000068F0EA0E0001A26FFF0EA36F480EAC2562
:10E61000D96E040EAD21DA6EDF50AA6FAA51A46F35
:10E62000A56B57EC68F00001AC4BAD2B580EAC5D00
:10E63000020EAD59D8A01FEF73F021EF73F092EFE7
:10E6400072F01200000E126E08BE2BEF73F029EF6D
:10E6500073F03DEF73F0081E071E061E051E041E14
:10E66000031E021E016C000E022203220422052258
:10E67000062207220822010E126E10BE44EF73F02C
:10E6800042EF73F054EF73F0101E0F1E0E1E0D1E9E
:10E690000C1E0B1E0A1E096C000E0A220B220C22F5
:10E6A0000D220E220F22102209500A100B100C10FE
:10E6B0000D100E100F101010D8B461EF73F063EF4F
:10E6C00073F0ABEF73F0010E116E71EF73F0D89031
:10E6D00009360A360B360C360D360E360F36103626
:10E6E000112A10AE76EF73F078EF73F067EF73F0E6
:10E6F0000950015C0A5002580B5003580C50045842
:10E700000D5005580E5006580F5007581050085815
:10E71000D8A08DEF73F08FEF73F09FEF73F0095077
:10E72000015E0A50025A0B50035A0C50045A0D5005
:10E73000055A0E50065A0F50075A1050085AD890D2
:10E7400010320F320E320D320C320B320A320932D5
:10E75000112E78EF73F01250D8B4B1EF73F0B3EF1D
:10E7600073F0C3EF73F0081E071E061E051E041E7D
:10E77000031E021E016C000E022203220422052247
:10E78000062207220822600004F001F0600008F071
:10E7900002F060000CF003F0600010F004F0600084
:10E7A00014F005F0600018F006F060001CF007F0AF
:10E7B000600020F008F012000001BF6F310E000170
:10E7C000BF19D8A4E6EF73F0E8EF73F0ECEF73F045
:10E7D00088EC6BF0A5EF74F0320EBF19D8A4F3EFFC
:10E7E00073F0F5EF73F0F9EF73F0C2EC6DF0A5EF95
:10E7F00074F0400EBF19D8A400EF74F002EF74F06B
:10E8000006EF74F067EC6DF0A5EF74F0030EBF191E
:10E81000D8A40DEF74F00FEF74F014EF74F0B70E8E
:10E82000A2EC67F0A5EF74F0040EBF19D8A41BEF9B
:10E8300074F01DEF74F021EF74F08DEC72F0A5EF21
:10E8400074F0130EBF19D8A428EF74F02AEF74F0F7
:10E850002EEF74F053EC6FF0A5EF74F0140EBF19A7
:10E86000D8A435EF74F037EF74F047EF74F09B0ED7
:10E87000A26FFF0EA36F00EC68F0600004F0A4F03C
:10E88000600008F0A5F057EC68F0A5EF74F07E0E7C
:10E89000BF19D8A44EEF74F050EF74F054EF74F039
:10E8A000EDEC67F0A5EF74F00D0EBF19D8A45BEF87
:10E8B00074F05DEF74F061EF74F04DEC69F0A5EF6A
:10E8C00074F03C0EBF19D8A468EF74F06AEF74F0CE
:10E8D0006FEF74F0320E64EC6AF0A5EF74F03E0E48
:10E8E000BF19D8A476EF74F078EF74F07DEF74F070
:10E8F000320E9AEC6AF0A5EF74F07C0EBF19D8A422
:10E9000084EF74F086EF74F08BEF74F0000E2EEC51
:10E910006AF0A5EF74F01B0EBF19D8A492EF74F043
:10E9200094EF74F098EF74F007EC72F0A5EF74F0C8
:10E930001F0EBF659EEF74F0A0EF74F0A5EF74F0AA
:10E94000BF5175EC69F0A5EF74F01200000E126E65
:10E9500010BEAFEF74F0ADEF74F0C1EF74F0101EA5
:10E960000F1E0E1E0D1E0C1E0B1E0A1E096C000E25
:10E970000A220B220C220D220E220F221022010E3F
:10E98000126E08BEC8EF74F0C6EF74F0DAEF74F0E0
:10E99000081E071E061E051E041E031E021E016C15
:10E9A000000E022203220422052206220722082248
:10E9B000010E121A20EE13F0070EDE6AE806FDE2E1
:10E9C00009500A100B100C100D100E100F10101023
:10E9D000D8B4EDEF74F0EFEF74F041EF75F0010E85
:10E9E000116EFDEF74F0D89009360A360B360C36EE
:10E9F0000D360E360F361036112A10AE02EF75F0B6
:10EA000004EF75F0F3EF74F0D89013361436153622
:10EA100016361736183619361A360950015C0A5060
:10EA200002580B5003580C5004580D5005580E5006
:10EA300006580F50075810500858D8A022EF75F00C
:10EA400024EF75F035EF75F00950015E0A50025A57
:10EA50000B50035A0C50045A0D50055A0E50065ACA
:10EA60000F50075A1050085A1380D89010320F32A6
:10EA70000E320D320C320B320A320932112E04EFF3
:10EA800075F01250D8B447EF75F049EF75F059EFB3
:10EA900075F01A1E191E181E171E161E151E141E9E
:10EAA000136C000E14221522162217221822192286
:10EAB0001A2260004CF001F0600050F002F060009B
:10EAC00054F003F0600058F004F060005CF005F0D2
:10EAD000600060F006F0600064F007F0600068F02D
:10EAE00008F0120020EECAF010EE11F0060E6F00D2
:10EAF0006FFFE3FFE806FBE2600038F01CF0600007
:10EB00003CF01DF01C501D10D8A489EF75F08BEF60
:10EB100075F08FEF75F0110E1C6E000E1D6E60000B
:10EB200070F001F0600074F002F0BFEC68F060007B
:10EB300004F020F0600008F021F0600090F11EF079
:10EB4000600094F11FF01FBEA8EF75F0AAEF75F0FA
:10EB5000C1EF75F020501E5C1F50800A106E2150CE
:10EB6000800A1058D8A0B7EF75F0B9EF75F0BBEF79
:10EB700075F0C1EF75F0600078F020F060007CF077
:10EB800021F0600080F01EF0600084F01FF0600053
:10EB900088F11AF060008CF11BF0000166B1D3EF30
:10EBA00075F0D5EF75F0F4EF75F0E5EF75F0000E48
:10EBB000046E200E036E600030F005F0600034F04B
:10EBC00006F0BDEC6FF0204A212A1A50205C21503B
:10EBD000800A106E1B50800A1058D8A0F2EF75F012
:10EBE000F4EF75F0D7EF75F0000E196E000E186E89
:10EBF00011EF76F0600073F0D9FF600077F0DAFF74
:10EC0000DF50106E1050036E046A600030F005F0A3
:10EC1000600034F006F0BDEC6FF01C4A1D2A184A63
:10EC2000192A1E50185C1950800A106E1F50800A55
:10EC30001058D8A01EEF76F020EF76F0FAEF75F0BE
:10EC4000000166A126EF76F028EF76F047EF76F028
:10EC500038EF76F0000E046E200E036E600030F088
:10EC600005F0600034F006F0BDEC6FF0204A212A78
:10EC70001A50205C2150800A106E1B50800A1058D8
:10EC8000D8A045EF76F047EF76F02AEF76F06000F7
:10EC900080F00CF0600084F00DF01200000E166E93
:10ECA000000E156E000E0F6E000E0E6E5AEF76F00F
:10ECB000084A092A010E146E600023F0F6FF600076
:10ECC00027F0F7FFF86A0800F550200AD8B46BEF78
:10ECD00076F06DEF76F08DEF76F0F70E0A6EFF0EA0
:10ECE0000B6E600023F0F6FF600027F0F7FFF86A74
:10ECF0000800F5500C6E0D6A0A500C260B500D22C0
:10ED00000D5009E1050E0C5CD8A089EF76F08BEF71
:10ED100076F08DEF76F0000E146E600050F010F07B
:10ED2000116A10501110D8A498EF76F09AEF76F08F
:10ED300058EF76F0A4EF76F0000E0F6E010E0E6E17
:10ED4000084A092AE1EF76F0600023F0F6FF600040
:10ED500027F0F7FFF86A0800F5500A6E0B6A0B50AF
:10ED6000000AD8B4B6EF76F0E1EF76F00A502B0A3D
:10ED7000D8B4A0EF76F0060AD8B49CEF76F0E1EFB5
:10ED800076F0600054F001F0600058F002F0000EE0
:10ED9000046E0A0E036E6DEC68F0600023F0F6FF5F
:10EDA000600027F0F7FFF86A0800F550015E000EDA
:10EDB000025A300E0124156E000E0220166EA0EFCE
:10EDC00076F0D00E0A6EFF0E0B6E600023F0F6FF99
:10EDD000600027F0F7FFF86A0800F5500C6E0D6A26
:10EDE0000A500C260B500D220D500AE10A0E0C5C45
:10EDF000D8A0FDEF76F000EF77F0010E01EF77F08D
:10EE0000000E126E136A12501310D8A40AEF77F096
:10EE10000CEF77F0C1EF76F00E500F10D8A413EF7F
:10EE200077F015EF77F027EF77F0600054F00AF0F5
:10EE3000600058F00BF00A1E0B1E0A4A0B2A6000F5
:10EE400028F008F060002CF009F02DEF77F060005A
:10EE500054F008F0600058F009F01200000165BF9E
:10EE600034EF77F036EF77F037EF77F0669365BFE2
:10EE700044EF77F0655106E16405D8B042EF77F0D2
:10EE800044EF77F04AEF77F0000E316E010E306EEE
:10EE900050EF77F0600090F130F0600094F131F0C5
:10EEA000600088F132F060008CF133F0600080F097
:10EEB00034F0600084F035F0600088F036F06000D7
:10EEC0008CF037F0600090F038F0600094F039F08A
:10EED000600098F03AF060009CF03BF0000E3D6E50
:10EEE0001F0E3C6E000E8F6F0CEF78F03C06D8A022
:10EEF0003D06700E3C24D96E000E3D20DA6E600097
:10EF0000D0F001F06000D4F002F06000D8F003F01F
:10EF10006000DCF004F06000E0F005F06000E4F078
:10EF200006F06000E8F007F06000ECF008F00A0E70
:10EF3000096E000E0A6E000E0B6E000E0C6E000EB7
:10EF40000D6E000E0E6E000E0F6E000E106E29EC90
:10EF500070F0600004F028F0600008F029F0600014
:10EF60000CF02AF0600010F02BF0600014F02CF090
:10EF7000600018F02DF060001CF02EF0600020F012
:10EF80002FF02850300FDF6E3006D8A03106320641
:10EF9000D8A033066000D0F001F06000D4F002F099
:10EFA0006000D8F003F06000DCF004F06000E0F0F6
:10EFB00005F06000E4F006F06000E8F007F06000A3
:10EFC000ECF008F00A0E096E000E0A6E000E0B6ED1
:10EFD000000E0C6E000E0D6E000E0E6E000E0F6E0B
:10EFE000000E106E87EC71F0600004F034F06000E9
:10EFF00008F035F060000CF036F0600010F037F0EB
:10F00000600014F038F0600018F039F060001CF077
:10F010003AF0600020F03BF03C503D10D8B413EFC4
:10F0200078F015EF78F046EF78F034503510361060
:10F030003710381039103A103B10D8A422EF78F06E
:10F0400024EF78F076EF77F031BE31EF78F0315081
:10F0500006E13004D8B02FEF78F031EF78F076EF9A
:10F0600077F033BE3CEF78F0335008E13204D8A09B
:10F070003CEF78F03EEF78F046EF78F0000166B3B1
:10F0800044EF78F046EF78F076EF77F0600078F0B4
:10F0900013F060007CF014F0700E3C24156E000E2E
:10F0A0003D20166E6000C8F017F06000CCF018F03C
:10F0B00099EC70F060004CF01EF0600050F01FF012
:10F0C0001200600080F038F0600084F039F06000D9
:10F0D00088F03AF060008CF03BF0600090F03CF07B
:10F0E000600094F03DF0600098F03EF060009CF00D
:10F0F0003FF03FBE7EEF78F081EF78F0010E82EFB7
:10F1000078F0000E366E376A36503710D8B48BEF71
:10F1100078F08DEF78F09DEF78F03F1E3E1E3D1E9B
:10F120003C1E3B1E3A1E391E386C000E39223A2214
:10F130003B223C223D223E223F22000165BFA3EF3D
:10F1400078F0A5EF78F0A6EF78F0669365BFB3EF9F
:10F1500078F0655106E16405D8B0B1EF78F0B3EF0F
:10F1600078F0B9EF78F0000E336E010E326EBFEF1B
:10F1700078F0600090F132F0600094F133F06000BC
:10F1800088F134F060008CF135F036503710D8A497
:10F19000CCEF78F0CEEF78F0D5EF78F066A5D3EF2E
:10F1A00078F0D5EF78F0D8EF78F03406D8A03506AF
:10F1B000000E416E1F0E406E000E8F6F7EEF79F0D5
:10F1C0004006D8A04106700E4024D96E000E4120A2
:10F1D000DA6E6000E0F001F06000E4F002F0600040
:10F1E000E8F003F06000ECF004F06000F0F005F0EF
:10F1F0006000F4F006F06000F8F007F06000FCF04A
:10F2000008F00A0E096E000E0A6E000E0B6E000E5C
:10F210000C6E000E0D6E000E0E6E000E0F6E000EC8
:10F22000106E22EC73F0600004F028F0600008F02B
:10F2300029F060000CF02AF0600010F02BF0600064
:10F2400014F02CF0600018F02DF060001CF02EF08F
:10F25000600020F02FF06000A0F013F06000A8F034
:10F2600014F027EC69F01350300FDF6E3206D8A08F
:10F2700033063406D8A035066000E0F001F06000E7
:10F28000E4F002F06000E8F003F06000ECF004F05D
:10F290006000F0F005F06000F4F006F06000F8F0B7
:10F2A00007F06000FCF008F00A0E096E000E0A6E0E
:10F2B000000E0B6E000E0C6E000E0D6E000E0E6E2C
:10F2C000000E0F6E000E106EA6EC74F0600004F0DD
:10F2D00038F0600008F039F060000CF03AF060009F
:10F2E00010F03BF0600014F03CF0600018F03DF0CE
:10F2F00060001CF03EF0600020F03FF041BE89EF5E
:10F3000079F0415008E14004D8A089EF79F08BEF03
:10F3100079F0BCEF79F0385039103A103B103C10BE
:10F320003D103E103F10D8A498EF79F09AEF79F095
:10F33000E0EF78F033BEA7EF79F0335006E1320406
:10F34000D8B0A5EF79F0A7EF79F0E0EF78F035BE0F
:10F35000B2EF79F0355008E13404D8A0B2EF79F07B
:10F36000B4EF79F0BCEF79F0000166B3BAEF79F051
:10F37000BCEF79F0E0EF78F036503710D8A4C3EF47
:10F3800079F0C5EF79F0CDEF79F0000166A5CBEF0C
:10F3900079F0CDEF79F0ECEF79F04006D8A0410696
:10F3A00036503710D8A4D7EF79F0D9EF79F0DFEFE6
:10F3B00079F0000E316E2B0E306EE3EF79F0000E17
:10F3C000316E2D0E306E700E4024D96E000E41202D
:10F3D000DA6E6000C3F0DFFF600078F013F06000C9
:10F3E0007CF014F0700E4024156E000E4120166E55
:10F3F0006000D0F017F06000D4F018F099EC70F0D5
:10F4000060004CF01EF0600050F01FF01200000E83
:10F410001D6E000E1C6E010E176E45EC6BF0320E69
:10F42000C0EC6CF060EF7CF01750D8B41AEF7AF0B3
:10F430001CEF7AF044EF7BF0E9EC6EF0600008F02E
:10F440001EF060000CF01FF060007BF0D9FF600040
:10F450007FF0DAFF010EDB5009E1FB0EDE5CD8A085
:10F4600034EF7AF036EF7AF051EF7AF020EE08F0D0
:10F470001E50D9261F50DA22010EDB5009E1FB0E87
:10F48000DE5CD8A046EF7AF048EF7AF051EF7AF0E0
:10F49000BCEC67F0CBBA4FEF7AF051EF7AF04AEF5D
:10F4A0007AF020EE02F01E50D9261F50DA22010E0B
:10F4B000DB5009E1C90EDE5CD8A061EF7AF063EFA2
:10F4C0007AF0B3EF7AF020EE06F01E50D9261F50E6
:10F4D000DA22010EDB5009E1C90EDE5CD8A073EF21
:10F4E0007AF075EF7AF0B3EF7AF0000E176EBCEC9D
:10F4F00067F020EE02F01E50D9261F50DA226F006E
:10F5000078FF13F06F0074FF14F020EE06F01E5029
:10F51000D9261F50DA226F0078FF15F06F0074FFB4
:10F5200016F01350155C016E14501658026E000E42
:10F53000046E400E036E1FEC6EF0600004F018F0D5
:10F54000600008F019F0320E1824026E000E192027
:10F55000036E18503208046E1950D8A0E82A00082B
:10F56000056E0AEC71F0A80E1C24D96E0D0E1D203C
:10F57000DA6E60007BF0E1FF60007FF0E2FF6F0079
:10F5800098FF13F06F0094FF14F0D89014321332E8
:10F59000D890143213321350DF6E500E1C24D96EE3
:10F5A0000B0E1D20DA6E10EE02F01E50E1261F50E9
:10F5B000E2226F0098FF13F06F0094FF14F0D890D0
:10F5C00014321332D890143213321350DF6EF80E07
:10F5D0001C24D96E080E1D20DA6E10EE04F01E50A9
:10F5E000E1261F50E2226F0098FF13F06F0094FF96
:10F5F00014F0D89014321332D890143213321350BE
:10F60000DF6EA00E1C24D96E060E1D20DA6E10EEE1
:10F6100006F01E50E1261F50E2226F0098FF13F003
:10F620006F0094FF14F0D89014321332D890143233
:10F6300013321350DF6E00EC68F0600004F06CF0E1
:10F64000600008F06DF0480E1C24D96E040E1D20D9
:10F65000DA6E6000B3F1DFFF1C4A1D2A580E1C5CF5
:10F66000020E1D58D8A037EF7BF039EF7BF060EF2A
:10F670007CF0BCEC67F0CBBA40EF7BF042EF7BF064
:10F680003BEF7BF060EF7CF0E9EC6EF0600008F09F
:10F690001EF060000CF01FF020EE02F01E50D92684
:10F6A0001F50DA226F0078FF13F06F0074FF14F020
:10F6B00020EE06F01E50D9261F50DA226F0078FF88
:10F6C00015F06F0074FF16F01350155C00016A6F9F
:10F6D000145016586B6F6000A8F101F06000ACF197
:10F6E00002F0000E046E400E036E1FEC6EF0600020
:10F6F00004F013F0600008F014F0000168516A5D36
:10F70000016E69516B59026E000E046E040E036E99
:10F710001FEC6EF0015013241A6E025014201B6E61
:10F720006AC068F06BC069F0320E1A24026E000ED7
:10F730001B20036E1A503208046E1B50D8A0E82A12
:10F740000008056E0AEC71F020EE02F01E50D9267A
:10F750001F50DA22010EDB5007E1320EDE5CD8B01A
:10F76000B4EF7BF0B6EF7BF0D0EF7BF020EE06F04D
:10F770001E50D9261F50DA22010EDB5007E1320E4F
:10F78000DE5CD8B0C6EF7BF0C8EF7BF0D0EF7BF04B
:10F79000010E176E000E2EEC6AF0320EC0EC6CF00B
:10F7A000A80E1C24D96E0D0E1D20DA6E60007BF0B1
:10F7B000E1FF60007FF0E2FF6F0098FF13F06F0041
:10F7C00094FF14F0D89014321332D89014321332BC
:10F7D0001350DF6E500E1C24D96E0B0E1D20DA6EF6
:10F7E00010EE02F01E50E1261F50E2226F0098FF3B
:10F7F00013F06F0094FF14F0D89014321332D890A5
:10F80000143213321350DF6EF80E1C24D96E080E1A
:10F810001D20DA6E10EE04F01E50E1261F50E22289
:10F820006F0098FF13F06F0094FF14F0D89014321B
:10F830001332D890143213321350DF6EA00E1C24F2
:10F84000D96E060E1D20DA6E10EE06F01E50E1266F
:10F850001F50E2226F0098FF13F06F0094FF14F026
:10F86000D89014321332D890143213321350DF6E02
:10F8700000EC68F0600004F06CF0600008F06DF0DF
:10F88000480E1C24D96E040E1D20DA6E6000B3F100
:10F89000DFFF1C4A1D2A580E1C5C020E1D58D8A002
:10F8A00054EF7CF056EF7CF060EF7CF0000E2EEC15
:10F8B0006AF0CBBA5EEF7CF060EF7CF059EF7CF041
:10F8C000CBBA65EF7CF067EF7CF014EF7AF01200B2
:10F8D000600013F1D9FF600017F1DAFF6F007BFFC2
:10F8E000F6FF6F0077FFF7FFF86A0800F550250A6A
:10F8F000D8A47DEF7CF07FEF7CF0B4EF7EF0600069
:10F9000013F1D9FF600017F1DAFFDE2A000EDD22C5
:10F91000000E0001636F000E626F62C066F063C08C
:10F9200067F064696569600013F1D9FF600017F141
:10F93000DAFF6F007BFFF6FF6F0077FFF7FFF86AD3
:10F940000800F5502A0AD8A4A8EF7CF0AAEF7CF0B2
:10F95000DDEF7CF0600013F1D9FF600017F1DAFFF2
:10F96000DE2A000EDD2260001BF1D9FF60001FF1CE
:10F97000DAFF6F007CFF48F0020EDE266F007CFF8E
:10F9800049F0000EDD22600023F1D9FF600027F16D
:10F99000DAFF6F0078FF62F06F0074FF63F063BFFF
:10F9A000D6EF7CF0D4EF7CF02DEF7DF06681626DB8
:10F9B000631FD8B0632B2DEF7DF0600013F1D9FFEA
:10F9C000600017F1DAFF6F0078FF08F06F0074FF36
:10F9D00009F04EEC76F0600020F062F0600024F058
:10F9E00063F0FCEF7CF0600013F1D9FF600017F1C9
:10F9F000DAFFDE2A000EDD22D00E486EFF0E496EC1
:10FA0000600013F1D9FF600017F1DAFF6F007BFF90
:10FA1000F6FF6F0077FFF7FFF86A0800F5504A6EAF
:10FA20004B6A48504A2649504B224B500AE10A0E75
:10FA30004A5CD8A01EEF7DF021EF7DF0010E22EF91
:10FA40007DF0000E5E6E5F6A5E505F10D8A42BEFF3
:10FA50007DF02DEF7DF0F3EF7CF0600013F1D9FF26
:10FA6000600017F1DAFF6F007BFFF6FF6F0077FF92
:10FA7000F7FFF86A0800F550640AD8B442EF7DF049
:10FA800044EF7DF05BEF7DF0600013F1D9FF600083
:10FA900017F1DAFF6F007BFFF6FF6F0077FFF7FFCC
:10FAA000F86A0800F550690AD8A459EF7DF05BEFB9
:10FAB0007DF0B1EF7DF0600013F1D9FF600017F128
:10FAC000DAFFDE2A000EDD2260001BF1D9FF6000A4
:10FAD0001FF1DAFF6F007CFF48F0020EDE266F0098
:10FAE0007CFF49F0000EDD22600023F1D9FF6000A9
:10FAF00027F1DAFF6F0078FF4CF06F0074FF4DF0D4
:10FB0000000E4DBEFF0E4E6E4F6E506E516E526E19
:10FB1000536E600008F11EF060000CF11FF06000F1
:10FB200030F120F0600034F121F0600038F122F073
:10FB300060003CF123F0600040F124F0600044F1EB
:10FB400025F0600048F126F060004CF127F061ECF0
:10FB500078F0600078F042F060007CF043F0D8EF7D
:10FB60007EF0600013F1D9FF600017F1DAFF6F003B
:10FB70007BFFF6FF6F0077FFF7FFF86A0800F5508C
:10FB8000730AD8A4C6EF7DF0C8EF7DF003EF7EF0D6
:10FB9000600013F1D9FF600017F1DAFFDE2A000ED2
:10FBA000DD2260001BF1D9FF60001FF1DAFF6F005A
:10FBB0007CFF48F0020EDE266F007CFF49F0000E4D
:10FBC000DD22600023F1D9FF600027F1DAFF6F002A
:10FBD00078FF5CF06F0074FF5DF0600008F10CF0DE
:10FBE00060000CF10DF0600070F10EF0600074F137
:10FBF0000FF072EC75F0600030F042F0600034F00D
:10FC000043F0D8EF7EF0600013F1D9FF600017F1E8
:10FC1000DAFF6F007BFFF6FF6F0077FFF7FFF86AF0
:10FC20000800F550750AD8A418EF7EF01AEF7EF0A0
:10FC300073EF7EF0600013F1D9FF600017F1DAFF77
:10FC4000DE2A000EDD2260001BF1D9FF60001FF1EB
:10FC5000DAFF6F007CFF48F0020EDE266F007CFFAB
:10FC600049F0000EDD22600023F1D9FF600027F18A
:10FC7000DAFF6F0078FF4AF06F0074FF4BF060000E
:10FC800028F154F060002CF155F0566A576A586A12
:10FC9000596A5A6A5B6A600008F11EF060000CF154
:10FCA0001FF0600050F120F0600054F121F060007E
:10FCB00058F122F060005CF123F0600060F124F064
:10FCC000600064F125F0600068F126F060006CF1DE
:10FCD00027F02EEC77F0600078F042F060007CF0C6
:10FCE00043F0D8EF7EF0600013F1D9FF600017F108
:10FCF000DAFF6F007BFFF6FF6F0077FFF7FFF86A10
:10FD00000800F550250AD8A488EF7EF08AEF7EF02F
:10FD1000A5EF7EF0600013F1D9FF600017F1DAFF64
:10FD2000DE2A000EDD22000E046E250E036E60003A
:10FD300008F105F060000CF106F0BDEC6FF0000E6C
:10FD4000436E010E426ED8EF7EF0600013F1D9FFD2
:10FD5000600017F1DAFFDE2A000EDD22000E436E8E
:10FD6000000E426ED8EF7EF0600013F1D9FF600004
:10FD700017F1DAFF6F007BFFF6FF6F0077FFF7FFE9
:10FD8000F86A0800F550036E046A600008F105F097
:10FD900060000CF106F0BDEC6FF0600013F1D9FFCC
:10FDA000600017F1DAFFDE2A000EDD229FEF7EF001
:10FDB000120000090972657475726E2E204C43445E
:10FDC00020676F20746F207374617274206F6620D7
:10FDD0006C696E652074776F0D0A000D0A0954680E
:10FDE00065205369676E61747572652066726F6D08
:10FDF000203350692069733A2025730D0A000920C9
:10FE000020206374726C2B642E2044756D702073F7
:10FE1000656E736F7220312076616C7565730D0AA3
:10FE200000092020206374726C2B732E205072699D
:10FE30006E742053656E736F722056616C756573B6
:10FE40000D0A000909322E20446973706C61792013
:10FE50006D562072656164696E6720696E204C433F
:10FE6000440D0A00092020206374726C2B742E202C
:10FE70005072696E7420544D52312056616C756514
:10FE80000D0A00094B505520415053433132393946
:10FE9000203370692D73746174652D310A0A0D0069
:10FEA00009097E2E204C4344206D6573736167659C
:10FEB0002041505343313239390D0A000909312E9E
:10FEC00020446973706C6179206D5620726561649D
:10FED000696E670D0A000909402E20506F6C6F6C27
:10FEE00075205369676E61747572653F0D0A00096C
:10FEF0002020206374726C2B632E20436C6561722A
:10FF0000204C43440D0A0009093E2C20726F626F99
:10FF100074207370696E2072696768740D0A000935
:10FF200020202020204573632C205072696E74209D
:10FF30004D656E750D0A0009093C2C20726F626FC9
:10FF400074207370696E206C6566740D0A000D7301
:10FF5000656E736F722076616C756573203D202528
:10FF600034752C20000D0A09426174746572792081
:10FF7000566F6C74616765203D200009097C2C2058
:10FF8000726F626F742073746F700D0A0009092D0F
:10FF90002D2D2D2D2D2D2D0D0A0A000D0A746963AE
:10FFA0006B73312025750D0A0009092D2D2D2D2D7E
:10FFB0002D2D2D0D0A00090920204D656E750A0DA5
:10FFC000000D0A0A0A0A0A0A0A0A0043616C204460
:10FFD0006F6E65002564206D560D0A004E6F20522D
:10FFE0006F616D002575206D56002534750D0A0072
:10FFF000200D0A00253475003E200000DEEF68F079
:020000040020DA
:10000000FF0FFF0FFF0FFF0FFF0FFF0FFF0FFF0F80
:020000040030CA
:0A000000ECFEF7FF9FFFFFFFFFFF7C
:00000001FF
