:020000040000FA
:04000000FEEF7FF0A0
:10CEC200120012001200120012001200026E025032
:10CED200D8EC67F01200600004F0D7F0600008F0B0
:10CEE200D8F01200600004F0DBF0600008F0DCF023
:10CEF2001200600004F0D9F0600008F0DAF01200CD
:10CF0200600004F0D1F0600008F0D2F0120060007E
:10CF120004F0D5F0600008F0D6F01200600004F0D2
:10CF2200D3F0600008F0D4F0120041505343313284
:10CF3200393900286E756C6C2900B00EB96EF90E85
:10CF4200B76E000EB66E3901A39F800EB86E120046
:10CF52003901A6B5AFEF67F0B2EF67F0010EB3EF9C
:10CF620067F0000E12003901A3B7BAEF67F0BDEF08
:10CF720067F0010EBEEF67F0000E1200600E39017D
:10CF8200D96F000EDB6F000EDD6F070EDF6F000E34
:10CF9200DE6F1200016E3901A3A9D2EF67F0D4EF60
:10CFA20067F0CCEF67F0600007F0EAFD1200016E57
:10CFB2003901A6A7DFEF67F0E1EF67F0D9EF67F07D
:10CFC200600007F0D2FD12006AEC68F00009D8B4E4
:10CFD200EDEF67F0EFEF67F0E5EF67F0BC0ECBEC3B
:10CFE20067F0120004EC68F039EC6DF0BFEC67F00A
:10CFF2003EEC68F0ADEC68F09EEC67F0F3EC69F0A3
:10D0020022EC6AF01200000E3901C06F000EC16FEF
:10D01200000EC26F000EC36F000EC46F000EC56F0C
:10D02200000EC66F000EC76F120020EEC1F010EEA8
:10D0320008F0080E6F006FFFE3FFE806FBE2080E40
:10D04200026E000E036E080E046E99EC6CF0120074
:10D05200B2826F00C0FE08F06F00C4FE07F00750F6
:10D06200036E0850056E60000CF006F0600014F0CC
:10D0720001F0600018F002F01200000E3C01756F22
:10D082000C0E766F000E776F000E786F000E796FC0
:10D09200020E7A6F000E7B6F000E7C6F000E7D6FAA
:10D0A200810E746F1200000E016E3901A6A75CEFAB
:10D0B20068F05EEF68F068EF68F03D01DAAB64EFAC
:10D0C20068F066EF68F068EF68F0010E016E0150DB
:10D0D2001200000E016E3901A3A972EF68F074EF1D
:10D0E20068F07EEF68F03D01F2AB7AEF68F07CEF1A
:10D0F20068F07EEF68F0010E016E01501200A40E7E
:10D102000001A86F000EA96F000E9A6F000E9B6FB0
:10D11200600088F29CF060008CF29DF0A80E9E6F79
:10D12200000E9F6F32EC6BF01200015003026F0091
:10D13200CCFF05F06F00D0FF06F001500402F3505F
:10D14200062602500302F3500626600014F001F096
:10D15200600018F002F01200000EB36E000EB46E02
:10D16200090EB56E000EB16E000EB06E3901A491BB
:10D17200B0506F00C4FE01F0026A600004F002F0D9
:10D18200016A01100001DD6F0250DE6F070EB26E00
:10D192001200D00E036EFF0E046E600004F005F064
:10D1A200600008F006F003500526045006220650DF
:10D1B2000AE10A0E055CD8A0E1EF68F0E4EF68F03E
:10D1C200010EE5EF68F0000E016E026A12006000C7
:10D1D20004F003F0600008F004F0F2EF68F0014A96
:10D1E200022A600007F0D9FF60000BF0DAFFDF507F
:10D1F200D8A4FEEF68F000EF69F0F0EF68F003509A
:10D20200015C016E04500258026E12002C0EF66E82
:10D21200CF0EF76E000EF86E00EEC1F010EE10F0B9
:10D2220009006F00D7FFEEFFE550E150F9E101EE92
:10D2320048F012EEB8F3EE6AE550E150FCE1E2503C
:10D24200FAE100EE60F03A0EEE6AE806FDE1000156
:10D2520005EF6FF0000E126E000E116E3FEF69F0D7
:10D26200600040F003F0046A600038F005F06000EE
:10D272003CF006F03FEC70F0114A122A11500C24D7
:10D28200D96E12500D20DA6EDF50106E1050D8A4F5
:10D292004DEF69F04FEF69F031EF69F0120014BE03
:10D2A2005DEF69F0145006E11304D8B05BEF69F04A
:10D2B2005DEF69F06FEF69F060004CF015F060000F
:10D2C20050F016F0151E161E154A162A600054F06C
:10D2D20013F0600058F014F075EF69F060004CF044
:10D2E20013F0600050F014F012006AEC68F00009CC
:10D2F200D8B47EEF69F080EF69F076EF69F0B90E8D
:10D30200CBEC67F06AEC68F00009D8B48BEF69F0F7
:10D312008DEF69F083EF69F0000ECBEC67F06AECF9
:10D3220068F00009D8B498EF69F09AEF69F090EFCD
:10D3320069F0010ECBEC67F01200026E6AEC68F045
:10D342000009D8B4A7EF69F0A9EF69F09FEF69F07F
:10D35200B80ECBEC67F06AEC68F00009D8B4B4EF11
:10D3620069F0B6EF69F0ACEF69F0010ECBEC67F053
:10D372006AEC68F00009D8B4C1EF69F0C3EF69F054
:10D38200B9EF69F00250CBEC67F01200010E076EA4
:10D39200200E01180210D8B4D1EF69F0D3EF69F072
:10D3A200EEEF69F0F70E036EFF0E046E600004F0FC
:10D3B20005F0600008F006F003500526045006222E
:10D3C200065009E1050E055CD8A0EAEF69F0ECEF22
:10D3D20069F0EEEF69F0000E076E60001CF001F0DC
:10D3E200026A1200000E3D01D46F000ED66F000ECD
:10D3F200D86FB00EDA6F800EDB6F000EDC6FE10EBD
:10D40200DD6F040EDE6F000EDF6F000EE06F000EA8
:10D41200E16F000EE26FC40E016ECE0E026E88EC5A
:10D4220067F0C60E016ECE0E026E8FEC67F0C20E72
:10D43200016ECE0E026E81EC67F0000E00016E6F7F
:10D442001200000E3D01EC6F000EED6F000EEE6F4C
:10D45200000EEF6F000EF06F000EF16FB00EF26F64
:10D46200800EF36F000EF46F670EF56F000EF66F0D
:10D47200000EF76F000EF86F000EF96F000EFA6FD4
:10D48200CA0E016ECE0E026E73EC67F0CC0E016E08
:10D49200CE0E026E7AEC67F0C80E016ECE0E026EF0
:10D4A2006CEC67F0000E00016F6F1200026E6AEC06
:10D4B20068F00009D8B460EF6AF062EF6AF058EFE2
:10D4C2006AF0C10ECBEC67F06AEC68F00009D8B4E0
:10D4D2006DEF6AF06FEF6AF065EF6AF00250CBEC25
:10D4E20067F06AEC68F00009D8B47AEF6AF07CEF72
:10D4F2006AF072EF6AF0C50ECBEC67F06AEC68F086
:10D502000009D8B487EF6AF089EF6AF07FEF6AF01A
:10D512000250CBEC67F01200026E6AEC68F0000970
:10D52200D8B496EF6AF098EF6AF08EEF6AF0C20E06
:10D53200CBEC67F06AEC68F00009D8B4A3EF6AF0AC
:10D54200A5EF6AF09BEF6AF00250CBEC67F06AEC51
:10D5520068F00009D8B4B0EF6AF0B2EF6AF0A8EF51
:10D562006AF0C50ECBEC67F06AEC68F00009D8B43B
:10D57200BDEF6AF0BFEF6AF0B5EF6AF00250CBEC94
:10D5820067F01200026E6AEC68F00009D8B4CCEFC2
:10D592006AF0CEEF6AF0C4EF6AF0C10ECBEC67F02E
:10D5A2006AEC68F00009D8B4D9EF6AF0DBEF6AF0F0
:10D5B200D1EF6AF00250CBEC67F06AEC68F0000938
:10D5C200D8B4E6EF6AF0E8EF6AF0DEEF6AF0C60E72
:10D5D200CBEC67F06AEC68F00009D8B4F3EF6AF0BC
:10D5E200F5EF6AF0EBEF6AF00250CBEC67F0120055
:10D5F200A60E0001AA6F000EAB6F600088F2ACF0BD
:10D6020060008CF2ADF0000EAF6F000EAE6F000E38
:10D61200B16F000EB06FAC0E9A6F000E9B6F600080
:10D6220090F29CF0600094F29DF0AA0E9E6F000EA4
:10D632009F6F32EC6BF0600068F2A8F060006CF251
:10D64200A9F00001AE51A225D96EAF51A321DA6E25
:10D65200000EDF6E6000A0F2A2F06000A4F2A3F060
:10D662001200600070F2A0F0600074F2A1F0000EEF
:10D672000001616F000E606F56EF6BF0600068F2A0
:10D6820042F060006CF243F0A00E446E000E456E54
:10D69200600078F246F060007CF247F068EC7CF0C3
:10D6A20042500001602743506123600083F2F6FF7D
:10D6B200600087F2F7FFF86A0800F5500009D8A465
:10D6C20065EF6BF067EF6BF03FEF6BF0600080F19E
:10D6D2009AF0600084F19BF012006AEC68F0000995
:10D6E200D8B476EF6BF078EF6BF06EEF6BF0BA0EAA
:10D6F200CBEC67F0B4EC67F00009D8B483EF6BF0C1
:10D7020085EF6BF07BEF6BF091EF6BF0B4EC67F0B1
:10D712000009D8B48FEF6BF091EF6BF087EF6BF0ED
:10D722004AEC6CF0630AD8A499EF6BF09BEF6BF0B4
:10D7320087EF6BF06AEC68F00009D8B4A3EF6BF0E6
:10D74200A5EF6BF09BEF6BF0B70ECBEC67F0CB0E57
:10D75200026EFF0E036E080E046E99EC6CF012005E
:10D76200650E0001A26FFF0EA36F80EC68F06AECF9
:10D7720068F00009D8B4C0EF6BF0C2EF6BF0B8EFFD
:10D782006BF0B10ECBEC67F0B4EC67F00009D8B4E3
:10D79200CDEF6BF0CFEF6BF0C5EF6BF04AEC6CF0B6
:10D7A2000001AE6FB4EC67F00009D8B4DBEF6BF0A8
:10D7B200DDEF6BF0D3EF6BF04AEC6CF00001AF6F72
:10D7C200D40EA26FFF0EA36FAF51AD6FAC6BAE5113
:10D7D200AC25A46F000EAD21A56F80EC68F00001AE
:10D7E200AF51AD6FAC6BAE51AC25AA6F000EAD213F
:10D7F200AB6F12003901A6A501EF6CF003EF6CF0DC
:10D80200FBEF6BF0000E00016E6F3D01E1A70CEF24
:10D812006CF00EEF6CF01CEF6CF000016E8302D81E
:10D822001CEF6CF00500FA6ED551FD6ED651FE6EFE
:10D83200FF6AFA5012003D01E1A322EF6CF024EFDF
:10D842006CF032EF6CF000016E8502D832EF6CF0B2
:10D852000500FA6ED351FD6ED451FE6EFF6AFA5086
:10D86200120000016E51D8B439EF6CF03BEF6CF04E
:10D8720047EF6CF002D847EF6CF00500FA6ED15119
:10D88200FD6ED251FE6EFF6AFA5012003D01D05178
:10D8920012003901A3A750EF6CF052EF6CF04AEF7F
:10D8A2006CF0000E00016F6F3D01F9A75BEF6CF0A9
:10D8B2005DEF6CF06BEF6CF000016F8302D86BEFE1
:10D8C2006CF00500FA6EDB51FD6EDC51FE6EFF6AF4
:10D8D200FA5012003D01F9A371EF6CF073EF6CF096
:10D8E20081EF6CF000016F8502D881EF6CF00500CA
:10D8F200FA6ED951FD6EDA51FE6EFF6AFA501200CD
:10D9020000016F51D8B488EF6CF08AEF6CF096EF9B
:10D912006CF002D896EF6CF00500FA6ED751FD6EEE
:10D92200D851FE6EFF6AFA5012003D01E851120012
:10D93200000E076E6AEC68F00009D8B4A3EF6CF031
:10D94200A5EF6CF09BEF6CF0B80ECBEC67F06AECD5
:10D9520068F00009D8B4B0EF6CF0B2EF6CF0A8EF49
:10D962006CF00450CBEC67F0DFEF6CF06AEC68F01F
:10D972000009D8B4BFEF6CF0C1EF6CF0DFEF6CF0D0
:10D9820007500224056E000E0320066E600017F099
:10D99200F6FF60001BF0F7FF000EF86E0F0EF76443
:10D9A20003D00800F55007D06F00DBFFE1FF6F00E6
:10D9B200DFFFE2FFE750CBEC67F0072A0450075C79
:10D9C200D8A0E6EF6CF0E8EF6CF0B7EF6CF0120065
:10D9D200026E6AEC68F00009D8B4F2EF6CF0F4EF72
:10D9E2006CF0EAEF6CF0BB0ECBEC67F06AEC68F01F
:10D9F2000009D8B4FFEF6CF001EF6DF0F7EF6CF0B7
:10DA02000250CBEC67F06AEC68F00009D8B40CEF76
:10DA12006DF00EEF6DF004EF6DF0010ECBEC67F0E0
:10DA22006AEC68F00009D8B419EF6DF01BEF6DF0E5
:10DA320011EF6DF0140ECBEC67F06AEC68F00009A0
:10DA4200D8B426EF6DF028EF6DF01EEF6DF0030EE7
:10DA5200CBEC67F06AEC68F00009D8B433EF6DF0F4
:10DA620035EF6DF02BEF6DF0020ECBEC67F012008C
:10DA7200000EBE6E000EBD6E000EBA6E000EBB6EC4
:10DA8200000EBC6E070EC66EFE0EC26EBF0EC36ED9
:10DA9200BF0EC46EFC0EC56E3A0170697F0E606FD8
:10DAA2005F0E506F070E806FFD0E406F000E716F9C
:10DAB200000E816F000E516F000E416F000E616FFC
:10DAC200000E5A6F000E5B6F000E6A6F000E6B6FD6
:10DAD200000E7A6F000E7B6F000E826F000E426F97
:10DAE200000E526F000E626F000E726F436953692F
:10DAF20063697369070E836F446954696469746961
:10DB02000F0E846F0F0EE86F160E0E6F010ED96F97
:10DB1200130E166F170EE56F010E006F120020EE46
:10DB220002F00950D9260A50DA226F0078FF0BF072
:10DB32006F0074FF0CF020EE06F00950D9260A504F
:10DB4200DA226F0078FF0DF06F0074FF0EF00B50B9
:10DB52000D5C00016A6F0C500E586B6F6000A8F1EB
:10DB620001F06000ACF102F0000E046E400E036E94
:10DB7200A1EC6EF0600004F00BF0600008F00CF015
:10DB8200000168516A5D016E69516B59026E000EA7
:10DB9200046E040E036EA1EC6EF001500B240F6EA6
:10DBA20002500C20106E6AC068F06BC069F0320E31
:10DBB2000F24026E000E1020036E0F503208046E06
:10DBC2001050D8A0E82A0008056E8CEC71F0120003
:10DBD200000E0001B46F000EB66F060EB56F6AEC50
:10DBE20068F00009D8B4F8EF6DF0FAEF6DF0F0EFDD
:10DBF2006DF0810ECBEC67F015EF6EF0B4EC67F0D0
:10DC02000009D8B407EF6EF009EF6EF015EF6EF071
:10DC1200AD0E0001B425D96EDA6A000EDA224AECA2
:10DC22006CF0DF6E0001B42B0001B451AA6FAB6B34
:10DC3200B551AA5DAB51800AAC6FB651800AAC599E
:10DC4200D8A026EF6EF028EF6EF0FFEF6DF0AD0E6C
:10DC5200B525D96E000EB621DA6E000EDF6EDB0E30
:10DC6200A26FFD0EA36FAD0EA46F000EA56F80EC28
:10DC720068F0AD0E026E000E036E6000D4F204F086
:10DC820099EC6CF01200000E0001BE6FB1EC6BF06B
:10DC92006000A8F2BBF06000ACF2BCF0B20E000172
:10DCA200A26F000EA36FE40EA46FFF0EA56F6000BB
:10DCB200ECF2A6F06000F0F2A7F0F9EC6AF00001D5
:10DCC200A251BD6F6AEC68F00009D8B46BEF6EF038
:10DCD2006DEF6EF063EF6EF0B80ECBEC67F06AECAE
:10DCE20068F00009D8B478EF6EF07AEF6EF070EF5A
:10DCF2006EF00001BD51CBEC67F096EF6EF06AEC6E
:10DD020068F00009D8B488EF6EF08AEF6EF096EFF3
:10DD12006EF0B20E0001BE25D96EDA6A000EDA226A
:10DD2200DF50CBEC67F00001BE2B0001BD51BE5DA0
:10DD3200D8A09EEF6EF0A0EF6EF080EF6EF01200B2
:10DD4200000E066E04BEAAEF6EF0A8EF6EF0B0EF02
:10DD52006EF0036C041ED8B0042A010E066E02BED9
:10DD6200B7EF6EF0B5EF6EF0BDEF6EF0016C021E14
:10DD7200D8B0022A010E061A000E086E000E076EB7
:10DD820003500410D8B4C8EF6EF0CAEF6EF0F2EF91
:10DD92006EF0010E056ED2EF6EF0D89003360436A7
:10DDA200052A04AED7EF6EF0D9EF6EF0CEEF6EF02B
:10DDB200D890073608360350015C04500258D8A0A8
:10DDC200E5EF6EF0E7EF6EF0ECEF6EF00350015E00
:10DDD2000450025A0780D89004320332052ED9EF3C
:10DDE2006EF00650D8B4F8EF6EF0FAEF6EF0FEEF78
:10DDF2006EF0076C081ED8B0082A60001CF001F013
:10DE0200600020F002F01200F3EC67F089EC72F08F
:10DE120044EC6EF0F80E0001A26FFF0EA36F80ECCF
:10DE220068F076EC69F0CBAA19EF6FF01BEF6FF098
:10DE320025EF6FF0DF0E026EFF0E036E040E046E0E
:10DE420099EC6CF02DEF6FF0DC0E026EFF0E036E9C
:10DE5200070E046E99EC6CF0CBAA32EF6FF034EF40
:10DE62006FF036EF6FF089EC7AF0CD80A9EC67F0B5
:10DE72000009D8B43FEF6FF041EF6FF066EF6FF03B
:10DE8200CD82FBEC6BF00001C06F54EC68F000092E
:10DE9200D8B44EEF6FF050EF6FF061EF6FF000010A
:10DEA200C051D8EC67F00D0E0001C019D8A45CEF88
:10DEB2006FF05EEF6FF061EF6FF00A0ED8EC67F073
:10DEC2000001C0515EEC74F0CD92CD902DEF6FF059
:10DED200FEEF7FF06AEC68F00009D8B473EF6FF0E0
:10DEE20075EF6FF06BEF6FF0CD82870ECBEC67F0C2
:10DEF200000E126EB4EC67F00009D8B483EF6FF035
:10DF020085EF6FF07BEF6FF0080E1224D96EDA6A9C
:10DF1200000EDA224AEC6CF0DF6EB4EC67F0000916
:10DF2200D8B496EF6FF098EF6FF08EEF6FF00D0EA2
:10DF32001224D96EDA6A000EDA224AEC6CF0DF6E35
:10DF42000D0E1224D96EDA6A000EDA22DF50046E48
:10DF52000450066E056A080E1224D96EDA6A000EA3
:10DF6200DA22DF50076E07500526000E06221250F5
:10DF7200020D900EF324D96E000EF420DA6E6000CA
:10DF820017F0DEFF60001BF0DDFF122A040E1264A0
:10DF9200CDEF6FF0CFEF6FF07BEF6FF0CD92900E81
:10DFA200026E000E036E12006BEC6FF0600008F060
:10DFB200AAF060000CF0ABF04E0E0001A26FFF0E53
:10DFC200A36F6000ABF2D9FF6000AFF2DAFF6F001F
:10DFD20078FFA4F06F0074FFA5F080EC68F05F0E8C
:10DFE2000001A26FFF0EA36F20EE02F0AA51D92604
:10DFF200AB51DA226F0078FFA4F06F0074FFA5F036
:10E0020080EC68F05F0E0001A26FFF0EA36F20EE9E
:10E0120004F0AA51D926AB51DA226F0078FFA4F09E
:10E022006F0074FFA5F080EC68F05F0E0001A26F34
:10E03200FF0EA36F20EE06F0AA51D926AB51DA22C9
:10E042006F0078FFA4F06F0074FFA5F080EC68F019
:10E05200F40E0001A26FFF0EA36F20EE08F0AA518A
:10E06200D926AB51DA226F0078FFA4F06F0074FF5B
:10E07200A5F080EC68F0D5EF6FF0120005500610A5
:10E08200D8B446EF70F048EF70F051EF70F00550E1
:10E092000610D8A44FEF70F051EF70F056EF70F009
:10E0A200035067EC67F0AAEF70F020EE04F0055021
:10E0B200D9260650DA22DE50DE10D8B463EF70F0B3
:10E0C20065EF70F080EF70F020EE04F00550D92675
:10E0D2000650DA2210EE02F00550E1260650E22246
:10E0E200DE50E65CE650800A0B6EDE50800A0B586A
:10E0F200D8B07EEF70F080EF70F0AAEF70F020EEF3
:10E1020002F00550D9260650DA226F0078FF07F098
:10E112006F0074FF08F0600017F0D9FF60001BF079
:10E12200DAFF6F0078FF09F06F0074FF0AF0075002
:10E132000924D96E08500A20DA6E60000FF0DFFF62
:10E1420020EE02F00550D9260650DA22DE2A000E11
:10E15200DD22120009500A100B100C100D100E10C7
:10E162000F101010D8B4B8EF70F0BAEF70F002EFE1
:10E1720071F0010E116EC8EF70F0D89009360A36B0
:10E182000B360C360D360E360F361036112A10AEFF
:10E19200CDEF70F0CFEF70F0BEEF70F00950015C80
:10E1A2000A5002580B5003580C5004580D50055891
:10E1B2000E5006580F50075810500858D8A0E4EFD8
:10E1C20070F0E6EF70F0F6EF70F00950015E0A5061
:10E1D200025A0B50035A0C50045A0D50055A0E5055
:10E1E200065A0F50075A1050085AD89010320F3260
:10E1F2000E320D320C320B320A320932112ECFEFAF
:10E2020070F0600004F001F0600008F002F06000BD
:10E212000CF003F0600010F004F0600014F005F060
:10E22200600018F006F060001CF007F0600020F0BB
:10E2320008F01200000166A121EF71F023EF71F0E6
:10E2420031EF71F0600054F00CF0600058F00DF006
:10E2520060004CF00EF0600050F00FF02BEC69F013
:10E2620018BE36EF71F038EF71F040EF71F06000D8
:10E272005CF01CF0600060F01DF044EF71F0000EE5
:10E282001D6E000E1C6E000E1B6E000E1A6E58EFF5
:10E2920071F0000E046E200E036E60004CF005F06B
:10E2A200600050F006F03FEC70F01A4A1B2A1C5036
:10E2B2001A5C1B50800A196E1D50800A1958D8A08A
:10E2C20065EF71F067EF71F04AEF71F0000166B12E
:10E2D2006DEF71F06FEF71F07DEF71F0600054F04F
:10E2E2000CF0600058F00DF060004CF00EF0600091
:10E2F20050F00FF02BEC69F0600054F001F0600078
:10E3020058F002F0E8EC68F01C500124136E1D5026
:10E312000220146E120003BE91EF71F093EF71F0C0
:10E32200AFEF71F06AEC68F00009D8B49BEF71F0BE
:10E332009DEF71F093EF71F0C10ECBEC67F06AECD8
:10E3420068F00009D8B4A8EF71F0AAEF71F0A0EF5D
:10E3520071F00250CBEC67F0CAEF71F06AEC68F032
:10E362000009D8B4B7EF71F0B9EF71F0AFEF71F007
:10E37200C20ECBEC67F06AEC68F00009D8B4C4EFC7
:10E3820071F0C6EF71F0BCEF71F002500008CBECF7
:10E3920067F005BECFEF71F0D1EF71F0EDEF71F0E4
:10E3A2006AEC68F00009D8B4D9EF71F0DBEF71F0D4
:10E3B200D1EF71F0C50ECBEC67F06AEC68F00009A2
:10E3C200D8B4E6EF71F0E8EF71F0DEEF71F00450CF
:10E3D200CBEC67F008EF72F06AEC68F00009D8B491
:10E3E200F5EF71F0F7EF71F0EDEF71F0C60ECBECD7
:10E3F20067F06AEC68F00009D8B402EF72F004EF3B
:10E4020072F0FAEF71F004500008CBEC67F01200E2
:10E4120020EE11F0070EDE6AE806FDE209500A104E
:10E422000B100C100D100E100F101010D8B41CEFA2
:10E4320072F01EEF72F070EF72F0010E196E2CEF97
:10E4420072F0D89009360A360B360C360D360E3677
:10E452000F361036192A10AE31EF72F033EF72F028
:10E4620022EF72F0D8901136123613361436153662
:10E472001636173618360950015C0A5002580B50EE
:10E4820003580C5004580D5005580E5006580F50A2
:10E49200075810500858D8A051EF72F053EF72F09D
:10E4A20064EF72F00950015E0A50025A0B50035A8F
:10E4B2000C50045A0D50055A0E50065A0F50075A66
:10E4C2001050085A1180D89010320F320E320D328D
:10E4D2000C320B320A320932192E33EF72F060001D
:10E4E20044F001F0600048F002F060004CF003F0EC
:10E4F200600050F004F0600054F005F0600058F045
:10E5020006F060005CF007F0600060F008F01200B6
:10E51200F00E0001A26FFF0EA36F80EC68F0C10E37
:10E522000001A26FFF0EA36F80EC68F0830E000162
:10E53200A26FFE0EA36F80EC68F0B60E0001A26F10
:10E54200FF0EA36F80EC68F0A90E0001A26FFF0E10
:10E55200A36F80EC68F0D60E0001A26FFE0EA36FCF
:10E5620080EC68F0BC0E0001A26FFE0EA36F80EC7F
:10E5720068F0430E0001A26FFE0EA36F80EC68F0FC
:10E58200EF0E0001A26FFE0EA36F80EC68F0FE0E8C
:10E592000001A26FFD0EA36F80EC68F0210E000156
:10E5A200A26FFE0EA36F80EC68F0640E0001A26FF2
:10E5B200FE0EA36F80EC68F0A00E0001A26FFE0EAB
:10E5C200A36F80EC68F0B30E0001A26FFD0EA36F83
:10E5D20080EC68F0370E0001A26FFF0EA36F80EC93
:10E5E20068F0070E0001A26FFF0EA36F80EC68F0C7
:10E5F2007B0E0001A26FFF0EA36F80EC68F01F0E6E
:10E602000001A26FFF0EA36F80EC68F08D0E000177
:10E61200A26FFF0EA36F80EC68F01200000E0001E3
:10E62200AD6F000EAC6F5F0EA26FFF0EA36FA80E50
:10E63200AC25D96E0D0EAD21DA6EDF50AA6FAB6B31
:10E64200D890AA37AB37D890AA37AB376000A8F278
:10E65200A4F06000ACF2A5F080EC68F05F0E00015F
:10E66200A26FFF0EA36F500EAC25D96E0B0EAD211B
:10E67200DA6EDF50AA6FAB6BD890AA37AB37D8905F
:10E68200AA37AB376000A8F2A4F06000ACF2A5F0A4
:10E6920080EC68F05F0E0001A26FFF0EA36FF80E10
:10E6A200AC25D96E080EAD21DA6EDF50AA6FAB6BC6
:10E6B200D890AA37AB37D890AA37AB376000A8F208
:10E6C200A4F06000ACF2A5F080EC68F05F0E0001EF
:10E6D200A26FFF0EA36FA00EAC25D96E060EAD2160
:10E6E200DA6EDF50AA6FAB6BD890AA37AB37D890EF
:10E6F200AA37AB376000A8F2A4F06000ACF2A5F034
:10E7020080EC68F0EA0E0001A26FFF0EA36F480EC4
:10E71200AC25D96E040EAD21DA6EDF50AA6FAA5174
:10E72200A46FA56B80EC68F00001AC4BAD2B580ECA
:10E73200AC5D020EAD59D8A0A1EF73F0A3EF73F058
:10E7420014EF73F01200000E126E08BEADEF73F0FC
:10E75200ABEF73F0BFEF73F0081E071E061E051E17
:10E76200041E031E021E016C000E0222032204225A
:10E772000522062207220822010E126E10BEC6EFE3
:10E7820073F0C4EF73F0D6EF73F0101E0F1E0E1E5F
:10E792000D1E0C1E0B1E0A1E096C000E0A220B22F5
:10E7A2000C220D220E220F22102209500A100B10E9
:10E7B2000C100D100E100F101010D8B4E3EF73F000
:10E7C200E5EF73F02DEF74F0010E116EF3EF73F0BD
:10E7D200D89009360A360B360C360D360E360F3601
:10E7E2001036112A10AEF8EF73F0FAEF73F0E9EF7A
:10E7F20073F00950015C0A5002580B5003580C5038
:10E8020004580D5005580E5006580F500758105016
:10E812000858D8A00FEF74F011EF74F021EF74F0E4
:10E822000950015E0A50025A0B50035A0C50045A06
:10E832000D50055A0E50065A0F50075A1050085ADA
:10E84200D89010320F320E320D320C320B320A32A5
:10E852000932112EFAEF73F01250D8B433EF74F07C
:10E8620035EF74F045EF74F0081E071E061E051EF4
:10E87200041E031E021E016C000E02220322042249
:10E882000522062207220822600004F001F060003F
:10E8920008F002F060000CF003F0600010F004F0E9
:10E8A200600014F005F0600018F006F060001CF043
:10E8B20007F0600020F008F012000001BF6F310E77
:10E8C2000001BF19D8A468EF74F06AEF74F06EEF1C
:10E8D20074F0B1EC6BF027EF75F0320EBF19D8A4CB
:10E8E20075EF74F077EF74F07BEF74F044EC6EF038
:10E8F20027EF75F0400EBF19D8A482EF74F084EFB1
:10E9020074F088EF74F0E9EC6DF027EF75F0030E08
:10E91200BF19D8A48FEF74F091EF74F096EF74F0F2
:10E92200B70ECBEC67F027EF75F0040EBF19D8A431
:10E932009DEF74F09FEF74F0A3EF74F00FEC73F09F
:10E9420027EF75F0130EBF19D8A4AAEF74F0ACEF3D
:10E9520074F0B0EF74F0D5EC6FF027EF75F0140E91
:10E96200BF19D8A4B7EF74F0B9EF74F0C9EF74F01F
:10E972009B0EA26FFF0EA36F29EC68F0600004F0FB
:10E98200A4F0600008F0A5F080EC68F027EF75F0C5
:10E992007E0EBF19D8A4D0EF74F0D2EF74F0D6EF88
:10E9A20074F016EC68F027EF75F00D0EBF19D8A4BD
:10E9B200DDEF74F0DFEF74F0E3EF74F076EC69F002
:10E9C20027EF75F03C0EBF19D8A4EAEF74F0ECEF14
:10E9D20074F0F1EF74F0320E8DEC6AF027EF75F0FF
:10E9E2003E0EBF19D8A4F8EF74F0FAEF74F0FFEFFF
:10E9F20074F0320EC3EC6AF027EF75F07C0EBF198B
:10EA0200D8A406EF75F008EF75F00DEF75F0000E63
:10EA120057EC6AF027EF75F01B0EBF19D8A414EF5C
:10EA220075F016EF75F01AEF75F089EC72F027EFBA
:10EA320075F01F0EBF6520EF75F022EF75F027EF1E
:10EA420075F0BF519EEC69F027EF75F01200000ED1
:10EA5200126E10BE31EF75F02FEF75F043EF75F0C7
:10EA6200101E0F1E0E1E0D1E0C1E0B1E0A1E096C02
:10EA7200000E0A220B220C220D220E220F2210223D
:10EA8200010E126E08BE4AEF75F048EF75F05CEFAA
:10EA920075F0081E071E061E051E041E031E021E1A
:10EAA200016C000E02220322042205220622072202
:10EAB2000822010E121A20EE13F0070EDE6AE80693
:10EAC200FDE209500A100B100C100D100E100F1061
:10EAD2001010D8B46FEF75F071EF75F0C3EF75F0E9
:10EAE200010E116E7FEF75F0D89009360A360B369B
:10EAF2000C360D360E360F361036112A10AE84EF54
:10EB020075F086EF75F075EF75F0D8901336143600
:10EB1200153616361736183619361A360950015C6C
:10EB22000A5002580B5003580C5004580D50055807
:10EB32000E5006580F50075810500858D8A0A4EF8E
:10EB420075F0A6EF75F0B7EF75F00950015E0A5047
:10EB5200025A0B50035A0C50045A0D50055A0E50CB
:10EB6200065A0F50075A1050085A1380D890103284
:10EB72000F320E320D320C320B320A320932112EA2
:10EB820086EF75F01250D8B4C9EF75F0CBEF75F07F
:10EB9200DBEF75F01A1E191E181E171E161E151E03
:10EBA200141E136C000E142215221622172218228C
:10EBB20019221A2260004CF001F0600050F002F0BD
:10EBC200600054F003F0600058F004F060005CF064
:10EBD20005F0600060F006F0600064F007F060008D
:10EBE20068F008F0120020EECAF010EE11F0060EE6
:10EBF2006F006FFFE3FFE806FBE2600038F01CF0F5
:10EC020060003CF01DF01C501D10D8A40BEF76F0F4
:10EC12000DEF76F011EF76F0110E1C6E000E1D6EE8
:10EC2200600070F001F0600074F002F0E8EC68F04F
:10EC3200600004F020F0600008F021F0600090F124
:10EC42001EF0600094F11FF01FBE2AEF76F02CEF49
:10EC520076F043EF76F020501E5C1F50800A106E53
:10EC62002150800A1058D8A039EF76F03BEF76F0A9
:10EC72003DEF76F043EF76F0600078F020F0600030
:10EC82007CF021F0600080F01EF0600084F01FF044
:10EC9200600088F11AF060008CF11BF0000166B18F
:10ECA20055EF76F057EF76F076EF76F067EF76F085
:10ECB200000E046E200E036E600030F005F060005E
:10ECC20034F006F03FEC70F0204A212A1A50205C02
:10ECD2002150800A106E1B50800A1058D8A074EF81
:10ECE20076F076EF76F059EF76F0000E196E000EA0
:10ECF200186E93EF76F0600073F0D9FF600077F042
:10ED0200DAFFDF50106E1050036E046A600030F0BC
:10ED120005F0600034F006F03FEC70F01C4A1D2A4A
:10ED2200184A192A1E50185C1950800A106E1F507A
:10ED3200800A1058D8A0A0EF76F0A2EF76F07CEF10
:10ED420076F0000166A1A8EF76F0AAEF76F0C9EF9F
:10ED520076F0BAEF76F0000E046E200E036E6000BD
:10ED620030F005F0600034F006F03FEC70F0204A1D
:10ED7200212A1A50205C2150800A106E1B50800AF2
:10ED82001058D8A0C7EF76F0C9EF76F0ACEF76F066
:10ED9200600080F00CF0600084F00DF01200000EB4
:10EDA200166E000E156E000E0F6E000E0E6EDCEF6C
:10EDB20076F0084A092A010E146E600023F0F6FF6D
:10EDC200600027F0F7FFF86A0800F550200AD8B46F
:10EDD200EDEF76F0EFEF76F00FEF77F0F70E0A6EC9
:10EDE200FF0E0B6E600023F0F6FF600027F0F7FFC6
:10EDF200F86A0800F5500C6E0D6A0A500C260B508A
:10EE02000D220D5009E1050E0C5CD8A00BEF77F036
:10EE12000DEF77F00FEF77F0000E146E600050F0F8
:10EE220010F0116A10501110D8A41AEF77F01CEFED
:10EE320077F0DAEF76F026EF77F0000E0F6E010E24
:10EE42000E6E084A092A63EF77F0600023F0F6FF9E
:10EE5200600027F0F7FFF86A0800F5500A6E0B6AA7
:10EE62000B50000AD8B438EF77F063EF77F00A500E
:10EE72002B0AD8B422EF77F0060AD8B41EEF77F047
:10EE820063EF77F0600054F001F0600058F002F098
:10EE9200000E046E0A0E036E96EC68F0600023F01A
:10EEA200F6FF600027F0F7FFF86A0800F550015EF0
:10EEB200000E025A300E0124156E000E0220166E4C
:10EEC20022EF77F0D00E0A6EFF0E0B6E600023F079
:10EED200F6FF600027F0F7FFF86A0800F5500C6EA5
:10EEE2000D6A0A500C260B500D220D500AE10A0E33
:10EEF2000C5CD8A07FEF77F082EF77F0010E83EF02
:10EF020077F0000E126E136A12501310D8A48CEF11
:10EF120077F08EEF77F043EF77F00E500F10D8A412
:10EF220095EF77F097EF77F0A9EF77F0600054F064
:10EF32000AF0600058F00BF00A1E0B1E0A4A0B2A58
:10EF4200600028F008F060002CF009F0AFEF77F0D5
:10EF5200600054F008F0600058F009F0120000015F
:10EF620065BFB6EF77F0B8EF77F0B9EF77F0669359
:10EF720065BFC6EF77F0655106E16405D8B0C4EF0E
:10EF820077F0C6EF77F0CCEF77F0000E316E010E1E
:10EF9200306ED2EF77F0600090F130F0600094F1C3
:10EFA20031F0600088F132F060008CF133F06000E3
:10EFB20080F034F0600084F035F0600088F036F0C4
:10EFC20060008CF037F0600090F038F0600094F050
:10EFD20039F0600098F03AF060009CF03BF0000ECF
:10EFE2003D6E1F0E3C6E000E8F6F8EEF78F03C066A
:10EFF200D8A03D06700E3C24D96E000E3D20DA6E7C
:10F002006000D0F001F06000D4F002F06000D8F0AF
:10F0120003F06000DCF004F06000E0F005F0600056
:10F02200E4F006F06000E8F007F06000ECF008F0B1
:10F032000A0E096E000E0A6E000E0B6E000E0C6EAA
:10F04200000E0D6E000E0E6E000E0F6E000E106E94
:10F05200ABEC70F0600004F028F0600008F029F0DA
:10F0620060000CF02AF0600010F02BF0600014F049
:10F072002CF0600018F02DF060001CF02EF0600003
:10F0820020F02FF02850300FDF6E3006D8A0310666
:10F092003206D8A033066000D0F001F06000D4F050
:10F0A20002F06000D8F003F06000DCF004F06000D1
:10F0B200E0F005F06000E4F006F06000E8F007F030
:10F0C2006000ECF008F00A0E096E000E0A6E000EE7
:10F0D2000B6E000E0C6E000E0D6E000E0E6E000E0C
:10F0E2000F6E000E106E09EC72F0600004F034F046
:10F0F200600008F035F060000CF036F0600010F0AF
:10F1020037F0600014F038F0600018F039F0600059
:10F112001CF03AF0600020F03BF03C503D10D8B4B7
:10F1220095EF78F097EF78F0C8EF78F0345035101B
:10F1320036103710381039103A103B10D8A4A4EF0B
:10F1420078F0A6EF78F0F8EF77F031BEB3EF78F011
:10F15200315006E13004D8B0B1EF78F0B3EF78F077
:10F16200F8EF77F033BEBEEF78F0335008E13204A7
:10F17200D8A0BEEF78F0C0EF78F0C8EF78F00001C9
:10F1820066B3C6EF78F0C8EF78F0F8EF77F060007A
:10F1920078F013F060007CF014F0700E3C24156ED1
:10F1A200000E3D20166E6000C8F017F06000CCF033
:10F1B20018F01BEC71F060004CF01EF0600050F093
:10F1C2001FF01200600080F038F0600084F039F027
:10F1D200600088F03AF060008CF03BF0600090F044
:10F1E2003CF0600094F03DF0600098F03EF060006A
:10F1F2009CF03FF03FBE00EF79F003EF79F0010E93
:10F2020004EF79F0000E366E376A36503710D8B4F4
:10F212000DEF79F00FEF79F01FEF79F03F1E3E1EF0
:10F222003D1E3C1E3B1E3A1E391E386C000E392212
:10F232003A223B223C223D223E223F22000165BF70
:10F2420025EF79F027EF79F028EF79F0669365BF23
:10F2520035EF79F0655106E16405D8B033EF79F006
:10F2620035EF79F03BEF79F0000E336E010E326E1E
:10F2720041EF79F0600090F132F0600094F133F0E8
:10F28200600088F134F060008CF135F036503710B0
:10F29200D8A44EEF79F050EF79F057EF79F066A5E8
:10F2A20055EF79F057EF79F05AEF79F03406D8A09C
:10F2B2003506000E416E1F0E406E000E8F6F00EF7E
:10F2C2007AF04006D8A04106700E4024D96E000E96
:10F2D2004120DA6E6000E0F001F06000E4F002F03C
:10F2E2006000E8F003F06000ECF004F06000F0F081
:10F2F20005F06000F4F006F06000F8F007F060003E
:10F30200FCF008F00A0E096E000E0A6E000E0B6E7B
:10F31200000E0C6E000E0D6E000E0E6E000E0F6EC5
:10F32200000E106EA4EC73F0600004F028F0600090
:10F3320008F029F060000CF02AF0600010F02BF0C9
:10F34200600014F02CF0600018F02DF060001CF04A
:10F352002EF0600020F02FF06000A0F013F06000AB
:10F36200A8F014F050EC69F01350300FDF6E320643
:10F37200D8A033063406D8A035066000E0F001F0CC
:10F382006000E4F002F06000E8F003F06000ECF0EE
:10F3920004F06000F0F005F06000F4F006F06000A8
:10F3A200F8F007F06000FCF008F00A0E096E000E9B
:10F3B2000A6E000E0B6E000E0C6E000E0D6E000E2D
:10F3C2000E6E000E0F6E000E106E28EC75F06000CF
:10F3D20004F038F0600008F039F060000CF03AF008
:10F3E200600010F03BF0600014F03CF0600018F098
:10F3F2003DF060001CF03EF0600020F03FF041BEA6
:10F402000BEF7AF0415008E14004D8A00BEF7AF0FC
:10F412000DEF7AF03EEF7AF0385039103A103B1087
:10F422003C103D103E103F10D8A41AEF7AF01CEFAA
:10F432007AF062EF79F033BE29EF7AF0335006E1C9
:10F442003204D8B027EF7AF029EF7AF062EF79F040
:10F4520035BE34EF7AF0355008E13404D8A034EFE9
:10F462007AF036EF7AF03EEF7AF0000166B33CEFC5
:10F472007AF03EEF7AF062EF79F036503710D8A486
:10F4820045EF7AF047EF7AF04FEF7AF0000166A588
:10F492004DEF7AF04FEF7AF06EEF7AF04006D8A097
:10F4A200410636503710D8A459EF7AF05BEF7AF064
:10F4B20061EF7AF0000E316E2B0E306E65EF7AF04E
:10F4C200000E316E2D0E306E700E4024D96E000E7D
:10F4D2004120DA6E6000C3F0DFFF600078F013F0C5
:10F4E20060007CF014F0700E4024156E000E412076
:10F4F200166E6000D0F017F06000D4F018F01BEC2C
:10F5020071F060004CF01EF0600050F01FF012002D
:10F51200000E176E000E166E010E156E6EEC6BF07D
:10F52200320EE9EC6CF060EF7CF01550D8B49CEF31
:10F532007AF09EEF7AF094EF7BF06BEC6FF0600064
:10F5420008F018F060000CF019F0600063F0D9FFC9
:10F55200600067F0DAFF010EDB5009E1FB0EDE5CB2
:10F56200D8A0B6EF7AF0B8EF7AF0D3EF7AF020EEC7
:10F5720008F01850D9261950DA22010EDB5009E1A1
:10F58200FB0EDE5CD8A0C8EF7AF0CAEF7AF0D3EFB8
:10F592007AF0E5EC67F0CBBAD1EF7AF0D3EF7AF0FC
:10F5A200CCEF7AF020EE02F01850D9261950DA2268
:10F5B200010EDB5009E1C90EDE5CD8A0E3EF7AF060
:10F5C200E5EF7AF003EF7BF020EE06F01850D92633
:10F5D2001950DA22010EDB5009E1C90EDE5CD8A017
:10F5E200F5EF7AF0F7EF7AF003EF7BF0000E156E8D
:10F5F200E5EC67F0600060F009F0600064F00AF08A
:10F6020090EC6DF0A80E1624D96E0D0E1720DA6E4E
:10F61200600063F0E1FF600067F0E2FF6F0098FFB7
:10F6220013F06F0094FF14F0D89014321332D89074
:10F63200143213321350DF6E500E1624D96E0B0E95
:10F642001720DA6E10EE02F01850E1261950E2226D
:10F652006F0098FF13F06F0094FF14F0D8901432EB
:10F662001332D890143213321350DF6EF80E162470
:10F67200D96E080E1720DA6E10EE04F01850E1264B
:10F682001950E2226F0098FF13F06F0094FF14F0FC
:10F69200D89014321332D890143213321350DF6ED2
:10F6A200A00E1624D96E060E1720DA6E10EE06F0A2
:10F6B2001850E1261950E2226F0098FF13F06F00F4
:10F6C20094FF14F0D89014321332D89014321332BB
:10F6D2001350DF6E29EC68F0600004F06CF06000FB
:10F6E20008F06DF0480E1624D96E040E1720DA6E5B
:10F6F2006000B3F1DFFF164A172A580E165C020E9D
:10F702001758D8A087EF7BF089EF7BF060EF7CF091
:10F71200E5EC67F0CBBA90EF7BF092EF7BF08BEFEA
:10F722007BF060EF7CF06BEC6FF0600008F018F09B
:10F7320060000CF019F0600060F009F0600064F005
:10F742000AF090EC6DF020EE02F01850D926195014
:10F75200DA22010EDB5007E1320EDE5CD8B0B4EFE4
:10F762007BF0B6EF7BF0D0EF7BF020EE06F0185086
:10F77200D9261950DA22010EDB5007E1320EDE5C87
:10F78200D8B0C6EF7BF0C8EF7BF0D0EF7BF0010E74
:10F79200156E000E57EC6AF0320EE9EC6CF0A80E12
:10F7A2001624D96E0D0E1720DA6E600063F0E1FFA9
:10F7B200600067F0E2FF6F0098FF13F06F0094FFA4
:10F7C20014F0D89014321332D890143213321350EA
:10F7D200DF6E500E1624D96E0B0E1720DA6E10EE65
:10F7E20002F01850E1261950E2226F0098FF13F040
:10F7F2006F0094FF14F0D89014321332D890143260
:10F8020013321350DF6EF80E1624D96E080E17202D
:10F81200DA6E10EE04F01850E1261950E2226F0061
:10F8220098FF13F06F0094FF14F0D8901432133243
:10F83200D890143213321350DF6EA00E1624D96EF4
:10F84200060E1720DA6E10EE06F01850E126195057
:10F85200E2226F0098FF13F06F0094FF14F0D8902B
:10F8620014321332D890143213321350DF6E29EC53
:10F8720068F0600004F06CF0600008F06DF0480E73
:10F882001624D96E040E1720DA6E6000B3F1DFFF82
:10F89200164A172A580E165C020E1758D8A054EFB3
:10F8A2007CF056EF7CF060EF7CF0000E57EC6AF0D3
:10F8B200CBBA5EEF7CF060EF7CF059EF7CF0CBBA14
:10F8C20065EF7CF067EF7CF096EF7AF01200600053
:10F8D20013F1D9FF600017F1DAFF6F007BFFF6FF2B
:10F8E2006F0077FFF7FFF86A0800F550250AD8A4E1
:10F8F2007DEF7CF07FEF7CF0B4EF7EF0600013F1DF
:10F90200D9FF600017F1DAFFDE2A000EDD22000EB9
:10F912000001636F000E626F62C066F063C067F041
:10F9220064696569600013F1D9FF600017F1DAFFBD
:10F932006F007BFFF6FF6F0077FFF7FFF86A0800A2
:10F94200F5502A0AD8A4A8EF7CF0AAEF7CF0DDEFEC
:10F952007CF0600013F1D9FF600017F1DAFFDE2AB4
:10F96200000EDD2260001BF1D9FF60001FF1DAFFFB
:10F972006F007CFF48F0020EDE266F007CFF49F02C
:10F98200000EDD22600023F1D9FF600027F1DAFFCB
:10F992006F0078FF62F06F0074FF63F063BFD6EF11
:10F9A2007CF0D4EF7CF02DEF7DF06681626D631FF9
:10F9B200D8B0632B2DEF7DF0600013F1D9FF60000A
:10F9C20017F1DAFF6F0078FF08F06F0074FF09F09B
:10F9D200D0EC76F0600020F062F0600024F063F07A
:10F9E200FCEF7CF0600013F1D9FF600017F1DAFF41
:10F9F200DE2A000EDD22D00E486EFF0E496E600038
:10FA020013F1D9FF600017F1DAFF6F007BFFF6FFF9
:10FA12006F0077FFF7FFF86A0800F5504A6E4B6AED
:10FA220048504A2649504B224B500AE10A0E4A5C82
:10FA3200D8A01EEF7DF021EF7DF0010E22EF7DF0C8
:10FA4200000E5E6E5F6A5E505F10D8A42BEF7DF0F1
:10FA52002DEF7DF0F3EF7CF0600013F1D9FF600031
:10FA620017F1DAFF6F007BFFF6FF6F0077FFF7FFFA
:10FA7200F86A0800F550640AD8B442EF7DF044EF0A
:10FA82007DF05BEF7DF0600013F1D9FF600017F1AC
:10FA9200DAFF6F007BFFF6FF6F0077FFF7FFF86A70
:10FAA2000800F550690AD8A459EF7DF05BEF7DF0AC
:10FAB200B1EF7DF0600013F1D9FF600017F1DAFFBA
:10FAC200DE2A000EDD2260001BF1D9FF60001FF16B
:10FAD200DAFF6F007CFF48F0020EDE266F007CFF2B
:10FAE20049F0000EDD22600023F1D9FF600027F10A
:10FAF200DAFF6F0078FF4CF06F0074FF4DF0000EDC
:10FB02004DBEFF0E4E6E4F6E506E516E526E536E64
:10FB1200600008F11EF060000CF11FF0600030F18F
:10FB220020F0600034F121F0600038F122F0600032
:10FB32003CF123F0600040F124F0600044F125F034
:10FB4200600048F126F060004CF127F0E3EC78F019
:10FB5200600078F042F060007CF043F0D8EF7EF075
:10FB6200600013F1D9FF600017F1DAFF6F007BFF2D
:10FB7200F6FF6F0077FFF7FFF86A0800F550730A87
:10FB8200D8A4C6EF7DF0C8EF7DF003EF7EF06000F1
:10FB920013F1D9FF600017F1DAFFDE2A000EDD2231
:10FBA20060001BF1D9FF60001FF1DAFF6F007CFFDC
:10FBB20048F0020EDE266F007CFF49F0000EDD22C7
:10FBC200600023F1D9FF600027F1DAFF6F0078FFB0
:10FBD2005CF06F0074FF5DF0600008F10CF06000F3
:10FBE2000CF10DF0600070F10EF0600074F10FF096
:10FBF200F4EC75F0600030F042F0600034F043F055
:10FC0200D8EF7EF0600013F1D9FF600017F1DAFF40
:10FC12006F007BFFF6FF6F0077FFF7FFF86A0800BF
:10FC2200F550750AD8A418EF7EF01AEF7EF073EF44
:10FC32007EF0600013F1D9FF600017F1DAFFDE2ACF
:10FC4200000EDD2260001BF1D9FF60001FF1DAFF18
:10FC52006F007CFF48F0020EDE266F007CFF49F049
:10FC6200000EDD22600023F1D9FF600027F1DAFFE8
:10FC72006F0078FF4AF06F0074FF4BF0600028F1CC
:10FC820054F060002CF155F0566A576A586A596A66
:10FC92005A6A5B6A600008F11EF060000CF11FF006
:10FCA200600050F120F0600054F121F0600058F142
:10FCB20022F060005CF123F0600060F124F060004B
:10FCC20064F125F0600068F126F060006CF127F025
:10FCD200B0EC77F0600078F042F060007CF043F026
:10FCE200D8EF7EF0600013F1D9FF600017F1DAFF60
:10FCF2006F007BFFF6FF6F0077FFF7FFF86A0800DF
:10FD0200F550250AD8A488EF7EF08AEF7EF0A5EFA1
:10FD12007EF0600013F1D9FF600017F1DAFFDE2AEE
:10FD2200000EDD22000E046E250E036E600008F147
:10FD320005F060000CF106F03FEC70F0000E436E2F
:10FD4200010E426ED8EF7EF0600013F1D9FF600021
:10FD520017F1DAFFDE2A000EDD22000E436E000EDE
:10FD6200426ED8EF7EF0600013F1D9FF600017F108
:10FD7200DAFF6F007BFFF6FF6F0077FFF7FFF86A8D
:10FD82000800F550036E046A600008F105F0600097
:10FD92000CF106F03FEC70F0600013F1D9FF600047
:10FDA20017F1DAFFDE2A000EDD229FEF7EF012004D
:10FDB20000090972657475726E2E204C43442067E7
:10FDC2006F20746F207374617274206F66206C6987
:10FDD2006E652074776F0D0A000D0A09546865205C
:10FDE2005369676E61747572652066726F6D203338
:10FDF20050692069733A2025730D0A0009202020DA
:10FE02006374726C2B642E2044756D702073656E62
:10FE1200736F7220312076616C7565730D0A00096B
:10FE22002020206374726C2B732E205072696E74C2
:10FE32002053656E736F722056616C7565730D0A7F
:10FE4200000909322E20446973706C6179206D5665
:10FE52002072656164696E6720696E204C43440DAF
:10FE62000A00092020206374726C2B742E205072B9
:10FE7200696E7420544D52312056616C75650D0ABD
:10FE820000094B5055204150534331323939203308
:10FE920070692D73746174652D310A0A0D000909A8
:10FEA2007E2E204C4344206D65737361676520414B
:10FEB200505343313239390D0A000909312E204499
:10FEC2006973706C6179206D562072656164696E28
:10FED200670D0A000909402E20506F6C6F6C752067
:10FEE2005369676E61747572653F0D0A00092020BF
:10FEF200206374726C2B632E20436C656172204CFC
:10FF020043440D0A0009093E2C20726F626F74206F
:10FF12007370696E2072696768740D0A0009202087
:10FF22002020204573632C205072696E74204D6529
:10FF32006E750D0A0009093C2C20726F626F7420E5
:10FF42007370696E206C6566740D0A000D73656EC0
:10FF5200736F722076616C756573203D2025347550
:10FF62002C20000D0A094261747465727920566F63
:10FF72006C74616765203D200009097C2C20726F3A
:10FF8200626F742073746F700D0A0009092D2D2D94
:10FF92002D2D2D2D2D0D0A0A000D0A7469636B7328
:10FFA200312025750D0A0009092D2D2D2D2D2D2D00
:10FFB2002D0D0A00090920204D656E750A0D000DF0
:10FFC2000A0A0A0A0A0A0A0A0043616C20446F6E8E
:10FFD20065002564206D560D0A004E6F20526F6138
:10FFE2006D002575206D56002534750D0A00200D13
:0EFFF2000A00253475003E20000007EF69F07C
:020000040020DA
:10000000FF0FFF0FFF0FFF0FFF0FFF0FFF0FFF0F80
:020000040030CA
:0A000000ECFEF7FF9FFFFFFFFFFF7C
:00000001FF
