:020000040000FA
:04000000FEEF7FF0A0
:10E69A00120012001200803E010E1200050E120036
:10E6AA00020E1200010E12003D01799F12003D0177
:10E6BA00769912003D01799512003D01739D120071
:10E6CA003D01738D12003D016A5112003D01749D96
:10E6DA0012003D01748D12003D01739B12003D0131
:10E6EA006C511200000E3D01796F12006BEC73F051
:10E6FA00030E12006BEC73F0040E12006EEC73F052
:10E70A00090E1200000E50EC76F0120001C048F01B
:10E71A0002C049F0120001C04CF002C04DF01200D4
:10E72A0001C04AF002C04BF0120001C042F002C020
:10E73A0043F0120001C046F002C047F0120001C0C7
:10E74A0044F002C045F012003D01739F7885738F33
:10E75A001200016E600007F06CFD1200016E60008D
:10E76A0007F06BFD1200026E02507AEC74F0120090
:10E77A003D01739F000E796F788512000001839521
:10E78A00000E826F0F0E120000017F51AEEC73F083
:10E79A0099EC75F012006EEC73F071EC73F0C3EC47
:10E7AA0073F01200A9EC73F000018395000E826FDA
:10E7BA000F0E1200A9EC73F000018395020E826F0E
:10E7CA000F0E120005C003F006C004F0E0EC75F06D
:10E7DA000A0EB8EC73F012003901A6B5F7EF73F020
:10E7EA00FAEF73F0010EFBEF73F0000E12003D0119
:10E7FA0079BF02EF74F005EF74F0010E06EF74F0C2
:10E80A00000E12003D0176B90DEF74F010EF74F0AE
:10E81A00010E11EF74F0000E12003D0179B518EFE8
:10E82A0074F01BEF74F0010E1CEF74F0000E12006E
:10E83A003D0178B123EF74F026EF74F0010E27EF53
:10E84A0074F0000E12003D0174BB2EEF74F031EF2C
:10E85A0074F0010E32EF74F0000E12003D0178BB25
:10E86A0039EF74F03CEF74F0010E3DEF74F0000ED6
:10E87A00120000018351FC0B0209836F7C517C2535
:10E88A00B3EC73F0030E1200600E3901D96F000E5B
:10E89A00DB6F000EDD6F070EDF6F000EDE6F1200FA
:10E8AA0006C001F007C002F008C003F009C004F076
:10E8BA00000ED4EC78F0120006C001F007C002F096
:10E8CA0008C003F009C004F0020ED4EC78F012007C
:10E8DA00B6EC74F03EEC7AF049EC74F0FAEC76F0AF
:10E8EA0084EC77F0A5EC74F01200016E3901A6A74A
:10E8FA0081EF74F083EF74F07BEF74F0600007F03F
:10E90A00D2FD1200390193939395929F93913D0101
:10E91A007A917A957A9F7A9D7A937693769576917B
:10E92A0012009CEF74F056EC77F097EC78F0000147
:10E93A0083B5A2EF74F0A4EF74F098EF74F01200AC
:10E94A00040E3D01736F800E746F180E756F030EFF
:10E95A007B6F000E796F000E7A6F000E766F6C690E
:10E96A001200000E3901C06F000EC16F000EC26F97
:10E97A00000EC36F000EC46F000EC56F000EC66F87
:10E98A00000EC76F1200000183A9CEEF74F0D0EF1A
:10E99A0074F0D9EF74F001C07DF002C07EF003C0BC
:10E9AA007FF004C080F083991200404D6963726F52
:10E9BA00636F6E74726F6C6C65727300404B505566
:10E9CA0020415053433132393920496E740071EC79
:10E9DA0073F074EC73F00009D8B4F6EF74F0F8EF42
:10E9EA0074F0FEEF74F0000EAEEC73F0000EB3ECB0
:10E9FA0073F0000E1200015003026F00CCFF05F005
:10EA0A006F00D0FF06F001500402F35006260250B0
:10EA1A000302F350062605C001F006C002F01200F8
:10EA2A00000E016E3901A6A71DEF75F01FEF75F0F4
:10EA3A0029EF75F03D01DAAB25EF75F027EF75F098
:10EA4A0029EF75F0010E016E01501200010E016EE0
:10EA5A00000183B533EF75F035EF75F03FEF75F0D0
:10EA6A0083977C6977EC73F087EC74F0BDEC73F0F4
:10EA7A0082C001F0015012000AC001F00BC002F07E
:10EA8A00000E046E020E036EC8EC74F0000E066EE1
:10EA9A00000E076E000E086E000E096E55EC74F03B
:10EAAA00040E12000AC001F00BC002F0000E046E40
:10EABA00010E036EC8EC74F0000E066E000E076EAF
:10EACA00000E086E000E096E55EC74F0020E12006C
:10EADA000AC001F00BC002F0000E046E020E036EB3
:10EAEA00C8EC74F0000E066E000E076E000E086E7B
:10EAFA00000E096E55EC74F0020E12000AC001F005
:10EB0A000BC002F0000E046E010E036EC8EC74F026
:10EB1A00000E066E000E076E000E086E000E096EDD
:10EB2A0055EC74F0040E120000018351FC0B02092B
:10EB3A00836F7F058011D8A4A5EF75F0A7EF75F054
:10EB4A00A9EF75F015EC79F0D88000017C35B3ECAB
:10EB5A0073F0040E12003D0173BFB6EF75F0B8EF03
:10EB6A0075F0C6EF75F0000E796F000E7A6F000E21
:10EB7A00766F6C69510E3A016A6F510E6B6F3D01E7
:10EB8A00738F1200036E000E026E3A0E0360D0EF0E
:10EB9A0075F0D2EF75F0DCEF75F02F0E0364D8EF45
:10EBAA0075F0DAEF75F0DCEF75F0010E026E02C057
:10EBBA0001F001301200EFEF75F060000FF0F6FF80
:10EBCA00600013F0F7FFF86A0800F550B8EC73F02C
:10EBDA00034A042A60000FF0F6FF600013F0F7FF03
:10EBEA00F86A0800F5500009D8A4FEEF75F000EFA6
:10EBFA0076F0E2EF75F0120020EE02F00A50D92604
:10EC0A000B50DA226F0078FF01F06F0074FF02F0F8
:10EC1A0060002BF0D9FF60002FF0DAFF6F0078FF59
:10EC2A0003F06F0074FF04F0C8EC74F0000E066E77
:10EC3A00000E076E000E086E000E096E55EC74F099
:10EC4A00020E1200FCEC73F00009D8B42FEF76F034
:10EC5A0031EF76F035EF76F059EC73F04FEF76F04E
:10EC6A0012EC74F00009D8B43DEF76F03FEF76F07D
:10EC7A0043EF76F05FEC73F04FEF76F007EC74F049
:10EC8A000009D8B44BEF76F04DEF76F04FEF76F0FF
:10EC9A005CEC73F01200146E010E156E000183B560
:10ECAA0059EF76F05BEF76F077EF76F08385000E1A
:10ECBA00156E7F51AEEC73F01450D8B467EF76F04E
:10ECCA0069EF76F070EF76F0040E0001816F99EC2F
:10ECDA0075F075EF76F0030E0001816F3EEC74F06B
:10ECEA0096EC74F015501200FC0E00018317020E08
:10ECFA00826F839588EF76F057EC73F0A2EF76F087
:10ED0A000F0EA2EF76F070C00AF071C00BF002D8B5
:10ED1A0098EF76F00500FA6E6451FD6E6551FE6E4D
:10ED2A00FF6AFA501200020AD8B481EF76F0010A9B
:10ED3A00D8B481EF76F085EF76F01200B40EF66E55
:10ED4A00E90EF76E000EF86E00EE84F010EE24F075
:10ED5A0009006F00D7FFEEFFE550E150F9E1A00E80
:10ED6A00F66EE60EF76E000EF86E09006F00D4FF1D
:10ED7A0050F009006F00D4FF51F000EE60F0240E4D
:10ED8A00EE6AE806FDE14F6A4E6A000108EF7CF080
:10ED9A001A6E1A505CEC79F00009D8B4D7EF76F005
:10EDAA00D9EF76F0CEEF76F016C001F017C002F078
:10EDBA0018C003F019C004F0C8EC74F0000E066E17
:10EDCA00000E076E000E086E000E096E61EC74F0FC
:10EDDA0087EC73F02BEC75F0E806D8B4F7EF76F011
:10EDEA00F9EF76F0EFEF76F01200000E3D01D46FE6
:10EDFA00000ED66F000ED86FB00EDA6F800EDB6F82
:10EE0A00000EDC6FE10EDD6F040EDE6F000EDF6FA9
:10EE1A00000EE06F000EE16F000EE26F9C0E016EB5
:10EE2A00E60E026E9FEC73F09E0E016EE60E026E07
:10EE3A00A4EC73F09A0E016EE60E026E9AEC73F071
:10EE4A00000E4E6E120077EC73F0020E0001826F14
:10EE5A003BEF77F0C9EC73F055EF77F055EC73F0B0
:10EE6A0055EF77F0D7EC73F055EF77F06EC00AF0F4
:10EE7A006FC00BF002D84BEF77F00500FA6E6251C3
:10EE8A00FD6E6351FE6EFF6AFA501200020AD8B490
:10EE9A002FEF77F0010AD8B433EF77F037EF77F036
:10EEAA0012003901A3A15CEF77F05EEF77F060EF13
:10EEBA0077F083EF77F0A2AF65EF77F067EF77F03F
:10EECA0069EF77F083EF77F03D0179A56FEF77F07F
:10EEDA0071EF77F073EF77F083EF77F079AF78EF30
:10EEEA0077F07AEF77F07CEF77F083EF77F076A917
:10EEFA0081EF77F083EF77F056EF77F01200000E8C
:10EF0A003D01EC6F000EED6F000EEE6F000EEF6F1D
:10EF1A00000EF06F000EF16FB00EF26F800EF36FFD
:10EF2A00000EF46F670EF56F000EF66F000EF76FA6
:10EF3A00000EF86F000EF96F000EFA6F000E016EE8
:10EF4A00000E026E90EC73F0000E016E000E026E5F
:10EF5A0095EC73F0000E016E000E026E8BEC73F0EE
:10EF6A00000E4F6E120000018389CDEF77F065EC39
:10EF7A0073F0070EEBEF77F000017F29AEEC73F028
:10EF8A00030EEBEF77F062EC73F00A0EEBEF77F01B
:10EF9A006CC00AF06DC00BF002D8DDEF77F0050007
:10EFAA00FA6E6051FD6E6151FE6EFF6AFA501200F0
:10EFBA00010AD8B4C8EF77F0030AD8B4BCEF77F0E7
:10EFCA00060AD8B4C1EF77F0C8EF77F01200186ECE
:10EFDA0018505CEC79F00009D8B4F6EF77F0F8EF46
:10EFEA0077F0EDEF77F0060E066EEB0E076E170E52
:10EFFA00086E000E096E55EC74F0160E016E000EC6
:10F00A00026E000E046E010E036EC8EC74F0000E60
:10F01A00066E000E076E000E086E000E096E61EC99
:10F02A0074F087EC73F02BEC75F0E806D8B420EF97
:10F03A0078F022EF78F018EF78F01200176E000ED1
:10F04A00186E17505CEC79F00009D8B42FEF78F0FD
:10F05A0031EF78F026EF78F0AE0E066EEA0E076E04
:10F06A00180E086E000E096E55EC74F0160E016E3D
:10F07A00000E026E000E046E010E036EC8EC74F0F0
:10F08A00000E066E000E076E000E086E000E096E68
:10F09A0061EC74F087EC73F02BEC75F0E806D8B4E9
:10F0AA0059EF78F05BEF78F051EF78F018501200D2
:10F0BA00000E066E000E056E03500410D8B468EFF9
:10F0CA0078F06AEF78F092EF78F0010E076E72EF3F
:10F0DA0078F0D89003360436072A04AE77EF78F032
:10F0EA0079EF78F06EEF78F0D8900536063603504F
:10F0FA00015C04500258D8A085EF78F087EF78F0C9
:10F10A008CEF78F00350015E0450025A0580D890C3
:10F11A0004320332072E79EF78F005C001F006C0F9
:10F12A0002F0120027EC76F000018351030B00096C
:10F13A00D8B4A2EF78F0A4EF78F0B1EF78F028EC29
:10F14A0074F00009D8B4ACEF78F0AEEF78F0B1EF14
:10F15A0078F0100E0001816F00018151020DEB0E53
:10F16A00F324F66EFE0EF420F76EF86A000EF8220B
:10F17A0009006F00D4FF12F009006F00D4FF13F0EA
:10F18A0002D8D1EF78F00500FA6E1250FD6E1350D6
:10F19A00FE6EFF6AFA5012000001816F1200056EBE
:10F1AA0001500210D8B4DCEF78F0DEEF78F0FCEF13
:10F1BA0078F00550020D600EF324D96E000EF4208B
:10F1CA00DA6E600007F0DEFF60000BF0DDFF05502D
:10F1DA00020D6C0EF324D96E000EF420DA6E600074
:10F1EA000FF0DEFF600013F0DDFF14EF79F0055039
:10F1FA00020D600EF324D96E000EF420DA6EA20E10
:10F20A00DE6EE60EDD6E0550020D6C0EF324D96E2D
:10F21A00000EF420DA6E000EDE6E000EDD6E1200B5
:10F22A000001838939EF79F065EC73F0080E5BEF22
:10F23A0079F065EC73F0070E5BEF79F000017F2936
:10F24A00AEEC73F0040E5BEF79F0070E0001811942
:10F25A00D8B432EF79F034EF79F036EF79F062EC26
:10F26A0073F00F0E5BEF79F06CC00AF06DC00BF013
:10F27A0002D849EF79F00500FA6E6051FD6E6151CE
:10F28A00FE6EFF6AFA501200010AD8B42AEF79F02A
:10F29A00030AD8B41EEF79F0010AD8B419EF79F04D
:10F2AA00070AD8B423EF79F02AEF79F01200016E39
:10F2BA00010E026E000183B765EF79F067EF79F00E
:10F2CA00A2EF79F001C07CF083958387FC0E831747
:10F2DA000F0E816F010E7B6FF40E7A6F8389A20E77
:10F2EA00606FE60E616F000E6C6F000E6D6FA20EFE
:10F2FA00626FE60E636F000E6E6F000E6F6FA20EE6
:10F30A00646FE60E656F000E706F000E716FA20ECD
:10F31A00666FE60E676F000E726F000E736FA60EB1
:10F32A00686FE60E696F000E746F000E756F77ECEA
:10F33A0073F0B0EC75F0000E026E02501200390143
:10F34A00A6A5AAEF79F0ACEF79F0A4EF79F0000E58
:10F35A004E6E3D01E1A7B4EF79F0B6EF79F0C3EF55
:10F36A0079F04E8202D8C3EF79F00500FA6E465062
:10F37A00FD6E4750FE6EFF6AFA5012003D01E1A38E
:10F38A00C9EF79F0CBEF79F0D8EF79F04E8402D853
:10F39A00D8EF79F00500FA6E4450FD6E4550FE6EC6
:10F3AA00FF6AFA5012004E50D8B4DEEF79F0E0EF5F
:10F3BA0079F0ECEF79F002D8ECEF79F00500FA6E0B
:10F3CA004250FD6E4350FE6EFF6AFA5012003D0134
:10F3DA00D05112001DEC74F00009D8A4F7EF79F0AF
:10F3EA00F9EF79F0FCEF79F0040E3DEF7AF00001C5
:10F3FA008351030B0009D8B405EF7AF007EF7AF0CE
:10F40A0013EF7AF0010E0C6E8351030B0D6E0C5044
:10F41A000D5E83510D18FC0B0D18836F7F07D8A062
:10F42A0080077F518011D8B41DEF7AF01FEF7AF070
:10F43A002DEF7AF068EC73F06000F7F1D9FF600005
:10F44A00FBF1DAFFDF6E00017D4B7E2BF9EF79F0DD
:10F45A0015EC79F00E6E68EC73F06000F7F1D9FFE5
:10F46A006000FBF1DAFFDF6E00017D4B7E2B0E5050
:10F47A001200000EBE6E000EBD6E000EBA6E000EB9
:10F48A00BB6E000EBC6E070EC66EC268BF0EC36EA0
:10F49A00A70EC46EFC0EC56EFC0E3A01706F670EA5
:10F4AA00606F7F0E506F070E806F4069000E716F9C
:10F4BA00000E816F000E516F000E416F000E616FDA
:10F4CA00000E5A6F000E5B6F000E6A6F000E6B6FB4
:10F4DA00000E7A6F000E7B6F000E826F000E426F75
:10F4EA00000E526F180E626F000E726F43695369F5
:10F4FA0063697369070E836F44695469646974693F
:10F50A000F0E846F0F0EE86F140EE26F160E0E6F59
:10F51A00210E136F220E146F130E166F170EE56F5E
:10F52A00130EE16F1200000E066E04BEA1EF7AF010
:10F53A009FEF7AF0A7EF7AF0036C041ED8B0042A82
:10F54A00010E066E02BEAEEF7AF0ACEF7AF0B4EFBF
:10F55A007AF0016C021ED8B0022A010E061A000EB9
:10F56A00086E000E076E03500410D8B4BFEF7AF08D
:10F57A00C1EF7AF0E9EF7AF0010E056EC9EF7AF081
:10F58A00D89003360436052A04AECEEF7AF0D0EFCF
:10F59A007AF0C5EF7AF0D890073608360350015C46
:10F5AA0004500258D8A0DCEF7AF0DEEF7AF0E3EFED
:10F5BA007AF00350015E0450025A0780D890043250
:10F5CA000332052ED0EF7AF00650D8B4EFEF7AF076
:10F5DA00F1EF7AF0F5EF7AF0076C081ED8B0082A36
:10F5EA0007C001F008C002F0120028EC74F000090C
:10F5FA00D8B402EF7BF004EF7BF034EF7BF011EF2D
:10F60A007BF0C9EC73F080EF7BF055EC73F080EF80
:10F61A007BF0000E80EF7BF072C00AF073C00BF033
:10F62A0002D822EF7BF00500FA6E00016651FD6EEA
:10F63A006751FE6EFF6AFA501200010AD8B40EEF43
:10F64A007BF0030AD8B406EF7BF0010AD8B40AEFBC
:10F65A007BF0070AD8B40EEF7BF00EEF7BF033ECA9
:10F66A0074F00009D8B43CEF7BF03EEF7BF07FEFFB
:10F67A007BF000018351030B0009D8B447EF7BF0FC
:10F68A0049EF7BF055EF7BF0010E0C6E8351030BB3
:10F69A000D6E0C500D5E83510D18FC0B0D18836F07
:10F6AA006000F7F1D9FF6000FBF1DAFFDF50106E5E
:10F6BA007D4B7E2B7F07D8A080077F518011D8A46D
:10F6CA0069EF7BF06BEF7BF073EF7BF0B8EC77F0D0
:10F6DA000C6E0C500E6E0F6A77EF7BF0000E0F6EF9
:10F6EA00030E0E6E0EC011F01050B3EC73F01150F1
:10F6FA0080EF7BF0030E1200FA0E1B6E580EE82EF6
:10F70A00FED71B2EFCD700D0800E166E280E176E61
:10F71A003E0EECEC77F0A40EE82EFED7800E166EA5
:10F72A000E0E176E3E0EECEC77F0A40EE82EFED706
:10F73A00800E166E010E176E3E0EECEC77F0200E60
:10F74A001B6E2A0EE82EFED71B2EFCD7800E166ED5
:10F75A00020E176E3E0EECEC77F0A40EE82EFED7E2
:10F76A00800E166E800E176E3E0EECEC77F0A40E2D
:10F77A00E82EFED7960E166E000E176E000E196E44
:10F78A00110E186E3E0ECDEC76F0800E166EC00E7F
:10F79A00176E3E0EECEC77F0A40EE82EFED7840E20
:10F7AA00166E000E176E000E196E110E186E3E0EB2
:10F7BA00CDEC76F0000E1D6E040E1C6E0C0E1B6E48
:10F7CA00340EE82EFED71B2EFCD71C2EFAD71D2A84
:10F7DA00270E1D64F3EF7BF0F5EF7BF0E1EF7BF092
:10F7EA00800E166E010E176E3E0EECEC77F0040ECC
:10F7FA001C6E0C0E1B6E340EE82EFED71B2EFCD789
:10F80A001C2EFAD712006DEC74F081EC7BF0760EA8
:10F81A00196EFF0E1A6E67EC7DF0680E196EFF0EF8
:10F82A001A6E67EC7DF0480E196EFF0E1A6E67ECC1
:10F83A007DF0590E196EFF0E1A6E67EC7DF0370EC9
:10F84A00196EFF0E1A6E67EC7DF0B0EC7CF0CD807D
:10F85A00F1EC73F00009D8B435EF7CF037EF7CF0A7
:10F86A00ABEF7CF0CD82A4EC79F0416E0D0E41181D
:10F87A00D8B442EF7CF044EF7CF04CEF7CF0400EC1
:10F88A00166E41C017F03E0EECEC77F0502A090EC6
:10F89A004118D8A453EF7CF055EF7CF05EEF7CF072
:10F8AA00800E166E010E176E3E0EECEC77F0800E8F
:10F8BA00506E15EC75F00009D8B466EF7CF068EF6D
:10F8CA007CF09FEF7CF0090E4118D8A46FEF7CF012
:10F8DA0071EF7CF079EF7CF0E00E196EFF0E1A6E74
:10F8EA0067EC7DF07CEF7CF041507AEC74F00D0E01
:10F8FA004118D8A483EF7CF085EF7CF09FEF7CF071
:10F90A000A0E7AEC74F0BF0E50648EEF7CF090EF22
:10F91A007CF094EF7CF0800E506E96EF7CF0C00E77
:10F92A00506E800E166E50C017F03E0EECEC77F05B
:10F93A009FEF7CF0140E4118D8A4A6EF7CF0A8EF34
:10F94A007CF0AAEF7CF0B0EC7CF0CD92CD902CEF5D
:10F95A007CF0FEEF7FF0F80E306EFF0E316ED20EA5
:10F96A00326EFF0E336EB50E346EFF0E356E900E8C
:10F97A00366EFF0E376EAC0E386EFF0E396ECB0E3A
:10F98A003A6EFF0E3B6EA30E3C6EFF0E3D6ED90E15
:10F99A003E6EFF0E3F6EC40E196EFF0E1A6E060EF5
:10F9AA00166E680E23EC78F02F6E2F501B6E1C6AB1
:10F9BA0067EC7DF0C70E196EFF0E1A6E050E166EF5
:10F9CA00680E23EC78F02F6E2F501B6E1C6A67ECC2
:10F9DA007DF0F40E196EFF0E1A6E040E166E680E86
:10F9EA0023EC78F02F6E2F501B6E1C6A67EC7DF0AB
:10F9FA009A0E196EFF0E1A6E030E166E680E23EC1F
:10FA0A0078F02F6E2F50020D300EF324D96E000EAF
:10FA1A00F420DA6E6F0078FF1BF06F0074FF1CF0A1
:10FA2A0067EC7DF0840E196EFF0E1A6E020E166ECA
:10FA3A00680E23EC78F0406E40C02FF01F0E2F1690
:10FA4A002F501B6E1C6A67EC7DF08A0E196EFF0E32
:10FA5A001A6E010E166E680E23EC78F02F6E2F5078
:10FA6A001B6E1C6A67EC7DF0EF0E196EFF0E1A6EA4
:10FA7A00000E166E680E23EC78F02F6E2F501B6E58
:10FA8A001C6A67EC7DF040C001F0026A000E046E49
:10FA9A00200E036E98EC7AF001A056EF7DF058EF35
:10FAAA007DF060EF7DF0EA0E056EFF0E066EE7EC64
:10FABA0073F066EF7DF0E50E056EFF0E066EE7EC5D
:10FACA0073F012001B0E266E000E276E5FEF7FF09A
:10FADA00250E2E18D8B474EF7DF076EF7DF07BEF0B
:10FAEA007DF02E50B8EC73F05FEF7FF0000E2D6EB4
:10FAFA00000E2C6E000E226E86EF7DF02284194ACB
:10FB0A001A2A600067F0F6FF60006BF0F7FFF86AE8
:10FB1A000800F550300AD8B483EF7DF095EF7DF0F8
:10FB2A00600067F0F6FF60006BF0F7FFF86A080004
:10FB3A00F550C7EC75F0D8A0A5EF7DF0A7EF7DF0E2
:10FB4A007FEF7EF0000E2D6E000E2C6E2CC001F0A1
:10FB5A002DC002F0000E046E0A0E036E00EC75F062
:10FB6A0001C02CF002C02DF0D00E1D6EFF0E1E6ECD
:10FB7A00600067F0F6FF60006BF0F7FFF86A0800B4
:10FB8A00F5501F6E206A1D501F261E5020221F503E
:10FB9A002C2620502D22194A1A2A600067F0F6FFF7
:10FBAA0060006BF0F7FFF86A0800F550C7EC75F0D3
:10FBBA00D8B0E2EF7DF0E4EF7DF0ABEF7DF07FEFC0
:10FBCA007EF060009BF0D9FF60009FF0DAFF6F00C3
:10FBDA0078FF28F06F0074FF29F0020E2626000E27
:10FBEA00272228502910D8A4FDEF7DF0FFEF7DF0E1
:10FBFA0003EF7EF0BD0E286EFF0E296E000E2B6EEF
:10FC0A00000E2A6E0BEF7EF02A4A2B2A2A5028244D
:10FC1A001D6E2B5029201E6E600077F0F6FF6000E3
:10FC2A007BF0F7FF000EF86E0F0EF76403D00800A2
:10FC3A00F55007D06F00DBFFE9FF6F00DFFFEAFF37
:10FC4A00EF500009D8A42CEF7EF02EEF7EF009EFDA
:10FC5A007EF02C502A5C2D502B58D8B037EF7EF00E
:10FC6A0039EF7EF03FEF7EF02A502C5E2B502D5A52
:10FC7A0048EF7EF0000E2D6E000E2C6E48EF7EF0DF
:10FC8A00200EB8EC73F02C06D8A02D062C2806E11D
:10FC9A002D28D8A453EF7EF055EF7EF045EF7EF085
:10FCAA0070EF7EF06000A3F0F6FF6000A7F0F7FFA8
:10FCBA00000EF86E0F0EF76403D00800F55007D057
:10FCCA006F00DBFFE9FF6F00DFFFEAFFEF50B8ECE0
:10FCDA0073F0284A292A2A06D8A02B062A2806E1E0
:10FCEA002B28D8A47BEF7EF07DEF7EF057EF7EF0D5
:10FCFA005FEF7FF0600067F0F6FF60006BF0F7FFE0
:10FD0A00194A1A2AF86A08006F00D4FF2EF02E50FA
:10FD1A00000AD8B474EF7FF0730AD8B4E6EF7DF026
:10FD2A000B0AD8B49BEF7EF05FEF7FF060009BF088
:10FD3A00D9FF60009FF0DAFF6F0078FF23F06F00B1
:10FD4A0074FF24F0020E2626000E2722010E2E6EC4
:10FD5A002E50020D1E0EF324F66EFF0EF420F76EDF
:10FD6A00F86A000EF8220900F550235C0900F550E4
:10FD7A002458D8B0C3EF7EF0C5EF7EF0C7EF7EF00F
:10FD8A00D1EF7EF02E2A040E2E18D8A4CFEF7EF0E3
:10FD9A00D1EF7EF0ADEF7EF02E501D6E1E6A2C5014
:10FDAA001D5C1E50800A1F6E2D50800A1F58D8B045
:10FDBA00E1EF7EF0E3EF7EF0E9EF7EF02E502C5E6D
:10FDCA00000E2D5AEDEF7EF0000E2D6E000E2C6EF9
:10FDDA0022A4F2EF7EF0F4EF7EF00EEF7FF02C50CB
:10FDEA002D10D8B4FBEF7EF0FDEF7EF026EF7FF00A
:10FDFA00300EB8EC73F02C06D8A02D062C502D101E
:10FE0A00D8A40AEF7FF00CEF7FF0FDEF7EF026EF2B
:10FE1A007FF02C502D10D8B415EF7FF017EF7FF03C
:10FE2A0026EF7FF0200EB8EC73F02C06D8A02D0632
:10FE3A002C502D10D8A424EF7FF026EF7FF017EF77
:10FE4A007FF02EC025F056EF7FF023C001F024C0CA
:10FE5A0002F02550020D1E0EF324F66EFF0EF4205A
:10FE6A00F76EF86A000EF82209006F00D4FF03F05B
:10FE7A000A006F00D4FF04F05DEC78F001500F0B1C
:10FE8A00216E260E2124F66EF76AFF0EF722F86A13
:10FE9A00000EF82208006F00D4FF2EF02E50B8ECA6
:10FEAA0073F025062528D8A45DEF7FF05FEF7FF079
:10FEBA002AEF7FF0600067F0F6FF60006BF0F7FF53
:10FECA00194A1A2AF86A08006F00D4FF2EF02E5039
:10FEDA00D8A472EF7FF074EF7FF06DEF7DF012001F
:10FEEA000086E732EB7CE8F4F5DEF370EF2AF29253
:10FEFA00E7AAE6AEE6D8E9FEE6F6E6A0E706E7AE4A
:10FF0A00E7F2EC50EEBEE74B5055204150534331D7
:10FF1A00323939000100100000010010303132334B
:10FF2A0034353637383961626364656600094B5087
:10FF3A00552041505343313239390D0A0A00090913
:10FF4A00493243204C434420544553540D0A000976
:10FF5A00092D2D2D2D202D2D2D2D0D0A0A000909D3
:10FF6A002D2D2D2D202D2D2D2D0D0A00090954453D
:10FF7A00535420434F44450D0A002074696D65208F
:10FF8A00253032783A005765646E6573646179008A
:10FF9A00206461792025732C005361747572646141
:10FFAA007900546875727364617900547565736475
:10FFBA00617900286E756C6C290020323025782F03
:10FFCA0000467269646179004D6F6E64617900530D
:10FFDA00756E646179000D0A0A0A0020414D0D0010
:10FFEA0020504D0D00253032780025782C00000075
:01FFFA000006
:04FFFC00A3EF76F009
:020000040020DA
:10000000FF0FFF0FFF0FFF0FFF0FFF0FFF0FFF0F80
:020000040030CA
:0A000000ECFEF7FF9FFFFFFFFFFF7C
:00000001FF
