:020000040000FA
:04000000FEEF7FF0A0
:1010000000090944454255474765722054455354E9
:101010000A0D00094B505520504859533136303095
:101020000A0A0D0009092D2D2D2D202D2D2D2D0AFB
:101030000A0D0009092D2D2D2D202D2D2D2D0A0DE8
:101040000009095445535420434F44450A0D004CB0
:101050004544204F46460D0A004C4544204F6E0D36
:031060000A000083
:10106400000EBE6E000EBD6E000EBA6E000EBB6E9C
:10107400000EBC6E070EC66EC268C368BF0EC46E97
:10108400BC0EC56E7F0E3A01706F7F0E606F5069A3
:10109400070E806F4069000E716F000E816F000EA5
:1010A400516F000E416F000E616F000E5A6F000EFB
:1010B4005B6F000E6A6F000E6B6F000E7A6F000E8E
:1010C4007B6F000E826F000E426F000E526F000E97
:1010D400626F000E726F4369536963697369070E27
:1010E400836F44695469646974690F0E846F1F0EB9
:1010F400E86F130E166F170EE56F160E1E6F1200B3
:1011040062EC09F0410E0F6E100E106E18EC09F02F
:10111400330E0F6E100E106E18EC09F0010E0F6EE8
:10112400100E106E18EC09F0240E0F6E100E106ED7
:1011340018EC09F0130E0F6E100E106E18EC09F077
:10114400CD90CD924F0E0F6E100E106E18EC09F06C
:10115400CD82590E0F6E100E106E18EC09F0CD8072
:10116400A2EF08F0FEEF7FF0000E3D01EC6F000EE1
:10117400ED6F000EEE6F000EEF6F000EF06F000EBD
:10118400F16FB00EF26F800EF36F000EF46F670E06
:10119400F56F000EF66F000EF76F000EF86F000E7D
:1011A400F96F000EFA6F000E0D6E000E0E6E89ECD4
:1011B40009F0000E0D6E000E0E6E82EC09F0000EAA
:1011C4000D6E000E0E6E90EC09F0000E156E1200FE
:1011D400000E3D01D46F000ED66F000ED86FB00E16
:1011E400DA6F800EDB6F000EDC6FE10EDD6F040E34
:1011F400DE6F000EDF6F000EE06F000EE16F000E79
:10120400E26F000E0D6E000E0E6E74EC09F0000E0F
:101214000D6E000E0E6E6DEC09F0000E0D6E000EDC
:101224000E6E7BEC09F0000E146E1200110E116E9E
:10123400000E126E21EF09F013509CEC09F06000CF
:101244003FF0F6FF600043F0F7FF0F4A102AF86AF8
:1012540008006F00D4FF13F01350D8A434EF09F042
:1012640036EF09F01EEF09F01200000E3901C06FCD
:10127400000EC16F000EC26F000EC36F000EC46F6C
:10128400000EC56F000EC66F000EC76F12000D6E04
:101294003901A6A750EF09F052EF09F04AEF09F01F
:1012A400600037F0D2FD1200600E3901D96F000ED4
:1012B400DB6F000EDD6F070EDF6F000EDE6F1200B6
:1012C40037EC09F032EC08F056EC09F0EAEC08F0DF
:1012D400B6EC08F01200600034F003F0600038F05F
:1012E40004F01200600034F005F0600038F006F0FD
:1012F4001200600034F001F0600038F002F01200D7
:10130400600034F009F0600038F00AF01200600068
:1013140034F00BF0600038F00CF01200600034F090
:1013240007F0600038F008F01200156A146A000132
:0E13340082EF08F00E6E0E5049EC09F0120028
:04FFFC0097EF09F082
:020000040020DA
:10000000FF0FFF0FFF0FFF0FFF0FFF0FFF0FFF0F80
:020000040030CA
:0A000000ECFEF7FF9FFFFFFFFFFF7C
:00000001FF
