:020000040000FA
:04000000FEEF7FF0A0
:10100000009220981DDE1FBE1190143C184E1670E1
:101010002022211E21EC1DCA20D2200E20C2200039
:1010200020841A6E19F21F4B505520415053433102
:1010300032393900094B5055204150534331323930
:10104000390D0A0A000909493243204C434420540F
:101050004553540D0A0009092D2D2D2D202D2D2D20
:101060002D0D0A0A0009092D2D2D2D202D2D2D2D98
:101070000D0A0009095445535420434F44450D0AB5
:07108000000D0A0A0A00003E
:1010880089EC0FF067EC09F0730E296E100E2A6ECA
:101098000AEC0EF0650E296E100E2A6E0AEC0EF0A0
:1010A800450E296E100E2A6E0AEC0EF0560E296EA9
:1010B800100E2A6E0AEC0EF0340E296E100E2A6EEF
:1010C8000AEC0EF0CD80E4EC0FF00009D8B46FEF15
:1010D80008F071EF08F0DAEF08F0CD8294EC0AF02E
:1010E800446E0D0E4418D8B47CEF08F07EEF08F07B
:1010F80087EF08F0400E3C6E600010F13DF03E0EA8
:10110800E7EC0BF0512A090E4418D8A48EEF08F02A
:1011180090EF08F099EF08F0800E3C6E010E3D6EDE
:101128003E0EE7EC0BF0800E516EB6EC0EF00009A7
:10113800D8B4A1EF08F0A3EF08F0D9EF08F0090E32
:101148004418D8A4AAEF08F0ACEF08F0B4EF08F000
:10115800810E296E100E2A6E0AEC0EF0B7EF08F019
:1011680044507CEC0FF00D0E4418D8A4BEEF08F0E4
:10117800C0EF08F0D9EF08F00A0E7CEC0FF0BF0EB4
:101188005164C9EF08F0CBEF08F0CFEF08F0800EFC
:10119800516ED1EF08F0C00E516E800E3C6E6000AB
:1011A80044F13DF03E0EE7EC0BF0CD92CD9066EFAA
:1011B80008F0FEEF7FF0ADEC0FF00009D8B4E7EFD0
:1011C80008F0E9EF08F01AEF09F0F6EF08F038EC4C
:1011D80010F066EF09F091EC10F066EF09F0000EE0
:1011E80066EF09F060004CF030F0600050F031F02C
:1011F80002D808EF09F00500FA6E0750FD6E085096
:10120800FE6EFF6AFA501200010AD8B4F3EF08F034
:10121800030AD8B4EBEF08F0010AD8B4EFEF08F0EE
:10122800070AD8B4F3EF08F0F3EF08F0A2EC0FF0D8
:101238000009D8B422EF09F024EF09F065EF09F0AE
:101248002450030B0009D8B42CEF09F02EEF09F055
:101258003AEF09F0010E326E2450030B336E325010
:10126800335E24503318FC0B3318246E60007BF077
:10127800D9FF60007FF0DAFFDF50366E1E4A1F2A62
:101288002006D8A0210620502110D8A44EEF09F03E
:1012980050EF09F058EF09F01EEC0CF0326E3250A6
:1012A800346E356A5CEF09F0000E356E030E346E4D
:1012B8006000D0F037F036504EEC10F0375066EF43
:1012C80009F0030E1200FA0E416E580EE82EFED7F2
:1012D800412EFCD700D0800E3C6E280E3D6E3E0E8F
:1012E800E7EC0BF0A40EE82EFED7800E3C6E0E0E37
:1012F8003D6E3E0EE7EC0BF0A40EE82EFED7800EF6
:101308003C6E010E3D6E3E0EE7EC0BF0200E416E7A
:101318002A0EE82EFED7412EFCD7800E3C6E020E18
:101328003D6E3E0EE7EC0BF0A40EE82EFED7800EC5
:101338003C6E800E3D6E3E0EE7EC0BF0A40EE82EE0
:10134800FED7720E3C6E000E3D6E000E3F6E110E03
:101358003E6E3E0E86EC0CF0800E3C6EC00E3D6E6E
:101368003E0EE7EC0BF0A40EE82EFED7600E3C6EA6
:10137800000E3D6E000E3F6E110E3E6E3E0E86EC68
:101388000CF0000E436E040E426E0C0E416E340ECD
:10139800E82EFED7412EFCD7422EFAD7432A270E35
:1013A8004364D9EF09F0DBEF09F0C7EF09F0800ECD
:1013B8003C6E010E3D6E3E0EE7EC0BF0040E426EE5
:1013C8000C0E416E340EE82EFED7412EFCD7422E6D
:1013D800FAD71200000EBE6E000EBD6E000EBA6E79
:1013E800000EBB6E000EBC6E070EC66EC268BF0E46
:1013F800C36EA70EC46EFC0EC56EFC0E3A01706F6C
:10140800670E606F7F0E506F070E806F4069000E89
:10141800716F000E816F000E516F000E416F000E4C
:10142800616F000E5A6F000E5B6F000E6A6F000E40
:101438006B6F000E7A6F000E7B6F000E826F000ECE
:10144800426F000E526F180E626F000E726F436982
:10145800536963697369070E836F446954696469E2
:1014680074690F0E846F0F0EE86F140EE26F160E7C
:101478000E6F210E136F220E146F130E166F170EB8
:10148800E56F130EE16F1200B8EC0FF00009D8A455
:1014980050EF0AF052EF0AF055EF0AF0040E93EFFE
:1014A8000AF02450030B0009D8B45DEF0AF05FEF8F
:1014B8000AF06BEF0AF0010E326E2450030B336E04
:1014C8003250335E24503318FC0B3318246E200638
:1014D800D8A0210620502110D8B475EF0AF077EF74
:1014E8000AF084EF0AF07DEC10F060007BF0D9FF81
:1014F80060007FF0DAFFDF6E1E4A1F2A52EF0AF003
:1015080027EC0BF0346E7DEC10F060007BF0D9FF17
:1015180060007FF0DAFFDF6E1E4A1F2A3450120087
:101528003901A6A59AEF0AF09CEF0AF094EF0AF0A9
:10153800000E256E3D01E1A7A4EF0AF0A6EF0AF020
:10154800B3EF0AF0258202D8B3EF0AF00500FA6E6D
:101558004950FD6E4A50FE6EFF6AFA5012003D0176
:10156800E1A3B9EF0AF0BBEF0AF0C8EF0AF025844F
:1015780002D8C8EF0AF00500FA6E4750FD6E4850D1
:10158800FE6EFF6AFA5012002550D8B4CEEF0AF06A
:10159800D0EF0AF0DCEF0AF002D8DCEF0AF0050021
:1015A800FA6E4550FD6E4650FE6EFF6AFA50120004
:1015B8003D01D0511200276E010E286E24B6E7EFC8
:1015C8000AF0E9EF0AF025EF0BF060009CF01DF03F
:1015D80024942486FC0E24160F0E226E010E1C6E17
:1015E800F40E1B6E24882A0E016E210E026E000E68
:1015F8000D6E000E0E6E2A0E036E210E046E000E86
:101608000F6E000E106E2A0E056E210E066E000E6D
:10161800116E000E126E2A0E076E210E086E000E55
:10162800136E000E146E260E096E210E0A6E000E41
:10163800156E000E166E6DEC10F089EC0EF0000EB3
:10164800286E28501200248848EF0BF080EC10F028
:10165800080E6CEF0BF080EC10F0070E6CEF0BF03F
:10166800202853EC10F0040E6CEF0BF0070E221834
:10167800D8B441EF0BF043EF0BF045EF0BF083ECE0
:1016880010F00F0E6CEF0BF0600034F030F06000DB
:1016980038F031F002D85AEF0BF00500FA6E01501D
:1016A800FD6E0250FE6EFF6AFA501200010AD8B4AD
:1016B8003AEF0BF0030AD8B42FEF0BF0010AD8B4B5
:1016C8002AEF0BF0070AD8B434EF0BF03AEF0BF01F
:1016D80012002B6E27502810D8B475EF0BF077EF57
:1016E8000BF095EF0BF02B50020D010EF324D96E81
:1016F800000EF420DA6E60009FF0DEFF6000A3F0B9
:10170800DDFF2B50020D0D0EF324D96E000EF420D0
:10171800DA6E6000A7F0DEFF6000ABF0DDFFADEF32
:101728000BF02B50020D010EF324D96E000EF4209D
:10173800DA6E2A0EDE6E210EDD6E2B50020D0D0EB6
:10174800F324D96E000EF420DA6E000EDE6E000E61
:10175800DD6E12006DEC0DF02450030B0009D8B4B7
:10176800B8EF0BF0BAEF0BF0C6EF0BF0ADEC0FF0E3
:101778000009D8B4C2EF0BF0C4EF0BF0C6EF0BF0C2
:10178800100E226E2250020D010EF324F66E100E7A
:10179800F420F76EF86A000EF82209006F00D4FFF3
:1017A80038F009006F00D4FF39F002D8E5EF0BF0EC
:1017B8000500FA6E3850FD6E3950FE6EFF6AFA5019
:1017C8001200226E12003E6E3E50DFEC0AF0000955
:1017D800D8B4F1EF0BF0F3EF0BF0E8EF0BF0520E8B
:1017E8002C6E1C0E2D6E3D0E2E6E000E2F6E4FECC5
:1017F8000FF03C0E276E000E286E000E2A6E010EAA
:10180800296EE1EC0EF0000E2C6E000E2D6E000E0F
:101818002E6E000E2F6E3FEC0FF05DEC10F0A0EC7A
:101828000EF0E806D8B41BEF0CF01DEF0CF013EF28
:101838000CF01200248831EF0CF080EC10F0070E49
:1018480051EF0CF0202853EC10F0030E51EF0CF080
:1018580083EC10F00A0E51EF0CF0600034F030F019
:10186800600038F031F002D843EF0CF00500FA6E52
:101878000150FD6E0250FE6EFF6AFA501200010A16
:10188800D8B42CEF0CF0030AD8B421EF0CF0060AF8
:10189800D8B426EF0CF02CEF0CF01200000E3D012E
:1018A800EC6F000EED6F000EEE6F000EEF6F000E86
:1018B800F06F000EF16FB00EF26F800EF36F000E36
:1018C800F46F670EF56F000EF66F000EF76F000EDF
:1018D800F86F000EF96F000EFA6F000E276E000EFB
:1018E800286E2AEC10F0000E276E000E286E23ECEE
:1018F80010F0000E276E000E286E31EC10F0000E6E
:10190800266E1200406E4050DFEC0AF00009D8B491
:1019180090EF0CF092EF0CF087EF0CF06000F0F015
:1019280027F06000F4F028F06000F8F029F060007B
:10193800FCF02AF0E1EC0EF0000E2C6E000E2D6E7D
:10194800000E2E6E000E2F6E3FEC0FF05DEC10F0C7
:10195800A0EC0EF0E806D8B4B4EF0CF0B6EF0CF03B
:10196800ACEF0CF012006DEC10F0020E236EC9EF14
:101978000CF038EC10F0E5EF0CF091EC10F0E5EF1E
:101988000CF000EC10F0E5EF0CF060003CF030F0EB
:10199800600040F031F002D8DBEF0CF00500FA6E81
:1019A8000350FD6E0450FE6EFF6AFA501200020AE0
:1019B800D8B4BDEF0CF0010AD8B4C1EF0CF0C5EFF4
:1019C8000CF012003901A3A1ECEF0CF0EEEF0CF0D3
:1019D800F0EF0CF013EF0DF0A2AFF5EF0CF0F7EF0E
:1019E8000CF0F9EF0CF013EF0DF03D0179A5FFEFC6
:1019F8000CF001EF0DF003EF0DF013EF0DF079AFE0
:101A080008EF0DF00AEF0DF00CEF0DF013EF0DF0ED
:101A180076A911EF0DF013EF0DF0E6EF0CF01200C0
:101A2800000E3D01D46F000ED66F000ED86FB00EB9
:101A3800DA6F800EDB6F000EDC6FE10EDD6F040ED7
:101A4800DE6F000EDF6F000EE06F000EE16F000E1C
:101A5800E26F320E276E210E286E15EC10F0300E54
:101A6800276E210E286E0EEC10F0340E276E210E14
:101A7800286E1CEC10F0000E256E1200FC0E2416C9
:101A8800020E236E249450EF0DF08FEC10F06CEFE3
:101A98000DF00F0E6CEF0DF0600044F030F06000B8
:101AA80048F031F002D862EF0DF00500FA6E0550EB
:101AB800FD6E0650FE6EFF6AFA501200020AD8B494
:101AC80049EF0DF0010AD8B449EF0DF04DEF0DF0D4
:101AD8001200D9EC0FF00009D8B475EF0DF077EFCC
:101AE8000DF07BEF0DF08CEC10F095EF0DF0C3ECE2
:101AF8000FF00009D8B483EF0DF085EF0DF089EFF2
:101B08000DF086EC10F095EF0DF0CEEC0FF000091B
:101B1800D8B491EF0DF093EF0DF095EF0DF089EC3F
:101B280010F01200140EF66E1E0EF76E000EF86E10
:101B380000EE60F010EE24F009006F00D7FFEEFF12
:101B4800E550E150F9E12E0EF66E210EF76E000E0B
:101B5800F86E09006F00D4FF51F009006F00D4FF40
:101B680052F000EE01F0260EEE6AE806FDE10001F3
:101B780044EF08F03A6E010E3B6E24B4C6EF0DF048
:101B8800C8EF0DF0E2EF0DF02484000E3B6E2050FC
:101B980053EC10F03A50D8B4D4EF0DF0D6EF0DF066
:101BA800DCEF0DF0040E226ECCEC0EF0E0EF0DF041
:101BB800030E226EEFEC0FF06EEC0FF03B501200AC
:101BC80020EE02F03050D9263150DA226F0078FF2B
:101BD80027F06F0074FF28F06000C3F0D9FF6000A1
:101BE800C7F0DAFF6F0078FF29F06F0074FF2AF062
:101BF800E1EC0EF0000E2C6E000E2D6E000E2E6E17
:101C0800000E2F6E4FEC0FF0020E12002B0E2B6EF3
:101C1800000E2C6E13EF0EF02D5044EC10F0600007
:101C2800A7F0F6FF6000ABF0F7FF294A2A2AF86A06
:101C380008006F00D4FF2DF02D50D8A426EF0EF029
:101C480028EF0EF010EF0EF012006000C0F027F041
:101C58006000C4F028F0000E2A6E010E296EE1EC37
:101C68000EF0000E2C6E000E2D6E000E2E6E000E65
:101C78002F6E4FEC0FF0040E12006000C0F027F03A
:101C88006000C4F028F0000E2A6E020E296EE1EC06
:101C98000EF0000E2C6E000E2D6E000E2E6E000E35
:101CA8002F6E4FEC0FF0020E12006000C0F027F00C
:101CB8006000C4F028F0000E2A6E010E296EE1ECD7
:101CC8000EF0000E2C6E000E2D6E000E2E6E000E05
:101CD8002F6E4FEC0FF0020E12006000C0F027F0DC
:101CE8006000C4F028F0000E2A6E020E296EE1ECA6
:101CF8000EF0000E2C6E000E2D6E000E2E6E000ED5
:101D08002F6E4FEC0FF0040E12003D0173BF8FEFE2
:101D18000EF091EF0EF09FEF0EF0000E796F000EAF
:101D28007A6F000E766F6C69510E3A016A6F510E28
:101D38006B6F3D01738F1200010E276E24B4A7EF5D
:101D48000EF0A9EF0EF0B4EF0EF024961D686DECBE
:101D580010F05FEC0FF03EEC10F060008CF027F014
:101D680027501200000E276E3901A6A7BEEF0EF00D
:101D7800C0EF0EF0CAEF0EF03D01DAABC6EF0EF081
:101D8800C8EF0EF0CAEF0EF0010E276E27501200B2
:101D98002450FC0B0209246E20042110D8A4D7EF8C
:101DA8000EF0D9EF0EF0DBEF0EF027EC0BF0D88039
:101DB8001D344EEC10F0040E120024A8E6EF0EF0CD
:101DC800E8EF0EF0F5EF0EF060009CF01EF06000FA
:101DD800A0F01FF06000A4F020F06000A8F021F04F
:101DE8002498120074EC10F071EC10F00009D8B4CB
:101DF80000EF0FF002EF0FF008EF0FF0000E53ECBA
:101E080010F0000E4EEC10F0000E1200404D696309
:101E1800726F636F6E74726F6C6C65727300404B97
:101E2800505520415053433132393920496E74009E
:101E3800000E3901C06F000EC16F000EC26F000E98
:101E4800C36F000EC46F000EC56F000EC66F000E84
:101E5800C76F1200040E3D01736F800E746F180E69
:101E6800756F030E7B6F000E796F000E7A6F000E90
:101E7800766F6C6912006000B0F027F06000B4F073
:101E880028F06000B8F029F06000BCF02AF0020EDB
:101E98006DEC0BF012006000B0F027F06000B4F0B9
:101EA80028F06000B8F029F06000BCF02AF0000EBD
:101EB8006DEC0BF01200390193939395929F9391D7
:101EC8003D017A917A957A9F7A9D7A937693769561
:101ED8007691120074EF0FF0E6EC0CF0AEEC0BF01C
:101EE80024B479EF0FF07BEF0FF070EF0FF01200D2
:101EF800276E3901A6A783EF0FF085EF0FF07DEF6E
:101F08000FF060009FF0D2FD12001CEC0FF0EEEC19
:101F180009F096EC0FF014EC0DF052EC0CF02EECEE
:101F28000FF01200600E3901D96F000EDB6F000E42
:101F3800DD6F070EDF6F000EDE6F12003D0178BB0C
:101F4800A8EF0FF0ABEF0FF0010EACEF0FF0000EA3
:101F580012003D0174BBB3EF0FF0B6EF0FF0010EA6
:101F6800B7EF0FF0000E12003D0178B1BEEF0FF091
:101F7800C1EF0FF0010EC2EF0FF0000E12003D018D
:101F880079B5C9EF0FF0CCEF0FF0010ECDEF0FF0E0
:101F9800000E12003D0176B9D4EF0FF0D7EF0FF025
:101FA800010ED8EF0FF0000E12003D0179BFDFEFF0
:101FB8000FF0E2EF0FF0010EE3EF0FF0000E12004A
:101FC8003901A6B5EAEF0FF0EDEF0FF0010EEEEFD5
:101FD8000FF0000E12002450FC0B0209246E1D5055
:101FE8001D244EEC10F0030E120058EC10F024944F
:101FF800020E236E0F0E120058EC10F02494000EFF
:10200800236E0F0E120077EC10F074EC10F049EC10
:1020180010F0120060009CF047F06000A0F048F05B
:10202800120060009CF049F06000A0F04AF0120035
:1020380060009CF045F06000A0F046F012006000DF
:102048009CF04DF06000A0F04EF0120060009CF093
:102058004FF06000A0F050F0120060009CF04BF0D0
:102068006000A0F04CF01200205053EC10F0CCECC3
:102078000EF012003D01739F000E796F78851200F3
:10208800286E28507CEC0FF012002494000E236E6A
:102098000F0E1200276E60009FF06BFD1200276E76
:1020A80060009FF06CFD12003D01739F7885738F6F
:1020B8001200000EBEEC0DF0120077EC10F0090EC5
:1020C80012007AEC10F0040E12007AEC10F0030EF5
:1020D8001200000E3D01796F12003D016C51120093
:1020E8003D01739B12003D01748D12003D01749DEA
:1020F80012003D016A5112003D01738D12003D012D
:10210800739D12003D01799512003D0176991200E8
:102118003D01799F1200010E1200020E1200050EF9
:0E2128001200010E1200803E12001200120082
:04FFFC0096EF0DF07F
:020000040020DA
:10000000FF0FFF0FFF0FFF0FFF0FFF0FFF0FFF0F80
:020000040030CA
:0A000000ECFEF7FF9FFFFFFFFFFF7C
:00000001FF
