:020000040000FA
:04000000FEEF7FF0A0
:10CDD400120012001200120012001200B28012009F
:10CDE400AC8E1200A6801200F2EC66F01200026E05
:10CDF400025077EC67F01200600004F0D5F0600098
:10CE040008F0D6F01200600004F0D9F0600008F0D9
:10CE1400DAF01200600004F0D7F0600008F0D8F0F7
:10CE24001200600004F0CFF0600008F0D0F01200AF
:10CE3400600004F0D3F0600008F0D4F01200600049
:10CE440004F0D1F0600008F0D2F0120041505343D6
:10CE54003132393900286E756C6C29003901A6B558
:10CE640036EF67F039EF67F0010E3AEF67F0000E26
:10CE740012003901A3B741EF67F044EF67F0010EE8
:10CE840045EF67F0000E1200880E7E6E000E7D6E78
:10CE9400000E7C6E3F015E51FC0B01095E6F1200B7
:10CEA400620E3901D96F000EDB6F000EDD6F070EC5
:10CEB400DF6F000EDE6F1200800E6E6E120E6D6E4E
:10CEC400800E6C6E3F015F51FC0B01095F6F120015
:10CED400016E3901A3A971EF67F073EF67F06BEF8F
:10CEE40067F0600007F0EAFD1200016E3901A6A7A1
:10CEF4007EEF67F080EF67F078EF67F0600007F08F
:10CF0400D2FD1200F0EC67F00009D8B48CEF67F0A2
:10CF14008EEF67F084EF67F0BC0E6AEC67F01200E6
:10CF2400010EAE6E000EAD6E000EAF6EBB0EAB6E9C
:10CF3400000EAA6E3901A495C00EAC6E1200000E4C
:10CF44003901C06F000EC16F000EC26F000EC36FB7
:10CF5400000EC46F000EC56F000EC66F000EC76FC3
:10CF6400120020EEDFF010EE08F0080E6F006FFFE5
:10CF7400E3FFE806FBE2080E026E000E036E080EE5
:10CF8400046E50EC6CF01200A1EC67F0F0EC6CF065
:10CF940052EC67F046EC67F049EC68F092EC67F00D
:10CFA4005EEC67F064EC68F0AAEC69F0D9EC69F027
:10CFB4001200A6826F0090FE08F06F0094FE07F046
:10CFC4000750036E0850056E60000CF006F0600018
:10CFD40014F001F0600018F002F01200000E016E6F
:10CFE4003901A3A9F8EF67F0FAEF67F004EF68F0EE
:10CFF4003D01F2AB00EF68F002EF68F004EF68F077
:10D00400010E016E01501200000E016E3901A6A737
:10D014000EEF68F010EF68F01AEF68F03D01DAAB3C
:10D0240016EF68F018EF68F01AEF68F0010E016E61
:10D0340001501200A20E0001A66F000EA76F000E91
:10D04400986F000E996F600080F29AF0600084F28D
:10D054009BF0A60E9C6F000E9D6FE9EC6AF0120027
:10D06400015003026F00CCFF05F06F00D0FF06F003
:10D0740001500402F350062602500302F350062620
:10D08400600014F001F0600018F002F01200000ECD
:10D09400A76E000EA86E0A0EA96EA568A4683901D1
:10D0A400A69DA4506F0094FE01F0026A600004F093
:10D0B40002F0016A01100001DB6F0250DC6F030E05
:10D0C400A66E1200000EB36E000EB46E010EB56EA5
:10D0D4006D0EB16E840EB06E3901A491B0506F0024
:10D0E400C4FE01F0026A600004F002F0016A01105B
:10D0F4000001DD6F0250DE6F330EB26E1200D00EEF
:10D10400036EFF0E046E600004F005F0600008F08A
:10D1140006F0035005260450062206500AE10A0EC2
:10D12400055CD8A098EF68F09BEF68F0010E9CEFC7
:10D1340068F0000E016E026A1200600004F003F051
:10D14400600008F004F0A9EF68F0014A022A6000C8
:10D1540007F0D9FF60000BF0DAFFDF50D8A4B5EF79
:10D1640068F0B7EF68F0A7EF68F00350015C016E58
:10D1740004500258026E1200500EF66ECE0EF76E78
:10D18400000EF86E00EEDFF010EE10F009006F00F4
:10D19400D7FFEEFFE550E150F9E101EE48F012EE61
:10D1A400B8F3EE6AE550E150FCE1E250FAE100EE3A
:10D1B40060F0380EEE6AE806FDE1000127EF7BF02F
:10D1C400000E126E000E116EF6EF68F0600040F073
:10D1D40003F0046A600038F005F060003CF006F0EB
:10D1E40033EC6FF0114A122A11500C24D96E1250EC
:10D1F4000D20DA6EDF50106E1050D8A404EF69F0E1
:10D2040006EF69F0E8EF68F0120014BE14EF69F05D
:10D21400145006E11304D8B012EF69F014EF69F06A
:10D2240026EF69F060004CF015F0600050F016F045
:10D23400151E161E154A162A600054F013F06000DD
:10D2440058F014F02CEF69F060004CF013F060001B
:10D2540050F014F01200F0EC67F00009D8B435EF88
:10D2640069F037EF69F02DEF69F0B90E6AEC67F0F9
:10D27400F0EC67F00009D8B442EF69F044EF69F0CC
:10D284003AEF69F0000E6AEC67F0F0EC67F0000921
:10D29400D8B44FEF69F051EF69F047EF69F0010E30
:10D2A4006AEC67F01200026EF0EC67F00009D8B483
:10D2B4005EEF69F060EF69F056EF69F0B80E6AEC62
:10D2C40067F0F0EC67F00009D8B46BEF69F06DEF2C
:10D2D40069F063EF69F0010E6AEC67F0F0EC67F057
:10D2E4000009D8B478EF69F07AEF69F070EF69F06B
:10D2F40002506AEC67F01200010E076E200E01184E
:10D304000210D8B488EF69F08AEF69F0A5EF69F0EC
:10D31400F70E036EFF0E046E600004F005F060006B
:10D3240008F006F00350052604500622065009E1D1
:10D33400050E055CD8A0A1EF69F0A3EF69F0A5EF95
:10D3440069F0000E076E60001CF001F0026A120022
:10D35400000E3D01D46F000ED66F000ED86FB00ED4
:10D36400DA6F800EDB6F000EDC6F380EDD6F010E9E
:10D37400DE6F000EDF6F000EE06F000EE16F000E37
:10D38400E26FD60E016ECD0E026E1AEC67F0D80E67
:10D39400016ECD0E026E21EC67F0D40E016ECD0E3F
:10D3A400026E13EC67F0000E00016C6F1200000EA9
:10D3B4003D01EC6F000EED6F000EEE6F000EEF6F8F
:10D3C400000EF06F000EF16FB00EF26F800EF36F6F
:10D3D400000EF46F190EF56F000EF66F000EF76F66
:10D3E400000EF86F000EF96F000EFA6FDC0E016E7E
:10D3F400CD0E026E05EC67F0DE0E016ECD0E026EF0
:10D404000CEC67F0DA0E016ECD0E026EFEEC66F0E7
:10D41400000E00016D6F1200026EF0EC67F000095F
:10D42400D8B417EF6AF019EF6AF00FEF6AF0C10E83
:10D434006AEC67F0F0EC67F00009D8B424EF6AF006
:10D4440026EF6AF01CEF6AF002506AEC67F0F0EC29
:10D4540067F00009D8B431EF6AF033EF6AF029EFCE
:10D464006AF0C50E6AEC67F0F0EC67F00009D8B416
:10D474003EEF6AF040EF6AF036EF6AF002506AEC71
:10D4840067F01200026EF0EC67F00009D8B44DEFBB
:10D494006AF04FEF6AF045EF6AF0C20E6AEC67F08B
:10D4A400F0EC67F00009D8B45AEF6AF05CEF6AF068
:10D4B40052EF6AF002506AEC67F0F0EC67F0000992
:10D4C400D8B467EF6AF069EF6AF05FEF6AF0C50EEF
:10D4D4006AEC67F0F0EC67F00009D8B474EF6AF016
:10D4E40076EF6AF06CEF6AF002506AEC67F01200B3
:10D4F400026EF0EC67F00009D8B483EF6AF085EFB0
:10D504006AF07BEF6AF0C10E6AEC67F0F0EC67F04A
:10D514000009D8B490EF6AF092EF6AF088EF6AF0ED
:10D5240002506AEC67F0F0EC67F00009D8B49DEFA4
:10D534006AF09FEF6AF095EF6AF0C60E6AEC67F046
:10D54400F0EC67F00009D8B4AAEF6AF0ACEF6AF027
:10D55400A2EF6AF002506AEC67F01200A40E000118
:10D56400A86F000EA96F600080F2AAF0600084F238
:10D57400ABF0000EAD6F000EAC6F000EAF6F000E7F
:10D58400AE6FAA0E986F000E996F600088F29AF041
:10D5940060008CF29BF0A80E9C6F000E9D6FE9EC6E
:10D5A4006AF0600060F2A6F0600064F2A7F0000187
:10D5B400AC51A025D96EAD51A121DA6E000EDF6EFB
:10D5C400600098F2A0F060009CF2A1F012006000EC
:10D5D40068F29EF060006CF29FF0000E0001616F33
:10D5E400000E606F0DEF6BF0600060F242F06000BF
:10D5F40064F243F09E0E446E000E456E600070F2BD
:10D6040046F0600074F247F0B6EC78F04250000146
:10D6140060274350612360007BF2F6FF60007FF2D5
:10D62400F7FFF86A0800F5500009D8A41CEF6BF066
:10D634001EEF6BF0F6EF6AF0600080F198F0600086
:10D6440084F199F01200F0EC67F00009D8B42DEFE2
:10D654006BF02FEF6BF025EF6BF0BA0E6AEC67F00E
:10D664003BEC67F00009D8B43AEF6BF03CEF6BF099
:10D6740032EF6BF048EF6BF03BEC67F00009D8B485
:10D6840046EF6BF048EF6BF03EEF6BF001EC6CF0A3
:10D69400630AD8A450EF6BF052EF6BF03EEF6BF0DF
:10D6A400F0EC67F00009D8B45AEF6BF05CEF6BF064
:10D6B40052EF6BF0B70E6AEC67F0CA0E026EFF0E03
:10D6C400036E080E046E50EC6CF01200720E000132
:10D6D400A06FFF0EA16F1CEC68F0F0EC67F000097E
:10D6E400D8B477EF6BF079EF6BF06FEF6BF0B10EAE
:10D6F4006AEC67F03BEC67F00009D8B484EF6BF098
:10D7040086EF6BF07CEF6BF001EC6CF00001AC6F1A
:10D714003BEC67F00009D8B492EF6BF094EF6BF038
:10D724008AEF6BF001EC6CF00001AD6FD30EA06FCB
:10D73400FF0EA16FAD51AB6FAA6BAC51AA25A26FBE
:10D74400000EAB21A36F1CEC68F00001AD51AB6F70
:10D75400AA6BAC51AA25A86F000EAB21A96F1200C9
:10D764003901A6A5B8EF6BF0BAEF6BF0B2EF6BF02E
:10D77400000E00016C6F3D01E1A7C3EF6BF0C5EF34
:10D784006BF0D3EF6BF000016C8302D8D3EF6BF036
:10D794000500FA6ED351FD6ED451FE6EFF6AFA5045
:10D7A40012003D01E1A3D9EF6BF0DBEF6BF0E9EF81
:10D7B4006BF000016C8502D8E9EF6BF00500FA6E9E
:10D7C400D151FD6ED251FE6EFF6AFA501200000173
:10D7D4006C51D8B4F0EF6BF0F2EF6BF0FEEF6BF03E
:10D7E40002D8FEEF6BF00500FA6ECF51FD6ED051FA
:10D7F400FE6EFF6AFA5012003D01D0511200390149
:10D80400A3A707EF6CF009EF6CF001EF6CF0000ECA
:10D8140000016D6F3D01F9A712EF6CF014EF6CF08D
:10D8240022EF6CF000016D8302D822EF6CF005004A
:10D83400FA6ED951FD6EDA51FE6EFF6AFA5012008B
:10D844003D01F9A328EF6CF02AEF6CF038EF6CF08F
:10D8540000016D8502D838EF6CF00500FA6ED751DF
:10D86400FD6ED851FE6EFF6AFA50120000016D5130
:10D87400D8B43FEF6CF041EF6CF04DEF6CF002D890
:10D884004DEF6CF00500FA6ED551FD6ED651FE6E6B
:10D89400FF6AFA5012003D01E8511200000E076EB3
:10D8A400F0EC67F00009D8B45AEF6CF05CEF6CF060
:10D8B40052EF6CF0B80E6AEC67F0F0EC67F0000918
:10D8C400D8B467EF6CF069EF6CF05FEF6CF0045064
:10D8D4006AEC67F096EF6CF0F0EC67F00009D8B4EE
:10D8E40076EF6CF078EF6CF096EF6CF00750022452
:10D8F400056E000E0320066E600017F0F6FF600050
:10D904001BF0F7FF000EF86E0F0EF76403D008004B
:10D91400F55007D06F00DBFFE1FF6F00DFFFE2FF90
:10D92400E7506AEC67F0072A0450075CD8A09DEF23
:10D934006CF09FEF6CF06EEF6CF01200026EF0EC86
:10D9440067F00009D8B4A9EF6CF0ABEF6CF0A1EF6D
:10D954006CF0BB0E6AEC67F0F0EC67F00009D8B429
:10D96400B6EF6CF0B8EF6CF0AEEF6CF002506AEC0E
:10D9740067F0F0EC67F00009D8B4C3EF6CF0C5EFC2
:10D984006CF0BBEF6CF0010E6AEC67F0F0EC67F042
:10D994000009D8B4D0EF6CF0D2EF6CF0C8EF6CF0A3
:10D9A400140E6AEC67F0F0EC67F00009D8B4DDEF10
:10D9B4006CF0DFEF6CF0D5EF6CF0030E6AEC67F0FF
:10D9C400F0EC67F00009D8B4EAEF6CF0ECEF6CF01F
:10D9D400E2EF6CF0020E6AEC67F01200000EBE6E0D
:10D9E400000EBD6E000EBA6E000EBB6E000EBC6E55
:10D9F400070EC66EC268BF0EC36EAF0EC46EFC0EB9
:10DA0400C56E3A0170697F0E606F5F0E506F070E2E
:10DA1400806F4069000E716F000E816F000E516FB0
:10DA2400000E416F000E616F000E5A6F000E5B6FA7
:10DA3400000E6A6F000E6B6F000E7A6F000E7B6F24
:10DA4400000E826F000E426F000E526F000E626F66
:10DA5400000E726F4369536963697369070E836FBC
:10DA640044695469646974690F0E846F0F0EE86F1A
:10DA7400160E0E6F0D0E146F130E166F170EE56F44
:10DA84001200000E0001B26F000EB46F060EB36FE9
:10DA9400F0EC67F00009D8B452EF6DF054EF6DF07C
:10DAA4004AEF6DF0810E6AEC67F06FEF6DF03BECBE
:10DAB40067F00009D8B461EF6DF063EF6DF06FEFBC
:10DAC4006DF0AB0E0001B225D96EDA6A000EDA22CF
:10DAD40001EC6CF0DF6E0001B22B0001B251A86FB3
:10DAE400A96BB351A85DA951800AAA6FB451800AE9
:10DAF400AA59D8A080EF6DF082EF6DF059EF6DF068
:10DB0400AB0EB325D96E000EB421DA6E000EDF6EB3
:10DB1400030EA06FFE0EA16FAB0EA26F000EA36FDB
:10DB24001CEC68F0AB0E026E000E036E6000CCF2CB
:10DB340004F050EC6CF01200000E0001BC6F68ECB5
:10DB44006BF06000A0F2B9F06000A4F2BAF0B00E7D
:10DB54000001A06F000EA16FE30EA26FFF0EA36F72
:10DB64006000E4F2A4F06000E8F2A5F0B0EC6AF022
:10DB74000001A051BB6FF0EC67F00009D8B4C5EF09
:10DB84006DF0C7EF6DF0BDEF6DF0B80E6AEC67F0A5
:10DB9400F0EC67F00009D8B4D2EF6DF0D4EF6DF07B
:10DBA400CAEF6DF00001BB516AEC67F0F0EF6DF065
:10DBB400F0EC67F00009D8B4E2EF6DF0E4EF6DF03B
:10DBC400F0EF6DF0B00E0001BC25D96EDA6A000EDC
:10DBD400DA22DF506AEC67F00001BC2B0001BB5174
:10DBE400BC5DD8A0F8EF6DF0FAEF6DF0DAEF6DF0F0
:10DBF4001200000E066E04BE04EF6EF002EF6EF02B
:10DC04000AEF6EF0036C041ED8B0042A010E066EEF
:10DC140002BE11EF6EF00FEF6EF017EF6EF0016CB5
:10DC2400021ED8B0022A010E061A000E086E000E5B
:10DC3400076E03500410D8B422EF6EF024EF6EF098
:10DC44004CEF6EF0010E056E2CEF6EF0D89003369B
:10DC54000436052A04AE31EF6EF033EF6EF028EF90
:10DC64006EF0D890073608360350015C0450025811
:10DC7400D8A03FEF6EF041EF6EF046EF6EF0035028
:10DC8400015E0450025A0780D89004320332052EF4
:10DC940033EF6EF00650D8B452EF6EF054EF6EF0DE
:10DCA40058EF6EF0076C081ED8B0082A60001CF00C
:10DCB40001F0600020F002F01200F0EC67F00009BF
:10DCC400D8B467EF6EF069EF6EF05FEF6EF0CD825F
:10DCD400870E6AEC67F0000E126E3BEC67F00009E9
:10DCE400D8B477EF6EF079EF6EF06FEF6EF0080E48
:10DCF4001224D96EDA6A000EDA2201EC6CF0DF6EBF
:10DD04003BEC67F00009D8B48AEF6EF08CEF6EF04C
:10DD140082EF6EF00D0E1224D96EDA6A000EDA224A
:10DD240001EC6CF0DF6E0D0E1224D96EDA6A000E6F
:10DD3400DA22DF50046E0450066E056A080E1224BF
:10DD4400D96EDA6A000EDA22DF50076E0750052614
:10DD5400000E06221250020D8E0EF324D96E000E10
:10DD6400F420DA6E600017F0DEFF60001BF0DDFFC8
:10DD7400122A040E1264C1EF6EF0C3EF6EF06FEF5F
:10DD84006EF0CD928E0E026E000E036E12005FECEA
:10DD94006EF0600008F0A8F060000CF0A9F05B0ED3
:10DDA4000001A06FFF0EA16F6000A3F2D9FF600015
:10DDB400A7F2DAFF6F0078FFA2F06F0074FFA3F000
:10DDC4001CEC68F06C0E0001A06FFF0EA16F20EE3A
:10DDD40002F0A851D926A951DA226F0078FFA2F0E7
:10DDE4006F0074FFA3F01CEC68F06C0E0001A06FD0
:10DDF400FF0EA16F20EE04F0A851D926A951DA2212
:10DE04006F0078FFA2F06F0074FFA3F01CEC68F0C1
:10DE14006C0E0001A06FFF0EA16F20EE06F0A8515A
:10DE2400D926A951DA226F0078FFA2F06F0074FF9F
:10DE3400A3F01CEC68F0F30E0001A06FFF0EA16FBD
:10DE440020EE08F0A851D926A951DA226F0078FFF4
:10DE5400A2F06F0074FFA3F01CEC68F0C9EF6EF041
:10DE6400120005500610D8B43AEF6FF03CEF6FF093
:10DE740045EF6FF005500610D8A443EF6FF045EF5F
:10DE84006FF04AEF6FF00350F9EC66F09EEF6FF01D
:10DE940020EE04F00550D9260650DA22DE50DE10BA
:10DEA400D8B457EF6FF059EF6FF074EF6FF020EEC6
:10DEB40004F00550D9260650DA2210EE02F005507F
:10DEC400E1260650E222DE50E65CE650800A0B6E44
:10DED400DE50800A0B58D8B072EF6FF074EF6FF019
:10DEE4009EEF6FF020EE02F00550D9260650DA229C
:10DEF4006F0078FF07F06F0074FF08F0600017F000
:10DF0400D9FF60001BF0DAFF6F0078FF09F06F00A3
:10DF140074FF0AF007500924D96E08500A20DA6EFB
:10DF240060000FF0DFFF20EE02F00550D926065006
:10DF3400DA22DE2A000EDD22120009500A100B102C
:10DF44000C100D100E100F101010D8B4ACEF6FF0B1
:10DF5400AEEF6FF0F6EF6FF0010E116EBCEF6FF0E5
:10DF6400D89009360A360B360C360D360E360F3677
:10DF74001036112A10AEC1EF6FF0C3EF6FF0B2EF9D
:10DF84006FF00950015C0A5002580B5003580C50B2
:10DF940004580D5005580E5006580F50075810508D
:10DFA4000858D8A0D8EF6FF0DAEF6FF0EAEF6FF00F
:10DFB4000950015E0A50025A0B50035A0C50045A7D
:10DFC4000D50055A0E50065A0F50075A1050085A51
:10DFD400D89010320F320E320D320C320B320A321C
:10DFE4000932112EC3EF6FF0600004F001F06000FD
:10DFF40008F002F060000CF003F0600010F004F090
:10E00400600014F005F0600018F006F060001CF0E9
:10E0140007F0600020F008F01200000166A115EF7F
:10E0240070F017EF70F025EF70F0600054F00CF012
:10E03400600058F00DF060004CF00EF0600050F0FD
:10E044000FF0E2EC68F018BE2AEF70F02CEF70F0DD
:10E0540034EF70F060005CF01CF0600060F01DF0C4
:10E0640038EF70F0000E1D6E000E1C6E000E1B6E5D
:10E07400000E1A6E4CEF70F0000E046E200E036E4C
:10E0840060004CF005F0600050F006F033EC6FF0E7
:10E094001A4A1B2A1C501A5C1B50800A196E1D5008
:10E0A400800A1958D8A059EF70F05BEF70F03EEF7A
:10E0B40070F0000166B161EF70F063EF70F071EF22
:10E0C40070F0600054F00CF0600058F00DF0600047
:10E0D4004CF00EF0600050F00FF0E2EC68F06000DD
:10E0E40054F001F0600058F002F09FEC68F01C500E
:10E0F4000124136E1D500220146E120003BE85EF1E
:10E1040070F087EF70F0A3EF70F0F0EC67F00009A7
:10E11400D8B48FEF70F091EF70F087EF70F0C10E0C
:10E124006AEC67F0F0EC67F00009D8B49CEF70F08B
:10E134009EEF70F094EF70F002506AEC67F0BEEF5F
:10E1440070F0F0EC67F00009D8B4ABEF70F0ADEF0D
:10E1540070F0A3EF70F0C20E6AEC67F0F0EC67F0B9
:10E164000009D8B4B8EF70F0BAEF70F0B0EF70F007
:10E17400025000086AEC67F005BEC3EF70F0C5EF0B
:10E1840070F0E1EF70F0F0EC67F00009D8B4CDEF77
:10E1940070F0CFEF70F0C5EF70F0C50E6AEC67F069
:10E1A400F0EC67F00009D8B4DAEF70F0DCEF70F04F
:10E1B400D2EF70F004506AEC67F0FCEF70F0F0EC12
:10E1C40067F00009D8B4E9EF70F0EBEF70F0E1EF1D
:10E1D40070F0C60E6AEC67F0F0EC67F00009D8B492
:10E1E400F6EF70F0F8EF70F0EEEF70F00450000806
:10E1F4006AEC67F01200EF0E0001A06FFF0EA16F32
:10E204001CEC68F0C00E0001A06FFF0EA16F1CECA7
:10E2140068F08C0E0001A06FFE0EA16F1CEC68F07C
:10E22400B50E0001A06FFF0EA16F1CEC68F0A80EE4
:10E234000001A06FFF0EA16F1CEC68F0E30E00015B
:10E24400A06FFE0EA16F1CEC68F0C90E0001A06F58
:10E25400FE0EA16F1CEC68F06B0E0001A06FFE0EA9
:10E26400A16F1CEC68F0FC0E0001A06FFE0EA16F04
:10E274001CEC68F0260E0001A06FFE0EA16F1CECD2
:10E2840068F0490E0001A06FFE0EA16F1CEC68F04F
:10E29400AD0E0001A06FFE0EA16F1CEC68F0DB0E4A
:10E2A4000001A06FFD0EA16F1CEC68F0440E00018C
:10E2B400A06FFF0EA16F1CEC68F0140E0001A06F9C
:10E2C400FF0EA16F1CEC68F0880E0001A06FFF0E1A
:10E2D400A16F1CEC68F02C0E0001A06FFF0EA16F63
:10E2E4001CEC68F09A0E0001A06FFF0EA16F1CECED
:10E2F40068F0120020EE11F0070EDE6AE806FDE277
:10E3040009500A100B100C100D100E100F101010E5
:10E31400D8B48FEF71F091EF71F0E3EF71F0010E6B
:10E32400196E9FEF71F0D89009360A360B360C3609
:10E334000D360E360F361036192A10AEA4EF71F0D2
:10E34400A6EF71F095EF71F0D890113612361336AE
:10E35400143615361636173618360950015C0A502D
:10E3640002580B5003580C5004580D5005580E50C9
:10E3740006580F50075810500858D8A0C4EF71F031
:10E38400C6EF71F0D7EF71F00950015E0A50025ADE
:10E394000B50035A0C50045A0D50055A0E50065A8D
:10E3A4000F50075A1050085A1180D89010320F326B
:10E3B4000E320D320C320B320A320932192EA6EF0C
:10E3C40071F0600044F001F0600048F002F0600079
:10E3D4004CF003F0600050F004F0600054F005F0DD
:10E3E400600058F006F060005CF007F0600060F038
:10E3F40008F01200000E0001AB6F000EAA6F6C0E45
:10E40400A06FFF0EA16FA80EAA25D96E0D0EAB2129
:10E41400DA6EDF50A86FA96BD890A837A937D890C7
:10E42400A837A9376000A0F2A2F06000A4F2A3F01C
:10E434001CEC68F06C0E0001A06FFF0EA16F500E73
:10E44400AA25D96E0B0EAB21DA6EDF50A86FA96B2B
:10E45400D890A837A937D890A837A9376000A0F278
:10E46400A2F06000A4F2A3F01CEC68F06C0E0001B2
:10E47400A06FFF0EA16FF80EAA25D96E080EAB216E
:10E48400DA6EDF50A86FA96BD890A837A937D89057
:10E49400A837A9376000A0F2A2F06000A4F2A3F0AC
:10E4A4001CEC68F06C0E0001A06FFF0EA16FA00EB3
:10E4B400AA25D96E060EAB21DA6EDF50A86FA96BC0
:10E4C400D890A837A937D890A837A9376000A0F208
:10E4D400A2F06000A4F2A3F01CEC68F0E90E0001C5
:10E4E400A06FFF0EA16F480EAA25D96E040EAB21B2
:10E4F400DA6EDF50A86FA96BD890A837A937D890E7
:10E50400A837A9376000A0F2A2F06000A4F2A3F03B
:10E514001CEC68F00001AA4BAB2B580EAA5D020E4E
:10E52400AB59D8A098EF72F09AEF72F001EF72F045
:10E534001200000E126E08BEA4EF72F0A2EF72F089
:10E54400B6EF72F0081E071E061E051E041E031EEB
:10E55400021E016C000E022203220422052206225E
:10E5640007220822010E126E10BEBDEF72F0BBEF3F
:10E5740072F0CDEF72F0101E0F1E0E1E0D1E0C1E3B
:10E584000B1E0A1E096C000E0A220B220C220D22FD
:10E594000E220F22102209500A100B100C100D101D
:10E5A4000E100F101010D8B4DAEF72F0DCEF72F026
:10E5B40024EF73F0010E116EEAEF72F0D890093671
:10E5C4000A360B360C360D360E360F361036112A37
:10E5D40010AEEFEF72F0F1EF72F0E0EF72F009506D
:10E5E400015C0A5002580B5003580C5004580D504B
:10E5F40005580E5006580F50075810500858D8A008
:10E6040006EF73F008EF73F018EF73F00950015E32
:10E614000A50025A0B50035A0C50045A0D50055A12
:10E624000E50065A0F50075A1050085AD8901032FC
:10E634000F320E320D320C320B320A320932112EE5
:10E64400F1EF72F01250D8B42AEF73F02CEF73F09C
:10E654003CEF73F0081E071E061E051E041E031E53
:10E66400021E016C000E022203220422052206224D
:10E6740007220822600004F001F0600008F002F0B4
:10E6840060000CF003F0600010F004F0600014F07F
:10E6940005F0600018F006F060001CF007F0600060
:10E6A40020F008F01200000E126E10BE5EEF73F040
:10E6B4005CEF73F070EF73F0101E0F1E0E1E0D1E34
:10E6C4000C1E0B1E0A1E096C000E0A220B220C22C1
:10E6D4000D220E220F221022010E126E08BE77EFB9
:10E6E40073F075EF73F089EF73F0081E071E061EB2
:10E6F400051E041E031E021E016C000E02220322CC
:10E7040004220522062207220822010E121A20EEF4
:10E7140013F0070EDE6AE806FDE209500A100B103A
:10E724000C100D100E100F101010D8B49CEF73F0D5
:10E734009EEF73F0F0EF73F0010E116EACEF73F017
:10E74400D89009360A360B360C360D360E360F368F
:10E754001036112A10AEB1EF73F0B3EF73F0A2EFDD
:10E7640073F0D89013361436153616361736183615
:10E7740019361A360950015C0A5002580B500358D6
:10E784000C5004580D5005580E5006580F50075899
:10E7940010500858D8A0D1EF73F0D3EF73F0E4EF22
:10E7A40073F00950015E0A50025A0B50035A0C5080
:10E7B400045A0D50055A0E50065A0F50075A10505D
:10E7C400085A1380D89010320F320E320D320C32A8
:10E7D4000B320A320932112EB3EF73F01250D8B44F
:10E7E400F6EF73F0F8EF73F008EF74F01A1E191EC9
:10E7F400181E171E161E151E141E136C000E14224E
:10E80400152216221722182219221A2260004CF00F
:10E8140001F0600050F002F0600054F003F060007A
:10E8240058F004F060005CF005F0600060F006F061
:10E83400600064F007F0600068F008F0120020EE59
:10E84400E8F010EE11F0060E6F006FFFE3FFE8062C
:10E85400FBE2600038F01CF060003CF01DF01C503E
:10E864001D10D8A438EF74F03AEF74F03EEF74F052
:10E87400110E1C6E000E1D6E600070F001F0600041
:10E8840074F002F09FEC68F0600004F020F0600087
:10E8940008F021F0600090F11EF0600094F11FF088
:10E8A4001FBE57EF74F059EF74F070EF74F02050FE
:10E8B4001E5C1F50800A106E2150800A1058D8A088
:10E8C40066EF74F068EF74F06AEF74F070EF74F050
:10E8D400600078F020F060007CF021F0600080F0AF
:10E8E4001EF0600084F01FF0600088F11AF06000F0
:10E8F4008CF11BF0000166B182EF74F084EF74F0C8
:10E90400A3EF74F094EF74F0000E046E200E036E07
:10E91400600030F005F0600034F006F033EC6FF086
:10E92400204A212A1A50205C2150800A106E1B5064
:10E93400800A1058D8A0A1EF74F0A3EF74F086EF0A
:10E9440074F0000E196E000E186EC0EF74F06000C3
:10E9540073F0D9FF600077F0DAFFDF50106E1050CB
:10E96400036E046A600030F005F0600034F006F0D5
:10E9740033EC6FF01C4A1D2A184A192A1E50185CE1
:10E984001950800A106E1F50800A1058D8A0CDEF7D
:10E9940074F0CFEF74F0A9EF74F0000166A1D5EF25
:10E9A40074F0D7EF74F0F6EF74F0E7EF74F0000E44
:10E9B400046E200E036E600030F005F0600034F049
:10E9C40006F033EC6FF0204A212A1A50205C2150C3
:10E9D400800A106E1B50800A1058D8A0F4EF74F00F
:10E9E400F6EF74F0D9EF74F0600080F00CF0600082
:10E9F40084F00DF01200000E166E000E156E000E5F
:10EA04000F6E000E0E6E09EF75F0084A092A010E0A
:10EA1400146E600023F0F6FF600027F0F7FFF86A39
:10EA24000800F550200AD8B41AEF75F01CEF75F001
:10EA34003CEF75F0F70E0A6EFF0E0B6E600023F0CC
:10EA4400F6FF600027F0F7FFF86A0800F5500C6E37
:10EA54000D6A0A500C260B500D220D5009E1050ECB
:10EA64000C5CD8A038EF75F03AEF75F03CEF75F018
:10EA7400000E146E600050F010F0116A1050111066
:10EA8400D8A447EF75F049EF75F007EF75F053EF31
:10EA940075F0000E0F6E010E0E6E084A092A90EFF3
:10EAA40075F0600023F0F6FF600027F0F7FFF86AC6
:10EAB4000800F5500A6E0B6A0B50000AD8B465EFD3
:10EAC40075F090EF75F00A502B0AD8B44FEF75F03B
:10EAD400060AD8B44BEF75F090EF75F0600054F06F
:10EAE40001F0600058F002F0000E046E0A0E036E8E
:10EAF40032EC68F0600023F0F6FF600027F0F7FFC7
:10EB0400F86A0800F550015E000E025A300E012426
:10EB1400156E000E0220166E4FEF75F0D00E0A6EC1
:10EB2400FF0E0B6E600023F0F6FF600027F0F7FF86
:10EB3400F86A0800F5500C6E0D6A0A500C260B504A
:10EB44000D220D500AE10A0E0C5CD8A0ACEF75F052
:10EB5400AFEF75F0010EB0EF75F0000E126E136A90
:10EB640012501310D8A4B9EF75F0BBEF75F070EF25
:10EB740075F00E500F10D8A4C2EF75F0C4EF75F005
:10EB8400D6EF75F0600054F00AF0600058F00BF016
:10EB94000A1E0B1E0A4A0B2A600028F008F06000C7
:10EBA4002CF009F0DCEF75F0600054F008F0600020
:10EBB40058F009F01200000165BFE3EF75F0E5EFCE
:10EBC40075F0E6EF75F0669365BFF3EF75F0655188
:10EBD40006E16405D8B0F1EF75F0F3EF75F0F9EFE5
:10EBE40075F0000E316E010E306EFFEF75F06000AF
:10EBF40090F130F0600094F131F0600088F132F06F
:10EC040060008CF133F0600080F034F0600084F038
:10EC140035F0600088F036F060008CF037F060006A
:10EC240090F038F0600094F039F0600098F03AF019
:10EC340060009CF03BF0000E3D6E1F0E3C6E000E1B
:10EC44008D6FBBEF76F03C06D8A03D066E0E3C24DB
:10EC5400D96E000E3D20DA6E6000D0F001F0600045
:10EC6400D4F002F06000D8F003F06000DCF004F0AF
:10EC74006000E0F005F06000E4F006F06000E8F009
:10EC840007F06000ECF008F00A0E096E000E0A6E40
:10EC9400000E0B6E000E0C6E000E0D6E000E0E6E4E
:10ECA400000E0F6E000E106E9FEC6FF0600004F00B
:10ECB40028F0600008F029F060000CF02AF06000F1
:10ECC40010F02BF0600014F02CF0600018F02DF020
:10ECD40060001CF02EF0600020F02FF02850300F60
:10ECE400DF6E3006D8A031063206D8A033066000A5
:10ECF400D0F001F06000D4F002F06000D8F003F02E
:10ED04006000DCF004F06000E0F005F06000E4F086
:10ED140006F06000E8F007F06000ECF008F00A0E7E
:10ED2400096E000E0A6E000E0B6E000E0C6E000EC5
:10ED34000D6E000E0E6E000E0F6E000E106E7CEC4B
:10ED440071F0600004F034F0600008F035F0600009
:10ED54000CF036F0600010F037F0600014F038F07A
:10ED6400600018F039F060001CF03AF0600020F008
:10ED74003BF03C503D10D8B4C2EF76F0C4EF76F0CF
:10ED8400F5EF76F03450351036103710381039104E
:10ED94003A103B10D8A4D1EF76F0D3EF76F025EFFC
:10EDA40076F031BEE0EF76F0315006E13004D8B0B1
:10EDB400DEEF76F0E0EF76F025EF76F033BEEBEFA2
:10EDC40076F0335008E13204D8A0EBEF76F0EDEFA3
:10EDD40076F0F5EF76F0000166B3F3EF76F0F5EF39
:10EDE40076F025EF76F0600078F013F060007CF0A8
:10EDF40014F06E0E3C24156E000E3D20166E60005D
:10EE0400C8F017F06000CCF018F00FEC70F0600060
:10EE14004CF01EF0600050F01FF01200600080F013
:10EE240038F0600084F039F0600088F03AF0600057
:10EE34008CF03BF0600090F03CF0600094F03DF00A
:10EE4400600098F03EF060009CF03FF03FBE2DEF74
:10EE540077F030EF77F0010E31EF77F0000E366E79
:10EE6400376A36503710D8B43AEF77F03CEF77F082
:10EE74004CEF77F03F1E3E1E3D1E3C1E3B1E3A1ECD
:10EE8400391E386C000E39223A223B223C223D22A4
:10EE94003E223F22000165BF52EF77F054EF77F036
:10EEA40055EF77F0669365BF62EF77F0655106E141
:10EEB4006405D8B060EF77F062EF77F068EF77F031
:10EEC400000E336E010E326E6EEF77F0600090F13B
:10EED40032F0600094F133F0600088F134F06000A7
:10EEE4008CF135F036503710D8A47BEF77F07DEFF6
:10EEF40077F084EF77F066A582EF77F084EF77F010
:10EF040087EF77F03406D8A03506000E416E1F0E49
:10EF1400406E000E8D6F2DEF78F04006D8A04106AC
:10EF24006E0E4024D96E000E4120DA6E6000E0F0CF
:10EF340001F06000E4F002F06000E8F003F060002B
:10EF4400ECF004F06000F0F005F06000F4F006F07E
:10EF54006000F8F007F06000FCF008F00A0E096E9B
:10EF6400000E0A6E000E0B6E000E0C6E000E0D6E7F
:10EF7400000E0E6E000E0F6E000E106E9BEC72F003
:10EF8400600004F028F0600008F029F060000CF044
:10EF94002AF0600010F02BF0600014F02CF06000F8
:10EFA40018F02DF060001CF02EF0600020F02FF01F
:10EFB4006000A0F013F06000A8F014F007EC69F012
:10EFC4001350300FDF6E3206D8A033063406D8A0B3
:10EFD40035066000E0F001F06000E4F002F060004B
:10EFE400E8F003F06000ECF004F06000F0F005F0ED
:10EFF4006000F4F006F06000F8F007F06000FCF048
:10F0040008F00A0E096E000E0A6E000E0B6E000E5A
:10F014000C6E000E0D6E000E0E6E000E0F6E000EC6
:10F02400106E55EC73F0600004F038F0600008F0E6
:10F0340039F060000CF03AF0600010F03BF0600032
:10F0440014F03CF0600018F03DF060001CF03EF05D
:10F05400600020F03FF041BE38EF78F0415008E105
:10F064004004D8A038EF78F03AEF78F06BEF78F0FE
:10F07400385039103A103B103C103D103E103F10F0
:10F08400D8A447EF78F049EF78F08FEF77F033BEEC
:10F0940056EF78F0335006E13204D8B054EF78F0EC
:10F0A40056EF78F08FEF77F035BE61EF78F035509A
:10F0B40008E13404D8A061EF78F063EF78F06BEFE7
:10F0C40078F0000166B369EF78F06BEF78F08FEFBA
:10F0D40077F036503710D8A472EF78F074EF78F0E8
:10F0E4007CEF78F0000166A57AEF78F07CEF78F099
:10F0F4009BEF78F04006D8A0410636503710D8A4CC
:10F1040086EF78F088EF78F08EEF78F0000E316EAD
:10F114002B0E306E92EF78F0000E316E2D0E306EA5
:10F124006E0E4024D96E000E4120DA6E6000C3F0EA
:10F13400DFFF600078F013F060007CF014F06E0ED6
:10F144004024156E000E4120166E6000D0F017F0BA
:10F154006000D4F018F00FEC70F060004CF01EF07A
:10F16400600050F01FF01200600013F1D9FF60003E
:10F1740017F1DAFF6F007BFFF6FF6F0077FFF7FFF1
:10F18400F86A0800F550250AD8A4CBEF78F0CDEF43
:10F1940078F002EF7BF0600013F1D9FF600017F103
:10F1A400DAFFDE2A000EDD22000E0001636F000E7E
:10F1B400626F62C066F063C067F06469656960008D
:10F1C40013F1D9FF600017F1DAFF6F007BFFF6FF40
:10F1D4006F0077FFF7FFF86A0800F5502A0AD8A4F1
:10F1E400F6EF78F0F8EF78F02BEF79F0600013F198
:10F1F400D9FF600017F1DAFFDE2A000EDD2260007D
:10F204001BF1D9FF60001FF1DAFF6F007CFF48F0AB
:10F21400020EDE266F007CFF49F0000EDD22600046
:10F2240023F1D9FF600027F1DAFF6F0078FF62F065
:10F234006F0074FF63F063BF24EF79F022EF79F07D
:10F244007BEF79F06681626D631FD8B0632B7BEF2F
:10F2540079F0600013F1D9FF600017F1DAFF6F0055
:10F2640078FF08F06F0074FF09F0FDEC74F06000A3
:10F2740020F062F0600024F063F04AEF79F060005F
:10F2840013F1D9FF600017F1DAFFDE2A000EDD2248
:10F29400D00E486EFF0E496E600013F1D9FF600076
:10F2A40017F1DAFF6F007BFFF6FF6F0077FFF7FFC0
:10F2B400F86A0800F5504A6E4B6A48504A2649508D
:10F2C4004B224B500AE10A0E4A5CD8A06CEF79F04D
:10F2D4006FEF79F0010E70EF79F0000E5E6E5F6AE9
:10F2E4005E505F10D8A479EF79F07BEF79F041EFAD
:10F2F40079F0600013F1D9FF600017F1DAFF6F00B5
:10F304007BFFF6FF6F0077FFF7FFF86A0800F55000
:10F31400640AD8B490EF79F092EF79F0A9EF79F01C
:10F32400600013F1D9FF600017F1DAFF6F007BFF73
:10F33400F6FF6F0077FFF7FFF86A0800F550690AD7
:10F34400D8A4A7EF79F0A9EF79F0FFEF79F0600086
:10F3540013F1D9FF600017F1DAFFDE2A000EDD2277
:10F3640060001BF1D9FF60001FF1DAFF6F007CFF22
:10F3740048F0020EDE266F007CFF49F0000EDD220D
:10F38400600023F1D9FF600027F1DAFF6F0078FFF6
:10F394004CF06F0074FF4DF0000E4DBEFF0E4E6E2C
:10F3A4004F6E506E516E526E536E600008F11EF037
:10F3B40060000CF11FF0600030F120F0600034F1C7
:10F3C40021F0600038F122F060003CF123F060008D
:10F3D40040F124F0600044F125F0600048F126F08B
:10F3E40060004CF127F010EC77F0600078F042F008
:10F3F40060007CF043F026EF7BF0600013F1D9FF4E
:10F40400600017F1DAFF6F007BFFF6FF6F0077FFF4
:10F41400F7FFF86A0800F550730AD8A414EF7AF0DD
:10F4240016EF7AF051EF7AF0600013F1D9FF600023
:10F4340017F1DAFFDE2A000EDD2260001BF1D9FF8E
:10F4440060001FF1DAFF6F007CFF48F0020EDE2639
:10F454006F007CFF49F0000EDD22600023F1D9FF2C
:10F46400600027F1DAFF6F0078FF5CF06F0074FF33
:10F474005DF0600008F10CF060000CF10DF060002C
:10F4840070F10EF0600074F10FF021EC74F0600084
:10F4940030F042F0600034F043F026EF7BF060007F
:10F4A40013F1D9FF600017F1DAFF6F007BFFF6FF5D
:10F4B4006F0077FFF7FFF86A0800F550750AD8A4C3
:10F4C40066EF7AF068EF7AF0C1EF7AF0600013F13A
:10F4D400D9FF600017F1DAFFDE2A000EDD2260009A
:10F4E4001BF1D9FF60001FF1DAFF6F007CFF48F0C9
:10F4F400020EDE266F007CFF49F0000EDD22600064
:10F5040023F1D9FF600027F1DAFF6F0078FF4AF09A
:10F514006F0074FF4BF0600028F154F060002CF190
:10F5240055F0566A576A586A596A5A6A5B6A6000A3
:10F5340008F11EF060000CF11FF0600050F120F0A3
:10F54400600054F121F0600058F122F060005CF199
:10F5540023F0600060F124F0600064F125F06000A5
:10F5640068F126F060006CF127F0DDEC75F06000C6
:10F5740078F042F060007CF043F026EF7BF060000E
:10F5840013F1D9FF600017F1DAFF6F007BFFF6FF7C
:10F594006F0077FFF7FFF86A0800F550250AD8A432
:10F5A400D6EF7AF0D8EF7AF0F3EF7AF0600013F147
:10F5B400D9FF600017F1DAFFDE2A000EDD22000E0B
:10F5C400046E250E036E600008F105F060000CF176
:10F5D40006F033EC6FF0000E436E010E426E26EF20
:10F5E4007BF0600013F1D9FF600017F1DAFFDE2A27
:10F5F400000EDD22000E436E000E426E26EF7BF0FD
:10F60400600013F1D9FF600017F1DAFF6F007BFF90
:10F61400F6FF6F0077FFF7FFF86A0800F550036EF6
:10F62400046A600008F105F060000CF106F033ECA8
:10F634006FF0600013F1D9FF600017F1DAFFDE2AE2
:10F64400000EDD22EDEF7AF01200C6EC67F0FDEC5F
:10F6540070F09EEC6DF0F70E0001A06FFF0EA16F2D
:10F664001CEC68F02DEC69F0CBAA3BEF7BF03DEF8E
:10F674007BF047EF7BF0DE0E026EFF0E036E040E8E
:10F68400046E50EC6CF04FEF7BF0DB0E026EFF0E5D
:10F69400036E070E046E50EC6CF0F0EC66F0F6ECC2
:10F6A40066F0F4EC66F0CBAA5AEF7BF05CEF7BF0EB
:10F6B4000DEF7EF0000E0001CB6F000ECA6F010E3D
:10F6C400C36F25EC6BF0DBEC67F0390E012400010D
:10F6D400C16F000E0220C26F320EA0EC6CF006EF78
:10F6E4007EF00001C351D8B47AEF7BF07CEF7BF05D
:10F6F400DEEF7CF0DBEC67F0600004F0C4F0600047
:10F7040008F0C5F00001C451C15DC551C259D8B05B
:10F714008EEF7BF090EF7BF0A8EF7BF0C41DBD6F04
:10F72400C51DBE6FBE5109E13A0EBD5DD8A09DEF67
:10F734007BF09FEF7BF0A8EF7BF084EC67F0CBBA13
:10F74400A6EF7BF0A8EF7BF0A1EF7BF05FEC6EF00F
:10F75400600008F0CDF060000CF0CEF0600037F3EC
:10F76400D9FF60003BF3DAFF010EDB5009E1FB0E29
:10F77400DE5CD8A0C0EF7BF0C2EF7BF0DEEF7BF065
:10F78400000120EE08F0CD51D926CE51DA22010E27
:10F79400DB5009E1FB0EDE5CD8A0D3EF7BF0D5EFA4
:10F7A4007BF0DEEF7BF084EC67F0CBBADCEF7BF030
:10F7B400DEEF7BF0D7EF7BF0000120EE02F0CD51BD
:10F7C400D926CE51DA22010EDB5009E1C90EDE5CE6
:10F7D400D8A0EFEF7BF0F1EF7BF043EF7CF020EE6D
:10F7E40006F0CD51D926CE51DA22010EDB5009E1C3
:10F7F400C90EDE5CD8A001EF7CF003EF7CF043EF90
:10F804007CF0000EC36F84EC67F0000120EE02F080
:10F81400CD51D926CE51DA226F0078FFBDF06F00AA
:10F8240074FFBEF020EE06F0CD51D926CE51DA2277
:10F834006F0078FFBFF06F0074FFC0F0BD51BF5D73
:10F84400016EBE51C059026E000E046E400E036E6E
:10F85400FBEC6DF0600004F0C6F0600008F0C7F047
:10F86400320E0001C625026E000EC721036EC6517A
:10F874003208046EC751D8A0E82A0008056E80EC4F
:10F8840070F0A80E0001CA25D96E0D0ECB21DA6ED8
:10F89400600037F3E1FF60003BF3E2FF6F0098FF85
:10F8A400BDF06F0094FFBEF0D890BE33BD33D89046
:10F8B400BE33BD33BD51DF6E500ECA25D96E0B0E5B
:10F8C400CB21DA6E10EE02F0CD51E126CE51E222C8
:10F8D4006F0098FFBDF06F0094FFBEF0D890BE3368
:10F8E400BD33D890BE33BD33BD51DF6EF80ECA258B
:10F8F400D96E080ECB21DA6E10EE04F0CD51E1265C
:10F90400CE51E2226F0098FFBDF06F0094FFBEF06D
:10F91400D890BE33BD33D890BE33BD33BD51DF6EF6
:10F92400A00ECA25D96E060ECB21DA6E10EE06F0B3
:10F93400CD51E126CE51E2226F0098FFBDF06F0059
:10F9440094FFBEF0D890BE33BD33D890BE33BD33E0
:10F95400BD51DF6E480ECA25D96E040ECB21DA6E76
:10F9640010EE08F0CD51E126CE51E2226F0098FF4F
:10F97400BDF06F0094FFBEF0D890BE33BD33D89075
:10F98400BE33BD33BD51DF6ECA4BCB2BE80ECA5D0F
:10F99400030ECB59D8A0D1EF7CF0D3EF7CF006EF67
:10F9A4007EF084EC67F0CBBADAEF7CF0DCEF7CF02D
:10F9B400D5EF7CF006EF7EF05FEC6EF0600008F0AF
:10F9C400CDF060000CF0CEF0000120EE02F0CD513D
:10F9D400D926CE51DA226F0078FFBDF06F0074FF94
:10F9E400BEF020EE06F0CD51D926CE51DA226F00BA
:10F9F40078FFBFF06F0074FFC0F0BD51BF5D6A6F48
:10FA0400BE51C0596B6F6000A8F101F06000ACF109
:10FA140002F0000E046E400E036EFBEC6DF060000D
:10FA240004F0BDF0600008F0BEF0000168516A5DAA
:10FA3400016E69516B59026E000E046E040E036E62
:10FA4400FBEC6DF001500001BD25C86F0250BE21D2
:10FA5400C96F6AC068F06BC069F0320EC825026EC7
:10FA6400000EC921036EC8513208046EC951D8A0D2
:10FA7400E82A0008056E80EC70F0000120EE02F028
:10FA8400CD51D926CE51DA22010EDB5007E1320ED8
:10FA9400DE5CD8B050EF7DF052EF7DF06CEF7DF07E
:10FAA40020EE06F0CD51D926CE51DA22010EDB50DC
:10FAB40007E1320EDE5CD8B062EF7DF064EF7DF0DA
:10FAC4006CEF7DF0010EC36F000E0EEC6AF0320E87
:10FAD400A0EC6CF0A80E0001CA25D96E0D0ECB2146
:10FAE400DA6E600037F3E1FF60003BF3E2FF6F0082
:10FAF40098FFBDF06F0094FFBEF0D890BE33BD33C5
:10FB0400D890BE33BD33BD51DF6E500ECA25D96EB9
:10FB14000B0ECB21DA6E10EE02F0CD51E126CE5160
:10FB2400E2226F0098FFBDF06F0094FFBEF0D89002
:10FB3400BE33BD33D890BE33BD33BD51DF6EF80E36
:10FB4400CA25D96E080ECB21DA6E10EE04F0CD5121
:10FB5400E126CE51E2226F0098FFBDF06F0094FFC2
:10FB6400BEF0D890BE33BD33D890BE33BD33BD5143
:10FB7400DF6EA00ECA25D96E060ECB21DA6E10EE0A
:10FB840006F0CD51E126CE51E2226F0098FFBDF080
:10FB94006F0094FFBEF0D890BE33BD33D890BE330F
:10FBA400BD33BD51DF6E480ECA25D96E040ECB217C
:10FBB400DA6E10EE08F0CD51E126CE51E2226F004C
:10FBC40098FFBDF06F0094FFBEF0D890BE33BD33F4
:10FBD400D890BE33BD33BD51DF6ECA4BCB2B580E0C
:10FBE400CA5D020ECB59D8A0FAEF7DF0FCEF7DF090
:10FBF40006EF7EF0000E0EEC6AF0CBBA04EF7EF056
:10FC040006EF7EF0FFEF7DF0CBBA0BEF7EF00DEF49
:10FC14007EF073EF7BF0CD8030EC67F00009D8B450
:10FC240016EF7EF018EF7EF0E7EF7EF0CD82B2ECB7
:10FC34006BF00001CC6F06EC68F00009D8B425EF36
:10FC44007EF027EF7EF038EF7EF00001CC5177ECA8
:10FC540067F00D0E0001CC19D8A433EF7EF035EF18
:10FC64007EF038EF7EF00A0E77EC67F0310E00017B
:10FC7400CC19D8A440EF7EF042EF7EF046EF7EF040
:10FC840068EC6BF0E6EF7EF0320ECC19D8A44DEFA1
:10FC94007EF04FEF7EF053EF7EF09EEC6DF0E6EFDA
:10FCA4007EF0400ECC19D8A45AEF7EF05CEF7EF0C3
:10FCB40060EF7EF043EC6DF0E6EF7EF0030ECC19BE
:10FCC400D8A467EF7EF069EF7EF06EEF7EF0B70E9A
:10FCD4006AEC67F0E6EF7EF0040ECC19D8A475EF59
:10FCE4007EF077EF7EF07BEF7EF0FCEC71F0E6EFD8
:10FCF4007EF0130ECC19D8A482EF7EF084EF7EF050
:10FD040088EF7EF0C9EC6EF0E6EF7EF07E0ECC1943
:10FD1400D8A48FEF7EF091EF7EF095EF7EF0B3ECF8
:10FD240067F0E6EF7EF00D0ECC19D8A49CEF7EF0C0
:10FD34009EEF7EF0A2EF7EF02DEC69F0E6EF7EF010
:10FD44003C0ECC19D8A4A9EF7EF0ABEF7EF0B0EF57
:10FD54007EF0320E44EC6AF0E6EF7EF03E0ECC19F3
:10FD6400D8A4B7EF7EF0B9EF7EF0BEEF7EF0320E8E
:10FD74007AEC6AF0E6EF7EF07C0ECC19D8A4C5EFDD
:10FD84007EF0C7EF7EF0CCEF7EF0000E0EEC6AF052
:10FD9400E6EF7EF01B0ECC19D8A4D3EF7EF0D5EF9E
:10FDA4007EF0D9EF7EF0FDEC70F0E6EF7EF01F0EF2
:10FDB400CC65DFEF7EF0E1EF7EF0E6EF7EF0CC5134
:10FDC40055EC69F0E6EF7EF0CD92CD900DEF7EF02C
:10FDD400FEEF7FF0003900090972657475726E2EAA
:10FDE400204C434420676F20746F207374617274D5
:10FDF400206F66206C696E652074776F0D0A000DA4
:10FE04000A09546865205369676E617475726520C8
:10FE140066726F6D203350692069733A2025730D23
:10FE24000A00092020206374726C2B642E20447510
:10FE34006D702073656E736F7220312076616C75FE
:10FE440065730D0A00092020206374726C2B732ED5
:10FE5400205072696E742053656E736F7220566100
:10FE64006C7565730D0A000909322E20446973709C
:10FE74006C6179206D562072656164696E672069D2
:10FE84006E204C43440D0A00094B505520415053F9
:10FE94004331323939203370692D6D656E752D62A9
:10FEA40061736963330A0A0D0009097E2E204C43ED
:10FEB40044206D657373616765204150534331324B
:10FEC40039390D0A000909312E20446973706C61B7
:10FED40079206D562072656164696E670D0A0009A8
:10FEE40009402E20506F6C6F6C75205369676E61EA
:10FEF400747572653F0D0A00092020206374726CCA
:10FF04002B632E20436C656172204C43440D0A0020
:10FF140009093E2C20726F626F74207370696E2021
:10FF240072696768740D0A00092020202020457337
:10FF3400632C205072696E74204D656E750D0A0035
:10FF440009093C2C20726F626F74207370696E20F3
:10FF54006C6566740D0A000D73656E736F7220769E
:10FF6400616C756573203D202534752C20000D0AC5
:10FF7400094261747465727920566F6C74616765A7
:10FF8400203D200009097C2C20726F626F7420735D
:10FF9400746F700D0A0009092D2D2D2D2D2D2D2D79
:10FFA4000D0A0A0009092D2D2D2D2D2D2D2D0D0A9B
:10FFB40000090920204D656E750A0D000D0A0A0A14
:10FFC4000A0A0A0A0A0043616C20446F6E65002520
:10FFD40064206D560D0A004E6F20526F616D00252E
:10FFE40075206D56002534750D0A00200D0A002574
:07FFF4003475003E200000FF
:04FFFC00BEEF68F0FC
:020000040020DA
:10000000FF0FFF0FFF0FFF0FFF0FFF0FFF0FFF0F80
:020000040030CA
:0A000000ECFEF7FF9FFFFFFFFFFF7C
:00000001FF
