:020000040000FA
:04000000FEEF7FF0A0
:10D72200120012001200120012001200B280120047
:10D73200AC8E1200A680120099EC6BF01200026E01
:10D7420002501EEC6CF01200600004F0CAF060009F
:10D7520008F0CBF01200600004F0CEF0600008F098
:10D76200CFF01200600004F0CCF0600008F0CDF0C1
:10D772001200600004F0C4F0600008F0C5F012006E
:10D78200600004F0C8F0600008F0C9F01200600008
:10D7920004F0C6F0600008F0C7F012004150534395
:10D7A2003132393900286E756C6C29003901A6B501
:10D7B200DDEF6BF0E0EF6BF0010EE1EF6BF0000ECE
:10D7C20012003901A3B7E8EF6BF0EBEF6BF0010E3B
:10D7D200ECEF6BF0000E1200880E7E6E000E7D6E76
:10D7E200000E7C6E3F015E51FC0B01095E6F120060
:10D7F200620E3901D96F000EDB6F000EDD6F070E6E
:10D80200DF6F000EDE6F1200800E6E6E120E6D6EF6
:10D81200800E6C6E3F015F51FC0B01095F6F1200BD
:10D82200016E3901A3A918EF6CF01AEF6CF012EF38
:10D832006CF0600007F0EAFD1200016E3901A6A744
:10D8420025EF6CF027EF6CF01FEF6CF0600007F033
:10D85200D2FD120097EC6CF00009D8B433EF6CF0F3
:10D8620035EF6CF02BEF6CF0BC0E11EC6CF012008B
:10D87200010EAE6E000EAD6E000EAF6EBB0EAB6E45
:10D88200000EAA6E3901A495C00EAC6E1200000EF5
:10D892003901C06F000EC16F000EC26F000EC36F60
:10D8A200000EC46F000EC56F000EC66F000EC76F6C
:10D8B200120020EED2F010EE08F0080E6F006FFF9B
:10D8C200E3FFE806FBE2080E026E000E036E080E8E
:10D8D200046EC2EC70F0120048EC6CF012EC71F0C5
:10D8E200F9EC6BF0EDEC6BF00AEC6DF005EC6CF022
:10D8F20039EC6CF025EC6DF06FEC6EF09EEC6EF096
:10D902001200A6826F0090FE08F06F0094FE07F0EE
:10D912000750036E0850056E60000CF006F06000C0
:10D9220014F001F0600018F002F01200000E016E17
:10D932003901A3A99FEF6CF0A1EF6CF0ABEF6CF093
:10D942003D01F2ABA7EF6CF0A9EF6CF0ABEF6CF01E
:10D95200010E016E01501200000E016E3901A6A7E0
:10D96200B5EF6CF0B7EF6CF0C1EF6CF03D01DAABE4
:10D97200BDEF6CF0BFEF6CF0C1EF6CF0010E016E09
:10D98200015012009E0E0001A26F000EA36F000E46
:10D99200946F000E956F600070F296F0600074F262
:10D9A20097F0A20E986F000E996F0CEC6FF01200B8
:10D9B200015003026F00CCFF05F06F00D0FF06F0AC
:10D9C20001500402F350062602500302F3500626C9
:10D9D200600014F001F0600018F002F012009E0ED8
:10D9E200F66ED70EF76E000EF86E00EED2F010EE65
:10D9F20010F009006F00D7FFEEFFE550E150F9E1AA
:10DA020000EE60F0340EEE6AE806FDE1000150EF30
:10DA120079F0000EA76E000EA86E0A0EA96EA56818
:10DA2200A4683901A69DA4506F0094FE01F0026A19
:10DA3200600004F002F0016A01100001C26F02509E
:10DA4200C36F030EA66E1200000EB36E000EB46E0C
:10DA5200010EB56E6D0EB16E840EB06E3901A491D9
:10DA6200B0506F00C4FE01F0026A600004F002F0E0
:10DA7200016A01100001D06F0250D16F330EB26EF5
:10DA82001200D00E036EFF0E046E600004F005F06B
:10DA9200600008F006F003500526045006220650E6
:10DAA2000AE10A0E055CD8A059EF6DF05CEF6DF04B
:10DAB200010E5DEF6DF0000E016E026A1200600051
:10DAC20004F003F0600008F004F06AEF6DF0014A20
:10DAD200022A600007F0D9FF60000BF0DAFFDF5086
:10DAE200D8A476EF6DF078EF6DF068EF6DF003502B
:10DAF200015C016E04500258026E1200000E126E9A
:10DB0200000E116E93EF6DF0600040F003F0046AB6
:10DB1200600038F005F060003CF006F087EC72F02F
:10DB2200114A122A11500C24D96E12500D20DA6EAD
:10DB3200DF50106E1050D8A4A1EF6DF0A3EF6DF07E
:10DB420085EF6DF0120014BEB1EF6DF0145006E1D6
:10DB52001304D8B0AFEF6DF0B1EF6DF0C3EF6DF01D
:10DB620060004CF015F0600050F016F0151E161E05
:10DB7200154A162A600054F013F0600058F014F0B1
:10DB8200C9EF6DF060004CF013F0600050F014F03B
:10DB9200120097EC6CF00009D8B4D2EF6DF0D4EF1C
:10DBA2006DF0CAEF6DF0B90E11EC6CF097EC6CF001
:10DBB2000009D8B4DFEF6DF0E1EF6DF0D7EF6DF053
:10DBC200000E11EC6CF097EC6CF00009D8B4ECEF9D
:10DBD2006DF0EEEF6DF0E4EF6DF0010E11EC6CF014
:10DBE200120097EC6CF00009D8B4FAEF6DF0FCEF7C
:10DBF2006DF0F2EF6DF0B80E11EC6CF097EC6CF08A
:10DC02000009D8B407EF6EF009EF6EF0FFEF6DF088
:10DC1200010E11EC6CF097EC6CF00009D8B414EF23
:10DC22006EF016EF6EF00CEF6EF02D0E11EC6CF044
:10DC32001200026E97EC6CF00009D8B423EF6EF07C
:10DC420025EF6EF01BEF6EF0B80E11EC6CF097EC56
:10DC52006CF00009D8B430EF6EF032EF6EF028EFBE
:10DC62006EF0010E11EC6CF097EC6CF00009D8B478
:10DC72003DEF6EF03FEF6EF035EF6EF0025011ECBB
:10DC82006CF01200010E076E200E01180210D8B4BB
:10DC92004DEF6EF04FEF6EF06AEF6EF0F70E036E1F
:10DCA200FF0E046E600004F005F0600008F006F05C
:10DCB2000350052604500622065009E1050E055CB4
:10DCC200D8A066EF6EF068EF6EF06AEF6EF0000EAD
:10DCD200076E60001CF001F0026A1200000E3D01A6
:10DCE200D46F000ED66F000ED86FB00EDA6F800EB2
:10DCF200DB6F000EDC6F380EDD6F010EDE6F000E83
:10DD0200DF6F000EE06F000EE16F000EE26F240E77
:10DD1200016ED70E026EC1EC6BF0260E016ED70EAD
:10DD2200026EC8EC6BF0220E016ED70E026EBAECD8
:10DD32006BF0000E0001686F1200000E3D01EC6FE7
:10DD4200000EED6F000EEE6F000EEF6F000EF06F23
:10DD5200000EF16FB00EF26F800EF36F000EF46FD3
:10DD6200190EF56F000EF66F000EF76F000EF86FCA
:10DD7200000EF96F000EFA6F2A0E016ED70E026EB8
:10DD8200ACEC6BF02C0E016ED70E026EB3EC6BF0A6
:10DD9200280E016ED70E026EA5EC6BF0000E00018C
:10DDA200696F1200A00E0001A46F000EA56F600043
:10DDB20070F2A6F0600074F2A7F0000EA96F000ED8
:10DDC200A86F000EAB6F000EAA6FA60E946F000E26
:10DDD200956F600078F296F060007CF297F0A40EE6
:10DDE200986F000E996F0CEC6FF0600050F2A2F089
:10DDF200600054F2A3F00001A8519C25D96EA951EC
:10DE02009D21DA6E000EDF6E600088F29CF06000E9
:10DE12008CF29DF01200600058F29AF060005CF201
:10DE22009BF0000E0001616F000E606F30EF6FF02B
:10DE3200600050F242F0600054F243F09A0E446ED9
:10DE4200000E456E600060F246F0600064F247F03A
:10DE520097EC7CF042500001602743506123600040
:10DE62006BF2F6FF60006FF2F7FFF86A0800F550F8
:10DE72000009D8A43FEF6FF041EF6FF019EF6FF098
:10DE8200600080F194F0600084F195F0120097EC4C
:10DE92006CF00009D8B450EF6FF052EF6FF048EF1A
:10DEA2006FF0BA0E11EC6CF0E2EC6BF00009D8B432
:10DEB2005DEF6FF05FEF6FF055EF6FF06BEF6FF0AC
:10DEC200E2EC6BF00009D8B469EF6FF06BEF6FF022
:10DED20061EF6FF024EC70F0630AD8A473EF6FF077
:10DEE20075EF6FF061EF6FF097EC6CF00009D8B44A
:10DEF2007DEF6FF07FEF6FF075EF6FF0B70E11EC03
:10DF02006CF0D70E026EFF0E036E080E046EC2ECAA
:10DF120070F01200640E00019C6FFF0E9D6FC3EC47
:10DF22006CF097EC6CF00009D8B49AEF6FF09CEFAC
:10DF32006FF092EF6FF0B10E11EC6CF0E2EC6BF05F
:10DF42000009D8B4A7EF6FF0A9EF6FF09FEF6FF061
:10DF520024EC70F00001A86FE2EC6BF00009D8B479
:10DF6200B5EF6FF0B7EF6FF0ADEF6FF024EC70F03C
:10DF72000001A96FE00E9C6FFF0E9D6FA951A76F64
:10DF8200A66BA851A6259E6F000EA7219F6FC3EC1A
:10DF92006CF00001A951A76FA66BA851A625A46F2A
:10DFA200000EA721A56F12003901A6A5DBEF6FF0C5
:10DFB200DDEF6FF0D5EF6FF0000E0001686F3D01ED
:10DFC200E1A7E6EF6FF0E8EF6FF0F6EF6FF0000118
:10DFD200688302D8F6EF6FF00500FA6EC851FD6E45
:10DFE200C951FE6EFF6AFA5012003D01E1A3FCEF37
:10DFF2006FF0FEEF6FF00CEF70F00001688502D851
:10E002000CEF70F00500FA6EC651FD6EC751FE6E40
:10E01200FF6AFA50120000016851D8B413EF70F091
:10E0220015EF70F021EF70F002D821EF70F00500CB
:10E03200FA6EC451FD6EC551FE6EFF6AFA501200AF
:10E042003D01D05112003901A3A72AEF70F02CEF45
:10E0520070F024EF70F0000E0001696F3D01F9A726
:10E0620035EF70F037EF70F045EF70F00001698323
:10E0720002D845EF70F00500FA6ECE51FD6ECF5119
:10E08200FE6EFF6AFA5012003D01F9A34BEF70F0E9
:10E092004DEF70F05BEF70F00001698502D85BEF25
:10E0A20070F00500FA6ECC51FD6ECD51FE6EFF6A26
:10E0B200FA50120000016951D8B462EF70F064EFB7
:10E0C20070F070EF70F002D870EF70F00500FA6E29
:10E0D200CA51FD6ECB51FE6EFF6AFA5012003D012D
:10E0E200E851120097EC6CF00009D8B47BEF70F0A5
:10E0F2007DEF70F073EF70F0BB0E11EC6CF097ECEB
:10E102006CF00009D8B488EF70F08AEF70F080EFFD
:10E1120070F0320E11EC6CF097EC6CF00009D8B490
:10E1220095EF70F097EF70F08DEF70F0010E11EC3B
:10E132006CF097EC6CF00009D8B4A2EF70F0A4EF89
:10E1420070F09AEF70F0140E11EC6CF097EC6CF02A
:10E152000009D8B4AFEF70F0B1EF70F0A7EF70F034
:10E16200030E11EC6CF097EC6CF00009D8B4BCEF24
:10E1720070F0BEEF70F0B4EF70F0BA0E11EC6CF00C
:10E182001200000E076E97EC6CF00009D8B4CCEFC9
:10E1920070F0CEEF70F0C4EF70F0B80E11EC6CF0CE
:10E1A20097EC6CF00009D8B4D9EF70F0DBEF70F0A7
:10E1B200D1EF70F0045011EC6CF008EF71F097ECB5
:10E1C2006CF00009D8B4E8EF70F0EAEF70F008EFF5
:10E1D20071F007500224056E000E0320066E6000E7
:10E1E20017F0F6FF60001BF0F7FF000EF86E0F0E3F
:10E1F200F76403D00800F55007D06F00DBFFE1FFA2
:10E202006F00DFFFE2FFE75011EC6CF0072A0450C9
:10E21200075CD8A00FEF71F011EF71F0E0EF70F032
:10E222001200000EBE6E000EBD6E000EBA6E000E23
:10E23200BB6E000EBC6E070EC66EC268BF0EC36E0A
:10E24200AF0EC46EFC0EC56E3A0170697F0E606F30
:10E252005F0E506F070E806F4069000E716F000EE7
:10E26200816F000E516F000E416F000E616F000E44
:10E272005A6F000E5B6F000E6A6F000E6B6F000E1E
:10E282007A6F000E7B6F000E826F000E426F000EDF
:10E29200526F000E626F000E726F436953696369B9
:10E2A2007369070E836F44695469646974690F0E58
:10E2B200846F0F0EE86F160E0E6F0D0E146F130E95
:10E2C200166F170EE56F1200000E0001AE6F000E02
:10E2D200B06F060EAF6F97EC6CF00009D8B474EF14
:10E2E20071F076EF71F06CEF71F0810E11EC6CF061
:10E2F20091EF71F0E2EC6BF00009D8B483EF71F0AA
:10E3020085EF71F091EF71F0A70E0001AE25D96E85
:10E31200DA6A000EDA2224EC70F0DF6E0001AE2B16
:10E322000001AE51A46FA56BAF51A45DA551800A47
:10E33200A66FB051800AA659D8A0A2EF71F0A4EF3F
:10E3420071F07BEF71F0A70EAF25D96E000EB021F0
:10E35200DA6E000EDF6E850E9C6FFE0E9D6FA70EAD
:10E362009E6F000E9F6FC3EC6CF0A70E026E000E44
:10E37200036E6000BCF204F0C2EC70F01200000EFA
:10E382000001B86F8BEC6FF0600090F2B5F06000A6
:10E3920094F2B6F0AC0E00019C6F000E9D6FF00E71
:10E3A2009E6FFF0E9F6F6000D4F2A0F06000D8F263
:10E3B200A1F0D3EC6EF000019C51B76F97EC6CF0BA
:10E3C2000009D8B4E7EF71F0E9EF71F0DFEF71F017
:10E3D200B80E11EC6CF097EC6CF00009D8B4F4EFC5
:10E3E20071F0F6EF71F0ECEF71F00001B75111EC42
:10E3F2006CF012EF72F097EC6CF00009D8B404EFF5
:10E4020072F006EF72F012EF72F0AC0E0001B82556
:10E41200D96EDA6A000EDA22DF5011EC6CF00001DC
:10E42200B82B0001B751B85DD8A01AEF72F01CEFFB
:10E4320072F0FCEF71F0120097EC6CF00009D8B4A6
:10E4420025EF72F027EF72F01DEF72F0CD82870E8A
:10E4520011EC6CF0000E126EE2EC6BF00009D8B415
:10E4620035EF72F037EF72F02DEF72F0080E1224D2
:10E47200D96EDA6A000EDA2224EC70F0DF6EE2EC7A
:10E482006BF00009D8B448EF72F04AEF72F040EF37
:10E4920072F00D0E1224D96EDA6A000EDA2224EC22
:10E4A20070F0DF6E0D0E1224D96EDA6A000EDA22D7
:10E4B200DF50046E0450066E056A080E1224D96EEF
:10E4C200DA6A000EDA22DF50076E07500526000EC8
:10E4D20006221250020D8A0EF324D96E000EF42089
:10E4E200DA6E600017F0DEFF60001BF0DDFF122A1B
:10E4F200040E12647FEF72F081EF72F02DEF72F072
:10E50200CD928A0E026E000E036E120005500610A6
:10E51200D8B48EEF72F090EF72F099EF72F005506E
:10E522000610D8A497EF72F099EF72F09EEF72F096
:10E532000350A0EC6BF0F2EF72F020EE04F0055005
:10E54200D9260650DA22DE50DE10D8B4ABEF72F0D4
:10E55200ADEF72F0C8EF72F020EE04F00550D9264C
:10E562000650DA2210EE02F00550E1260650E222B1
:10E57200DE50E65CE650800A0B6EDE50800A0B58D5
:10E58200D8B0C6EF72F0C8EF72F0F2EF72F020EE80
:10E5920002F00550D9260650DA226F0078FF07F004
:10E5A2006F0074FF08F0600017F0D9FF60001BF0E5
:10E5B200DAFF6F0078FF09F06F0074FF0AF007506E
:10E5C2000924D96E08500A20DA6E60000FF0DFFFCE
:10E5D20020EE02F00550D9260650DA22DE2A000E7D
:10E5E200DD22120009500A100B100C100D100E1033
:10E5F2000F101010D8B400EF73F002EF73F04AEF6F
:10E6020073F0010E116E10EF73F0D89009360A36CE
:10E612000B360C360D360E360F361036112A10AE6A
:10E6220015EF73F017EF73F006EF73F00950015C0A
:10E632000A5002580B5003580C5004580D500558FC
:10E642000E5006580F50075810500858D8A02CEFFB
:10E6520073F02EEF73F03EEF73F00950015E0A5033
:10E66200025A0B50035A0C50045A0D50055A0E50C0
:10E67200065A0F50075A1050085AD89010320F32CB
:10E682000E320D320C320B320A320932112E17EFD2
:10E6920073F0600004F001F0600008F002F0600026
:10E6A2000CF003F0600010F004F0600014F005F0CC
:10E6B200600018F006F060001CF007F0600020F027
:10E6C20008F01200000166A169EF73F06BEF73F0BE
:10E6D20079EF73F0600054F00CF0600058F00DF028
:10E6E20060004CF00EF0600050F00FF07FEC6DF027
:10E6F20018BE7EEF73F080EF73F088EF73F0600066
:10E702005CF01CF0600060F01DF08CEF73F0000E06
:10E712001D6E000E1C6E000E1B6E000E1A6EA0EF18
:10E7220073F0000E046E200E036E60004CF005F0D4
:10E73200600050F006F087EC72F01A4A1B2A1C5057
:10E742001A5C1B50800A196E1D50800A1958D8A0F5
:10E75200ADEF73F0AFEF73F092EF73F0000166B1BB
:10E76200B5EF73F0B7EF73F0C5EF73F0600054F0DC
:10E772000CF0600058F00DF060004CF00EF06000FC
:10E7820050F00FF07FEC6DF0600054F001F060008B
:10E7920058F002F060EC6DF01C500124136E1D5015
:10E7A2000220146E120020EE11F0070EDE6AE80657
:10E7B200FDE209500A100B100C100D100E100F1074
:10E7C2001010D8B4E7EF73F0E9EF73F03BEF74F099
:10E7D200010E196EF7EF73F0D89009360A360B3630
:10E7E2000C360D360E360F361036192A10AEFCEFE7
:10E7F20073F0FEEF73F0EDEF73F0D890113612362E
:10E802001336143615361636173618360950015C8B
:10E812000A5002580B5003580C5004580D5005581A
:10E822000E5006580F50075810500858D8A01CEF29
:10E8320074F01EEF74F02FEF74F00950015E0A506D
:10E84200025A0B50035A0C50045A0D50055A0E50DE
:10E85200065A0F50075A1050085A1180D890103299
:10E862000F320E320D320C320B320A320932192EAD
:10E87200FEEF73F0600044F001F0600048F002F037
:10E8820060004CF003F0600050F004F0600054F0BF
:10E8920005F0600058F006F060005CF007F06000E0
:10E8A20060F008F0120048EC6FF01DEC72F06000AE
:10E8B20008F0A6F060000CF0A7F0020E0001A56FB0
:10E8C200380EA46FAD0EE82EFED7A42FFCD7A52FCD
:10E8D200FAD74D0E00019C6FFF0E9D6F60009BF2F8
:10E8E200D9FF60009FF2DAFF6F0078FF9EF06F00A1
:10E8F20074FF9FF0C3EC6CF05E0E00019C6FFF0E84
:10E902009D6F20EE02F0A651D926A751DA226F00A0
:10E9120078FF9EF06F0074FF9FF0C3EC6CF05E0E08
:10E9220000019C6FFF0E9D6F20EE04F0A651D926C8
:10E93200A751DA226F0078FF9EF06F0074FF9FF0FC
:10E94200C3EC6CF05E0E00019C6FFF0E9D6F20EE1B
:10E9520006F0A651D926A751DA226F0078FF9EF061
:10E962006F0074FF9FF0C3EC6CF0F60E00019C6F19
:10E97200FF0E9D6F20EE08F0A651D926A751DA228C
:10E982006F0078FF9EF06F0074FF9FF0C3EC6CF095
:10E992007A0E00019C6FFF0E9D6F82EC6CF060009E
:10E9A20004F09EF0600008F09FF0C3EC6CF056EFAC
:10E9B20074F01200000E126E08BEE4EF74F0E2EF83
:10E9C20074F0F6EF74F0081E071E061E051E041EE4
:10E9D200031E021E016C000E0222032204220522E3
:10E9E200062207220822010E126E10BEFDEF74F0FD
:10E9F200FBEF74F00DEF75F0101E0F1E0E1E0D1EB4
:10EA02000C1E0B1E0A1E096C000E0A220B220C227F
:10EA12000D220E220F22102209500A100B100C1088
:10EA22000D100E100F101010D8B41AEF75F01CEF65
:10EA320075F064EF75F0010E116E2AEF75F0D89043
:10EA420009360A360B360C360D360E360F361036B0
:10EA5200112A10AE2FEF75F031EF75F020EF75F03F
:10EA62000950015C0A5002580B5003580C500458CC
:10EA72000D5005580E5006580F50075810500858A0
:10EA8200D8A046EF75F048EF75F058EF75F00950D1
:10EA9200015E0A50025A0B50035A0C50045A0D5090
:10EAA200055A0E50065A0F50075A1050085AD8905D
:10EAB20010320F320E320D320C320B320A32093260
:10EAC200112E31EF75F01250D8B46AEF75F06CEF79
:10EAD20075F07CEF75F0081E071E061E051E041E4B
:10EAE200031E021E016C000E0222032204220522D2
:10EAF200062207220822600004F001F0600008F0FC
:10EB020002F060000CF003F0600010F004F060000E
:10EB120014F005F0600018F006F060001CF007F039
:10EB2200600020F008F01200000E126E10BE9EEF80
:10EB320075F09CEF75F0B0EF75F0101E0F1E0E1EF3
:10EB42000D1E0C1E0B1E0A1E096C000E0A220B2241
:10EB52000C220D220E220F221022010E126E08BE6E
:10EB6200B7EF75F0B5EF75F0C9EF75F0081E071E27
:10EB7200061E051E041E031E021E016C000E02224A
:10EB8200032204220522062207220822010E121A5B
:10EB920020EE13F0070EDE6AE806FDE209500A10C5
:10EBA2000B100C100D100E100F101010D8B4DCEF5B
:10EBB20075F0DEEF75F030EF76F0010E116EECEFCE
:10EBC20075F0D89009360A360B360C360D360E36ED
:10EBD2000F361036112A10AEF1EF75F0F3EF75F023
:10EBE200E2EF75F0D890133614361536163617360E
:10EBF200183619361A360950015C0A5002580B5061
:10EC020003580C5004580D5005580E5006580F501A
:10EC1200075810500858D8A011EF76F013EF76F08D
:10EC220024EF76F00950015E0A50025A0B50035A43
:10EC32000C50045A0D50055A0E50065A0F50075ADE
:10EC42001050085A1380D89010320F320E320D3203
:10EC52000C320B320A320932112EF3EF75F01250D8
:10EC6200D8B436EF76F038EF76F048EF76F01A1E29
:10EC7200191E181E171E161E151E141E136C000ECA
:10EC82001422152216221722182219221A22600093
:10EC92004CF001F0600050F002F0600054F003F01C
:10ECA200600058F004F060005CF005F0600060F075
:10ECB20006F0600064F007F0600068F008F01200EF
:10ECC20020EEDBF010EE11F0060E6F006FFFE3FF97
:10ECD200E806FBE2600038F01CF060003CF01DF03A
:10ECE2001C501D10D8A478EF76F07AEF76F07EEF04
:10ECF20076F0110E1C6E000E1D6E600070F001F0B9
:10ED0200600074F002F060EC6DF0600004F020F03E
:10ED1200600008F021F0600090F11EF0600094F1B4
:10ED22001FF01FBE97EF76F099EF76F0B0EF76F016
:10ED320020501E5C1F50800A106E2150800A10580D
:10ED4200D8A0A6EF76F0A8EF76F0AAEF76F0B0EFB3
:10ED520076F0600078F020F060007CF021F0600036
:10ED620080F01EF0600084F01FF0600088F11AF05D
:10ED720060008CF11BF0000166B1C2EF76F0C4EFC7
:10ED820076F0E3EF76F0D4EF76F0000E046E200E0C
:10ED9200036E600030F005F0600034F006F087EC9E
:10EDA20072F0204A212A1A50205C2150800A106EEB
:10EDB2001B50800A1058D8A0E1EF76F0E3EF76F00E
:10EDC200C6EF76F0000E196E000E186E00EF77F0A7
:10EDD200600073F0D9FF600077F0DAFFDF50106E49
:10EDE2001050036E046A600030F005F0600034F0E9
:10EDF20006F087EC72F01C4A1D2A184A192A1E5086
:10EE0200185C1950800A106E1F50800A1058D8A042
:10EE12000DEF77F00FEF77F0E9EF76F0000166A1E2
:10EE220015EF77F017EF77F036EF77F027EF77F0FF
:10EE3200000E046E200E036E600030F005F06000DC
:10EE420034F006F087EC72F0204A212A1A50205C36
:10EE52002150800A106E1B50800A1058D8A034EF3F
:10EE620077F036EF77F019EF77F0600080F00CF072
:10EE7200600084F00DF01200000E166E000E156E8A
:10EE8200000E0F6E000E0E6E49EF77F0084A092A47
:10EE9200010E146E600023F0F6FF600027F0F7FF0A
:10EEA200F86A0800F550200AD8B45AEF77F05CEF00
:10EEB20077F07CEF77F0F70E0A6EFF0E0B6E6000B4
:10EEC20023F0F6FF600027F0F7FFF86A0800F5501C
:10EED2000C6E0D6A0A500C260B500D220D5009E1E2
:10EEE200050E0C5CD8A078EF77F07AEF77F07CEF24
:10EEF20077F0000E146E600050F010F0116A10509E
:10EF02001110D8A487EF77F089EF77F047EF77F009
:10EF120093EF77F0000E0F6E010E0E6E084A092A6B
:10EF2200D0EF77F0600023F0F6FF600027F0F7FFE4
:10EF3200F86A0800F5500A6E0B6A0B50000AD8B442
:10EF4200A5EF77F0D0EF77F00A502B0AD8B48FEF05
:10EF520077F0060AD8B48BEF77F0D0EF77F0600045
:10EF620054F001F0600058F002F0000E046E0A0E38
:10EF7200036ED9EC6CF0600023F0F6FF600027F01E
:10EF8200F7FFF86A0800F550015E000E025A300ED3
:10EF92000124156E000E0220166E8FEF77F0D00E50
:10EFA2000A6EFF0E0B6E600023F0F6FF600027F082
:10EFB200F7FFF86A0800F5500C6E0D6A0A500C262D
:10EFC2000B500D220D500AE10A0E0C5CD8A0ECEF9A
:10EFD20077F0EFEF77F0010EF0EF77F0000E126EA0
:10EFE200136A12501310D8A4F9EF77F0FBEF77F001
:10EFF200B0EF77F00E500F10D8A402EF78F004EFC4
:10F0020078F016EF78F0600054F00AF0600058F0E3
:10F012000BF00A1E0B1E0A4A0B2A600028F008F0A9
:10F0220060002CF009F01CEF78F0600054F008F05A
:10F03200600058F009F01200000165BF23EF78F07C
:10F0420025EF78F026EF78F0669365BF33EF78F01E
:10F05200655106E16405D8B031EF78F033EF78F00E
:10F0620039EF78F0000E316E010E306E3FEF78F01E
:10F07200600090F130F0600094F131F0600088F1AE
:10F0820032F060008CF133F0600080F034F0600008
:10F0920084F035F0600088F036F060008CF037F0D4
:10F0A200600090F038F0600094F039F0600098F061
:10F0B2003AF060009CF03BF0000E3D6E1F0E3C6E7D
:10F0C200000E896FFBEF78F03C06D8A03D066A0E71
:10F0D2003C24D96E000E3D20DA6E6000D0F001F0C3
:10F0E2006000D4F002F06000D8F003F06000DCF0C1
:10F0F20004F06000E0F005F06000E4F006F060006B
:10F10200E8F007F06000ECF008F00A0E096E000E5D
:10F112000A6E000E0B6E000E0C6E000E0D6E000ECF
:10F122000E6E000E0F6E000E106EF3EC72F06000A9
:10F1320004F028F0600008F029F060000CF02AF0DA
:10F14200600010F02BF0600014F02CF0600018F05A
:10F152002DF060001CF02EF0600020F02FF02850FF
:10F16200300FDF6E3006D8A031063206D8A0330643
:10F172006000D0F001F06000D4F002F06000D8F03E
:10F1820003F06000DCF004F06000E0F005F06000E5
:10F19200E4F006F06000E8F007F06000ECF008F040
:10F1A2000A0E096E000E0A6E000E0B6E000E0C6E39
:10F1B200000E0D6E000E0E6E000E0F6E000E106E23
:10F1C200D4EC73F0600004F034F0600008F035F025
:10F1D20060000CF036F0600010F037F0600014F0C0
:10F1E20038F0600018F039F060001CF03AF060006E
:10F1F20020F03BF03C503D10D8B402EF79F004EF20
:10F2020079F035EF79F03450351036103710381068
:10F2120039103A103B10D8A411EF79F013EF79F0BE
:10F2220065EF78F031BE20EF79F0315006E130041D
:10F23200D8B01EEF79F020EF79F065EF78F033BEA9
:10F242002BEF79F0335008E13204D8A02BEF79F09C
:10F252002DEF79F035EF79F0000166B333EF79F0F5
:10F2620035EF79F065EF78F0600078F013F0600028
:10F272007CF014F06A0E3C24156E000E3D20166ED2
:10F282006000C8F017F06000CCF018F063EC73F087
:10F2920060004CF01EF0600050F01FF012006DECA8
:10F2A2006CF0A00E00019C6FFF0E9D6FC3EC6CF022
:10F2B200CC0E00019C6FFF0E9D6FC3EC6CF0BF0E75
:10F2C20000019C6FFF0E9D6FC3EC6CF0340E0001C9
:10F2D2009C6FFF0E9D6FC3EC6CF01A0E00019C6FC9
:10F2E200FF0E9D6FC3EC6CF0A80E00019C6FFE0E2A
:10F2F2009D6FC3EC6CF08F0E00019C6FFF0E9D6F33
:10F30200C3EC6CF0E50E00019C6FFE0E9D6FC3EC2A
:10F312006CF0000E00019C6FFF0E9D6FC3EC6CF051
:10F32200C90E00019C6FFE0E9D6FC3EC6CF0130EB4
:10F3320000019C6FFE0E9D6FC3EC6CF0610E00012C
:10F342009C6FFE0E9D6FC3EC6CF03B0E00019C6F38
:10F35200FE0E9D6FC3EC6CF0B10E00019C6FFF0EB0
:10F362009D6FC3EC6CF0C0EC71F0CAEC6DF0CBAAEF
:10F37200BDEF79F0BFEF79F0C9EF79F0EB0E026ED5
:10F38200FF0E036E040E046EC2EC70F0D1EF79F042
:10F39200E80E026EFF0E036E070E046EC2EC70F0F2
:10F3A20097EC6BF09DEC6BF09BEC6BF0CBAADCEF77
:10F3B20079F0DEEF79F049EF7AF048EC6FF082EC09
:10F3C2006CF0390E01240001BB6F000E0220BC6FED
:10F3D20073EC70F082EC6CF0600004F0BFF060003F
:10F3E20008F0C0F00001BF51BB5DC051BC59D8B09C
:10F3F200FDEF79F0FFEF79F012EF7AF0BF1DB96FF0
:10F40200C01DBA6FBA5109E13A0EB95DD8A00CEF2E
:10F412007AF00EEF7AF012EF7AF02BEC6CF010EF3C
:10F422007AF01DEC72F0600008F0BDF060000CF0A4
:10F43200BEF0180E0001B96F5F0EE82EFED7B92F8D
:10F44200FCD76000F7F2D9FF6000FBF2DAFFF50E9D
:10F45200DE5C010EDE58D8A031EF7AF033EF7AF09D
:10F46200EBEF79F0000120EE08F0BD51D926BE5134
:10F47200DA22F50EDE5C010EDE58D8A043EF7AF0F8
:10F4820045EF7AF0EBEF79F02BEC6CF047EF7AF086
:10F49200CD80D7EC6BF00009D8B452EF7AF054EF7C
:10F4A2007AF0ECEF7AF0CD82D5EC6FF00001C16F0B
:10F4B200ADEC6CF00009D8B461EF7AF063EF7AF04A
:10F4C20074EF7AF00001C1511EEC6CF00D0E0001D8
:10F4D200C119D8A46FEF7AF071EF7AF074EF7AF075
:10F4E2000A0E1EEC6CF0310E0001C119D8A47CEF9B
:10F4F2007AF07EEF7AF082EF7AF08BEC6FF0EBEF3E
:10F502007AF0320EC119D8A489EF7AF08BEF7AF033
:10F512008FEF7AF0C0EC71F0EBEF7AF0400EC11988
:10F52200D8A496EF7AF098EF7AF09CEF7AF065EC37
:10F5320071F0EBEF7AF0630EC119D8A4A3EF7AF061
:10F54200A5EF7AF0AAEF7AF0B70E11EC6CF0EBEFC0
:10F552007AF0730EC119D8A4B1EF7AF0B3EF7AF052
:10F56200B7EF7AF054EC74F0EBEF7AF02D0EC1198C
:10F57200D8A4BEEF7AF0C0EF7AF0C4EF7AF0F2ECE2
:10F582006DF0EBEF7AF07E0EC119D8A4CBEF7AF0D2
:10F59200CDEF7AF0D1EF7AF05AEC6CF0EBEF7AF033
:10F5A2000D0EC119D8A4D8EF7AF0DAEF7AF0DEEFB7
:10F5B2007AF0CAEC6DF0EBEF7AF01F0EC165E4EF62
:10F5C2007AF0E6EF7AF0EBEF7AF0C1511AEC6EF0D6
:10F5D200EBEF7AF0CD92CD9049EF7AF0FEEF7FF02B
:10F5E200600080F038F0600084F039F0600088F04C
:10F5F2003AF060008CF03BF0600090F03CF060006C
:10F6020094F03DF0600098F03EF060009CF03FF016
:10F612003FBE0EEF7BF011EF7BF0010E12EF7BF09D
:10F62200000E366E376A36503710D8B41BEF7BF0B7
:10F632001DEF7BF02DEF7BF03F1E3E1E3D1E3C1E5C
:10F642003B1E3A1E391E386C000E39223A223B22EA
:10F652003C223D223E223F22000165BF33EF7BF078
:10F6620035EF7BF036EF7BF0669365BF43EF7BF0BF
:10F67200655106E16405D8B041EF7BF043EF7BF0C2
:10F6820049EF7BF0000E336E010E326E4FEF7BF0CE
:10F69200600090F132F0600094F133F0600088F184
:10F6A20034F060008CF135F036503710D8A45CEF9E
:10F6B2007BF05EEF7BF065EF7BF066A563EF7BF09E
:10F6C20065EF7BF068EF7BF03406D8A03506000EBC
:10F6D200416E1F0E406E000E896F0EEF7CF04006E9
:10F6E200D8A041066A0E4024D96E000E4120DA6E7F
:10F6F2006000E0F001F06000E4F002F06000E8F089
:10F7020003F06000ECF004F06000F0F005F060003F
:10F71200F4F006F06000F8F007F06000FCF008F08A
:10F722000A0E096E000E0A6E000E0B6E000E0C6EB3
:10F73200000E0D6E000E0E6E000E0F6E000E106E9D
:10F74200DBEC74F0600004F028F0600008F029F0AF
:10F7520060000CF02AF0600010F02BF0600014F052
:10F762002CF0600018F02DF060001CF02EF060000C
:10F7720020F02FF06000A0F013F06000A8F014F069
:10F78200A4EC6DF01350300FDF6E3206D8A03306B2
:10F792003406D8A035066000E0F001F06000E4F025
:10F7A20002F06000E8F003F06000ECF004F06000AA
:10F7B200F0F005F06000F4F006F06000F8F007F0F9
:10F7C2006000FCF008F00A0E096E000E0A6E000ED0
:10F7D2000B6E000E0C6E000E0D6E000E0E6E000E05
:10F7E2000F6E000E106E95EC75F0600004F038F0AC
:10F7F200600008F039F060000CF03AF0600010F0A0
:10F802003BF0600014F03CF0600018F03DF0600046
:10F812001CF03EF0600020F03FF041BE19EF7CF09A
:10F82200415008E14004D8A019EF7CF01BEF7CF0B6
:10F832004CEF7CF0385039103A103B103C103D1020
:10F842003E103F10D8A428EF7CF02AEF7CF070EF36
:10F852007BF033BE37EF7CF0335006E13204D8B090
:10F8620035EF7CF037EF7CF070EF7BF035BE42EF86
:10F872007CF0355008E13404D8A042EF7CF044EF2C
:10F882007CF04CEF7CF0000166B34AEF7CF04CEF69
:10F892007CF070EF7BF036503710D8A453EF7CF039
:10F8A20055EF7CF05DEF7CF0000166A55BEF7CF02C
:10F8B2005DEF7CF07CEF7CF04006D8A0410636502C
:10F8C2003710D8A467EF7CF069EF7CF06FEF7CF023
:10F8D200000E316E2B0E306E73EF7CF0000E316E27
:10F8E2002D0E306E6A0E4024D96E000E4120DA6E63
:10F8F2006000C3F0DFFF600078F013F060007CF07E
:10F9020014F06A0E4024156E000E4120166E60003F
:10F91200D0F017F06000D4F018F063EC73F06000E0
:10F922004CF01EF0600050F01FF01200600013F166
:10F93200D9FF600017F1DAFF6F007BFFF6FF6F005F
:10F9420077FFF7FFF86A0800F550250AD8A4ACEF54
:10F952007CF0AEEF7CF0E3EF7EF0600013F1D9FFB4
:10F96200600017F1DAFFDE2A000EDD22000E000130
:10F97200636F000E626F62C066F063C067F0646915
:10F982006569600013F1D9FF600017F1DAFF6F00BB
:10F992007BFFF6FF6F0077FFF7FFF86A0800F5506C
:10F9A2002A0AD8A4D7EF7CF0D9EF7CF00CEF7DF0D7
:10F9B200600013F1D9FF600017F1DAFFDE2A000EB2
:10F9C200DD2260001BF1D9FF60001FF1DAFF6F003A
:10F9D2007CFF48F0020EDE266F007CFF49F0000E2D
:10F9E200DD22600023F1D9FF600027F1DAFF6F000A
:10F9F20078FF62F06F0074FF63F063BF05EF7DF084
:10FA020003EF7DF05CEF7DF06681626D631FD8B01D
:10FA1200632B5CEF7DF0600013F1D9FF600017F1FA
:10FA2200DAFF6F0078FF08F06F0074FF09F03DEC19
:10FA320077F0600020F062F0600024F063F02BEFBA
:10FA42007DF0600013F1D9FF600017F1DAFFDE2AC2
:10FA5200000EDD22D00E486EFF0E496E600013F1DB
:10FA6200D9FF600017F1DAFF6F007BFFF6FF6F002E
:10FA720077FFF7FFF86A0800F5504A6E4B6A485064
:10FA82004A2649504B224B500AE10A0E4A5CD8A042
:10FA92004DEF7DF050EF7DF0010E51EF7DF0000E45
:10FAA2005E6E5F6A5E505F10D8A45AEF7DF05CEF25
:10FAB2007DF022EF7DF0600013F1D9FF600017F1B5
:10FAC200DAFF6F007BFFF6FF6F0077FFF7FFF86A40
:10FAD2000800F550640AD8B471EF7DF073EF7DF041
:10FAE2008AEF7DF0600013F1D9FF600017F1DAFFB1
:10FAF2006F007BFFF6FF6F0077FFF7FFF86A0800E1
:10FB0200F550690AD8A488EF7DF08AEF7DF0E0EF26
:10FB12007DF0600013F1D9FF600017F1DAFFDE2AF1
:10FB2200000EDD2260001BF1D9FF60001FF1DAFF39
:10FB32006F007CFF48F0020EDE266F007CFF49F06A
:10FB4200000EDD22600023F1D9FF600027F1DAFF09
:10FB52006F0078FF4CF06F0074FF4DF0000E4DBE49
:10FB6200FF0E4E6E4F6E506E516E526E536E6000AF
:10FB720008F11EF060000CF11FF0600030F120F07F
:10FB8200600034F121F0600038F122F060003CF1B5
:10FB920023F0600040F124F0600044F125F06000A1
:10FBA20048F126F060004CF127F0F1EC7AF06000A9
:10FBB20078F042F060007CF043F007EF7FF06000E5
:10FBC20013F1D9FF600017F1DAFF6F007BFFF6FF38
:10FBD2006F0077FFF7FFF86A0800F550730AD8A4A0
:10FBE200F5EF7DF0F7EF7DF032EF7EF0600013F17C
:10FBF200D9FF600017F1DAFFDE2A000EDD22600075
:10FC02001BF1D9FF60001FF1DAFF6F007CFF48F0A3
:10FC1200020EDE266F007CFF49F0000EDD2260003E
:10FC220023F1D9FF600027F1DAFF6F0078FF5CF063
:10FC32006F0074FF5DF0600008F10CF060000CF1E1
:10FC42000DF0600070F10EF0600074F10FF061ECE5
:10FC520076F0600030F042F0600034F043F007EFDD
:10FC62007FF0600013F1D9FF600017F1DAFF6F0037
:10FC72007BFFF6FF6F0077FFF7FFF86A0800F55089
:10FC8200750AD8A447EF7EF049EF7EF0A2EF7EF02E
:10FC9200600013F1D9FF600017F1DAFFDE2A000ECF
:10FCA200DD2260001BF1D9FF60001FF1DAFF6F0057
:10FCB2007CFF48F0020EDE266F007CFF49F0000E4A
:10FCC200DD22600023F1D9FF600027F1DAFF6F0027
:10FCD20078FF4AF06F0074FF4BF0600028F154F097
:10FCE20060002CF155F0566A576A586A596A5A6A86
:10FCF2005B6A600008F11EF060000CF11FF060000A
:10FD020050F120F0600054F121F0600058F122F02F
:10FD120060005CF123F0600060F124F0600064F1A7
:10FD220025F0600068F126F060006CF127F01DEC10
:10FD320078F0600078F042F060007CF043F007EF6A
:10FD42007FF0600013F1D9FF600017F1DAFF6F0056
:10FD52007BFFF6FF6F0077FFF7FFF86A0800F550A8
:10FD6200250AD8A4B7EF7EF0B9EF7EF0D4EF7EF08B
:10FD7200600013F1D9FF600017F1DAFFDE2A000EEE
:10FD8200DD22000E046E250E036E600008F105F000
:10FD920060000CF106F087EC72F0000E436E010E6B
:10FDA200426E07EF7FF0600013F1D9FF600017F198
:10FDB200DAFFDE2A000EDD22000E436E000E426ED6
:10FDC20007EF7FF0600013F1D9FF600017F1DAFF4F
:10FDD2006F007BFFF6FF6F0077FFF7FFF86A0800FE
:10FDE200F550036E046A600008F105F060000CF142
:10FDF20006F087EC72F0600013F1D9FF600017F192
:10FE0200DAFFDE2A000EDD22CEEF7EF0120000398C
:10FE120000090972657475726E2E204C4344206786
:10FE22006F20746F207374617274206F66206C6926
:10FE32006E652074776F0D0A0009092720272E208E
:10FE42004C434420646973706C6179206572726FEF
:10FE52007220616E64206865782032300D0A0009D4
:10FE6200093F2E204C434420646973706C617920F1
:10FE72006572726F7220616E642068657820334605
:10FE82000D0A000D0A09546865205369676E617492
:10FE92007572652066726F6D203350692069733AFE
:10FEA2002025730D0A000909322E20446973706CF3
:10FEB2006179206D562072656164696E6720696E92
:10FEC200204C43440D0A0009097E2E204C43442055
:10FED2006D6573736167652041505343313239391F
:10FEE2000D0A000909732E205072696E7420536541
:10FEF2006E736F722056616C7565730D0A00090985
:10FF02002D2E2053656E642068797068656E2074AA
:10FF12006F204C43440D0A000909312E20446973B5
:10FF2200706C6179206D562072656164696E670D2F
:10FF32000A000909402E20506F6C6F6C75205369BE
:10FF4200676E61747572653F0D0A000D73656E739D
:10FF52006F722076616C756573203D202534752C97
:10FF620020000D0A094261747465727920566F6C23
:10FF720074616765203D2000207C2054696D6572A4
:10FF82002056616C7565203D202535750009096391
:10FF92002E20436C656172204C43440D0A00094BCC
:10FFA20050552041505343313239390A0A0D000964
:10FFB200092D2D2D2D2D2D2D2D0D0A0A0009092D6E
:10FFC2002D2D2D2D2D2D2D0D0A00090920204D65D9
:10FFD2006E750A0D0043616C20446F6E65002564E6
:10FFE200206D560D0A004E6F20526F616D0025750F
:09FFF200206D5600253475000055
:04FFFC00F0EF6CF0C6
:020000040020DA
:10000000FF0FFF0FFF0FFF0FFF0FFF0FFF0FFF0F80
:020000040030CA
:0A000000ECFEF7FF9FFFFFFFFFFF7C
:00000001FF
