:020000040000FA
:04000000FEEF7FF0A0
:10DFDA00120012001200120012001200026E025009
:10DFEA0064EC70F01200600004F0C4F0600008F005
:10DFFA00C5F01200600004F0C8F0600008F0C9F033
:10E00A001200600004F0C6F0600008F0C7F01200C9
:10E01A00600004F0BEF0600008F0BFF0120060007B
:10E02A0004F0C2F0600008F0C3F01200600004F0CF
:10E03A00C0F0600008F0C1F0120041505343313281
:10E04A00393900286E756C6C290071EC70F029EC76
:10E05A0074F04BEC70F0D5EC71F004EC72F0120035
:10E06A003901A6B53BEF70F03EEF70F0010E3FEFBD
:10E07A0070F0000E12003901A3B746EF70F049EFB5
:10E08A0070F0010E4AEF70F0000E1200620E3901B4
:10E09A00D96F000EDB6F000EDD6F070EDF6F000E0B
:10E0AA00DE6F1200016E3901A3A95EEF70F060EF16
:10E0BA0070F058EF70F0600007F0EAFD1200016E90
:10E0CA003901A6A76BEF70F06DEF70F065EF70F095
:10E0DA00600007F0D2FD1200000E3901C06F000E79
:10E0EA00C16F000EC26F000EC36F000EC46F000E28
:10E0FA00C56F000EC66F000EC76F120020EEAEF09D
:10E10A0010EE08F0080E6F006FFFE3FFE806FBE26F
:10E11A00080E026E000E036E080E046ED9EC73F040
:10E12A001200000E016E3901A3A99EEF70F0A0EF54
:10E13A0070F0AAEF70F03D01F2ABA6EF70F0A8EF15
:10E14A0070F0AAEF70F0010E016E01501200000E7D
:10E15A00016E3901A6A7B4EF70F0B6EF70F0C0EF08
:10E16A0070F03D01DAABBCEF70F0BEEF70F0C0EFBB
:10E17A0070F0010E016E01501200920E0001966FAE
:10E18A00000E976F000E8A6F000E8B6F600040F2D0
:10E19A008CF0600044F28DF0960E8E6F000E8F6F39
:10E1AA0072EC72F01200440EF66EE00EF76E000E7C
:10E1BA00F86E00EEAEF010EE10F009006F00D7FF17
:10E1CA00EEFFE550E150F9E100EE60F02A0EEE6A4A
:10E1DA00E806FDE1000161EF79F0600004F003F068
:10E1EA00600008F004F0FCEF70F0014A022A6000B7
:10E1FA0007F0D9FF60000BF0DAFFDF50D8A408EF70
:10E20A0071F00AEF71F0FAEF70F00350015C016EE1
:10E21A0004500258026E1200000E126E000E116EA9
:10E22A0025EF71F0600040F003F0046A600038F0F6
:10E23A0005F060003CF006F032EC75F0114A122A43
:10E24A0011500C24D96E12500D20DA6EDF50106E68
:10E25A001050D8A433EF71F035EF71F017EF71F069
:10E26A00120014BE43EF71F0145006E11304D8B043
:10E27A0041EF71F043EF71F055EF71F060004CF02F
:10E28A0015F0600050F016F0151E161E154A162AD3
:10E29A00600054F013F0600058F014F05BEF71F076
:10E2AA0060004CF013F0600050F014F0120096EC8D
:10E2BA0070F00009D8B464EF71F066EF71F05CEFAA
:10E2CA0071F0B90E57EC70F096EC70F00009D8B402
:10E2DA0071EF71F073EF71F069EF71F0000E57ECA6
:10E2EA0070F096EC70F00009D8B47EEF71F080EF10
:10E2FA0071F076EF71F0010E57EC70F0120096ECA7
:10E30A0070F00009D8B48CEF71F08EEF71F084EFE1
:10E31A0071F0B80E57EC70F096EC70F00009D8B4B2
:10E32A0099EF71F09BEF71F091EF71F0010E57ECDC
:10E33A0070F096EC70F00009D8B4A6EF71F0A8EF6F
:10E34A0071F09EEF71F02D0E57EC70F01200026E14
:10E35A0096EC70F00009D8B4B5EF71F0B7EF71F030
:10E36A00ADEF71F0B80E57EC70F096EC70F0000952
:10E37A00D8B4C2EF71F0C4EF71F0BAEF71F0010EC8
:10E38A0057EC70F096EC70F00009D8B4CFEF71F04A
:10E39A00D1EF71F0C7EF71F0025057EC70F0120034
:10E3AA00000E3D01D46F000ED66F000ED86FB00E6E
:10E3BA00DA6F800EDB6F000EDC6F380EDD6F010E38
:10E3CA00DE6F000EDF6F000EE06F000EE16F000ED1
:10E3DA00E26FDC0E016EDF0E026E14EC70F0DE0EE0
:10E3EA00016EDF0E026E1BEC70F0DA0E016EDF0EAC
:10E3FA00026E0DEC70F0000E0001686F1200000E44
:10E40A003D01EC6F000EED6F000EEE6F000EEF6F28
:10E41A00000EF06F000EF16FB00EF26F800EF36F08
:10E42A00000EF46F190EF56F000EF66F000EF76FFF
:10E43A00000EF86F000EF96F000EFA6FE20E016E11
:10E44A00DF0E026EFFEC6FF0E40E016EDF0E026E5D
:10E45A0006EC70F0E00E016EDF0E026EF8EC6FF063
:10E46A00000E0001696F1200940E0001986F000EF1
:10E47A00996F600040F29AF0600044F29BF0000E3F
:10E48A009D6F000E9C6F000E9F6F000E9E6F9A0E7E
:10E49A008A6F000E8B6F600048F28CF060004CF2BD
:10E4AA008DF0980E8E6F000E8F6F72EC72F0600016
:10E4BA0028F296F060002CF297F000019C5190250A
:10E4CA00D96E9D519121DA6E000EDF6E600058F20E
:10E4DA0090F060005CF291F01200600030F25EF0A1
:10E4EA00600034F25FF0000E0001616F000E606F91
:10E4FA0096EF72F0600028F242F060002CF243F0CE
:10E50A005E0E446E000E456E600038F246F0600002
:10E51A003CF247F058EC7DF042500001602743502E
:10E52A00612360007BF1F6FF60007FF1F7FFF86A74
:10E53A000800F5500009D8A4A5EF72F0A7EF72F011
:10E54A007FEF72F0600080F18AF0600084F18BF056
:10E55A00120096EC70F00009D8B4B6EF72F0B8EF7A
:10E56A0072F0AEEF72F0BA0E57EC70F040EC70F049
:10E57A000009D8B4C3EF72F0C5EF72F0BBEF72F0C6
:10E58A00D1EF72F040EC70F00009D8B4CFEF72F01E
:10E59A00D1EF72F0C7EF72F08AEC73F0630AD8A475
:10E5AA00D9EF72F0DBEF72F0C7EF72F096EC70F011
:10E5BA000009D8B4E3EF72F0E5EF72F0DBEF72F026
:10E5CA00B70E57EC70F0DC0E026EFF0E036E080EEB
:10E5DA00046ED9EC73F012007E0E0001906FFF0EEC
:10E5EA00916FC2EC70F096EC70F00009D8B400EFAD
:10E5FA0073F002EF73F0F8EF72F0B10E57EC70F0AF
:10E60A0040EC70F00009D8B40DEF73F00FEF73F01F
:10E61A0005EF73F08AEC73F000019C6F40EC70F028
:10E62A000009D8B41BEF73F01DEF73F013EF73F00A
:10E63A008AEC73F000019D6FE50E906FFF0E916FEB
:10E64A009D519B6F9A6B9C519A25926F000E9B214C
:10E65A00936FC2EC70F000019D519B6F9A6B9C51B5
:10E66A009A25986F000E9B21996F12003901A6A571
:10E67A0041EF73F043EF73F03BEF73F0000E0001CC
:10E68A00686F3D01E1A74CEF73F04EEF73F05CEF5A
:10E69A0073F00001688302D85CEF73F00500FA6E2C
:10E6AA00C251FD6EC351FE6EFF6AFA5012003D015F
:10E6BA00E1A362EF73F064EF73F072EF73F000019D
:10E6CA00688502D872EF73F00500FA6EC051FD6ECC
:10E6DA00C151FE6EFF6AFA50120000016851D8B4A7
:10E6EA0079EF73F07BEF73F087EF73F002D887EF5F
:10E6FA0073F00500FA6EBE51FD6EBF51FE6EFF6AE1
:10E70A00FA5012003D01D05112003901A3A790EF2F
:10E71A0073F092EF73F08AEF73F0000E0001696FE5
:10E72A003D01F9A79BEF73F09DEF73F0ABEF73F028
:10E73A000001698302D8ABEF73F00500FA6EC85185
:10E74A00FD6EC951FE6EFF6AFA5012003D01F9A32F
:10E75A00B1EF73F0B3EF73F0C1EF73F000016985A5
:10E76A0002D8C1EF73F00500FA6EC651FD6EC751AB
:10E77A00FE6EFF6AFA50120000016951D8B4C8EF60
:10E78A0073F0CAEF73F0D6EF73F002D8D6EF73F0D6
:10E79A000500FA6EC451FD6EC551FE6EFF6AFA504D
:10E7AA0012003D01E8511200000E076E96EC70F05F
:10E7BA000009D8B4E3EF73F0E5EF73F0DBEF73F021
:10E7CA00B80E57EC70F096EC70F00009D8B4F0EF80
:10E7DA0073F0F2EF73F0E8EF73F0045057EC70F057
:10E7EA001FEF74F096EC70F00009D8B4FFEF73F0E5
:10E7FA0001EF74F01FEF74F007500224056E000E4B
:10E80A000320066E600017F0F6FF60001BF0F7FFAA
:10E81A00000EF86E0F0EF76403D00800F55007D00B
:10E82A006F00DBFFE1FF6F00DFFFE2FFE75057EC0D
:10E83A0070F0072A0450075CD8A026EF74F028EF7E
:10E84A0074F0F7EF73F01200000EBE6E000EBD6E8C
:10E85A00000EBA6E000EBB6E000EBC6E070EC66EC0
:10E86A00C268BF0EC36EBF0EC46EFC0EC56E3A01FF
:10E87A0070697F0E606F5F0E506F070E806F406980
:10E88A00000E716F000E816F000E516F000E416F06
:10E89A00000E616F000E5A6F000E5B6F000E6A6FFA
:10E8AA00000E6B6F000E7A6F000E7B6F000E826F88
:10E8BA00000E426F000E526F000E626F000E726FF2
:10E8CA004369536963697369070E836F44695469BD
:10E8DA00646974690F0E846F0F0EE86F160E0E6F5F
:10E8EA00130E166F170EE56F1200000E0001A26FCD
:10E8FA00000EA46F060EA36F96EC70F00009D8B450
:10E90A0089EF74F08BEF74F081EF74F0810E57EC9D
:10E91A0070F0A6EF74F040EC70F00009D8B498EFEC
:10E92A0074F09AEF74F0A6EF74F09B0E0001A22522
:10E93A00D96EDA6A000EDA228AEC73F0DF6E000111
:10E94A00A22B0001A251986F996BA351985D99511E
:10E95A00800A9A6FA451800A9A59D8A0B7EF74F026
:10E96A00B9EF74F090EF74F09B0EA325D96E000EE8
:10E97A00A421DA6E000EDF6ED10E906FFE0E916F3B
:10E98A009B0E926F000E936FC2EC70F09B0E026E9C
:10E99A00000E036E60008CF204F0D9EC73F01200E2
:10E9AA00000E0001AC6FF1EC72F0600060F2A9F0A9
:10E9BA00600064F2AAF0A00E0001906F000E916F41
:10E9CA00F50E926FFF0E936F6000A4F294F0600050
:10E9DA00A8F295F039EC72F000019051AB6F96EC09
:10E9EA0070F00009D8B4FCEF74F0FEEF74F0F4EFA5
:10E9FA0074F0B80E57EC70F096EC70F00009D8B4C9
:10EA0A0009EF75F00BEF75F001EF75F00001AB51EE
:10EA1A0057EC70F027EF75F096EC70F00009D8B457
:10EA2A0019EF75F01BEF75F027EF75F0A00E0001D6
:10EA3A00AC25D96EDA6A000EDA22DF5057EC70F094
:10EA4A000001AC2B0001AB51AC5DD8A02FEF75F0E3
:10EA5A0031EF75F011EF75F0120005500610D8B4B9
:10EA6A0039EF75F03BEF75F044EF75F0055006107D
:10EA7A00D8A442EF75F044EF75F049EF75F00350F2
:10EA8A00F3EC6FF09DEF75F020EE04F00550D926F7
:10EA9A000650DA22DE50DE10D8B456EF75F058EF81
:10EAAA0075F073EF75F020EE04F00550D926065084
:10EABA00DA2210EE02F00550E1260650E222DE507C
:10EACA00E65CE650800A0B6EDE50800A0B58D8B01E
:10EADA0071EF75F073EF75F09DEF75F020EE02F0AF
:10EAEA000550D9260650DA226F0078FF07F06F002A
:10EAFA0074FF08F0600017F0D9FF60001BF0DAFF1E
:10EB0A006F0078FF09F06F0074FF0AF007500924BC
:10EB1A00D96E08500A20DA6E60000FF0DFFF20EE8F
:10EB2A0002F00550D9260650DA22DE2A000EDD222E
:10EB3A00120009500A100B100C100D100E100F10B5
:10EB4A001010D8B4ABEF75F0ADEF75F0F5EF75F0C6
:10EB5A00010E116EBBEF75F0D89009360A360B36E6
:10EB6A000C360D360E360F361036112A10AEC0EF9F
:10EB7A0075F0C2EF75F0B1EF75F00950015C0A50FB
:10EB8A0002580B5003580C5004580D5005580E509B
:10EB9A0006580F50075810500858D8A0D7EF75F0EC
:10EBAA00D9EF75F0E9EF75F00950015E0A50025A83
:10EBBA000B50035A0C50045A0D50055A0E50065A5F
:10EBCA000F50075A1050085AD89010320F320E328E
:10EBDA000D320C320B320A320932112EC2EF75F0A5
:10EBEA00600004F001F0600008F002F060000CF030
:10EBFA0003F0600010F004F0600014F005F060000B
:10EC0A0018F006F060001CF007F0600020F008F031
:10EC1A001200000166A114EF76F016EF76F024EFE9
:10EC2A0076F0600054F00CF0600058F00DF06000CF
:10EC3A004CF00EF0600050F00FF011EC71F018BEBD
:10EC4A0029EF76F02BEF76F033EF76F060005CF088
:10EC5A001CF0600060F01DF037EF76F0000E1D6EBC
:10EC6A00000E1C6E000E1B6E000E1A6E4BEF76F035
:10EC7A00000E046E200E036E60004CF005F060007A
:10EC8A0050F006F032EC75F01A4A1B2A1C501A5C36
:10EC9A001B50800A196E1D50800A1958D8A058EFC7
:10ECAA0076F05AEF76F03DEF76F0000166B160EF4C
:10ECBA0076F062EF76F070EF76F0600054F00CF0C8
:10ECCA00600058F00DF060004CF00EF0600050F05B
:10ECDA000FF011EC71F0600054F001F0600058F090
:10ECEA0002F0F2EC70F01C500124136E1D50022049
:10ECFA00146E120020EE11F0070EDE6AE806FDE23D
:10ED0A0009500A100B100C100D100E100F101010D5
:10ED1A00D8B492EF76F094EF76F0E6EF76F0010E43
:10ED2A00196EA2EF76F0D89009360A360B360C36F1
:10ED3A000D360E360F361036192A10AEA7EF76F0BA
:10ED4A00A9EF76F098EF76F0D8901136123613368E
:10ED5A00143615361636173618360950015C0A501D
:10ED6A0002580B5003580C5004580D5005580E50B9
:10ED7A0006580F50075810500858D8A0C7EF76F019
:10ED8A00C9EF76F0DAEF76F00950015E0A50025ABE
:10ED9A000B50035A0C50045A0D50055A0E50065A7D
:10EDAA000F50075A1050085A1180D89010320F325B
:10EDBA000E320D320C320B320A320932192EA9EFF9
:10EDCA0076F0600044F001F0600048F002F0600064
:10EDDA004CF003F0600050F004F0600054F005F0CD
:10EDEA00600058F006F060005CF007F0600060F028
:10EDFA0008F01200000E126E08BE08EF77F006EF58
:10EE0A0077F01AEF77F0081E071E061E051E041E6D
:10EE1A00031E021E016C000E022203220422052296
:10EE2A00062207220822010E126E10BE21EF77F089
:10EE3A001FEF77F031EF77F0101E0F1E0E1E0D1E1A
:10EE4A000C1E0B1E0A1E096C000E0A220B220C2233
:10EE5A000D220E220F22102209500A100B100C103C
:10EE6A000D100E100F101010D8B43EEF77F040EFCF
:10EE7A0077F088EF77F0010E116E4EEF77F0D890A9
:10EE8A0009360A360B360C360D360E360F36103664
:10EE9A00112A10AE53EF77F055EF77F044EF77F081
:10EEAA000950015C0A5002580B5003580C50045880
:10EEBA000D5005580E5006580F5007581050085854
:10EECA00D8A06AEF77F06CEF77F07CEF77F0095013
:10EEDA00015E0A50025A0B50035A0C50045A0D5044
:10EEEA00055A0E50065A0F50075A1050085AD89011
:10EEFA0010320F320E320D320C320B320A32093214
:10EF0A00112E55EF77F01250D8B48EEF77F090EFBC
:10EF1A0077F0A0EF77F0081E071E061E051E041ED6
:10EF2A00031E021E016C000E022203220422052285
:10EF3A00062207220822600004F001F0600008F0AF
:10EF4A0002F060000CF003F0600010F004F06000C2
:10EF5A0014F005F0600018F006F060001CF007F0ED
:10EF6A00600020F008F01200000E126E10BEC2EF10
:10EF7A0077F0C0EF77F0D4EF77F0101E0F1E0E1E59
:10EF8A000D1E0C1E0B1E0A1E096C000E0A220B22F5
:10EF9A000C220D220E220F221022010E126E08BE22
:10EFAA00DBEF77F0D9EF77F0EDEF77F0081E071E69
:10EFBA00061E051E041E031E021E016C000E0222FE
:10EFCA00032204220522062207220822010E121A0F
:10EFDA0020EE13F0070EDE6AE806FDE209500A1079
:10EFEA000B100C100D100E100F101010D8B400EFEB
:10EFFA0078F002EF78F054EF78F0010E116E10EF0E
:10F00A0078F0D89009360A360B360C360D360E369D
:10F01A000F361036112A10AE15EF78F017EF78F088
:10F02A0006EF78F0D890133614361536163617369A
:10F03A00183619361A360950015C0A5002580B5014
:10F04A0003580C5004580D5005580E5006580F50CE
:10F05A00075810500858D8A035EF78F037EF78F0F5
:10F06A0048EF78F00950015E0A50025A0B50035AD1
:10F07A000C50045A0D50055A0E50065A0F50075A92
:10F08A001050085A1380D89010320F320E320D32B7
:10F09A000C320B320A320932112E17EF78F0125065
:10F0AA00D8B45AEF78F05CEF78F06CEF78F01A1E6B
:10F0BA00191E181E171E161E151E141E136C000E7E
:10F0CA001422152216221722182219221A22600047
:10F0DA004CF001F0600050F002F0600054F003F0D0
:10F0EA00600058F004F060005CF005F0600060F029
:10F0FA0006F0600064F007F0600068F008F01200A3
:10F10A0020EEB7F010EE11F0060E6F006FFFE3FF6E
:10F11A00E806FBE2600038F01CF060003CF01DF0ED
:10F12A001C501D10D8A49CEF78F09EEF78F0A2EF47
:10F13A0078F0110E1C6E000E1D6E600070F001F06A
:10F14A00600074F002F0F2EC70F0600004F020F05D
:10F15A00600008F021F0600090F11EF0600094F168
:10F16A001FF01FBEBBEF78F0BDEF78F0D4EF78F058
:10F17A0020501E5C1F50800A106E2150800A1058C1
:10F18A00D8A0CAEF78F0CCEF78F0CEEF78F0D4EFD1
:10F19A0078F0600078F020F060007CF021F06000E8
:10F1AA0080F01EF0600084F01FF0600088F11AF011
:10F1BA0060008CF11BF0000166B1E6EF78F0E8EF31
:10F1CA0078F007EF79F0F8EF78F0000E046E200E71
:10F1DA00036E600030F005F0600034F006F032ECA7
:10F1EA0075F0204A212A1A50205C2150800A106E9C
:10F1FA001B50800A1058D8A005EF79F007EF79F074
:10F20A00EAEF78F0000E196E000E186E24EF79F00E
:10F21A00600073F0D9FF600077F0DAFFDF50106EFC
:10F22A001050036E046A600030F005F0600034F09C
:10F23A0006F032EC75F01C4A1D2A184A192A1E508B
:10F24A00185C1950800A106E1F50800A1058D8A0F6
:10F25A0031EF79F033EF79F00DEF79F0000166A123
:10F26A0039EF79F03BEF79F05AEF79F04BEF79F01B
:10F27A00000E046E200E036E600030F005F0600090
:10F28A0034F006F032EC75F0204A212A1A50205C3C
:10F29A002150800A106E1B50800A1058D8A058EFCF
:10F2AA0079F05AEF79F03DEF79F0600080F00CF0D8
:10F2BA00600084F00DF012002AEC70F0A50E000137
:10F2CA00906FFF0E916FC2EC70F0D10E0001906F3B
:10F2DA00FF0E916FC2EC70F0C40E0001906FFF0E2A
:10F2EA00916FC2EC70F0650E0001906FFF0E916F86
:10F2FA00C2EC70F04B0E0001906FFF0E916FC2ECE2
:10F30A0070F0F40E0001906FFE0E916FC2EC70F077
:10F31A00940E0001906FFF0E916FC2EC70F0310EE7
:10F32A000001906FFF0E916FC2EC70F0150E000194
:10F33A00906FFF0E916FC2EC70F05F0E0001906F3C
:10F34A00FE0E916FC2EC70F0AD0E0001906FFE0ED2
:10F35A00916FC2EC70F0870E0001906FFE0E916FF4
:10F36A00C2EC70F0B60E0001906FFF0E916FC2EC06
:10F37A0070F0D5EC74F05CEC71F0CBAAC7EF79F0C1
:10F38A00C9EF79F0D3EF79F0F00E026EFF0E036E3B
:10F39A00040E046ED9EC73F0DBEF79F0ED0E026E19
:10F3AA00FF0E036E070E046ED9EC73F0CBAAE0EFE2
:10F3BA0079F0E2EF79F0E4EF79F0AEEC72F0CD801B
:10F3CA0035EC70F00009D8B4EDEF79F0EFEF79F091
:10F3DA007AEF7AF0CD823BEC73F00001AD6FACECC2
:10F3EA0070F00009D8B4FCEF79F0FEEF79F00FEF76
:10F3FA007AF00001AD5164EC70F00D0E0001AD1908
:10F40A00D8A40AEF7AF00CEF7AF00FEF7AF00A0E2E
:10F41A0064EC70F0310E0001AD19D8A417EF7AF040
:10F42A0019EF7AF01DEF7AF0F1EC72F079EF7AF0D9
:10F43A00320EAD19D8A424EF7AF026EF7AF02AEF2B
:10F44A007AF0D5EC74F079EF7AF0400EAD19D8A4C1
:10F45A0031EF7AF033EF7AF037EF7AF07AEC74F032
:10F46A0079EF7AF0630EAD19D8A43EEF7AF040EF47
:10F47A007AF045EF7AF0B70E57EC70F079EF7AF040
:10F48A002D0EAD19D8A44CEF7AF04EEF7AF052EF68
:10F49A007AF084EC71F079EF7AF07E0EAD19D8A487
:10F4AA0059EF7AF05BEF7AF05FEF7AF083EC70F065
:10F4BA0079EF7AF00D0EAD19D8A466EF7AF068EFFD
:10F4CA007AF06CEF7AF05CEC71F079EF7AF01F0E5B
:10F4DA00AD6572EF7AF074EF7AF079EF7AF0AD51A8
:10F4EA00ACEC71F079EF7AF0CD92CD90E4EF79F04F
:10F4FA00FEEF7FF0000165BF85EF7AF087EF7AF0C3
:10F50A0088EF7AF0669365BF95EF7AF0655106E168
:10F51A006405D8B093EF7AF095EF7AF09BEF7AF022
:10F52A00000E316E010E306EA1EF7AF0600090F19C
:10F53A0030F0600094F131F0600088F132F0600040
:10F54A008CF133F0600080F034F0600084F035F024
:10F55A00600088F036F060008CF037F0600090F0C0
:10F56A0038F0600094F039F0600098F03AF06000EA
:10F57A009CF03BF0000E3D6E1F0E3C6E000E896F34
:10F58A005DEF7BF03C06D8A03D066A0E3C24D96E9E
:10F59A00000E3D20DA6E6000D0F001F06000D4F079
:10F5AA0002F06000D8F003F06000DCF004F06000C4
:10F5BA00E0F005F06000E4F006F06000E8F007F023
:10F5CA006000ECF008F00A0E096E000E0A6E000EDA
:10F5DA000B6E000E0C6E000E0D6E000E0E6E000EFF
:10F5EA000F6E000E106E9EEC75F0600004F028F0AD
:10F5FA00600008F029F060000CF02AF0600010F0BA
:10F60A002BF0600014F02CF0600018F02DF0600070
:10F61A001CF02EF0600020F02FF02850300FDF6E23
:10F62A003006D8A031063206D8A033066000D0F0E2
:10F63A0001F06000D4F002F06000D8F003F060003E
:10F64A00DCF004F06000E0F005F06000E4F006F0A1
:10F65A006000E8F007F06000ECF008F00A0E096EAE
:10F66A00000E0A6E000E0B6E000E0C6E000E0D6E72
:10F67A00000E0E6E000E0F6E000E106E7FEC76F00E
:10F68A00600004F034F0600008F035F060000CF01F
:10F69A0036F0600010F037F0600014F038F06000C7
:10F6AA0018F039F060001CF03AF0600020F03BF0EE
:10F6BA003C503D10D8B464EF7BF066EF7BF097EFD7
:10F6CA007BF03450351036103710381039103A1094
:10F6DA003B10D8A473EF7BF075EF7BF0C7EF7AF09D
:10F6EA0031BE82EF7BF0315006E13004D8B080EFB2
:10F6FA007BF082EF7BF0C7EF7AF033BE8DEF7BF0C1
:10F70A00335008E13204D8A08DEF7BF08FEF7BF005
:10F71A0097EF7BF0000166B395EF7BF097EF7BF0F4
:10F72A00C7EF7AF0600078F013F060007CF014F014
:10F73A006A0E3C24156E000E3D20166E6000C8F05D
:10F74A0017F06000CCF018F00EEC76F060004CF088
:10F75A001EF0600050F01FF01200600080F038F0D8
:10F76A00600084F039F0600088F03AF060008CF0B4
:10F77A003BF0600090F03CF0600094F03DF06000D7
:10F78A0098F03EF060009CF03FF03FBECFEF7BF078
:10F79A00D2EF7BF0010ED3EF7BF0000E366E376AA4
:10F7AA0036503710D8B4DCEF7BF0DEEF7BF0EEEFAB
:10F7BA007BF03F1E3E1E3D1E3C1E3B1E3A1E391E5E
:10F7CA00386C000E39223A223B223C223D223E224C
:10F7DA003F22000165BFF4EF7BF0F6EF7BF0F7EF15
:10F7EA007BF0669365BF04EF7CF0655106E1640522
:10F7FA00D8B002EF7CF004EF7CF00AEF7CF0000E48
:10F80A00336E010E326E10EF7CF0600090F132F030
:10F81A00600094F133F0600088F134F060008CF1FC
:10F82A0035F036503710D8A41DEF7CF01FEF7CF06E
:10F83A0026EF7CF066A524EF7CF026EF7CF029EF1A
:10F84A007CF03406D8A03506000E416E1F0E406EBD
:10F85A00000E896FCFEF7CF04006D8A041066A0EF1
:10F86A004024D96E000E4120DA6E6000E0F001F00B
:10F87A006000E4F002F06000E8F003F06000ECF0F1
:10F88A0004F06000F0F005F06000F4F006F06000AB
:10F89A00F8F007F06000FCF008F00A0E096E000E9E
:10F8AA000A6E000E0B6E000E0C6E000E0D6E000E30
:10F8BA000E6E000E0F6E000E106EFFEC76F06000FA
:10F8CA0004F028F0600008F029F060000CF02AF03B
:10F8DA00600010F02BF0600014F02CF0600018F0BB
:10F8EA002DF060001CF02EF0600020F02FF0600078
:10F8FA00A0F013F06000A8F014F036EC71F0135089
:10F90A00300FDF6E3206D8A033063406D8A035068B
:10F91A006000E0F001F06000E4F002F06000E8F05E
:10F92A0003F06000ECF004F06000F0F005F0600015
:10F93A00F4F006F06000F8F007F06000FCF008F060
:10F94A000A0E096E000E0A6E000E0B6E000E0C6E89
:10F95A00000E0D6E000E0E6E000E0F6E000E106E73
:10F96A00B9EC77F0600004F038F0600008F039F084
:10F97A0060000CF03AF0600010F03BF0600014F008
:10F98A003CF0600018F03DF060001CF03EF06000B2
:10F99A0020F03FF041BEDAEF7CF0415008E140042C
:10F9AA00D8A0DAEF7CF0DCEF7CF00DEF7DF0385078
:10F9BA0039103A103B103C103D103E103F10D8A4AD
:10F9CA00E9EF7CF0EBEF7CF031EF7CF033BEF8EF3F
:10F9DA007CF0335006E13204D8B0F6EF7CF0F8EF51
:10F9EA007CF031EF7CF035BE03EF7DF0355008E155
:10F9FA003404D8A003EF7DF005EF7DF00DEF7DF024
:10FA0A00000166B30BEF7DF00DEF7DF031EF7CF076
:10FA1A0036503710D8A414EF7DF016EF7DF01EEFA4
:10FA2A007DF0000166A51CEF7DF01EEF7DF03DEF35
:10FA3A007DF04006D8A0410636503710D8A428EFEA
:10FA4A007DF02AEF7DF030EF7DF0000E316E2B0E47
:10FA5A00306E34EF7DF0000E316E2D0E306E6A0E70
:10FA6A004024D96E000E4120DA6E6000C3F0DFFF39
:10FA7A00600078F013F060007CF014F06A0E402405
:10FA8A00156E000E4120166E6000D0F017F060006F
:10FA9A00D4F018F00EEC76F060004CF01EF0600026
:10FAAA0050F01FF01200600013F1D9FF600017F147
:10FABA00DAFF6F007BFFF6FF6F0077FFF7FFF86A48
:10FACA000800F550250AD8A46DEF7DF06FEF7DF0A0
:10FADA000AEF7FF0600013F1D9FF600017F1DAFF37
:10FAEA00DE2A000EDD22000E0001636F000E626F37
:10FAFA0062C066F063C067F064696569600013F10B
:10FB0A00D9FF600017F1DAFF6F007BFFF6FF6F0085
:10FB1A0077FFF7FFF86A0800F550640AD8B498EF3F
:10FB2A007DF09AEF7DF0B1EF7DF0600013F1D9FF1F
:10FB3A00600017F1DAFF6F007BFFF6FF6F0077FFB7
:10FB4A00F7FFF86A0800F550690AD8A4AFEF7DF00C
:10FB5A00B1EF7DF007EF7EF0600013F1D9FF60008E
:10FB6A0017F1DAFFDE2A000EDD2260001BF1D9FF51
:10FB7A0060001FF1DAFF6F007CFF48F0020EDE26FC
:10FB8A006F007CFF49F0000EDD22600023F1D9FFEF
:10FB9A00600027F1DAFF6F0078FF4CF06F0074FF06
:10FBAA004DF0000E4DBEFF0E4E6E4F6E506E516EF2
:10FBBA00526E536E600008F11EF060000CF11FF0E7
:10FBCA00600030F120F0600034F121F0600038F17B
:10FBDA0022F060003CF123F0600040F124F0600064
:10FBEA0044F125F0600048F126F060004CF127F05E
:10FBFA00B2EC7BF0600078F042F060007CF043F0F9
:10FC0A002EEF7FF0600013F1D9FF600017F1DAFFE1
:10FC1A006F007BFFF6FF6F0077FFF7FFF86A0800B7
:10FC2A00F550730AD8A41CEF7EF01EEF7EF059EF50
:10FC3A007EF0600013F1D9FF600017F1DAFFDE2AC7
:10FC4A00000EDD2260001BF1D9FF60001FF1DAFF10
:10FC5A006F007CFF48F0020EDE266F007CFF49F041
:10FC6A00000EDD22600023F1D9FF600027F1DAFFE0
:10FC7A006F0078FF5CF06F0074FF5DF0600008F1C0
:10FC8A000CF060000CF10DF0600070F10EF06000F5
:10FC9A0074F10FF085EC78F0600030F042F060000B
:10FCAA0034F043F02EEF7FF0600013F1D9FF6000CB
:10FCBA0017F1DAFF6F007BFFF6FF6F0077FFF7FFA0
:10FCCA00F86A0800F550750AD8A46EEF7EF070EF56
:10FCDA007EF0C9EF7EF0600013F1D9FF600017F1E2
:10FCEA00DAFFDE2A000EDD2260001BF1D9FF600078
:10FCFA001FF1DAFF6F007CFF48F0020EDE266F006C
:10FD0A007CFF49F0000EDD22600023F1D9FF60007C
:10FD1A0027F1DAFF6F0078FF4AF06F0074FF4BF0AB
:10FD2A00600028F154F060002CF155F0566A576AC9
:10FD3A00586A596A5A6A5B6A600008F11EF06000E4
:10FD4A000CF11FF0600050F120F0600054F121F036
:10FD5A00600058F122F060005CF123F0600060F16D
:10FD6A0024F0600064F125F0600068F126F060007C
:10FD7A006CF127F07FEC7AF0600078F042F06000D6
:10FD8A007CF043F02EEF7FF0600013F1D9FF6000A2
:10FD9A0017F1DAFF6F007BFFF6FF6F0077FFF7FFBF
:10FDAA00F86A0800F550250AD8A4DEEF7EF0E0EFE5
:10FDBA007EF0FBEF7EF0600013F1D9FF600017F1CF
:10FDCA00DAFFDE2A000EDD22000E046E250E036E17
:10FDDA00600008F105F060000CF106F032EC75F0F5
:10FDEA00000E436E010E426E2EEF7FF0600013F19B
:10FDFA00D9FF600017F1DAFFDE2A000EDD22000EBD
:10FE0A00436E000E426E2EEF7FF0600013F1D9FFB1
:10FE1A00600017F1DAFF6F007BFFF6FF6F0077FFD4
:10FE2A00F7FFF86A0800F550036E046A600008F1EB
:10FE3A0005F060000CF106F032EC75F0600013F189
:10FE4A00D9FF600017F1DAFFDE2A000EDD22F5EF96
:10FE5A007EF0120000090972657475726E2E204CCC
:10FE6A00434420676F20746F207374617274206F2B
:10FE7A0066206C696E652074776F0D0A0009092780
:10FE8A0020272E204C434420646973706C617920CA
:10FE9A006572726F7220616E6420686578203230F4
:10FEAA000D0A0009093F2E204C43442064697370EF
:10FEBA006C6179206572726F7220616E6420686568
:10FECA00782033460D0A000D0A09546865205369E3
:10FEDA00676E61747572652066726F6D2033506942
:10FEEA002069733A2025730D0A000909322E20442D
:10FEFA006973706C6179206D562072656164696EF0
:10FF0A006720696E204C43440D0A0009097E2E20A1
:10FF1A004C4344206D6573736167652041505343B8
:10FF2A00313239390D0A0009092D2E2053656E64C4
:10FF3A002068797068656E20746F204C43440D0AFE
:10FF4A00000909312E20446973706C6179206D565D
:10FF5A002072656164696E670D0A000909402E20E6
:10FF6A00506F6C6F6C75205369676E61747572653A
:10FF7A003F0D0A000D0A09426174746572792056B0
:10FF8A006F6C74616765203D20000909632E204368
:10FF9A006C656172204C43440D0A00094B50552090
:10FFAA0041505343313239390A0A0D0009092D2DBE
:10FFBA002D2D2D2D2D2D0D0A0A0009092D2D2D2D42
:10FFCA002D2D2D2D0D0A00090920204D656E750A6B
:10FFDA000D0043616C20446F6E65002564206D56E8
:10FFEA000D0A004E6F20526F616D002575206D5607
:06FFFA000000D8EF70F0DA
:020000040020DA
:10000000FF0FFF0FFF0FFF0FFF0FFF0FFF0FFF0F80
:020000040030CA
:0A000000ECFEF7FF9FFFFFFFFFFF7C
:00000001FF
