:04000000FEEF7FF0A0
:1010000000F01F381D901FC812861494184216CE87
:101010001FBC20B8208C1D64206C20C01F5C20B237
:101020001F641A0A1AA41F4B5055204150534331D4
:1010300032393900094B5055204150534331323930
:10104000390D0A0A000909493243204C434420540F
:101050004553540D0A0009092D2D2D2D202D2D2D20
:101060002D0D0A0A0009092D2D2D2D202D2D2D2D98
:101070000D0A0009095445535420434F44450D0AB5
:07108000000D0A0A0A00003E
:101088004AEC0FF0DDEC08F0730E296E100E2A6E94
:10109800F8EC0DF0650E296E100E2A6EF8EC0DF0C6
:1010A800450E296E100E2A6EF8EC0DF0560E296EBC
:1010B800100E2A6EF8EC0DF0340E296E100E2A6E02
:1010C800F8EC0DF0CD80BDEC0FF00009D8B46FEF4F
:1010D80008F071EF08F0D8EF08F0CD828FEC0AF035
:1010E800446E0D0E4418D8B47CEF08F07EEF08F07B
:1010F80086EF08F0400E3C6E44C03DF03E0EDFEC3B
:101108000BF0512A090E4418D8A48DEF08F08FEF80
:1011180008F098EF08F0800E3C6E010E3D6E3E0E12
:10112800DFEC0BF0800E516E86EC0EF00009D8B49F
:10113800A0EF08F0A2EF08F0D7EF08F0090E441866
:10114800D8A4A9EF08F0ABEF08F0B3EF08F0810ED0
:10115800296E100E2A6EF8EC0DF0B6EF08F0445028
:101168003DEC0FF00D0E4418D8A4BDEF08F0BFEF0A
:1011780008F0D7EF08F00A0E3DEC0FF0BF0E5164EF
:10118800C8EF08F0CAEF08F0CEEF08F0800E516EF5
:10119800D0EF08F0C00E516E800E3C6E51C03DF08D
:1011A8003E0EDFEC0BF0CD92CD9066EF08F0FEEF2F
:1011B8007FF0FA0E416E580EE82EFED7412EFCD76E
:1011C80000D0800E3C6E280E3D6E3E0EDFEC0BF01C
:1011D800A40EE82EFED7800E3C6E0E0E3D6E3E0E1F
:1011E800DFEC0BF0A40EE82EFED7800E3C6E010E4D
:1011F8003D6E3E0EDFEC0BF0200E416E2A0EE82EFF
:10120800FED7412EFCD7800E3C6E020E3D6E3E0E80
:10121800DFEC0BF0A40EE82EFED7800E3C6E800E9D
:101228003D6E3E0EDFEC0BF0A40EE82EFED7720EDC
:101238003C6E000E3D6E000E3F6E110E3E6E3E0E71
:10124800D8EC0CF0800E3C6EC00E3D6E3E0EDFEC0E
:101258000BF0A40EE82EFED7600E3C6E000E3D6E1D
:10126800000E3F6E110E3E6E3E0ED8EC0CF0000ED6
:10127800436E040E426E0C0E416E340EE82EFED7FD
:10128800412EFCD7422EFAD7432A270E43644FEF4C
:1012980009F051EF09F03DEF09F0800E3C6E010EA8
:1012A8003D6E3E0EDFEC0BF0040E426E0C0E416EEE
:1012B800340EE82EFED7412EFCD7422EFAD7120064
:1012C80086EC0FF00009D8B46CEF09F06EEF09F066
:1012D8009DEF09F07BEF09F0E7EC0FF0E8EF09F07C
:1012E8005EEC10F0E8EF09F0000EE8EF09F013C02B
:1012F80030F014C031F002D88BEF09F00500FA6E17
:101308000750FD6E0850FE6EFF6AFA501200010A7F
:10131800D8B478EF09F0030AD8B470EF09F0010ADD
:10132800D8B474EF09F0070AD8B478EF09F078EF69
:1013380009F07BEC0FF00009D8B4A5EF09F0A7EF8E
:1013480009F0E7EF09F02450030B0009D8B4AFEF18
:1013580009F0B1EF09F0BDEF09F0010E326E24502B
:10136800030B336E3250335E24503318FC0B3318A2
:10137800246E60007BF0D9FF60007FF0DAFFDF5059
:10138800366E1E4A1F2A2006D8A02106205021109A
:10139800D8A4D1EF09F0D3EF09F0DBEF09F04AEC5C
:1013A8000CF0326E3250346E356ADFEF09F0000E01
:1013B800356E030E346E34C037F03650FDEC0FF046
:1013C8003750E8EF09F0030E1200000EBE6E000E53
:1013D800BD6E000EBA6E000EBB6E000EBC6E070E20
:1013E800C66EC268BF0EC36EA70EC46EFC0EC56E75
:1013F800FC0E3A01706F670E606F7F0E506F070E1C
:10140800806F4069000E716F000E816F000E516F82
:10141800000E416F000E616F000E5A6F000E5B6F79
:10142800000E6A6F000E6B6F000E7A6F000E7B6FF6
:10143800000E826F000E426F000E526F180E626F20
:10144800000E726F4369536963697369070E836F8E
:1014580044695469646974690F0E846F0F0EE86FEC
:10146800140EE26F160E0E6F210E136F220E146FFC
:10147800130E166F170EE56F130EE16F120091EC45
:101488000FF00009D8A44BEF0AF04DEF0AF050EF27
:101498000AF0040E8EEF0AF02450030B0009D8B4AA
:1014A80058EF0AF05AEF0AF066EF0AF0010E326EB2
:1014B8002450030B336E3250335E24503318FC0B28
:1014C8003318246E2006D8A0210620502110D8B445
:1014D80070EF0AF072EF0AF07FEF0AF04AEC10F0B2
:1014E80060007BF0D9FF60007FF0DAFFDF6E1E4AF4
:1014F8001F2A4DEF0AF021EC0BF0346E4AEC10F085
:1015080060007BF0D9FF60007FF0DAFFDF6E1E4AD3
:101518001F2A345012003901A6A595EF0AF097EF5B
:101528000AF08FEF0AF0000E256E3D01E1A79FEF4C
:101538000AF0A1EF0AF0AEEF0AF0258202D8AEEF6A
:101548000AF00500FA6E4950FD6E4A50FE6EFF6AB9
:10155800FA5012003D01E1A3B4EF0AF0B6EF0AF029
:10156800C3EF0AF0258402D8C3EF0AF00500FA6E2B
:101578004750FD6E4850FE6EFF6AFA501200255023
:10158800D8B4C9EF0AF0CBEF0AF0D7EF0AF002D8C7
:10159800D7EF0AF00500FA6E4550FD6E4650FE6E14
:1015A800FF6AFA5012003D01D0511200276E010E59
:1015B800286E24B6E2EF0AF0E4EF0AF01FEF0BF012
:1015C80027C01DF024942486FC0E24160F0E226ECC
:1015D800010E1C6EF40E1B6E2488C40E016E200EC4
:1015E800026E000E0D6E000E0E6EC40E036E200EFF
:1015F800046E000E0F6E000E106EC40E056E200EE7
:10160800066E000E116E000E126EC40E076E200ECE
:10161800086E000E136E000E146EC00E096E200EBA
:101628000A6E000E156E000E166E3AEC10F017ECEE
:101638000EF0000E286E28501200248842EF0BF09E
:101648004DEC10F0080E64EF0BF04DEC10F0070EA7
:1016580064EF0BF0202802EC10F0040E64EF0BF09E
:10166800070E2218D8B43BEF0BF03DEF0BF03FEF1D
:101678000BF050EC10F00F0E64EF0BF00DC030F0D3
:101688000EC031F002D852EF0BF00500FA6E01508F
:10169800FD6E0250FE6EFF6AFA501200010AD8B4BD
:1016A80034EF0BF0030AD8B429EF0BF0010AD8B4D1
:1016B80024EF0BF0070AD8B42EEF0BF034EF0BF041
:1016C80012002B6E27502810D8B46DEF0BF06FEF77
:1016D8000BF08DEF0BF02B50020D010EF324D96E99
:1016E800000EF420DA6E60009FF0DEFF6000A3F0C9
:1016F800DDFF2B50020D0D0EF324D96E000EF420E1
:10170800DA6E6000A7F0DEFF6000ABF0DDFFA5EF4A
:101718000BF02B50020D010EF324D96E000EF420AD
:10172800DA6EC40EDE6E200EDD6E2B50020D0D0E2D
:10173800F324D96E000EF420DA6E000EDE6E000E71
:10174800DD6E12005BEC0DF02450030B0009D8B4D9
:10175800B0EF0BF0B2EF0BF0BEEF0BF086EC0FF032
:101768000009D8B4BAEF0BF0BCEF0BF0BEEF0BF0EA
:10177800100E226E2250020D010EF324F66E100E8A
:10178800F420F76EF86A000EF82209006F00D4FF03
:1017980038F009006F00D4FF39F002D8DDEF0BF004
:1017A8000500FA6E3850FD6E3950FE6EFF6AFA5029
:1017B8001200226E12003E6E3E50DAEC0AF000096A
:1017C800D8B4E9EF0BF0EBEF0BF0E0EF0BF05C0EA9
:1017D8002C6E1C0E2D6E3D0E2E6E000E2F6E63ECC1
:1017E8000FF03C0E276E000E286E000E2A6E010EBA
:1017F800296EFEEC0EF0000E2C6E000E2D6E000E03
:101808002E6E000E2F6E57EC0FF02AEC10F0B1EC94
:101818000EF0E806D8B413EF0CF015EF0CF00BEF50
:101828000CF01200000E3D01EC6F000EED6F000E83
:10183800EE6F000EEF6F000EF06F000EF16FB00E3E
:10184800F26F800EF36F000EF46F670EF56F000EE7
:10185800F66F000EF76F000EF86F000EF96F000EAE
:10186800FA6F000E276E000E286E20EC10F0000EA6
:10187800276E000E286E1BEC10F0000E276E000E6F
:10188800286E25EC10F0000E266E120024885DEFFD
:101898000CF04DEC10F0070E7BEF0CF0202802EC5A
:1018A80010F0030E7BEF0CF050EC10F00A0E7BEFFB
:1018B8000CF00DC030F00EC031F002D86DEF0CF016
:1018C8000500FA6E0150FD6E0250FE6EFF6AFA5076
:1018D8001200010AD8B458EF0CF0030AD8B44DEF3F
:1018E8000CF0060AD8B452EF0CF058EF0CF01200C6
:1018F8003901A3A182EF0CF084EF0CF086EF0CF015
:10190800A9EF0CF0A2AF8BEF0CF08DEF0CF08FEF7E
:101918000CF0A9EF0CF03D0179A595EF0CF097EFCD
:101928000CF099EF0CF0A9EF0CF079AF9EEF0CF0EA
:10193800A0EF0CF0A2EF0CF0A9EF0CF076A9A7EF3E
:101948000CF0A9EF0CF07CEF0CF01200000E3D013A
:10195800D46F000ED66F000ED86FB00EDA6F800EFF
:10196800DB6F000EDC6FE10EDD6F040EDE6F000E24
:10197800DF6F000EE06F000EE16F000EE26FCC0E1D
:10198800276E200E286E11EC10F0CA0E276E200E5E
:10199800286E0CEC10F0CE0E276E200E286E16EC7A
:1019A80010F0000E256E1200406E4050DAEC0AF07E
:1019B8000009D8B4E2EF0CF0E4EF0CF0D9EF0CF02A
:1019C8003CC027F03DC028F03EC029F03FC02AF0B7
:1019D800FEEC0EF0000E2C6E000E2D6E000E2E6E1C
:1019E800000E2F6E57EC0FF02AEC10F0B1EC0EF051
:1019F800E806D8B402EF0DF004EF0DF0FAEF0CF0A2
:101A080012003AEC10F0020E236E17EF0DF0E7EC1F
:101A18000FF031EF0DF05EEC10F031EF0DF0D9EC76
:101A28000FF031EF0DF00FC030F010C031F002D8D8
:101A380027EF0DF00500FA6E0350FD6E0450FE6EA0
:101A4800FF6AFA501200020AD8B40BEF0DF0010A2F
:101A5800D8B40FEF0DF013EF0DF01200FC0E2416A2
:101A6800020E236E249440EF0DF05CEC10F05AEF58
:101A78000DF00F0E5AEF0DF011C030F012C031F01A
:101A880002D850EF0DF00500FA6E0550FD6E0650B5
:101A9800FE6EFF6AFA501200020AD8B439EF0DF050
:101AA800010AD8B439EF0DF03DEF0DF01200B2EC99
:101AB8000FF00009D8B463EF0DF065EF0DF069EF92
:101AC8000DF059EC10F083EF0DF09CEC0FF00009CD
:101AD800D8B471EF0DF073EF0DF077EF0DF053EC14
:101AE80010F083EF0DF0A7EC0FF00009D8B47FEFEA
:101AF8000DF081EF0DF083EF0DF056EC10F01200B1
:101B0800B40EF66E1D0EF76E000EF86E00EE60F065
:101B180010EE24F009006F00D7FFEEFFE550E1500A
:101B2800F9E1C80EF66E200EF76E000EF86E090089
:101B38006F00D4FF51F009006F00D4FF52F000EE9F
:101B480001F0260EEE6AE806FDE1000144EF08F018
:101B58003A6E010E3B6E24B4B4EF0DF0B6EF0DF003
:101B6800D0EF0DF02484000E3B6E205002EC10F0F4
:101B78003A50D8B4C2EF0DF0C4EF0DF0CAEF0DF033
:101B8800040E226E9CEC0EF0CEEF0DF0030E226ECA
:101B9800C8EC0FF02FEC0FF03B50120020EE02F0D3
:101BA8003050D9263150DA226F0078FF27F06F00C5
:101BB80074FF28F06000C3F0D9FF6000C7F0DAFFB7
:101BC8006F0078FF29F06F0074FF2AF0FEEC0EF02A
:101BD800000E2C6E000E2D6E000E2E6E000E2F6E57
:101BE80063EC0FF0020E12002B0E2B6E000E2C6E03
:101BF80001EF0EF02D50F3EC0FF06000A7F0F6FFA8
:101C08006000ABF0F7FF294A2A2AF86A08006F003B
:101C1800D4FF2DF02D50D8A414EF0EF016EF0EF0CF
:101C2800FEEF0DF012003D0173BF1DEF0EF01FEF28
:101C38000EF02DEF0EF0000E796F000E7A6F000E89
:101C4800766F6C69510E3A016A6F510E6B6F3D01E8
:101C5800738F120030C027F031C028F0000E2A6EB2
:101C6800010E296EFEEC0EF0000E2C6E000E2D6E8D
:101C7800000E2E6E000E2F6E63EC0FF0040E120095
:101C880030C027F031C028F0000E2A6E020E296EEF
:101C9800FEEC0EF0000E2C6E000E2D6E000E2E6E59
:101CA800000E2F6E63EC0FF0020E120030C027F00A
:101CB80031C028F0000E2A6E010E296EFEEC0EF0DF
:101CC800000E2C6E000E2D6E000E2E6E000E2F6E66
:101CD80063EC0FF0020E120030C027F031C028F07C
:101CE800000E2A6E020E296EFEEC0EF0000E2C6E0F
:101CF800000E2D6E000E2E6E000E2F6E63EC0FF090
:101D0800040E1200000E276E3901A6A78EEF0EF002
:101D180090EF0EF09AEF0EF03D01DAAB96EF0EF071
:101D280098EF0EF09AEF0EF0010E276E2750120072
:101D38002450FC0B0209246E20042110D8A4A7EF1C
:101D48000EF0A9EF0EF0ABEF0EF021EC0BF0D880FF
:101D58001D34FDEC0FF0040E1200010E276E24B4A2
:101D6800B8EF0EF0BAEF0EF0C4EF0EF024961D682F
:101D78003AEC10F020EC0FF0EDEC0FF023C027F058
:101D88002750120041EC10F03EEC10F00009D8B4D6
:101D9800D0EF0EF0D2EF0EF0D8EF0EF0000E02ECFE
:101DA80010F0000EFDEC0FF0000E1200404D6963BC
:101DB800726F636F6E74726F6C6C65727300404BF8
:101DC800505520415053433132393920496E7400FF
:101DD800000E3901C06F000EC16F000EC26F000EF9
:101DE800C36F000EC46F000EC56F000EC66F000EE5
:101DF800C76F120024A803EF0FF005EF0FF00EEFE6
:101E08000FF027C01EF028C01FF029C020F02AC0FC
:101E180021F024981200040E3D01736F800E746F38
:101E2800180E756F030E7B6F000E796F000E7A6FB8
:101E3800000E766F6C691200390193939395929F07
:101E480093913D017A917A957A9F7A9D7A937693C8
:101E580076957691120035EF0FF07CEC0CF0A6EC3D
:101E68000BF024B43AEF0FF03CEF0FF031EF0FF026
:101E78001200276E3901A6A744EF0FF046EF0FF0C6
:101E88003EEF0FF060009FF0D2FD1200ECEC0EF078
:101E9800E9EC09F06FEC0FF0AAEC0CF016EC0CF082
:101EA8000FEC0FF012002CC027F02DC028F02EC028
:101EB80029F02FC02AF0020E65EC0BF012002CC09E
:101EC80027F02DC028F02EC029F02FC02AF0000ED0
:101ED80065EC0BF01200600E3901D96F000EDB6F54
:101EE800000EDD6F070EDF6F000EDE6F12003D0182
:101EF80078BB81EF0FF084EF0FF0010E85EF0FF044
:101F0800000E12003D0174BB8CEF0FF08FEF0FF045
:101F1800010E90EF0FF0000E12003D0178B197EF1F
:101F28000FF09AEF0FF0010E9BEF0FF0000E12006A
:101F38003D0179B5A2EF0FF0A5EF0FF0010EA6EF66
:101F48000FF0000E12003D0176B9ADEF0FF0B0EFC3
:101F58000FF0010EB1EF0FF0000E12003D0179BF36
:101F6800B8EF0FF0BBEF0FF0010EBCEF0FF0000E53
:101F780012003901A6B5C3EF0FF0C6EF0FF0010E3E
:101F8800C7EF0FF0000E12002450FC0B0209246E5C
:101F98001D501D24FDEC0FF0030E120007EC10F08D
:101FA8002494020E236E0F0E120007EC10F02494F6
:101FB800000E236E0F0E120044EC10F041EC10F0EE
:101FC800F8EC0FF01200205002EC10F09CEC0EF030
:101FD80012003D01739F000E796F78851200286EFC
:101FE80028503DEC0FF012002494000E236E0F0EC3
:101FF8001200276E60009FF06BFD1200276E6000D4
:102008009FF06CFD12003D01739F7885738F12005D
:1020180027C047F028C048F0120027C049F028C060
:102028004AF0120027C045F028C046F0120027C029
:102038004DF028C04EF0120027C04FF028C050F0D5
:10204800120027C04BF028C04CF01200000EACEC78
:102058000DF0120044EC10F0090E120047EC10F0DD
:10206800040E120047EC10F0030E1200000E3D01A2
:10207800796F12003D016C5112003D01739B1200F3
:102088003D01748D12003D01749D12003D016A519D
:1020980012003D01738D12003D01739D12003D0138
:1020A800799512003D01769912003D01799F120041
:1020B800010E1200020E1200050E1200010E12008F
:0820C800803E1200120012001C
:04FFFC0084EF0DF091
:020000040020DA
:10000000FF0FFF0FFF0FFF0FFF0FFF0FFF0FFF0F80
:020000040030CA
:0A000000ECFEF7FF9FFFFFFFFFFF7C
:00000001FF
