:020000040000FA
:04000000FEEF7FF0A0
:10E6DA001200120012001200803E010E1200050EF6
:10E6EA001200020E1200010E12003D01799F120063
:10E6FA003D01769912003D01799512003D01739D05
:10E70A0012003D01738D12003D016A5112003D0154
:10E71A00749D12003D01748D12003D01739B12001D
:10E72A003D016C511200000E3D01796F12008CEC14
:10E73A0073F0030E12008CEC73F0040E12008FECCF
:10E74A0073F0090E1200000E6CEC76F01200010E46
:10E75A006CEC76F012002EC054F02FC055F0120067
:10E76A002EC058F02FC059F012002EC056F02FC0FC
:10E77A0057F012002EC04EF02FC04FF012002EC0DC
:10E78A0052F02FC053F012002EC050F02FC051F09B
:10E79A0012003D01739F7885738F12002E6E600000
:10E7AA00BBF06CFD12002E6E6000BBF06BFD120018
:10E7BA002494000E236E0F0E12002F6E2F509AEC27
:10E7CA0074F012003D01739F000E796F7885120074
:10E7DA002050D3EC73F021EC75F012008FEC73F03B
:10E7EA0092EC73F0DDEC73F01200CEEC73F024942B
:10E7FA00000E236E0F0E1200CEEC73F02494020E5C
:10E80A00236E0F0E12002450FC0B0209246E1D50B9
:10E81A001D24D8EC73F0030E120032C030F033C05E
:10E82A0031F002EC76F00A0EE2EC73F012003901D4
:10E83A00A6B522EF74F025EF74F0010E26EF74F0FE
:10E84A00000E12003D0179BF2DEF74F030EF74F025
:10E85A00010E31EF74F0000E12003D0176B938EF67
:10E86A0074F03BEF74F0010E3CEF74F0000E1200EE
:10E87A003D0179B543EF74F046EF74F0010E47EFAE
:10E88A0074F0000E12003D0178B14EEF74F051EFB2
:10E89A0074F0010E52EF74F0000E12003D0174BBC9
:10E8AA0059EF74F05CEF74F0010E5DEF74F0000E36
:10E8BA0012003D0178BB64EF74F067EF74F0010E4B
:10E8CA0068EF74F0000E1200600E3901D96F000E65
:10E8DA00DB6F000EDD6F070EDF6F000EDE6F1200BA
:10E8EA0033C02EF034C02FF035C030F036C031F0CE
:10E8FA00000E0BEC79F0120033C02EF034C02FF06A
:10E90A0035C030F036C031F0020E0BEC79F012004F
:10E91A00E6EC74F06EEC7AF069EC74F066EC77F081
:10E92A00F4EC77F0C4EC74F012002E6E3901A6A74D
:10E93A00A1EF74F0A3EF74F09BEF74F06000BBF0EA
:10E94A00D2FD1200ADEF74F094EC77F05FEC78F042
:10E95A0024B4B2EF74F0B4EF74F0A9EF74F01200BB
:10E96A00390193939395929F93913D017A917A9568
:10E97A007A9F7A9D7A937693769576911200040E11
:10E98A003D01736F800E746F180E756F030E7B6FE7
:10E99A00000E796F000E7A6F000E766F6C691200A6
:10E9AA0024A8DAEF74F0DCEF74F0E5EF74F02EC00F
:10E9BA001EF02FC01FF030C020F031C021F0249883
:10E9CA001200000E3901C06F000EC16F000EC26F37
:10E9DA00000EC36F000EC46F000EC56F000EC66F27
:10E9EA00000EC76F120092EC73F095EC73F00009F9
:10E9FA00D8B402EF75F004EF75F00AEF75F0000E67
:10EA0A00D3EC73F0000ED8EC73F0000E1200010E76
:10EA1A002E6E24B413EF75F015EF75F01FEF75F035
:10EA2A0024961D6898EC73F0B5EC74F0E7EC73F07B
:10EA3A0023C02EF02E5012002450FC0B0209246E23
:10EA4A0020042110D8A42CEF75F02EEF75F030EFCA
:10EA5A0075F04CEC79F0D8801D34D8EC73F0040EC4
:10EA6A0012002E5030026F00CCFF32F06F00D0FF40
:10EA7A0033F02E503102F35033262F503002F35028
:10EA8A00332632C02EF033C02FF01200000E2E6E45
:10EA9A003901A6A753EF75F055EF75F05FEF75F0E2
:10EAAA003D01DAAB5BEF75F05DEF75F05FEF75F086
:10EABA00010E2E6E2E50120037C02EF038C02FF0E5
:10EACA00000E316E020E306ED5EC74F0000E336E0D
:10EADA00000E346E000E356E000E366E75EC74F054
:10EAEA00040E120037C02EF038C02FF0000E316E1F
:10EAFA00010E306ED5EC74F0000E336E000E346EDB
:10EB0A00000E356E000E366E75EC74F0020E1200B1
:10EB1A0037C02EF038C02FF0000E316E020E306E64
:10EB2A00D5EC74F0000E336E000E346E000E356EA6
:10EB3A00000E366E75EC74F0020E120037C02EF01D
:10EB4A0038C02FF0000E316E010E306ED5EC74F025
:10EB5A00000E336E000E346E000E356E000E366EE9
:10EB6A0075EC74F0040E12003D0173BFBFEF75F02F
:10EB7A00C1EF75F0CFEF75F0000E796F000E7A6F66
:10EB8A00000E766F6C69510E3A016A6F510E6B6F07
:10EB9A003D01738F1200306E000E2F6E3A0E3060F8
:10EBAA00D9EF75F0DBEF75F0E5EF75F02F0E3064F5
:10EBBA00E1EF75F0E3EF75F0E5EF75F0010E2F6EFA
:10EBCA002FC02EF02E301200D5FFB8FF93FFAFFFF3
:10EBDA00CEFFA6FFDCFF404D6963726F636F6E74F0
:10EBEA00726F6C6C65727300404B505520415053E4
:10EBFA00433132393920496E740011EF76F06000E2
:10EC0A00C3F0F6FF6000C7F0F7FFF86A0800F55096
:10EC1A00E2EC73F0304A312A6000C3F0F6FF60007C
:10EC2A00C7F0F7FFF86A0800F5500009D8A420EFEA
:10EC3A0076F022EF76F004EF76F01200476E475036
:10EC4A0090EC79F00009D8B42DEF76F02FEF76F03A
:10EC5A0024EF76F043C02EF044C02FF045C030F0C8
:10EC6A0046C031F0D5EC74F0ACEC73F00CEC75F0F6
:10EC7A00E806D8B443EF76F045EF76F03BEF76F04E
:10EC8A00120020EE02F03750D9263850DA226F00EF
:10EC9A0078FF2EF06F0074FF2FF06000DFF0D9FFCD
:10ECAA006000E3F0DAFF6F0078FF30F06F0074FF66
:10ECBA0031F0D5EC74F0000E336E000E346E000E97
:10ECCA00356E000E366E75EC74F0020E1200416E4F
:10ECDA00010E426E24B474EF76F076EF76F090EF80
:10ECEA0076F02484000E426E2050D3EC73F041502B
:10ECFA00D8B482EF76F084EF76F08AEF76F0040EDD
:10ED0A00226E21EC75F08EEF76F0030E226E08EC7F
:10ED1A0074F0A7EC74F042501200D20EF66EEB0EAD
:10ED2A00F76E000EF86E00EE60F010EE32F0090099
:10ED3A006F00D7FFEEFFE550E150F9E1E20EF66E03
:10ED4A00E60EF76E000EF86E09006F00D4FF5AF057
:10ED5A0009006F00D4FF5BF000EE01F02D0EEE6AA1
:10ED6A00E806FDE10001B7EF7CF027EC74F000093A
:10ED7A00D8B4C2EF76F0C4EF76F0C8EF76F07AEC4A
:10ED8A0073F0E2EF76F03DEC74F00009D8B4D0EFFE
:10ED9A0076F0D2EF76F0D6EF76F080EC73F0E2EF11
:10EDAA0076F032EC74F00009D8B4DEEF76F0E0EFDA
:10EDBA0076F0E2EF76F07DEC73F01200FC0E24168A
:10EDCA00020E236E2494F1EF76F078EC73F00BEFD9
:10EDDA0077F00F0E0BEF77F011C037F012C038F052
:10EDEA0002D801EF77F00500FA6E0550FD6E065065
:10EDFA00FE6EFF6AFA501200020AD8B4EAEF76F001
:10EE0A00010AD8B4EAEF76F0EEEF76F0120098EC49
:10EE1A0073F0020E236E1EEF77F0EDEC73F038EF0D
:10EE2A0077F076EC73F038EF77F0FAEC73F038EFAE
:10EE3A0077F00FC037F010C038F002D82EEF77F015
:10EE4A000500FA6E0350FD6E0450FE6EFF6AFA501A
:10EE5A001200020AD8B412EF77F0010AD8B416EFFA
:10EE6A0077F01AEF77F01200476E475090EC79F07E
:10EE7A000009D8B443EF77F045EF77F03AEF77F02F
:10EE8A0043C02EF044C02FF045C030F046C031F0E8
:10EE9A00D5EC74F0000E336E000E346E000E356E33
:10EEAA00000E366E81EC74F0A8EC73F00CEC75F081
:10EEBA00E806D8B463EF77F065EF77F05BEF77F0A9
:10EECA001200000E3D01D46F000ED66F000ED86FEF
:10EEDA00B00EDA6F800EDB6F000EDC6FE10EDD6FB5
:10EEEA00040EDE6F000EDF6F000EE06F000EE16FA2
:10EEFA00000EE26FDC0E2E6EE60E2F6EC4EC73F07F
:10EF0A00DE0E2E6EE60E2F6EC9EC73F0DA0E2E6E42
:10EF1A00E60E2F6EBFEC73F0000E256E120039015B
:10EF2A00A3A19AEF77F09CEF77F09EEF77F0C1EF0D
:10EF3A0077F0A2AFA3EF77F0A5EF77F0A7EF77F01E
:10EF4A00C1EF77F03D0179A5ADEF77F0AFEF77F03C
:10EF5A00B1EF77F0C1EF77F079AFB6EF77F0B8EFAE
:10EF6A0077F0BAEF77F0C1EF77F076A9BFEF77F0D5
:10EF7A00C1EF77F094EF77F012002488D5EF77F09D
:10EF8A0086EC73F0070EF3EF77F02028D3EC73F0DA
:10EF9A00030EF3EF77F083EC73F00A0EF3EF77F0DA
:10EFAA000DC037F00EC038F002D8E5EF77F0050053
:10EFBA00FA6E0150FD6E0250FE6EFF6AFA501200A0
:10EFCA00010AD8B4D0EF77F0030AD8B4C5EF77F0C6
:10EFDA00060AD8B4CAEF77F0D0EF77F01200000E25
:10EFEA003D01EC6F000EED6F000EEE6F000EEF6F3D
:10EFFA00000EF06F000EF16FB00EF26F800EF36F1D
:10F00A00000EF46F670EF56F000EF66F000EF76FC5
:10F01A00000EF86F000EF96F000EFA6F000E2E6EDA
:10F02A00000E2F6EB5EC73F0000E2E6E000E2F6ED2
:10F03A00BAEC73F0000E2E6E000E2F6EB0EC73F069
:10F04A00000E266E1200456E455090EC79F00009CC
:10F05A00D8B432EF78F034EF78F029EF78F0460E32
:10F06A00336EEB0E346E440E356E000E366E75EC52
:10F07A0074F0430E2E6E000E2F6E000E316E010ECE
:10F08A00306ED5EC74F0000E336E000E346E000E46
:10F09A00356E000E366E81EC74F0A8EC73F00CEC51
:10F0AA0075F0E806D8B45CEF78F05EEF78F054EFCC
:10F0BA0078F01200BAEC76F02450030B0009D8B4A9
:10F0CA0069EF78F06BEF78F077EF78F053EC74F043
:10F0DA000009D8B473EF78F075EF78F077EF78F02D
:10F0EA00100E226E2250020DED0EF324F66EFE0E65
:10F0FA00F420F76EF86A000EF82209006F00D4FFB8
:10F10A003FF009006F00D4FF40F002D896EF78F084
:10F11A000500FA6E3F50FD6E4050FE6EFF6AFA50CF
:10F12A001200226E1200446E000E456E445090EC9E
:10F13A0079F00009D8B4A4EF78F0A6EF78F09BEF45
:10F14A0078F0EE0E336EEA0E346E450E356E000E12
:10F15A00366E75EC74F0430E2E6E000E2F6E000E96
:10F16A00316E010E306ED5EC74F0000E336E000E67
:10F17A00346E000E356E000E366E81EC74F0A8EC1B
:10F18A0073F00CEC75F0E806D8B4CEEF78F0D0EF57
:10F19A0078F0C6EF78F01200000E336E000E326E71
:10F1AA0030503110D8B4DCEF78F0DEEF78F006EFAB
:10F1BA0079F0010E346EE6EF78F0D89030363136B9
:10F1CA00342A31AEEBEF78F0EDEF78F0E2EF78F039
:10F1DA00D8903236333630502E5C31502F58D8A062
:10F1EA00F9EF78F0FBEF78F000EF79F030502E5E0F
:10F1FA0031502F5A3280D89031323032342EEDEFDE
:10F20A0078F032C02EF033C02FF01200326E2E503A
:10F21A002F10D8B413EF79F015EF79F033EF79F0B6
:10F22A003250020D010EF324D96E000EF420DA6E6C
:10F23A006000BBF0DEFF6000BFF0DDFF3250020D60
:10F24A000D0EF324D96E000EF420DA6E6000C3F0BE
:10F25A00DEFF6000C7F0DDFF4BEF79F03250020DA0
:10F26A00010EF324D96E000EF420DA6EE40EDE6E7F
:10F27A00E60EDD6E3250020D0D0EF324D96E000E2D
:10F28A00F420DA6E000EDE6E000EDD6E12002488A7
:10F29A006DEF79F086EC73F0080E8FEF79F086EC5B
:10F2AA0073F0070E8FEF79F02028D3EC73F0040E79
:10F2BA008FEF79F0070E2218D8B466EF79F068EF6D
:10F2CA0079F06AEF79F083EC73F00F0E8FEF79F033
:10F2DA000DC037F00EC038F002D87DEF79F0050086
:10F2EA00FA6E0150FD6E0250FE6EFF6AFA5012006D
:10F2FA00010AD8B45FEF79F0030AD8B454EF79F071
:10F30A00010AD8B44FEF79F0070AD8B459EF79F067
:10F31A005FEF79F012002E6E010E2F6E24B698EF71
:10F32A0079F09AEF79F0D5EF79F02EC01DF0249498
:10F33A002486FC0E24160F0E226E010E1C6EF40E8D
:10F34A001B6E2488E40E016EE60E026E000E0D6E30
:10F35A00000E0E6EE40E036EE60E046E000E0F6EC5
:10F36A00000E106EE40E056EE60E066E000E116EAD
:10F37A00000E126EE40E076EE60E086E000E136E95
:10F38A00000E146EE80E096EE60E0A6E000E156E79
:10F39A00000E166E98EC73F0B9EC75F0000E2F6E35
:10F3AA002F5012003901A6A5DDEF79F0DFEF79F0D1
:10F3BA00D7EF79F0000E256E3D01E1A7E7EF79F06E
:10F3CA00E9EF79F0F6EF79F0258202D8F6EF79F0D5
:10F3DA000500FA6E5250FD6E5350FE6EFF6AFA50E7
:10F3EA0012003D01E1A3FCEF79F0FEEF79F00BEF9B
:10F3FA007AF0258402D80BEF7AF00500FA6E5050A5
:10F40A00FD6E5150FE6EFF6AFA5012002550D8B4B4
:10F41A0011EF7AF013EF7AF01FEF7AF002D81FEFAC
:10F42A007AF00500FA6E4E50FD6E4F50FE6EFF6A7E
:10F43A00FA5012003D01D051120048EC74F0000954
:10F44A00D8A42AEF7AF02CEF7AF02FEF7AF0040E94
:10F45A006DEF7AF02450030B0009D8B437EF7AF035
:10F46A0039EF7AF045EF7AF0010E396E2450030B2A
:10F47A003A6E39503A5E24503A18FC0B3A18246E08
:10F48A002006D8A0210620502110D8B44FEF7AF0D8
:10F49A0051EF7AF05EEF7AF089EC73F060007BF05E
:10F4AA00D9FF60007FF0DAFFDF6E1E4A1F2A2CEFB9
:10F4BA007AF04CEC79F03B6E89EC73F060007BF0EB
:10F4CA00D9FF60007FF0DAFFDF6E1E4A1F2A3B5029
:10F4DA001200000EBE6E000EBD6E000EBA6E000E59
:10F4EA00BB6E000EBC6E070EC66EC268BF0EC36E40
:10F4FA00A70EC46EFC0EC56EFC0E3A01706F670E45
:10F50A00606F7F0E506F070E806F4069000E716F3B
:10F51A00000E816F000E516F000E416F000E616F79
:10F52A00000E5A6F000E5B6F000E6A6F000E6B6F53
:10F53A00000E7A6F000E7B6F000E826F000E426F14
:10F54A00000E526F180E626F000E726F4369536994
:10F55A0063697369070E836F4469546964697469DE
:10F56A000F0E846F0F0EE86F140EE26F160E0E6FF9
:10F57A00210E136F220E146F130E166F170EE56FFE
:10F58A00130EE16F1200000E336E31BED1EF7AF026
:10F59A00CFEF7AF0D7EF7AF0306C311ED8B0312A3B
:10F5AA00010E336E2FBEDEEF7AF0DCEF7AF0E4EF75
:10F5BA007AF02E6C2F1ED8B02F2A010E331A000EA5
:10F5CA00356E000E346E30503110D8B4EFEF7AF049
:10F5DA00F1EF7AF019EF7BF0010E326EF9EF7AF063
:10F5EA00D89030363136322A31AEFEEF7AF000EF5B
:10F5FA007BF0F5EF7AF0D8903436353630502E5C01
:10F60A0031502F58D8A00CEF7BF00EEF7BF013EFA0
:10F61A007BF030502E5E31502F5A3480D8903132E0
:10F62A003032322E00EF7BF03350D8B41FEF7BF02C
:10F63A0021EF7BF025EF7BF0346C351ED8B0352AEC
:10F64A0034C02EF035C02FF01200120E436E680E31
:10F65A0098EC78F0270E436E000E446E000E466E4C
:10F66A00070E456E680E23EC76F0C70E356EFF0E58
:10F67A00366E2DC037F0386A68EC7DF0CA0E356EEA
:10F68A00FF0E366E2CC037F0386A68EC7DF0F70E44
:10F69A00356EFF0E366E2BC037F0386A68EC7DF097
:10F6AA009D0E356EFF0E366E2A504B6E4C6AD89000
:10F6BA004B364C365E0E4B24D96E000E4C20DA6E59
:10F6CA006F0078FF37F06F0074FF38F068EC7DF058
:10F6DA00870E356EFF0E366E29C04BF01F0E4B1685
:10F6EA004B50376E386A68EC7DF08D0E356EFF0E22
:10F6FA00366E28C037F0386A68EC7DF0ED0E356E4C
:10F70A00FF0E366E27C037F0386A68EC7DF029C0E4
:10F71A002EF02F6A000E316E200E306EC8EC7AF091
:10F72A002EA09AEF7BF09CEF7BF0A4EF7BF0E80E23
:10F73A00326EFF0E336E12EC74F0AAEF7BF0E30E1A
:10F74A00326EFF0E336E12EC74F0120053EC74F04A
:10F75A000009D8B4B3EF7BF0B5EF7BF0E4EF7BF0B0
:10F76A00C2EF7BF0EDEC73F02FEF7CF076EC73F0E8
:10F77A002FEF7CF0000E2FEF7CF013C037F014C08F
:10F78A0038F002D8D2EF7BF00500FA6E0750FD6E12
:10F79A000850FE6EFF6AFA501200010AD8B4BFEF91
:10F7AA007BF0030AD8B4B7EF7BF0010AD8B4BBEFF9
:10F7BA007BF0070AD8B4BFEF7BF0BFEF7BF05EECBB
:10F7CA0074F00009D8B4ECEF7BF0EEEF7BF02EEF8B
:10F7DA007CF02450030B0009D8B4F6EF7BF0F8EF65
:10F7EA007BF004EF7CF0010E396E2450030B3A6E65
:10F7FA0039503A5E24503A18FC0B3A18246E6000CD
:10F80A007BF0D9FF60007FF0DAFFDF503D6E1E4AC1
:10F81A001F2A2006D8A0210620502110D8A418EFAC
:10F82A007CF01AEF7CF022EF7CF0C2EC77F0396EB4
:10F83A0039503B6E3C6A26EF7CF0000E3C6E030E9C
:10F84A003B6E3BC03EF03D50D8EC73F03E502FEF7C
:10F85A007CF0030E1200FA0E486E580EE82EFED700
:10F86A00482EFCD700D0800E436E280E446E3E0E02
:10F87A0028EC78F0A40EE82EFED7800E436E0E0E0A
:10F88A00446E3E0E28EC78F0A40EE82EFED7800EC9
:10F89A00436E010E446E3E0E28EC78F0200E486E40
:10F8AA002A0EE82EFED7482EFCD7800E436E020E93
:10F8BA00446E3E0E28EC78F0A40EE82EFED7800E99
:10F8CA00436E800E446E3E0E28EC78F0A40EE82EAD
:10F8DA00FED7800E436E000E446E000E466E110E69
:10F8EA00456E3E0E39EC77F0800E436EC00E446EC4
:10F8FA003E0E28EC78F0A40EE82EFED76E0E436E6C
:10F90A00000E446E000E466E110E456E3E0E39EC28
:10F91A0077F0000E4A6E040E496E0C0E486E340ED5
:10F92A00E82EFED7482EFCD7492EFAD74A2A270EA8
:10F93A004A64A2EF7CF0A4EF7CF090EF7CF0800E9A
:10F94A00436E010E446E3E0E28EC78F0040E496EAA
:10F95A000C0E486E340EE82EFED7482EFCD7492EE0
:10F96A00FAD712008DEC74F030EC7CF06A0E356E2A
:10F97A00FF0E366E68EC7DF0790E356EFF0E366E30
:10F98A0068EC7DF04A0E356EFF0E366E68EC7DF03F
:10F99A005B0E356EFF0E366E68EC7DF0390E356EF5
:10F9AA00FF0E366E68EC7DF02AEC7BF0CD801CEC05
:10F9BA0074F00009D8B4E4EF7CF0E6EF7CF063EF72
:10F9CA007DF0CD82D7EC79F04D6E0D0E4D18D8B47E
:10F9DA00F1EF7CF0F3EF7CF0FBEF7CF0400E436E2E
:10F9EA004DC044F03E0E28EC78F05A2A090E4D1804
:10F9FA00D8A402EF7DF004EF7DF00DEF7DF0800ECC
:10FA0A00436E010E446E3E0E28EC78F0800E5A6E5C
:10FA1A004BEC75F00009D8B415EF7DF017EF7DF0C7
:10FA2A004CEF7DF0090E4D18D8A41EEF7DF020EFA3
:10FA3A007DF028EF7DF0F20E356EFF0E366E68EC23
:10FA4A007DF02BEF7DF04D509AEC74F00D0E4D18B1
:10FA5A00D8A432EF7DF034EF7DF04CEF7DF00A0E42
:10FA6A009AEC74F0BF0E5A643DEF7DF03FEF7DF0E3
:10FA7A0043EF7DF0800E5A6E45EF7DF0C00E5A6E50
:10FA8A00800E436E5AC044F03E0E28EC78F0130EF6
:10FA9A004D18D8A453EF7DF055EF7DF057EF7DF068
:10FAAA0070EC73F0140E4D18D8A45EEF7DF060EF81
:10FABA007DF062EF7DF02AEC7BF0CD92CD90DBEF0A
:10FACA007CF0FEEF7FF0370E426E000E436E60EF61
:10FADA007FF0250E4A18D8B475EF7DF077EF7DF0E8
:10FAEA007CEF7DF04A50E2EC73F060EF7FF0000E9D
:10FAFA00496E000E486E000E3E6E87EF7DF03E8422
:10FB0A00354A362A6000D7F0F6FF6000DBF0F7FFCF
:10FB1A00F86A0800F550300AD8B484EF7DF096EF01
:10FB2A007DF06000D7F0F6FF6000DBF0F7FFF86ABF
:10FB3A000800F550D0EC75F0D8A0A6EF7DF0A8EF3C
:10FB4A007DF080EF7EF0000E496E000E486E48C0D0
:10FB5A002EF049C02FF0000E316E0A0E306E36ECD0
:10FB6A0075F02EC048F02FC049F0D00E396EFF0E46
:10FB7A003A6E6000D7F0F6FF6000DBF0F7FFF86A34
:10FB8A000800F5503B6E3C6A39503B263A503C22FD
:10FB9A003B5048263C504922354A362A6000D7F065
:10FBAA00F6FF6000DBF0F7FFF86A0800F550D0ECCA
:10FBBA0075F0D8B0E3EF7DF0E5EF7DF0ACEF7DF0C6
:10FBCA0080EF7EF060000BF1D9FF60000FF1DAFFE1
:10FBDA006F0078FF44F06F0074FF45F0020E422672
:10FBEA00000E432244504510D8A4FEEF7DF000EFEA
:10FBFA007EF004EF7EF0C00E446EFF0E456E000EDE
:10FC0A00476E000E466E0CEF7EF0464A472A465073
:10FC1A004424396E475045203A6E6000E7F0F6FFFB
:10FC2A006000EBF0F7FF000EF86E0F0EF76403D0DA
:10FC3A000800F55007D06F00DBFFE9FF6F00DFFF18
:10FC4A00EAFFEF500009D8A42DEF7EF02FEF7EF0E7
:10FC5A000AEF7EF04850465C49504758D8B038EF12
:10FC6A007EF03AEF7EF040EF7EF04650485E475015
:10FC7A00495A49EF7EF0000E496E000E486E49EF70
:10FC8A007EF0200EE2EC73F04806D8A04906482818
:10FC9A0006E14928D8A454EF7EF056EF7EF046EFED
:10FCAA007EF071EF7EF0600013F1F6FF600017F14D
:10FCBA00F7FF000EF86E0F0EF76403D00800F55038
:10FCCA0007D06F00DBFFE9FF6F00DFFFEAFFEF50AD
:10FCDA00E2EC73F0444A452A4606D8A0470646286D
:10FCEA0006E14728D8A47CEF7EF07EEF7EF058EF3D
:10FCFA007EF060EF7FF06000D7F0F6FF6000DBF087
:10FD0A00F7FF354A362AF86A08006F00D4FF4AF02E
:10FD1A004A50000AD8B475EF7FF0730AD8B4E7EFF7
:10FD2A007DF00B0AD8B49CEF7EF060EF7FF06000A4
:10FD3A000BF1D9FF60000FF1DAFF6F0078FF3FF097
:10FD4A006F0074FF40F0020E4226000E4322010E9D
:10FD5A004A6E4A50020D200EF324F66EFF0EF4206E
:10FD6A00F76EF86A000EF8220900F5503F5C0900A8
:10FD7A00F5504058D8B0C4EF7EF0C6EF7EF0C8EF19
:10FD8A007EF0D2EF7EF04A2A040E4A18D8A4D0EFA9
:10FD9A007EF0D2EF7EF0AEEF7EF04A50396E3A6ACC
:10FDAA004850395C3A50800A3B6E4950800A3B58A9
:10FDBA00D8B0E2EF7EF0E4EF7EF0EAEF7EF04A5050
:10FDCA00485E000E495AEEEF7EF0000E496E000EB4
:10FDDA00486E3EA4F3EF7EF0F5EF7EF00FEF7FF072
:10FDEA0048504910D8B4FCEF7EF0FEEF7EF027EFC2
:10FDFA007FF0300EE2EC73F04806D8A0490648506E
:10FE0A004910D8A40BEF7FF00DEF7FF0FEEF7EF0E4
:10FE1A0027EF7FF048504910D8B416EF7FF018EF5B
:10FE2A007FF027EF7FF0200EE2EC73F04806D8A0AF
:10FE3A00490648504910D8A425EF7FF027EF7FF0F4
:10FE4A0018EF7FF04AC041F057EF7FF03FC02EF025
:10FE5A0040C02FF04150020D200EF324F66EFF0E23
:10FE6A00F420F76EF86A000EF82209006F00D4FF3A
:10FE7A0030F00A006F00D4FF31F0D1EC78F02E5048
:10FE8A000F0B3D6E280E3D24F66EF76AFF0EF72221
:10FE9A00F86A000EF82208006F00D4FF4AF04A50B0
:10FEAA00E2EC73F041064128D8A45EEF7FF060EFE0
:10FEBA007FF02BEF7FF06000D7F0F6FF6000DBF0F9
:10FECA00F7FF354A362AF86A08006F00D4FF4AF06D
:10FEDA004A50D8A473EF7FF075EF7FF06EEF7DF094
:10FEEA00120000BAE742EA10E856F744F484EF98A1
:10FEFA00F2DAE7ECE6F0E6F0E940E738E7E6E74869
:10FF0A00E7F4E7C6ED18EE02E84B5055204150538E
:10FF1A00433132393900010010000001001030313C
:10FF2A0032333435363738396162636465660009BD
:10FF3A004B50552041505343313239390D0A0A008A
:10FF4A0009094932432052544320544553540D0A57
:10FF5A000009092D2D2D2D202D2D2D2D0D0A0A00DC
:10FF6A000C09095445535420434F44450D0A0009CE
:10FF7A00092D2D2D2D202D2D2D2D0D0A00207469D2
:10FF8A006D6520253032783A005765646E65736472
:10FF9A00617900206461792025732C00536174759E
:10FFAA00726461790054687572736461790054757A
:10FFBA00657364617900286E756C6C290020323093
:10FFCA0025782F00467269646179004D6F6E64610D
:10FFDA00790053756E6461790020414D0D002050FF
:10FFEA004D0D0025303278000D0A0A0A0025782CBA
:06FFFA00000092EF76F01A
:020000040020DA
:10000000FF0FFF0FFF0FFF0FFF0FFF0FFF0FFF0F80
:020000040030CA
:0A000000ECFEF7FF9FFFFFFFFFFF7C
:00000001FF
