:020000040000FA
:04000000FEEF7FF0A0
:10D4FA00120012001200120012001200B280120072
:10D50A00AC8E1200A680120085EC6AF01200026E40
:10D51A0002500AEC6BF01200600004F0CAF06000DE
:10D52A0008F0CBF01200600004F0CEF0600008F0C2
:10D53A00CFF01200600004F0CCF0600008F0CDF0EB
:10D54A001200600004F0C4F0600008F0C5F0120098
:10D55A00600004F0C8F0600008F0C9F01200600032
:10D56A0004F0C6F0600008F0C7F0120041505343BF
:10D57A003132393900286E756C6C29003901A6B52B
:10D58A00C9EF6AF0CCEF6AF0010ECDEF6AF0000E37
:10D59A0012003901A3B7D4EF6AF0D7EF6AF0010E8F
:10D5AA00D8EF6AF0000E1200880E7E6E000E7D6EB5
:10D5BA00000E7C6E3F015E51FC0B01095E6F12008A
:10D5CA00620E3901D96F000EDB6F000EDD6F070E98
:10D5DA00DF6F000EDE6F1200800E6E6E120E6D6E21
:10D5EA00800E6C6E3F015F51FC0B01095F6F1200E8
:10D5FA00016E3901A3A904EF6BF006EF6BF0FEEFA1
:10D60A006AF0600007F0EAFD1200016E3901A6A770
:10D61A0011EF6BF013EF6BF00BEF6BF0600007F09C
:10D62A00D2FD120083EC6BF00009D8B41FEF6BF047
:10D63A0021EF6BF017EF6BF0BC0EFDEC6AF01200F5
:10D64A00010EAE6E000EAD6E000EAF6EBB0EAB6E6F
:10D65A00000EAA6E3901A495C00EAC6E1200000E1F
:10D66A003901C06F000EC16F000EC26F000EC36F8A
:10D67A00000EC46F000EC56F000EC66F000EC76F96
:10D68A00120020EED4F010EE08F0080E6F006FFFC3
:10D69A00E3FFE806FBE2080E026E000E036E080EB8
:10D6AA00046EE3EC6FF0120034EC6BF083EC70F074
:10D6BA00E5EC6AF0D9EC6AF0DCEC6BF025EC6BF087
:10D6CA00F1EC6AF0F7EC6BF03DEC6DF06CEC6DF0A0
:10D6DA001200A6826F0090FE08F06F0094FE07F019
:10D6EA000750036E0850056E60000CF006F06000EB
:10D6FA0014F001F0600018F002F01200000E016E42
:10D70A003901A3A98BEF6BF08DEF6BF097EF6BF0FC
:10D71A003D01F2AB93EF6BF095EF6BF097EF6BF087
:10D72A00010E016E01501200000E016E3901A6A70A
:10D73A00A1EF6BF0A3EF6BF0ADEF6BF03D01DAAB4D
:10D74A00A9EF6BF0ABEF6BF0ADEF6BF0010E016E72
:10D75A00015012009E0E0001A26F000EA36F000E70
:10D76A00946F000E956F600070F296F0600074F28C
:10D77A0097F0A20E986F000E996F7CEC6EF0120073
:10D78A00015003026F00CCFF05F06F00D0FF06F0D6
:10D79A0001500402F350062602500302F3500626F3
:10D7AA00600014F001F0600018F002F01200000EA0
:10D7BA00A76E000EA86E0A0EA96EA568A4683901A4
:10D7CA00A69DA4506F0094FE01F0026A600004F066
:10D7DA0002F0016A01100001D06F0250D16F030EEE
:10D7EA00A66E1200000EB36E000EB46E010EB56E78
:10D7FA006D0EB16E840EB06E3901A491B0506F00F7
:10D80A00C4FE01F0026A600004F002F0016A01102D
:10D81A000001D26F0250D36F330EB26E1200D00ED7
:10D82A00036EFF0E046E600004F005F0600008F05D
:10D83A0006F0035005260450062206500AE10A0E95
:10D84A00055CD8A02BEF6CF02EEF6CF0010E2FEFD9
:10D85A006CF0000E016E026A1200600004F003F020
:10D86A00600008F004F03CEF6CF0014A022A600004
:10D87A0007F0D9FF60000BF0DAFFDF50D8A448EFB9
:10D88A006CF04AEF6CF03AEF6CF00350015C016EF9
:10D89A0004500258026E1200760EF66ED50EF76E1E
:10D8AA00000EF86E00EED4F010EE10F009006F00D2
:10D8BA00D7FFEEFFE550E150F9E103EE18F010EE64
:10D8CA00E8F3EE6AE550E150FCE1E250FAE100EEDD
:10D8DA0060F0340EEE6AE806FDE10001C2EF7AF06C
:10D8EA00000E126E000E116E89EF6CF0600040F0AF
:10D8FA0003F0046A600038F005F060003CF006F0BE
:10D90A0062EC72F0114A122A11500C24D96E12508C
:10D91A000D20DA6EDF50106E1050D8A497EF6CF01D
:10D92A0099EF6CF07BEF6CF0120014BEA7EF6CF06D
:10D93A00145006E11304D8B0A5EF6CF0A7EF6CF011
:10D94A00B9EF6CF060004CF015F0600050F016F082
:10D95A00151E161E154A162A600054F013F06000B0
:10D96A0058F014F0BFEF6CF060004CF013F0600058
:10D97A0050F014F0120083EC6BF00009D8B4C8EF31
:10D98A006CF0CAEF6CF0C0EF6CF0B90EFDEC6AF007
:10D99A0083EC6BF00009D8B4D5EF6CF0D7EF6CF0DC
:10D9AA00CDEF6CF0000EFDEC6AF083EC6BF0000931
:10D9BA00D8B4E2EF6CF0E4EF6CF0DAEF6CF0010E41
:10D9CA00FDEC6AF01200026E83EC6BF00009D8B429
:10D9DA00F1EF6CF0F3EF6CF0E9EF6CF0B80EFDECE0
:10D9EA006AF083EC6BF00009D8B4FEEF6CF000EF3C
:10D9FA006DF0F6EF6CF0010EFDEC6AF083EC6BF063
:10DA0A000009D8B40BEF6DF00DEF6DF003EF6DF078
:10DA1A000250FDEC6AF01200010E076E200E01188A
:10DA2A000210D8B41BEF6DF01DEF6DF038EF6DF0FA
:10DA3A00F70E036EFF0E046E600004F005F060003E
:10DA4A0008F006F00350052604500622065009E1A4
:10DA5A00050E055CD8A034EF6DF036EF6DF038EFA7
:10DA6A006DF0000E076E60001CF001F0026A1200F1
:10DA7A00000E3D01D46F000ED66F000ED86FB00EA7
:10DA8A00DA6F800EDB6F000EDC6F380EDD6F010E71
:10DA9A00DE6F000EDF6F000EE06F000EE16F000E0A
:10DAAA00E26FFC0E016ED40E026EADEC6AF0FE0E51
:10DABA00016ED40E026EB4EC6AF0FA0E016ED40E48
:10DACA00026EA6EC6AF0000E0001686F1200000EEA
:10DADA003D01EC6F000EED6F000EEE6F000EEF6F62
:10DAEA00000EF06F000EF16FB00EF26F800EF36F42
:10DAFA00000EF46F190EF56F000EF66F000EF76F39
:10DB0A00000EF86F000EF96F000EFA6F020E016E2A
:10DB1A00D50E026E98EC6AF0040E016ED50E026EF6
:10DB2A009FEC6AF0000E016ED50E026E91EC6AF05F
:10DB3A00000E0001696F1200026E83EC6BF000099F
:10DB4A00D8B4AAEF6DF0ACEF6DF0A2EF6DF0C10E94
:10DB5A00FDEC6AF083EC6BF00009D8B4B7EF6DF016
:10DB6A00B9EF6DF0AFEF6DF00250FDEC6AF083ECA7
:10DB7A006BF00009D8B4C4EF6DF0C6EF6DF0BCEFDE
:10DB8A006DF0C50EFDEC6AF083EC6BF00009D8B4B9
:10DB9A00D1EF6DF0D3EF6DF0C9EF6DF00250FDECEF
:10DBAA006AF01200026E83EC6BF00009D8B4E0EF61
:10DBBA006DF0E2EF6DF0D8EF6DF0C20EFDEC6AF099
:10DBCA0083EC6BF00009D8B4EDEF6DF0EFEF6DF078
:10DBDA00E5EF6DF00250FDEC6AF083EC6BF00009A2
:10DBEA00D8B4FAEF6DF0FCEF6DF0F2EF6DF0C50E00
:10DBFA00FDEC6AF083EC6BF00009D8B407EF6EF025
:10DC0A0009EF6EF0FFEF6DF00250FDEC6AF01200C2
:10DC1A00026E83EC6BF00009D8B416EF6EF018EFC1
:10DC2A006EF00EEF6EF0C10EFDEC6AF083EC6BF055
:10DC3A000009D8B423EF6EF025EF6EF01BEF6EF0FB
:10DC4A000250FDEC6AF083EC6BF00009D8B430EFB7
:10DC5A006EF032EF6EF028EF6EF0C60EFDEC6AF051
:10DC6A0083EC6BF00009D8B43DEF6EF03FEF6EF035
:10DC7A0035EF6EF00250FDEC6AF01200A00E0001C2
:10DC8A00A46F000EA56F600070F2A6F0600074F237
:10DC9A00A7F0000EA96F000EA86F000EAB6F000E62
:10DCAA00AA6FA60E946F000E956F600078F296F038
:10DCBA0060007CF297F0A40E986F000E996F7CECCE
:10DCCA006EF0600050F2A2F0600054F2A3F000017E
:10DCDA00A8519C25D96EA9519D21DA6E000EDF6EDE
:10DCEA00600088F29CF060008CF29DF012006000E7
:10DCFA0058F29AF060005CF29BF0000E0001616F2E
:10DD0A00000E606FA0EF6EF0600050F242F060000B
:10DD1A0054F243F09A0E446E000E456E600060F2B3
:10DD2A0046F0600064F247F093EC7CF04250000148
:10DD3A0060274350612360006BF2F6FF60006FF2C8
:10DD4A00F7FFF86A0800F5500009D8A4AFEF6EF0A3
:10DD5A00B1EF6EF089EF6EF0600080F194F0600030
:10DD6A0084F195F0120083EC6BF00009D8B4C0EF8F
:10DD7A006EF0C2EF6EF0B8EF6EF0BA0EFDEC6AF01C
:10DD8A00CEEC6AF00009D8B4CDEF6EF0CFEF6EF0AA
:10DD9A00C5EF6EF0DBEF6EF0CEEC6AF00009D8B496
:10DDAA00D9EF6EF0DBEF6EF0D1EF6EF094EC6FF01E
:10DDBA00630AD8A4E3EF6EF0E5EF6EF0D1EF6EF0F0
:10DDCA0083EC6BF00009D8B4EDEF6EF0EFEF6EF074
:10DDDA00E5EF6EF0B70EFDEC6AF0D00E026EFF0EA4
:10DDEA00036E080E046EE3EC6FF01200670E00017A
:10DDFA009C6FFF0E9D6FAFEC6BF083EC6BF000092C
:10DE0A00D8B40AEF6FF00CEF6FF002EF6FF0B10EBB
:10DE1A00FDEC6AF0CEEC6AF00009D8B417EF6FF0A7
:10DE2A0019EF6FF00FEF6FF094EC6FF00001A86F2D
:10DE3A00CEEC6AF00009D8B425EF6FF027EF6FF047
:10DE4A001DEF6FF094EC6FF00001A96FD90E9C6F73
:10DE5A00FF0E9D6FA951A76FA66BA851A6259E6FAD
:10DE6A00000EA7219F6FAFEC6BF00001A951A76FBD
:10DE7A00A66BA851A625A46F000EA721A56F1200B4
:10DE8A003901A6A54BEF6FF04DEF6FF045EF6FF03C
:10DE9A00000E0001686F3D01E1A756EF6FF058EFE1
:10DEAA006FF066EF6FF00001688302D866EF6FF0DB
:10DEBA000500FA6EC851FD6EC951FE6EFF6AFA502E
:10DECA0012003D01E1A36CEF6FF06EEF6FF07CEF93
:10DEDA006FF00001688502D87CEF6FF00500FA6EDA
:10DEEA00C651FD6EC751FE6EFF6AFA50120000015C
:10DEFA006851D8B483EF6FF085EF6FF091EF6FF050
:10DF0A0002D891EF6FF00500FA6EC451FD6EC5514B
:10DF1A00FE6EFF6AFA5012003D01D051120039011B
:10DF2A00A3A79AEF6FF09CEF6FF094EF6FF0000EDB
:10DF3A000001696F3D01F9A7A5EF6FF0A7EF6FF038
:10DF4A00B5EF6FF00001698302D8B5EF6FF00500F5
:10DF5A00FA6ECE51FD6ECF51FE6EFF6AFA50120074
:10DF6A003D01F9A3BBEF6FF0BDEF6FF0CBEF6FF0A0
:10DF7A000001698502D8CBEF6FF00500FA6ECC512B
:10DF8A00FD6ECD51FE6EFF6AFA5012000001695112
:10DF9A00D8B4D2EF6FF0D4EF6FF0E0EF6FF002D8A1
:10DFAA00E0EF6FF00500FA6ECA51FD6ECB51FE6EBE
:10DFBA00FF6AFA5012003D01E8511200000E076E86
:10DFCA0083EC6BF00009D8B4EDEF6FF0EFEF6FF070
:10DFDA00E5EF6FF0B80EFDEC6AF083EC6BF0000928
:10DFEA00D8B4FAEF6FF0FCEF6FF0F2EF6FF0045075
:10DFFA00FDEC6AF029EF70F083EC6BF00009D8B4FD
:10E00A0009EF70F00BEF70F029EF70F0075002245F
:10E01A00056E000E0320066E600017F0F6FF600022
:10E02A001BF0F7FF000EF86E0F0EF76403D008001E
:10E03A00F55007D06F00DBFFE1FF6F00DFFFE2FF63
:10E04A00E750FDEC6AF0072A0450075CD8A030EFCD
:10E05A0070F032EF70F001EF70F01200026E83EC94
:10E06A006BF00009D8B43CEF70F03EEF70F034EF7B
:10E07A0070F0BB0EFDEC6AF083EC6BF00009D8B4CB
:10E08A0049EF70F04BEF70F041EF70F00250FDEC89
:10E09A006AF083EC6BF00009D8B456EF70F058EFD1
:10E0AA0070F04EEF70F0010EFDEC6AF083EC6BF04D
:10E0BA000009D8B463EF70F065EF70F05BEF70F0B1
:10E0CA00140EFDEC6AF083EC6BF00009D8B470EF23
:10E0DA0070F072EF70F068EF70F0030EFDEC6AF00A
:10E0EA0083EC6BF00009D8B47DEF70F07FEF70F02D
:10E0FA0075EF70F0BA0EFDEC6AF01200000EBE6EFB
:10E10A00000EBD6E000EBA6E000EBB6E000EBC6E27
:10E11A00070EC66EC268BF0EC36EAF0EC46EFC0E8B
:10E12A00C56E3A0170697F0E606F5F0E506F070E01
:10E13A00806F4069000E716F000E816F000E516F83
:10E14A00000E416F000E616F000E5A6F000E5B6F7A
:10E15A00000E6A6F000E6B6F000E7A6F000E7B6FF7
:10E16A00000E826F000E426F000E526F000E626F39
:10E17A00000E726F4369536963697369070E836F8F
:10E18A0044695469646974690F0E846F0F0EE86FED
:10E19A00160E0E6F0D0E146F130E166F170EE56F17
:10E1AA001200000E0001AE6F000EB06F060EAF6FC8
:10E1BA0083EC6BF00009D8B4E5EF70F0E7EF70F08C
:10E1CA00DDEF70F0810EFDEC6AF002EF71F0CEEC3B
:10E1DA006AF00009D8B4F4EF70F0F6EF70F002EFCD
:10E1EA0071F0A70E0001AE25D96EDA6A000EDA22A6
:10E1FA0094EC6FF0DF6E0001AE2B0001AE51A46FFC
:10E20A00A56BAF51A45DA551800AA66FB051800AD3
:10E21A00A659D8A013EF71F015EF71F0ECEF70F07A
:10E22A00A70EAF25D96E000EB021DA6E000EDF6E92
:10E23A00330E9C6FFE0E9D6FA70E9E6F000E9F6F92
:10E24A00AFEC6BF0A70E026E000E036E6000BCF21C
:10E25A0004F0E3EC6FF01200000E0001B86FFBEC63
:10E26A006EF0600090F2B5F0600094F2B6F0AC0E79
:10E27A0000019C6F000E9D6FE90E9E6FFF0E9F6F4F
:10E28A006000D4F2A0F06000D8F2A1F043EC6EF086
:10E29A0000019C51B76F83EC6BF00009D8B458EFBA
:10E2AA0071F05AEF71F050EF71F0B80EFDEC6AF0B0
:10E2BA0083EC6BF00009D8B465EF71F067EF71F089
:10E2CA005DEF71F00001B751FDEC6AF083EF71F078
:10E2DA0083EC6BF00009D8B475EF71F077EF71F049
:10E2EA0083EF71F0AC0E0001B825D96EDA6A000E20
:10E2FA00DA22DF50FDEC6AF00001B82B0001B751B9
:10E30A00B85DD8A08BEF71F08DEF71F06DEF71F001
:10E31A00120083EC6BF00009D8B496EF71F098EF15
:10E32A0071F08EEF71F0CD82870EFDEC6AF0000E6F
:10E33A00126ECEEC6AF00009D8B4A6EF71F0A8EF1D
:10E34A0071F09EEF71F0080E1224D96EDA6A000E8F
:10E35A00DA2294EC6FF0DF6ECEEC6AF00009D8B4E2
:10E36A00B9EF71F0BBEF71F0B1EF71F00D0E12243D
:10E37A00D96EDA6A000EDA2294EC6FF0DF6E0D0EB7
:10E38A001224D96EDA6A000EDA22DF50046E0450C3
:10E39A00066E056A080E1224D96EDA6A000EDA22AF
:10E3AA00DF50076E07500526000E06221250020D96
:10E3BA008A0EF324D96E000EF420DA6E600017F08C
:10E3CA00DEFF60001BF0DDFF122A040E1264F0EF7C
:10E3DA0071F0F2EF71F09EEF71F0CD928A0E026E3B
:10E3EA00000E036E12008EEC71F0600008F0A4F0CB
:10E3FA0060000CF0A5F0500E00019C6FFF0E9D6F9F
:10E40A00600093F2D9FF600097F2DAFF6F0078FF9D
:10E41A009EF06F0074FF9FF0AFEC6BF0610E00018D
:10E42A009C6FFF0E9D6F20EE02F0A451D926A551D4
:10E43A00DA226F0078FF9EF06F0074FF9FF0AFEC56
:10E44A006BF0610E00019C6FFF0E9D6F20EE04F0D1
:10E45A00A451D926A551DA226F0078FF9EF06F00E9
:10E46A0074FF9FF0AFEC6BF0610E00019C6FFF0E22
:10E47A009D6F20EE06F0A451D926A551DA226F002D
:10E48A0078FF9EF06F0074FF9FF0AFEC6BF0F30E15
:10E49A0000019C6FFF0E9D6F20EE08F0A451D92653
:10E4AA00A551DA226F0078FF9EF06F0074FF9FF08B
:10E4BA00AFEC6BF0F8EF71F0120005500610D8B40B
:10E4CA0069EF72F06BEF72F074EF72F0055006109C
:10E4DA00D8A472EF72F074EF72F079EF72F0035011
:10E4EA008CEC6AF0CDEF72F020EE04F00550D926DC
:10E4FA000650DA22DE50DE10D8B486EF72F088EFCA
:10E50A0072F0A3EF72F020EE04F00550D9260650FF
:10E51A00DA2210EE02F00550E1260650E222DE5021
:10E52A00E65CE650800A0B6EDE50800A0B58D8B0C3
:10E53A00A1EF72F0A3EF72F0CDEF72F020EE02F0CD
:10E54A000550D9260650DA226F0078FF07F06F00CF
:10E55A0074FF08F0600017F0D9FF60001BF0DAFFC3
:10E56A006F0078FF09F06F0074FF0AF00750092462
:10E57A00D96E08500A20DA6E60000FF0DFFF20EE35
:10E58A0002F00550D9260650DA22DE2A000EDD22D4
:10E59A00120009500A100B100C100D100E100F105B
:10E5AA001010D8B4DBEF72F0DDEF72F025EF73F0E4
:10E5BA00010E116EEBEF72F0D89009360A360B365F
:10E5CA000C360D360E360F361036112A10AEF0EF15
:10E5DA0072F0F2EF72F0E1EF72F00950015C0A504A
:10E5EA0002580B5003580C5004580D5005580E5041
:10E5FA0006580F50075810500858D8A007EF73F064
:10E60A0009EF73F019EF73F00950015E0A50025ACC
:10E61A000B50035A0C50045A0D50055A0E50065A04
:10E62A000F50075A1050085AD89010320F320E3233
:10E63A000D320C320B320A320932112EF2EF72F01D
:10E64A00600004F001F0600008F002F060000CF0D5
:10E65A0003F0600010F004F0600014F005F06000B0
:10E66A0018F006F060001CF007F0600020F008F0D7
:10E67A001200000166A144EF73F046EF73F054EF05
:10E68A0073F0600054F00CF0600058F00DF0600078
:10E69A004CF00EF0600050F00FF075EC6CF018BE04
:10E6AA0059EF73F05BEF73F063EF73F060005CF0A7
:10E6BA001CF0600060F01DF067EF73F0000E1D6E35
:10E6CA00000E1C6E000E1B6E000E1A6E7BEF73F0AE
:10E6DA00000E046E200E036E60004CF005F0600020
:10E6EA0050F006F062EC72F01A4A1B2A1C501A5CAF
:10E6FA001B50800A196E1D50800A1958D8A088EF3D
:10E70A0073F08AEF73F06DEF73F0000166B190EF6A
:10E71A0073F092EF73F0A0EF73F0600054F00CF016
:10E72A00600058F00DF060004CF00EF0600050F000
:10E73A000FF075EC6CF0600054F001F0600058F0D6
:10E74A0002F032EC6CF01C500124136E1D500220B2
:10E75A00146E1200EF0E00019C6FFF0E9D6FAFEC5E
:10E76A006BF0C60E00019C6FFF0E9D6FAFEC6BF055
:10E77A00990E00019C6FFE0E9D6FAFEC6BF0BB0E05
:10E78A0000019C6FFF0E9D6FAFEC6BF0AE0E0001A7
:10E79A009C6FFF0E9D6FAFEC6BF0F00E00019C6F4B
:10E7AA00FE0E9D6FAFEC6BF0D60E00019C6FFE0E55
:10E7BA009D6FAFEC6BF0780E00019C6FFE0E9D6FA3
:10E7CA00AFEC6BF08F0E00019C6FFF0E9D6FAFECEC
:10E7DA006BF0560E00019C6FFE0E9D6FAFEC6BF056
:10E7EA00BA0E00019C6FFE0E9D6FAFEC6BF00B0E24
:10E7FA0000019C6FFE0E9D6FAFEC6BF0390E0001AD
:10E80A009C6FFF0E9D6FAFEC6BF0090E00019C6FC1
:10E81A00FF0E9D6FAFEC6BF07D0E00019C6FFF0E3B
:10E82A009D6FAFEC6BF0210E00019C6FFF0E9D6F88
:10E83A00AFEC6BF0A00E00019C6FFF0E9D6FAFEC6A
:10E84A006BF0120020EE11F0070EDE6AE806FDE218
:10E85A0009500A100B100C100D100E100F1010108A
:10E86A00D8B43AEF74F03CEF74F08EEF74F0010E06
:10E87A00196E4AEF74F0D89009360A360B360C3600
:10E88A000D360E360F361036192A10AE4FEF74F0C9
:10E89A0051EF74F040EF74F0D890113612361336F7
:10E8AA00143615361636173618360950015C0A50D2
:10E8BA0002580B5003580C5004580D5005580E506E
:10E8CA0006580F50075810500858D8A06FEF74F028
:10E8DA0071EF74F082EF74F00950015E0A50025A27
:10E8EA000B50035A0C50045A0D50055A0E50065A32
:10E8FA000F50075A1050085A1180D89010320F3210
:10E90A000E320D320C320B320A320932192E51EF05
:10E91A0074F0600044F001F0600048F002F060001A
:10E92A004CF003F0600050F004F0600054F005F081
:10E93A00600058F006F060005CF007F0600060F0DC
:10E94A0008F01200000E126E08BEB0EF74F0AEEFBF
:10E95A0074F0C2EF74F0081E071E061E051E041E80
:10E96A00031E021E016C000E02220322042205224B
:10E97A00062207220822010E126E10BEC9EF74F099
:10E98A00C7EF74F0D9EF74F0101E0F1E0E1E0D1E85
:10E99A000C1E0B1E0A1E096C000E0A220B220C22E8
:10E9AA000D220E220F22102209500A100B100C10F1
:10E9BA000D100E100F101010D8B4E6EF74F0E8EF37
:10E9CA0074F030EF75F0010E116EF6EF74F0D89016
:10E9DA0009360A360B360C360D360E360F36103619
:10E9EA00112A10AEFBEF74F0FDEF74F0ECEF74F047
:10E9FA000950015C0A5002580B5003580C50045835
:10EA0A000D5005580E5006580F5007581050085808
:10EA1A00D8A012EF75F014EF75F024EF75F00950D5
:10EA2A00015E0A50025A0B50035A0C50045A0D50F8
:10EA3A00055A0E50065A0F50075A1050085AD890C5
:10EA4A0010320F320E320D320C320B320A320932C8
:10EA5A00112EFDEF74F01250D8B436EF75F038EF7E
:10EA6A0075F048EF75F0081E071E061E051E041EE7
:10EA7A00031E021E016C000E02220322042205223A
:10EA8A00062207220822600004F001F0600008F064
:10EA9A0002F060000CF003F0600010F004F0600077
:10EAAA0014F005F0600018F006F060001CF007F0A2
:10EABA00600020F008F01200000E126E10BE6AEF1D
:10EACA0075F068EF75F07CEF75F0101E0F1E0E1EC4
:10EADA000D1E0C1E0B1E0A1E096C000E0A220B22AA
:10EAEA000C220D220E220F221022010E126E08BED7
:10EAFA0083EF75F081EF75F095EF75F0081E071E2C
:10EB0A00061E051E041E031E021E016C000E0222B2
:10EB1A00032204220522062207220822010E121AC3
:10EB2A0020EE13F0070EDE6AE806FDE209500A102D
:10EB3A000B100C100D100E100F101010D8B4A8EFF7
:10EB4A0075F0AAEF75F0FCEF75F0010E116EB8EFD3
:10EB5A0075F0D89009360A360B360C360D360E3655
:10EB6A000F361036112A10AEBDEF75F0BFEF75F0F3
:10EB7A00AEEF75F0D89013361436153616361736AA
:10EB8A00183619361A360950015C0A5002580B50C9
:10EB9A0003580C5004580D5005580E5006580F5083
:10EBAA00075810500858D8A0DDEF75F0DFEF75F060
:10EBBA00F0EF75F00950015E0A50025A0B50035AE1
:10EBCA000C50045A0D50055A0E50065A0F50075A47
:10EBDA001050085A1380D89010320F320E320D326C
:10EBEA000C320B320A320932112EBFEF75F0125075
:10EBFA00D8B402EF76F004EF76F014EF76F01A1E2E
:10EC0A00191E181E171E161E151E141E136C000E32
:10EC1A001422152216221722182219221A226000FB
:10EC2A004CF001F0600050F002F0600054F003F084
:10EC3A00600058F004F060005CF005F0600060F0DD
:10EC4A0006F0600064F007F0600068F008F0120057
:10EC5A0020EEDDF010EE11F0060E6F006FFFE3FFFD
:10EC6A00E806FBE2600038F01CF060003CF01DF0A2
:10EC7A001C501D10D8A444EF76F046EF76F04AEF08
:10EC8A0076F0110E1C6E000E1D6E600070F001F021
:10EC9A00600074F002F032EC6CF0600004F020F0D6
:10ECAA00600008F021F0600090F11EF0600094F11D
:10ECBA001FF01FBE63EF76F065EF76F07CEF76F01B
:10ECCA0020501E5C1F50800A106E2150800A105876
:10ECDA00D8A072EF76F074EF76F076EF76F07CEFEC
:10ECEA0076F0600078F020F060007CF021F060009F
:10ECFA0080F01EF0600084F01FF0600088F11AF0C6
:10ED0A0060008CF11BF0000166B18EEF76F090EF97
:10ED1A0076F0AFEF76F0A0EF76F0000E046E200EDC
:10ED2A00036E600030F005F0600034F006F062EC2B
:10ED3A0072F0204A212A1A50205C2150800A106E53
:10ED4A001B50800A1058D8A0ADEF76F0AFEF76F0DE
:10ED5A0092EF76F0000E196E000E186ECCEF76F078
:10ED6A00600073F0D9FF600077F0DAFFDF50106EB1
:10ED7A001050036E046A600030F005F0600034F051
:10ED8A0006F062EC72F01C4A1D2A184A192A1E5013
:10ED9A00185C1950800A106E1F50800A1058D8A0AB
:10EDAA00D9EF76F0DBEF76F0B5EF76F0000166A1E9
:10EDBA00E1EF76F0E3EF76F002EF77F0F3EF76F03B
:10EDCA00000E046E200E036E600030F005F0600045
:10EDDA0034F006F062EC72F0204A212A1A50205CC4
:10EDEA002150800A106E1B50800A1058D8A000EFDC
:10EDFA0077F002EF77F0E5EF76F0600080F00CF044
:10EE0A00600084F00DF01200000E166E000E156EF2
:10EE1A00000E0F6E000E0E6E15EF77F0084A092AE3
:10EE2A00010E146E600023F0F6FF600027F0F7FF72
:10EE3A00F86A0800F550200AD8B426EF77F028EFD0
:10EE4A0077F048EF77F0F70E0A6EFF0E0B6E600050
:10EE5A0023F0F6FF600027F0F7FFF86A0800F55084
:10EE6A000C6E0D6A0A500C260B500D220D5009E14A
:10EE7A00050E0C5CD8A044EF77F046EF77F048EF28
:10EE8A0077F0000E146E600050F010F0116A105006
:10EE9A001110D8A453EF77F055EF77F013EF77F00E
:10EEAA005FEF77F0000E0F6E010E0E6E084A092A08
:10EEBA009CEF77F0600023F0F6FF600027F0F7FF81
:10EECA00F86A0800F5500A6E0B6A0B50000AD8B4AB
:10EEDA0071EF77F09CEF77F00A502B0AD8B45BEF0A
:10EEEA0077F0060AD8B457EF77F09CEF77F0600016
:10EEFA0054F001F0600058F002F0000E046E0A0EA1
:10EF0A00036EC5EC6BF0600023F0F6FF600027F09B
:10EF1A00F7FFF86A0800F550015E000E025A300E3B
:10EF2A000124156E000E0220166E5BEF77F0D00EEC
:10EF3A000A6EFF0E0B6E600023F0F6FF600027F0EA
:10EF4A00F7FFF86A0800F5500C6E0D6A0A500C2695
:10EF5A000B500D220D500AE10A0E0C5CD8A0B8EF36
:10EF6A0077F0BBEF77F0010EBCEF77F0000E126E70
:10EF7A00136A12501310D8A4C5EF77F0C7EF77F0D1
:10EF8A007CEF77F00E500F10D8A4CEEF77F0D0EFC9
:10EF9A0077F0E2EF77F0600054F00AF0600058F082
:10EFAA000BF00A1E0B1E0A4A0B2A600028F008F012
:10EFBA0060002CF009F0E8EF77F0600054F008F0F8
:10EFCA00600058F009F01200000165BFEFEF77F01A
:10EFDA00F1EF77F0F2EF77F0669365BFFFEF77F026
:10EFEA00655106E16405D8B0FDEF77F0FFEF77F0E1
:10EFFA0005EF78F0000E316E010E306E0BEF78F0EF
:10F00A00600090F130F0600094F131F0600088F116
:10F01A0032F060008CF133F0600080F034F0600070
:10F02A0084F035F0600088F036F060008CF037F03C
:10F03A00600090F038F0600094F039F0600098F0C9
:10F04A003AF060009CF03BF0000E3D6E1F0E3C6EE5
:10F05A00000E896FC7EF78F03C06D8A03D066A0E0D
:10F06A003C24D96E000E3D20DA6E6000D0F001F02B
:10F07A006000D4F002F06000D8F003F06000DCF029
:10F08A0004F06000E0F005F06000E4F006F06000D3
:10F09A00E8F007F06000ECF008F00A0E096E000EC6
:10F0AA000A6E000E0B6E000E0C6E000E0D6E000E38
:10F0BA000E6E000E0F6E000E106ECEEC72F0600037
:10F0CA0004F028F0600008F029F060000CF02AF043
:10F0DA00600010F02BF0600014F02CF0600018F0C3
:10F0EA002DF060001CF02EF0600020F02FF0285068
:10F0FA00300FDF6E3006D8A031063206D8A03306AC
:10F10A006000D0F001F06000D4F002F06000D8F0A6
:10F11A0003F06000DCF004F06000E0F005F060004D
:10F12A00E4F006F06000E8F007F06000ECF008F0A8
:10F13A000A0E096E000E0A6E000E0B6E000E0C6EA1
:10F14A00000E0D6E000E0E6E000E0F6E000E106E8B
:10F15A0027EC74F0600004F034F0600008F035F039
:10F16A0060000CF036F0600010F037F0600014F028
:10F17A0038F0600018F039F060001CF03AF06000D6
:10F18A0020F03BF03C503D10D8B4CEEF78F0D0EFF1
:10F19A0078F001EF79F03450351036103710381006
:10F1AA0039103A103B10D8A4DDEF78F0DFEF78F091
:10F1BA0031EF78F031BEECEF78F0315006E13004EF
:10F1CA00D8B0EAEF78F0ECEF78F031EF78F033BEB0
:10F1DA00F7EF78F0335008E13204D8A0F7EF78F06F
:10F1EA00F9EF78F001EF79F0000166B3FFEF78F0FC
:10F1FA0001EF79F031EF78F0600078F013F06000F9
:10F20A007CF014F06A0E3C24156E000E3D20166E3A
:10F21A006000C8F017F06000CCF018F03EEC73F014
:10F22A0060004CF01EF0600050F01FF01200600009
:10F23A0080F038F0600084F039F0600088F03AF02D
:10F24A0060008CF03BF0600090F03CF0600094F0BD
:10F25A003DF0600098F03EF060009CF03FF03FBE49
:10F26A0039EF79F03CEF79F0010E3DEF79F0000EBD
:10F27A00366E376A36503710D8B446EF79F048EF11
:10F28A0079F058EF79F03F1E3E1E3D1E3C1E3B1E94
:10F29A003A1E391E386C000E39223A223B223C2291
:10F2AA003D223E223F22000165BF5EEF79F060EF0A
:10F2BA0079F061EF79F0669365BF6EEF79F0655189
:10F2CA0006E16405D8B06CEF79F06EEF79F074EF6F
:10F2DA0079F0000E336E010E326E7AEF79F060002B
:10F2EA0090F132F0600094F133F0600088F134F06C
:10F2FA0060008CF135F036503710D8A487EF79F0DA
:10F30A0089EF79F090EF79F066A58EEF79F090EFBA
:10F31A0079F093EF79F03406D8A03506000E416EE5
:10F32A001F0E406E000E896F39EF7AF04006D8A0A2
:10F33A0041066A0E4024D96E000E4120DA6E600042
:10F34A00E0F001F06000E4F002F06000E8F003F0A1
:10F35A006000ECF004F06000F0F005F06000F4F0FA
:10F36A0006F06000F8F007F06000FCF008F00A0E02
:10F37A00096E000E0A6E000E0B6E000E0C6E000E69
:10F38A000D6E000E0E6E000E0F6E000E106EA7ECC4
:10F39A0074F0600004F028F0600008F029F06000C2
:10F3AA000CF02AF0600010F02BF0600014F02CF042
:10F3BA00600018F02DF060001CF02EF0600020F0C4
:10F3CA002FF06000A0F013F06000A8F014F09AEC9F
:10F3DA006CF01350300FDF6E3206D8A033063406B5
:10F3EA00D8A035066000E0F001F06000E4F002F019
:10F3FA006000E8F003F06000ECF004F06000F0F068
:10F40A0005F06000F4F006F06000F8F007F0600024
:10F41A00FCF008F00A0E096E000E0A6E000E0B6E62
:10F42A00000E0C6E000E0D6E000E0E6E000E0F6EAC
:10F43A00000E106E61EC75F0600004F038F06000A8
:10F44A0008F039F060000CF03AF0600010F03BF080
:10F45A00600014F03CF0600018F03DF060001CF011
:10F46A003EF0600020F03FF041BE44EF7AF0415098
:10F47A0008E14004D8A044EF7AF046EF7AF077EF3B
:10F48A007AF0385039103A103B103C103D103E10BB
:10F49A003F10D8A453EF7AF055EF7AF09BEF79F04A
:10F4AA0033BE62EF7AF0335006E13204D8B060EF2F
:10F4BA007AF062EF7AF09BEF79F035BE6DEF7AF071
:10F4CA00355008E13404D8A06DEF7AF06FEF7AF086
:10F4DA0077EF7AF0000166B375EF7AF077EF7AF09A
:10F4EA009BEF79F036503710D8A47EEF7AF080EF90
:10F4FA007AF088EF7AF0000166A586EF7AF088EF55
:10F50A007AF0A7EF7AF04006D8A0410636503710B5
:10F51A00D8A492EF7AF094EF7AF09AEF7AF0000E8C
:10F52A00316E2B0E306E9EEF7AF0000E316E2D0E7C
:10F53A00306E6A0E4024D96E000E4120DA6E6000E9
:10F54A00C3F0DFFF600078F013F060007CF014F085
:10F55A006A0E4024156E000E4120166E6000D0F02F
:10F56A0017F06000D4F018F03EEC73F060004CF035
:10F57A001EF0600050F01FF0120059EC6BF0AFEC77
:10F58A0073F031EC71F0F70E00019C6FFF0E9D6F66
:10F59A00AFEC6BF0C0EC6CF0CBAAD6EF7AF0D8EFF8
:10F5AA007AF0E2EF7AF0E40E026EFF0E036E040EBA
:10F5BA00046EE3EC6FF0EAEF7AF0E10E026EFF0EF2
:10F5CA00036E070E046EE3EC6FF083EC6AF089ECCD
:10F5DA006AF087EC6AF0CBAAF5EF7AF0F7EF7AF0E7
:10F5EA00C1EF7BF0000E0001C06F000EBF6FB8ECD8
:10F5FA006EF06EEC6BF0390E01240001BB6F000E49
:10F60A000220BC6F320E33EC70F0BAEF7BF06EEC76
:10F61A006BF0600004F0BDF0600008F0BEF000017D
:10F62A00BD51BB5DBE51BC59D8B01EEF7BF020EF77
:10F63A007BF038EF7BF0BD1DB96FBE1DBA6FBA51B2
:10F64A0009E13A0EB95DD8A02DEF7BF02FEF7BF0E0
:10F65A0038EF7BF017EC6BF0CBBA36EF7BF038EF74
:10F66A007BF031EF7BF08EEC71F0600008F0C1F0B6
:10F67A0060000CF0C2F00001BF51C011D8A448EFDD
:10F68A007BF04AEF7BF05CEF7BF020EE08F0C15193
:10F69A00D926C251DA22010EDB5009E11A0EDE5CCC
:10F6AA00D8A05AEF7BF05CEF7BF08CEF7BF0180E62
:10F6BA00BF25D96E0C0EC021DA6E10EE02F0C151D0
:10F6CA00E126C251E2226F0098FFB9F06F0094FF61
:10F6DA00BAF0D890BA33B933D890BA33B933B951EA
:10F6EA00DF6EBF4BC02BE80EBF5D030EC059D8A01A
:10F6FA0081EF7BF083EF7BF08CEF7BF017EC6BF004
:10F70A00CBBA8AEF7BF08CEF7BF085EF7BF0600061
:10F71A0007F3D9FF60000BF3DAFF010EDB5009E1B2
:10F72A00FB0EDE5CD8A09CEF7BF09EEF7BF0BAEF7D
:10F73A007BF0000120EE08F0C151D926C251DA222D
:10F74A00010EDB5009E1FB0EDE5CD8A0AFEF7BF0C7
:10F75A00B1EF7BF0BAEF7BF017EC6BF0CBBAB8EFF6
:10F76A007BF0BAEF7BF0B3EF7BF0CBBABFEF7BF065
:10F77A00C1EF7BF00CEF7BF0CD80C3EC6AF000099F
:10F78A00D8B4CAEF7BF0CCEF7BF08EEF7CF0CD8261
:10F79A0045EC6FF00001C36F99EC6BF00009D8B427
:10F7AA00D9EF7BF0DBEF7BF0ECEF7BF00001C3518C
:10F7BA000AEC6BF00D0E0001C319D8A4E7EF7BF039
:10F7CA00E9EF7BF0ECEF7BF00A0E0AEC6BF0310EFE
:10F7DA000001C319D8A4F4EF7BF0F6EF7BF0FAEF3F
:10F7EA007BF0FBEC6EF08DEF7CF0320EC319D8A4DF
:10F7FA0001EF7CF003EF7CF007EF7CF031EC71F065
:10F80A008DEF7CF0400EC319D8A40EEF7CF010EFF8
:10F81A007CF014EF7CF0D6EC70F08DEF7CF0630E88
:10F82A00C319D8A41BEF7CF01DEF7CF022EF7CF00B
:10F83A00B70EFDEC6AF08DEF7CF0130EC319D8A455
:10F84A0029EF7CF02BEF7CF02FEF7CF0F8EC71F0D5
:10F85A008DEF7CF07E0EC319D8A436EF7CF038EF1A
:10F86A007CF03CEF7CF046EC6BF08DEF7CF00D0EFB
:10F87A00C319D8A443EF7CF045EF7CF049EF7CF044
:10F88A00C0EC6CF08DEF7CF03C0EC319D8A450EF9D
:10F89A007CF052EF7CF057EF7CF0320ED7EC6DF033
:10F8AA008DEF7CF03E0EC319D8A45EEF7CF060EFBA
:10F8BA007CF065EF7CF0320E0DEC6EF08DEF7CF093
:10F8CA007C0EC319D8A46CEF7CF06EEF7CF073EF5A
:10F8DA007CF0000EA1EC6DF08DEF7CF01B0EC319CD
:10F8EA00D8A47AEF7CF07CEF7CF080EF7CF0AFEC70
:10F8FA0073F08DEF7CF01F0EC36586EF7CF088EF06
:10F90A007CF08DEF7CF0C351E8EC6CF08DEF7CF06D
:10F91A00CD92CD90C1EF7BF0FEEF7FF0600013F146
:10F92A00D9FF600017F1DAFF6F007BFFF6FF6F0067
:10F93A0077FFF7FFF86A0800F550250AD8A4A8EF60
:10F94A007CF0AAEF7CF0DFEF7EF0600013F1D9FFC4
:10F95A00600017F1DAFFDE2A000EDD22000E000138
:10F96A00636F000E626F62C066F063C067F064691D
:10F97A006569600013F1D9FF600017F1DAFF6F00C3
:10F98A007BFFF6FF6F0077FFF7FFF86A0800F55074
:10F99A002A0AD8A4D3EF7CF0D5EF7CF008EF7DF0EB
:10F9AA00600013F1D9FF600017F1DAFFDE2A000EBA
:10F9BA00DD2260001BF1D9FF60001FF1DAFF6F0042
:10F9CA007CFF48F0020EDE266F007CFF49F0000E35
:10F9DA00DD22600023F1D9FF600027F1DAFF6F0012
:10F9EA0078FF62F06F0074FF63F063BF01EF7DF090
:10F9FA00FFEF7CF058EF7DF06681626D631FD8B02F
:10FA0A00632B58EF7DF0600013F1D9FF600017F106
:10FA1A00DAFF6F0078FF08F06F0074FF09F009EC55
:10FA2A0077F0600020F062F0600024F063F027EFC6
:10FA3A007DF0600013F1D9FF600017F1DAFFDE2ACA
:10FA4A00000EDD22D00E486EFF0E496E600013F1E3
:10FA5A00D9FF600017F1DAFF6F007BFFF6FF6F0036
:10FA6A0077FFF7FFF86A0800F5504A6E4B6A48506C
:10FA7A004A2649504B224B500AE10A0E4A5CD8A04A
:10FA8A0049EF7DF04CEF7DF0010E4DEF7DF0000E59
:10FA9A005E6E5F6A5E505F10D8A456EF7DF058EF35
:10FAAA007DF01EEF7DF0600013F1D9FF600017F1C1
:10FABA00DAFF6F007BFFF6FF6F0077FFF7FFF86A48
:10FACA000800F550640AD8B46DEF7DF06FEF7DF051
:10FADA0086EF7DF0600013F1D9FF600017F1DAFFBD
:10FAEA006F007BFFF6FF6F0077FFF7FFF86A0800E9
:10FAFA00F550690AD8A484EF7DF086EF7DF0DCEF3B
:10FB0A007DF0600013F1D9FF600017F1DAFFDE2AF9
:10FB1A00000EDD2260001BF1D9FF60001FF1DAFF41
:10FB2A006F007CFF48F0020EDE266F007CFF49F072
:10FB3A00000EDD22600023F1D9FF600027F1DAFF11
:10FB4A006F0078FF4CF06F0074FF4DF0000E4DBE51
:10FB5A00FF0E4E6E4F6E506E516E526E536E6000B7
:10FB6A0008F11EF060000CF11FF0600030F120F087
:10FB7A00600034F121F0600038F122F060003CF1BD
:10FB8A0023F0600040F124F0600044F125F06000A9
:10FB9A0048F126F060004CF127F01CEC79F0600087
:10FBAA0078F042F060007CF043F003EF7FF06000F1
:10FBBA0013F1D9FF600017F1DAFF6F007BFFF6FF40
:10FBCA006F0077FFF7FFF86A0800F550730AD8A4A8
:10FBDA00F1EF7DF0F3EF7DF02EEF7EF0600013F190
:10FBEA00D9FF600017F1DAFFDE2A000EDD2260007D
:10FBFA001BF1D9FF60001FF1DAFF6F007CFF48F0AC
:10FC0A00020EDE266F007CFF49F0000EDD22600046
:10FC1A0023F1D9FF600027F1DAFF6F0078FF5CF06B
:10FC2A006F0074FF5DF0600008F10CF060000CF1E9
:10FC3A000DF0600070F10EF0600074F10FF02DEC21
:10FC4A0076F0600030F042F0600034F043F003EFE9
:10FC5A007FF0600013F1D9FF600017F1DAFF6F003F
:10FC6A007BFFF6FF6F0077FFF7FFF86A0800F55091
:10FC7A00750AD8A443EF7EF045EF7EF09EEF7EF042
:10FC8A00600013F1D9FF600017F1DAFFDE2A000ED7
:10FC9A00DD2260001BF1D9FF60001FF1DAFF6F005F
:10FCAA007CFF48F0020EDE266F007CFF49F0000E52
:10FCBA00DD22600023F1D9FF600027F1DAFF6F002F
:10FCCA0078FF4AF06F0074FF4BF0600028F154F09F
:10FCDA0060002CF155F0566A576A586A596A5A6A8E
:10FCEA005B6A600008F11EF060000CF11FF0600012
:10FCFA0050F120F0600054F121F0600058F122F038
:10FD0A0060005CF123F0600060F124F0600064F1AF
:10FD1A0025F0600068F126F060006CF127F0E9EC4C
:10FD2A0077F0600078F042F060007CF043F003EF77
:10FD3A007FF0600013F1D9FF600017F1DAFF6F005E
:10FD4A007BFFF6FF6F0077FFF7FFF86A0800F550B0
:10FD5A00250AD8A4B3EF7EF0B5EF7EF0D0EF7EF09F
:10FD6A00600013F1D9FF600017F1DAFFDE2A000EF6
:10FD7A00DD22000E046E250E036E600008F105F008
:10FD8A0060000CF106F062EC72F0000E436E010E98
:10FD9A00426E03EF7FF0600013F1D9FF600017F1A4
:10FDAA00DAFFDE2A000EDD22000E436E000E426EDE
:10FDBA0003EF7FF0600013F1D9FF600017F1DAFF5B
:10FDCA006F007BFFF6FF6F0077FFF7FFF86A080006
:10FDDA00F550036E046A600008F105F060000CF14A
:10FDEA0006F062EC72F0600013F1D9FF600017F1BF
:10FDFA00DAFFDE2A000EDD22CAEF7EF01200003999
:10FE0A0000090972657475726E2E204C434420678E
:10FE1A006F20746F207374617274206F66206C692E
:10FE2A006E652074776F0D0A000D0A095468652003
:10FE3A005369676E61747572652066726F6D2033DF
:10FE4A0050692069733A2025730D0A000920202081
:10FE5A006374726C2B732E205072696E7420536512
:10FE6A006E736F722056616C7565730D0A0009090D
:10FE7A00322E20446973706C6179206D5620726548
:10FE8A006164696E6720696E204C43440D0A00095B
:10FE9A004B50552041505343313239392033706920
:10FEAA002D6D656E752D6261736963330A0A0D00E3
:10FEBA0009097E2E204C4344206D65737361676582
:10FECA002041505343313239390D0A000909312E84
:10FEDA0020446973706C6179206D56207265616483
:10FEEA00696E670D0A000909402E20506F6C6F6C0D
:10FEFA0075205369676E61747572653F0D0A000952
:10FF0A00093E2C20726F626F74207370696E2072C2
:10FF1A00696768740D0A0009202020202045736350
:10FF2A002C205072696E74204D656E750D0A000999
:10FF3A00093C2C20726F626F74207370696E206C9A
:10FF4A006566740D0A000D73656E736F72207661B3
:10FF5A006C756573203D202534752C20000D0A0927
:10FF6A004261747465727920566F6C74616765209A
:10FF7A003D200009097C2C20726F626F7420737413
:10FF8A006F700D0A000909632E20436C65617220A7
:10FF9A004C43440D0A0009092D2D2D2D2D2D2D2DF3
:10FFAA000D0A0A0009092D2D2D2D2D2D2D2D0D0A95
:10FFBA0000090920204D656E750A0D000D0A0A0A0E
:10FFCA000A0A0A0A0A0043616C20446F6E6500251A
:10FFDA0064206D560D0A004E6F20526F616D002528
:10FFEA0075206D5600200D0A00253475003E20004C
:01FFFA000006
:04FFFC0051EF6CF065
:020000040020DA
:10000000FF0FFF0FFF0FFF0FFF0FFF0FFF0FFF0F80
:020000040030CA
:0A000000ECFEF7FF9FFFFFFFFFFF7C
:00000001FF
