:020000040000FA
:04000000FEEF7FF0A0
:1010000000342340209822C2148016DA1B3C18D6E4
:1010100022C423C02394206C237423C8226423BADF
:1010200022AA1D501DAC224B505520415053433134
:101030003239390001000A006400E8031027094B27
:1010400050552041505343313239390D0A0A0009B5
:1010500009493243204C434420544553540D0A005F
:1010600009092D2D2D2D202D2D2D2D0D0A0A0009BC
:10107000092D2D2D2D202D2D2D2D0D0A0009095462
:1010800045535420434F44450D0A000D0A0A0A00F7
:1010900025640000410E446E000E456E03EF09F01A
:1010A000250E4A18D8B457EF08F059EF08F05EEF54
:1010B00008F04A5077EC11F003EF09F0000E466E8D
:1010C0006000FFF0F6FF600003F1F7FF3F4A402A9F
:1010D000F86A08006F00D4FF4AF04A50000AD8B4FA
:1010E00018EF09F0640AD8B47CEF08F00D0AD8B400
:1010F0007CEF08F003EF09F0600013F1D9FF600006
:1011000017F1DAFF6F0078FF48F06F0074FF49F0C5
:10111000020E4426000E452249BE93EF08F091EFDF
:1011200008F099EF08F0030E4612486C491ED8B03B
:10113000492A010E4A6E4A50020D340EF324F66E0F
:10114000100EF420F76EF86A000EF8220900F55030
:10115000485C0900F5504958D8B0B1EF08F0B3EF3A
:1011600008F0B5EF08F0BFEF08F04A2A050E4A185C
:10117000D8A4BDEF08F0BFEF08F09BEF08F046C021
:1011800043F0030E4316D8B4C8EF08F0CAEF08F0D6
:10119000CDEF08F02D0E77EC11F04AC047F0FAEFD2
:1011A00008F04750020D340EF324F66E100EF420B2
:1011B000F76EF86A000EF82209006F00D4FF29F0DC
:1011C0000A006F00D4FF2AF048C027F049C028F079
:1011D000A3EC0CF027C02EF028C02FF0000E316ECB
:1011E0000A0E306EBBEC0DF02E50300F4A6E4A5096
:1011F00077EC11F047064728D8A401EF09F003EF78
:1012000009F0D1EF08F06000FFF0F6FF600003F195
:10121000F7FF3F4A402AF86A08006F00D4FF4AF0FF
:101220004A50D8A416EF09F018EF09F050EF08F073
:101230001200CEEC10F0DAEC09F07D0E3F6E100ECD
:10124000406E4AEC08F06F0E3F6E100E406E4AEC96
:1012500008F04F0E3F6E100E406E4AEC08F0600E24
:101260003F6E100E406E4AEC08F03E0E3F6E100EC0
:10127000406E4AEC08F0CD80FFEC10F00009D8B4C5
:1012800044EF09F046EF09F0D5EF09F0CD828CEC80
:101290000BF04C6E0D0E4C18D8B451EF09F053EF13
:1012A00009F05BEF09F0400E3C6E4CC03DF03E0E85
:1012B00050EC0DF0592A090E4C18D8A462EF09F031
:1012C00064EF09F06DEF09F0800E3C6E010E3D6E8B
:1012D0003E0E50EC0DF0800E596EB2EC0FF000098E
:1012E000D8B475EF09F077EF09F0ACEF09F0090E0B
:1012F0004C18D8A47EEF09F080EF09F088EF09F0D0
:101300008B0E3F6E100E406E4AEC08F08BEF09F02A
:101310004C50C1EC10F00D0E4C18D8A492EF09F00F
:1013200094EF09F0ACEF09F00A0EC1EC10F0BF0E1B
:1013300059649DEF09F09FEF09F0A3EF09F0800ECB
:10134000596EA5EF09F0C00E596E800E3C6E59C063
:101350003DF03E0E50EC0DF0530E4C18D8A4B3EFF8
:1013600009F0B5EF09F0BCEF09F0030E3C6E070E73
:101370003D6E680E50EC0DF0520E4C18D8A4C3EF21
:1013800009F0C5EF09F0D4EF09F0900E3F6E100E92
:10139000406E030E3C6E680EDDEC0CF04B6E4B5055
:1013A000416E426A4AEC08F0CD92CD903BEF09F0D5
:1013B000FEEF7FF0FA0E416E580EE82EFED7412E5A
:1013C000FCD700D0800E3C6E280E3D6E3E0E50ECD9
:1013D0000DF0A40EE82EFED7800E3C6E0E0E3D6E74
:1013E0003E0E50EC0DF0A40EE82EFED7800E3C6EA3
:1013F000010E3D6E3E0E50EC0DF0200E416E2A0E99
:10140000E82EFED7412EFCD7800E3C6E020E3D6EBC
:101410003E0E50EC0DF0A40EE82EFED7800E3C6E72
:10142000800E3D6E3E0E50EC0DF0A40EE82EFED761
:10143000720E3C6E000E3D6E000E3F6E110E3E6E43
:101440003E0E7BEC0EF0800E3C6EC00E3D6E3E0EEE
:1014500050EC0DF0A40EE82EFED7600E3C6E000E90
:101460003D6E000E3F6E110E3E6E3E0E7BEC0EF09A
:10147000000E436E040E426E0C0E416E340EE82ECA
:10148000FED7412EFCD7422EFAD7432A270E4364BB
:101490004CEF0AF04EEF0AF03AEF0AF0800E3C6E85
:1014A000010E3D6E3E0E50EC0DF0040E426E0C0E21
:1014B000416E340EE82EFED7412EFCD7422EFAD7CD
:1014C000120015EC11F00009D8B469EF0AF06BEFC7
:1014D0000AF09AEF0AF078EF0AF06BEC11F0E5EF02
:1014E0000AF0E2EC11F0E5EF0AF0000EE5EF0AF089
:1014F00013C030F014C031F002D888EF0AF00500B4
:10150000FA6E0750FD6E0850FE6EFF6AFA50120028
:10151000010AD8B475EF0AF0030AD8B46DEF0AF0E7
:10152000010AD8B471EF0AF0070AD8B475EF0AF0CF
:1015300075EF0AF00AEC11F00009D8B4A2EF0AF036
:10154000A4EF0AF0E4EF0AF02450030B0009D8B42A
:10155000ACEF0AF0AEEF0AF0BAEF0AF0010E326E0D
:101560002450030B336E3250335E24503318FC0B7F
:101570003318246E60007BF0D9FF60007FF0DAFF43
:10158000DF50366E1E4A1F2A2006D8A021062050A2
:101590002110D8A4CEEF0AF0D0EF0AF0D8EF0AF06D
:1015A000EDEC0DF0326E3250346E356ADCEF0AF03D
:1015B000000E356E030E346E34C037F036509FEC9B
:1015C00011F03750E5EF0AF0030E1200000EBE6E68
:1015D000000EBD6E000EBA6E000EBB6E000EBC6E2D
:1015E000070EC66EC268BF0EC36EA70EC46EFC0E99
:1015F000C56EFC0E3A01706F670E606F7F0E506F04
:10160000070E806F4069000E716F000E816F000E33
:10161000516F000E416F000E616F000E5A6F000E89
:101620005B6F000E6A6F000E6B6F000E7A6F000E1C
:101630007B6F000E826F000E426F000E526F180E0D
:10164000626F000E726F4369536963697369070EB5
:10165000836F44695469646974690F0E846F0F0E57
:10166000E86F140EE26F160E0E6F210E136F220E2E
:10167000146F130E166F170EE56F130EE16F120045
:1016800020EC11F00009D8A448EF0BF04AEF0BF062
:101690004DEF0BF0040E8BEF0BF02450030B000901
:1016A000D8B455EF0BF057EF0BF063EF0BF0010ED2
:1016B000326E2450030B336E3250335E2450331895
:1016C000FC0B3318246E2006D8A0210620502110D0
:1016D000D8B46DEF0BF06FEF0BF07CEF0BF0CEECAE
:1016E00011F060007BF0D9FF60007FF0DAFFDF6E61
:1016F0001E4A1F2A4AEF0BF01EEC0CF0346ECEECA3
:1017000011F060007BF0D9FF60007FF0DAFFDF6E40
:101710001E4A1F2A345012003901A6A592EF0BF081
:1017200094EF0BF08CEF0BF0000E256E3D01E1A75E
:101730009CEF0BF09EEF0BF0ABEF0BF0258202D885
:10174000ABEF0BF00500FA6E5150FD6E5250FE6E7D
:10175000FF6AFA5012003D01E1A3B1EF0BF0B3EFC5
:101760000BF0C0EF0BF0258402D8C0EF0BF00500A2
:10177000FA6E4F50FD6E5050FE6EFF6AFA50120026
:101780002550D8B4C6EF0BF0C8EF0BF0D4EF0BF038
:1017900002D8D4EF0BF00500FA6E4D50FD6E4E509E
:1017A000FE6EFF6AFA5012003D01D0511200276E02
:1017B000010E286E24B6DFEF0BF0E1EF0BF01CEF0B
:1017C0000CF027C01DF024942486FC0E24160F0E66
:1017D000226E010E1C6EF40E1B6E2488CC0E016E60
:1017E000230E026E000E0D6E000E0E6ECC0E036EFA
:1017F000230E046E000E0F6E000E106ECC0E056EE2
:10180000230E066E000E116E000E126ECC0E076EC9
:10181000230E086E000E136E000E146EC80E096EB5
:10182000230E0A6E000E156E000E166EBEEC11F041
:101830009BEC0FF0000E286E2850120024883FEF1A
:101840000CF0D1EC11F0080E61EF0CF0D1EC11F0BE
:10185000070E61EF0CF02028A4EC11F0040E61EFEC
:101860000CF0070E2218D8B438EF0CF03AEF0CF059
:101870003CEF0CF0D4EC11F00F0E61EF0CF00DC04A
:1018800030F00EC031F002D84FEF0CF00500FA6EC8
:101890000150FD6E0250FE6EFF6AFA501200010AFE
:1018A000D8B431EF0CF0030AD8B426EF0CF0010ADB
:1018B000D8B421EF0CF0070AD8B42BEF0CF031EFBD
:1018C0000CF012002B6E27502810D8B46AEF0CF0E1
:1018D0006CEF0CF08AEF0CF02B50020D010EF3248C
:1018E000D96E000EF420DA6E60009FF0DEFF60001B
:1018F000A3F0DDFF2B50020D0D0EF324D96E000E68
:10190000F420DA6E6000A7F0DEFF6000ABF0DDFFD0
:10191000A2EF0CF02B50020D010EF324D96E000E35
:10192000F420DA6ECC0EDE6E230EDD6E2B50020D2F
:101930000D0EF324D96E000EF420DA6E000EDE6E6A
:10194000000EDD6E1200000E2C6E000E2B6E295064
:101950002A10D8B4AEEF0CF0B0EF0CF0D8EF0CF0CA
:10196000010E2D6EB8EF0CF0D89029362A362D2AAC
:101970002AAEBDEF0CF0BFEF0CF0B4EF0CF0D89036
:101980002B362C362950275C2A502858D8A0CBEF6C
:101990000CF0CDEF0CF0D2EF0CF02950275E2A505E
:1019A000285A2B80D8902A3229322D2EBFEF0CF0E6
:1019B0002BC027F02CC028F012003D6E000E3E6EAA
:1019C0003D50D7EC0BF00009D8B4E9EF0CF0EBEF89
:1019D0000CF0E0EF0CF0E80E2C6E1F0E2D6E3E0E9C
:1019E0002E6E000E2F6EF3EC10F03C0E276E000EE4
:1019F000286E000E2A6E010E296E93EC10F0000E78
:101A00002C6E000E2D6E000E2E6E000E2F6EE7EC6B
:101A100010F0AEEC11F035EC10F0E806D8B413EF8E
:101A20000DF015EF0DF00BEF0DF03E501200FEEC37
:101A30000EF02450030B0009D8B421EF0DF023EF72
:101A40000DF02FEF0DF015EC11F00009D8B42BEFCD
:101A50000DF02DEF0DF02FEF0DF0100E226E225035
:101A6000020D010EF324F66E100EF420F76EF86AE4
:101A7000000EF82209006F00D4FF38F009006F0053
:101A8000D4FF39F002D84EEF0DF00500FA6E385051
:101A9000FD6E3950FE6EFF6AFA501200226E12007F
:101AA0003E6E3E50D7EC0BF00009D8B45AEF0DF063
:101AB0005CEF0DF051EF0DF0900E2C6E1F0E2D6EA1
:101AC0003D0E2E6E000E2F6EF3EC10F03C0E276EC6
:101AD000000E286E000E2A6E010E296E93EC10F097
:101AE000000E2C6E000E2D6E000E2E6E000E2F6E50
:101AF000E7EC10F0AEEC11F035EC10F0E806D8B4DD
:101B000084EF0DF086EF0DF07CEF0DF01200000E6B
:101B10003D01EC6F000EED6F000EEE6F000EEF6FEB
:101B2000000EF06F000EF16FB00EF26F800EF36FCB
:101B3000000EF46F670EF56F000EF66F000EF76F74
:101B4000000EF86F000EF96F000EFA6F000E276E90
:101B5000000E286E90EC11F0000E276E000E286E1D
:101B60008BEC11F0000E276E000E286E95EC11F034
:101B7000000E266E120030503110D8B4C2EF0DF0B6
:101B8000C4EF0DF0E8EF0DF0010E326ECCEF0DF06A
:101B9000D89030363136322A31AED1EF0DF0D3EF56
:101BA0000DF0C8EF0DF030502E5C31502F58D8A0FA
:101BB000DCEF0DF0DEEF0DF0E2EF0DF030502E5EB9
:101BC00031502F5AD89031323032322ED3EF0DF0BF
:101BD0002EC02EF02FC02FF01200248800EF0EF040
:101BE000D1EC11F0070E1EEF0EF02028A4EC11F03E
:101BF000030E1EEF0EF0D4EC11F00A0E1EEF0EF0E5
:101C00000DC030F00EC031F002D810EF0EF005001C
:101C1000FA6E0150FD6E0250FE6EFF6AFA5012001D
:101C2000010AD8B4FBEF0DF0030AD8B4F0EF0DF0C1
:101C3000060AD8B4F5EF0DF0FBEF0DF01200000E20
:101C40003D01D46F000ED66F000ED86FB00EDA6F64
:101C5000800EDB6F000EDC6FE10EDD6F040EDE6FB9
:101C6000000EDF6F000EE06F000EE16F000EE26FFE
:101C7000D40E276E230E286E81EC11F0D20E276E43
:101C8000230E286E7CEC11F0D60E276E230E286EE4
:101C900086EC11F0000E256E12003901A3A153EF5E
:101CA0000EF055EF0EF057EF0EF07AEF0EF0A2AFF8
:101CB0005CEF0EF05EEF0EF060EF0EF07AEF0EF0DC
:101CC0003D0179A566EF0EF068EF0EF06AEF0EF0B9
:101CD0007AEF0EF079AF6FEF0EF071EF0EF073EF59
:101CE0000EF07AEF0EF076A978EF0EF07AEF0EF0A4
:101CF0004DEF0EF01200406E4050D7EC0BF0000993
:101D0000D8B485EF0EF087EF0EF07CEF0EF03CC0FC
:101D100027F03DC028F03EC029F03FC02AF093ECE8
:101D200010F0000E2C6E000E2D6E000E2E6E000EAA
:101D30002F6EE7EC10F0AEEC11F035EC10F0E80689
:101D4000D8B4A5EF0EF0A7EF0EF09DEF0EF0120045
:101D5000BEEC11F0020E236EBAEF0EF06BEC11F038
:101D6000D4EF0EF0E2EC11F0D4EF0EF05DEC11F0D8
:101D7000D4EF0EF00FC030F010C031F002D8CAEF2F
:101D80000EF00500FA6E0350FD6E0450FE6EFF6A01
:101D9000FA501200020AD8B4AEEF0EF0010AD8B41D
:101DA000B2EF0EF0B6EF0EF01200FC0E2416020E8B
:101DB000236E2494E3EF0EF0E0EC11F0FDEF0EF053
:101DC0000F0EFDEF0EF011C030F012C031F002D84E
:101DD000F3EF0EF00500FA6E0550FD6E0650FE6E34
:101DE000FF6AFA501200020AD8B4DCEF0EF0010AC2
:101DF000D8B4DCEF0EF0E0EF0EF0120041EC11F081
:101E00000009D8B406EF0FF008EF0FF00CEF0FF059
:101E1000DDEC11F026EF0FF02BEC11F00009D8B437
:101E200014EF0FF016EF0FF01AEF0FF0D7EC11F0E0
:101E300026EF0FF036EC11F00009D8B422EF0FF0C6
:101E400024EF0FF026EF0FF0DAEC11F01200BC0EC9
:101E5000F66E200EF76E000EF86E00EE60F010EEDB
:101E600024F009006F00D7FFEEFFE550E150F9E1E3
:101E7000D00EF66E230EF76E000EF86E09006F009E
:101E8000D4FF59F009006F00D4FF5AF000EE01F0C2
:101E9000260EEE6AE806FDE1000119EF09F03A6E40
:101EA000010E3B6E24B457EF0FF059EF0FF073EFB4
:101EB0000FF02484000E3B6E2050A4EC11F03A5039
:101EC000D8B465EF0FF067EF0FF06DEF0FF0040E71
:101ED000226E20EC10F071EF0FF0030E226E4CEC2E
:101EE00011F0B3EC10F03B50120020EE02F0305035
:101EF000D9263150DA226F0078FF27F06F0074FF87
:101F000028F06000C3F0D9FF6000C7F0DAFF6F006F
:101F100078FF29F06F0074FF2AF093EC10F0000EA8
:101F20002C6E000E2D6E000E2E6E000E2F6EF3EC3A
:101F300010F0020E12003D0173BFA1EF0FF0A3EFEE
:101F40000FF0B1EF0FF0000E796F000E7A6F000EF8
:101F5000766F6C69510E3A016A6F510E6B6F3D01DD
:101F6000738F1200000E276E3901A6A7BAEF0FF08B
:101F7000BCEF0FF0C6EF0FF03D01DAABC2EF0FF090
:101F8000C4EF0FF0C6EF0FF0010E276E27501200BE
:101F900030C027F031C028F0000E2A6E010E296EE5
:101FA00093EC10F0000E2C6E000E2D6E000E2E6EB7
:101FB000000E2F6EF3EC10F0040E120030C027F06C
:101FC00031C028F0000E2A6E020E296E93EC10F03C
:101FD000000E2C6E000E2D6E000E2E6E000E2F6E5B
:101FE000F3EC10F0020E120030C027F031C028F0E0
:101FF000000E2A6E010E296E93EC10F0000E2C6E6E
:10200000000E2D6E000E2E6E000E2F6EF3EC10F0F3
:10201000020E120030C027F031C028F0000E2A6EE8
:10202000020E296E93EC10F0000E2C6E000E2D6E39
:10203000000E2E6E000E2F6EF3EC10F0040E120048
:102040002450FC0B0209246E20042110D8A42BEF8D
:1020500010F02DEF10F02FEF10F01EEC0CF0D880E8
:102060001D349FEC11F0040E1200010E276E24B4F3
:102070003CEF10F03EEF10F048EF10F024961D6892
:10208000BEEC11F0A4EC10F071EC11F023C027F0BD
:1020900027501200C5EC11F0C2EC11F00009D8B4C1
:1020A00054EF10F056EF10F05CEF10F0000EA4ECBF
:1020B00011F0000E9FEC11F0000E1200404D69630C
:1020C000726F636F6E74726F6C6C65727300404BED
:1020D000505520415053433132393920496E7400F4
:1020E000000E3901C06F000EC16F000EC26F000EEE
:1020F000C36F000EC46F000EC56F000EC66F000EDA
:10210000C76F1200040E3D01736F800E746F180EBE
:10211000756F030E7B6F000E796F000E7A6F000EE5
:10212000766F6C69120024A898EF10F09AEF10F007
:10213000A3EF10F027C01EF028C01FF029C020F028
:102140002AC021F024981200390193939395929F0D
:1021500093913D017A917A957A9F7A9D7A937693BD
:10216000769576911200B9EF10F04DEC0EF017EC69
:102170000DF024B4BEEF10F0C0EF10F0B5EF10F08A
:102180001200276E3901A6A7C8EF10F0CAEF10F0B1
:10219000C2EF10F060009FF0D2FD120070EC10F062
:1021A000E6EC0AF0DBEC10F01FEC0EF087EC0DF023
:1021B00082EC10F01200600E3901D96F000EDB6F57
:1021C000000EDD6F070EDF6F000EDE6F12002CC0F9
:1021D00027F02DC028F02EC029F02FC02AF0020EC3
:1021E00062EC0CF012002CC027F02DC028F02EC09D
:1021F00029F02FC02AF0000E62EC0CF01200390119
:10220000A6B505EF11F008EF11F0010E09EF11F07E
:10221000000E12003D0178BB10EF11F013EF11F02A
:10222000010E14EF11F0000E12003D0174BB1BEF04
:1022300011F01EEF11F0010E1FEF11F0000E120051
:102240003D0178B126EF11F029EF11F0010E2AEFD0
:1022500011F0000E12003D0179B531EF11F034EFAD
:1022600011F0010E35EF11F0000E12003D0176B9AC
:102270003CEF11F03FEF11F0010E40EF11F0000EB6
:1022800012003D0179BF47EF11F04AEF11F0010E46
:102290004BEF11F0000E12002450FC0B0209246ECB
:1022A0001D501D249FEC11F0030E1200A9EC11F03B
:1022B0002494020E236E0F0E1200A9EC11F0249448
:1022C000000E236E0F0E1200C8EC11F0C5EC11F0D9
:1022D0009AEC11F012002050A4EC11F020EC10F058
:1022E00012003D01739F000E796F78851200286EF1
:1022F0002850C1EC10F0120027C04FF028C050F059
:10230000120027C051F028C052F0120027C04DF033
:1023100028C04EF0120027C055F028C056F0120019
:1023200027C057F028C058F0120027C053F028C02B
:1023300054F012002494000E236E0F0E1200276E2C
:1023400060009FF06BFD1200276E60009FF06CFD37
:1023500012003D01739F7885738F1200000E4FECC1
:102360000FF01200C8EC11F0090E1200CBEC11F0C6
:10237000040E1200CBEC11F0030E1200000E3D0112
:10238000796F12003D016C5112003D01739B1200E8
:102390003D01748D12003D01749D12003D016A5192
:1023A00012003D01738D12003D01739D12003D012D
:1023B000799512003D01769912003D01799F120036
:1023C000010E1200020E1200050E1200010E120084
:0823D000803E12001200120011
:04FFFC0027EF0FF0EC
:020000040020DA
:10000000FF0FFF0FFF0FFF0FFF0FFF0FFF0FFF0F80
:020000040030CA
:0A000000ECFEF7FF9FFFFFFFFFFF7C
:00000001FF
