:020000040000FA
:04000000FEEF7FF0A0
:10E0AA00120012001200010E1200050E1200020EDA
:10E0BA001200010E12000CF9803E3D01799F1200F8
:10E0CA003D01769912003D01799512003D01739D3B
:10E0DA0012003D01738D12003D016A5112003D018B
:10E0EA00749D12003D01748D12003D01739B120054
:10E0FA003D016C511200000E3D01796F120074EC63
:10E10A0070F0030E120074EC70F0040E120077EC3B
:10E11A0070F0090E1200000E6BEC73F01200010E83
:10E12A006BEC73F0120030C0A4F031C0A5F01200FD
:10E13A0030C05DF031C05EF0120030C0A6F031C0D0
:10E14A00A7F0120030C09EF031C09FF0120030C01C
:10E15A00A2F031C0A3F0120030C0A0F031C0A1F08B
:10E16A0012003D01739F7885738F1200306E600034
:10E17A00C3F06CFD1200306E6000C3F06BFD12003C
:10E18A002494000E236E0F0E1200316E315082EC71
:10E19A0071F012003D01739F000E796F78851200AD
:10E1AA002050BBEC70F01AEC72F0120077EC70F0B1
:10E1BA007AEC70F0C5EC70F01200B6EC70F02494B2
:10E1CA00000E236E0F0E1200B6EC70F02494020EAD
:10E1DA00236E0F0E12002450FC0B0209246E1D50F0
:10E1EA001D24C0EC70F0030E120034C032F035C0AA
:10E1FA0033F001EC73F00A0ECAEC70F01200390128
:10E20A00A6B50AEF71F00DEF71F0010E0EEF71F085
:10E21A00000E12003D0179BF15EF71F018EF71F091
:10E22A00010E19EF71F0000E12003D0176B920EFD0
:10E23A0071F023EF71F0010E24EF71F0000E12005D
:10E24A003D0179B52BEF71F02EEF71F0010E2FEF32
:10E25A0071F0000E12003D0178B136EF71F039EF1E
:10E26A0071F0010E3AEF71F0000E12003D0174BB1D
:10E27A0041EF71F044EF71F0010E45EF71F0000EBD
:10E28A0012003D0178BB4CEF71F04FEF71F0010EB7
:10E29A0050EF71F0000E1200600E3901D96F000EB6
:10E2AA00DB6F000EDD6F070EDF6F000EDE6F1200F0
:10E2BA0035C030F036C031F037C032F038C033F0F4
:10E2CA00000E0DEC76F0120035C030F036C031F099
:10E2DA0037C032F038C033F0020E0DEC76F012007F
:10E2EA00DFEC71F0DFEC78F051EC71F068EC74F06F
:10E2FA00F6EC74F0ACEC71F01200306E3901A6A79E
:10E30A0089EF71F08BEF71F083EF71F06000C3F069
:10E31A00D2FD120095EF71F096EC74F061EC75F095
:10E32A0024B49AEF71F09CEF71F091EF71F0120042
:10E33A00390193939395929F93913D017A917A959E
:10E34A007A9F7A9D7A937693769576911200040E47
:10E35A003D01736F800E746F180E756F030E7B6F1D
:10E36A00000E796F000E7A6F000E766F6C691200DC
:10E37A0024A8C2EF71F0C4EF71F0CDEF71F030C094
:10E38A001EF031C01FF032C020F033C021F02498B3
:10E39A001200120E456E680E9AEC75F0280E456E44
:10E3AA00000E466E000E486E070E476E680E22EC8F
:10E3BA0073F01200000E3901C06F000EC16F000E1B
:10E3CA00C26F000EC36F000EC46F000EC56F000E41
:10E3DA00C66F000EC76F12007AEC70F07DEC70F019
:10E3EA000009D8B4FBEF71F0FDEF71F003EF72F0A2
:10E3FA00000EBBEC70F0000EC0EC70F0000E1200C4
:10E40A00010E306E24B40CEF72F00EEF72F018EFBA
:10E41A0072F024961D6880EC70F09DEC71F0CFECE0
:10E42A0070F023C030F0305012002450FC0B020967
:10E43A00246E20042110D8A425EF72F027EF72F081
:10E44A0029EF72F04EEC76F0D8801D34C0EC70F0F3
:10E45A00040E1200305032026F00CCFF34F06F000D
:10E46A00D0FF35F030503302F350352631503202A6
:10E47A00F350352634C030F035C031F01200000EAA
:10E48A00306E3901A6A74CEF72F04EEF72F058EFDA
:10E49A0072F03D01DAAB54EF72F056EF72F058EFBA
:10E4AA0072F0010E306E3050120039C030F03AC0AE
:10E4BA0031F0000E336E020E326EBDEC71F0000EBA
:10E4CA00356E000E366E000E376E000E386E5DEC3D
:10E4DA0071F0040E120039C030F03AC031F0000E6B
:10E4EA00336E010E326EBDEC71F0000E356E000E09
:10E4FA00366E000E376E000E386E5DEC71F0020E4D
:10E50A00120039C030F03AC031F0000E336E020EFC
:10E51A00326EBDEC71F0000E356E000E366E000ED6
:10E52A00376E000E386E5DEC71F0020E120039C0C3
:10E53A0030F03AC031F0000E336E010E326EBDEC8F
:10E54A0071F0000E356E000E366E000E376E000E3C
:10E55A00386E5DEC71F0040E12003D0173BFB8EF26
:10E56A0072F0BAEF72F0C8EF72F0000E796F000E17
:10E57A007A6F000E766F6C69510E3A016A6F510E0E
:10E58A006B6F3D01738F1200326E000E316E3A0EC0
:10E59A003260D2EF72F0D4EF72F0DEEF72F02F0E2B
:10E5AA003264DAEF72F0DCEF72F0DEEF72F0010E35
:10E5BA00316E31C030F030301200CCFFAFFF8AFF2D
:10E5CA00A6FFC5FF9DFFD3FF40323030302F3030D9
:10E5DA002F303000404D6963726F636F6E74726FD3
:10E5EA006C6C65727300404B505520415053433157
:10E5FA0032393920496E740010EF73F06000CBF0A5
:10E60A00F6FF6000CFF0F7FFF86A0800F550CAEC91
:10E61A0070F0324A332A6000CBF0F6FF6000CFF088
:10E62A00F7FFF86A0800F5500009D8A41FEF73F045
:10E63A0021EF73F003EF73F01200496E49505EEC5C
:10E64A0077F00009D8B42CEF73F02EEF73F023EFB4
:10E65A0073F045C030F046C031F047C032F048C0D0
:10E66A0033F0BDEC71F094EC70F005EC72F0E80652
:10E67A00D8B442EF73F044EF73F03AEF73F012003C
:10E68A0020EE02F03950D9263A50DA226F0078FF8C
:10E69A0030F06F0074FF31F06000E7F0D9FF6000DE
:10E6AA00EBF0DAFF6F0078FF32F06F0074FF33F09F
:10E6BA00BDEC71F0000E356E000E366E000E376E30
:10E6CA00000E386E5DEC71F0020E1200436E010E00
:10E6DA00446E24B473EF73F075EF73F08FEF73F039
:10E6EA002484000E446E2050BBEC70F04350D8B422
:10E6FA0081EF73F083EF73F089EF73F0040E226EEB
:10E70A001AEC72F08DEF73F0030E226EF0EC70F0DB
:10E71A008FEC71F0445012000FEC71F00009D8B47C
:10E72A0099EF73F09BEF73F09FEF73F062EC70F068
:10E73A00B9EF73F025EC71F00009D8B4A7EF73F0C4
:10E74A00A9EF73F0ADEF73F068EC70F0B9EF73F006
:10E75A001AEC71F00009D8B4B5EF73F0B7EF73F0A3
:10E76A00B9EF73F065EC70F01200FC0E2416020E7D
:10E77A00236E2494C8EF73F05EEC70F0E2EF73F04E
:10E78A000F0EE2EF73F011C039F012C03AF002D85E
:10E79A00D8EF73F00500FA6E0550FD6E0650FE6E56
:10E7AA00FF6AFA501200020AD8B4C1EF73F0010AE4
:10E7BA00D8B4C1EF73F0C5EF73F01200C40EF66E51
:10E7CA00E50EF76E000EF86E00EE60F010EE3EF009
:10E7DA0009006F00D7FFEEFFE550E150F9E1C00EE6
:10E7EA00F66EE00EF76E000EF86E00EE59F010EEBF
:10E7FA0004F009006F00D7FFEEFFE550E150F9E1A0
:10E80A0000EE01F02F0EEE6AE806FDE100011AEFB4
:10E81A0077F080EC70F0020E236E20EF74F0D5ECE6
:10E82A0070F03AEF74F05CEC70F03AEF74F0E2ECEE
:10E83A0070F03AEF74F00FC039F010C03AF002D815
:10E84A0030EF74F00500FA6E0350FD6E0450FE6E50
:10E85A00FF6AFA501200020AD8B414EF74F0010ADF
:10E86A00D8B418EF74F01CEF74F01200496E4950D6
:10E87A005EEC77F00009D8B445EF74F047EF74F016
:10E88A003CEF74F045C030F046C031F047C032F07A
:10E89A0048C033F0BDEC71F0000E356E000E366ED6
:10E8AA00000E376E000E386E69EC71F090EC70F065
:10E8BA0005EC72F0E806D8B465EF74F067EF74F00F
:10E8CA005DEF74F01200000E3D01D46F000ED66F9A
:10E8DA00000ED86FB00EDA6F800EDB6F000EDC6FA1
:10E8EA00E10EDD6F040EDE6F000EDF6F000EE06FCB
:10E8FA00000EE16F000EE26FAC0E306EE00E316E6C
:10E90A00ACEC70F0AE0E306EE00E316EB1EC70F021
:10E91A00AA0E306EE00E316EA7EC70F0000E266E75
:10E92A0012003901A3A19CEF74F09EEF74F0A0EFDE
:10E93A0074F0C3EF74F0A2AFA5EF74F0A7EF74F010
:10E94A00A9EF74F0C3EF74F03D0179A5AFEF74F04D
:10E95A00B1EF74F0B3EF74F0C3EF74F079AFB8EFBE
:10E96A0074F0BAEF74F0BCEF74F0C3EF74F076A9E8
:10E97A00C1EF74F0C3EF74F096EF74F012002488BC
:10E98A00D7EF74F06EEC70F0070EF5EF74F02028F4
:10E99A00BBEC70F0030EF5EF74F06BEC70F00A0E3E
:10E9AA00F5EF74F00DC039F00EC03AF002D8E7EF77
:10E9BA0074F00500FA6E0150FD6E0250FE6EFF6A99
:10E9CA00FA501200010AD8B4D2EF74F0030AD8B48C
:10E9DA00C7EF74F0060AD8B4CCEF74F0D2EF74F033
:10E9EA001200000E3D01EC6F000EED6F000EEE6F8F
:10E9FA00000EEF6F000EF06F000EF16FB00EF26FA7
:10EA0A00800EF36F000EF46F670EF56F000EF66F4F
:10EA1A00000EF76F000EF86F000EF96F000EFA6F16
:10EA2A00000E306E000E316E9DEC70F0000E306EEE
:10EA3A00000E316EA2EC70F0000E306E000E316ED8
:10EA4A0098EC70F0000E276E1200476E47505EEC8D
:10EA5A0077F00009D8B434EF75F036EF75F02BEF84
:10EA6A0075F0380E356EE50E366E460E376E000EB0
:10EA7A00386E5DEC71F0450E306E000E316E000E90
:10EA8A00336E010E326EBDEC71F0000E356E000E63
:10EA9A00366E000E376E000E386E69EC71F090EC2F
:10EAAA0070F005EC72F0E806D8B45EEF75F060EF2E
:10EABA0075F056EF75F0120091EC73F02450030BC9
:10EACA000009D8B46BEF75F06DEF75F079EF75F05A
:10EADA003BEC71F00009D8B475EF75F077EF75F07B
:10EAEA0079EF75F0100E226E2250020D770EF32484
:10EAFA00F66EFE0EF420F76EF86A000EF822090090
:10EB0A006F00D4FF41F009006F00D4FF42F002D831
:10EB1A0098EF75F00500FA6E4150FD6E4250FE6E98
:10EB2A00FF6AFA501200226E1200466E000E476EFD
:10EB3A0046505EEC77F00009D8B4A6EF75F0A8EF5E
:10EB4A0075F09DEF75F0E00E356EE40E366E470EE9
:10EB5A00376E000E386E5DEC71F0450E306E000EA9
:10EB6A00316E000E336E010E326EBDEC71F0000E86
:10EB7A00356E000E366E000E376E000E386E69EC7A
:10EB8A0071F090EC70F005EC72F0E806D8B4D0EFB2
:10EB9A0075F0D2EF75F0C8EF75F01200000E356E01
:10EBAA00000E346E32503310D8B4DEEF75F0E0EF59
:10EBBA0075F008EF76F0010E366EE8EF75F0D89032
:10EBCA0032363336362A33AEEDEF75F0EFEF75F0A5
:10EBDA00E4EF75F0D890343635363250305C335025
:10EBEA003158D8A0FBEF75F0FDEF75F002EF76F023
:10EBFA003250305E3350315A3480D8903332323208
:10EC0A00362EEFEF75F034C030F035C031F0120017
:10EC1A00346E30503110D8B415EF76F017EF76F025
:10EC2A0035EF76F03450020D010EF324D96E000E42
:10EC3A00F420DA6E6000C3F0DEFF6000C7F0DDFF8B
:10EC4A003450020D0D0EF324D96E000EF420DA6E44
:10EC5A006000CBF0DEFF6000CFF0DDFF4DEF76F015
:10EC6A003450020D010EF324D96E000EF420DA6E30
:10EC7A00B00EDE6EE00EDD6E3450020D0D0EF32482
:10EC8A00D96E000EF420DA6E000EDE6E000EDD6E16
:10EC9A00120024886FEF76F06EEC70F0080E91EF98
:10ECAA0076F06EEC70F0070E91EF76F02028BBEC50
:10ECBA0070F0040E91EF76F0070E2218D8B468EFC0
:10ECCA0076F06AEF76F06CEF76F06BEC70F00F0E80
:10ECDA0091EF76F00DC039F00EC03AF002D87FEF0E
:10ECEA0076F00500FA6E0150FD6E0250FE6EFF6A64
:10ECFA00FA501200010AD8B461EF76F0030AD8B4C8
:10ED0A0056EF76F0010AD8B451EF76F0070AD8B474
:10ED1A005BEF76F061EF76F01200CD82F1EC77F0DE
:10ED2A00376E44EC72F00009D8B49EEF76F0A0EF8B
:10ED3A0076F0D4EF76F02F0E3764A6EF76F0A8EFD0
:10ED4A0076F0C1EF76F0360E3760AEEF76F0B0EFC0
:10ED5A0076F0C1EF76F0375082EC71F037C036F0BA
:10ED6A00D00E3626363A2F5036180F0B36182F6E1D
:10ED7A007E0E596EF00E5A6E110E3718D8A4C8EFCF
:10ED8A0076F0CAEF76F0D4EF76F0E30E346EFE0E2C
:10ED9A00356EFAEC70F00C0E596EF90E5A6ECD9271
:10EDAA001200CD82F1EC77F0376E44EC72F0000974
:10EDBA00D8B4E2EF76F0E4EF76F018EF77F02F0EA2
:10EDCA003764EAEF76F0ECEF76F005EF77F0360E7F
:10EDDA003760F2EF76F0F4EF76F005EF77F0375020
:10EDEA0082EC71F037C036F0D00E3626363A2F5004
:10EDFA0036180F0B36182F6E1E0E596EF10E5A6EFC
:10EE0A00110E3718D8A40CEF77F00EEF77F018EF41
:10EE1A0077F0E30E346EFE0E356EFAEC70F00C0EDF
:10EE2A00596EF90E5A6ECD92120075EC71F075ECAE
:10EE3A007BF0610E376EFF0E386E2DEC7DF0700E92
:10EE4A00376EFF0E386E2DEC7DF0410E376EFF0ED9
:10EE5A00386E2DEC7DF0520E376EFF0E386E2DECAB
:10EE6A007DF0300E376EFF0E386E2DEC7DF0CEEC55
:10EE7A0071F004EC7AF0FCEC7BF0CD8004EC71F0DC
:10EE8A000009D8B44BEF77F04DEF77F059EF77F0F0
:10EE9A0002D859EF77F00500FA6E5950FD6E5A50B4
:10EEAA00FE6EFF6AFA501200CD9042EF77F0FEEF45
:10EEBA007FF0306E010E316E24B666EF77F068EFA0
:10EECA0077F0A3EF77F030C01DF024942486FC0E6F
:10EEDA0024160F0E226E010E1C6EF40E1B6E248871
:10EEEA00B00E016EE00E026E000E0D6E000E0E6E7A
:10EEFA00B00E036EE00E046E000E0F6E000E106E62
:10EF0A00B00E056EE00E066E000E116E000E126E49
:10EF1A00B00E076EE00E086E000E136E000E146E31
:10EF2A00B40E096EE00E0A6E000E156E000E166E15
:10EF3A0080EC70F0B2EC72F0000E316E31501200BB
:10EF4A0030EC71F00009D8A4ADEF77F0AFEF77F0AD
:10EF5A00B2EF77F0040EF0EF77F02450030B0009BC
:10EF6A00D8B4BAEF77F0BCEF77F0C8EF77F0010EBC
:10EF7A003B6E2450030B3C6E3B503C5E24503C18C5
:10EF8A00FC0B3C18246E2006D8A021062050211024
:10EF9A00D8B4D2EF77F0D4EF77F0E1EF77F071ECF5
:10EFAA0070F060007BF0D9FF60007FF0DAFFDF6E5F
:10EFBA001E4A1F2AAFEF77F04EEC76F03D6E71ECE9
:10EFCA0070F060007BF0D9FF60007FF0DAFFDF6E3F
:10EFDA001E4A1F2A3D5012003901A6A5F7EF77F005
:10EFEA00F9EF77F0F1EF77F0000E266E3D01E1A719
:10EFFA0001EF78F003EF78F011EF78F0268202D86B
:10F00A0011EF78F00500FA6E0001A251FD6EA351CE
:10F01A00FE6EFF6AFA5012003D01E1A317EF78F085
:10F02A0019EF78F027EF78F0268402D827EF78F0E6
:10F03A000500FA6E0001A051FD6EA151FE6EFF6A35
:10F04A00FA5012002650D8B42DEF78F02FEF78F04E
:10F05A003CEF78F002D83CEF78F00500FA6E000138
:10F06A009E51FD6E9F51FE6EFF6AFA5012003D01DD
:10F07A00D0511200CD82F1EC77F0496E44EC72F077
:10F08A000009D8B44BEF78F04DEF78F08DEF78F0B7
:10F09A002F0E496453EF78F055EF78F07AEF78F055
:10F0AA003A0E49605BEF78F05DEF78F07AEF78F02E
:10F0BA00495082EC71F049C048F0D00E48262F50D2
:10F0CA004818F00B48182F6E010E456E2FC046F0F7
:10F0DA00680E2AEC75F0F00E346EFE0E356EFAEC00
:10F0EA0070F00C0E596EF90E5A6E110E4918D8A40A
:10F0FA0081EF78F083EF78F08DEF78F0E30E346EDD
:10F10A00FE0E356EFAEC70F00C0E596EF90E5A6E50
:10F11A00CD921200CD82F1EC77F0496E44EC72F098
:10F12A000009D8B49BEF78F09DEF78F0DDEF78F026
:10F13A002F0E4964A3EF78F0A5EF78F0CAEF78F0C4
:10F14A003A0E4960ABEF78F0ADEF78F0CAEF78F09D
:10F15A00495082EC71F049C048F0D00E48262F5031
:10F16A004818F00B48182F6E000E456E2FC046F057
:10F17A00680E2AEC75F0F00E346EFE0E356EFAEC5F
:10F18A0070F00C0E596EF90E5A6E110E4918D8A469
:10F19A00D1EF78F0D3EF78F0DDEF78F0E30E346E4C
:10F1AA00FE0E356EFAEC70F00C0E596EF90E5A6EB0
:10F1BA00CD921200000EBE6E000EBD6E000EBA6E2B
:10F1CA00000EBB6E000EBC6E070EC66EC268BF0E86
:10F1DA00C36EA70EC46EFC0EC56EFC0E3A01706FAC
:10F1EA00670E606F7F0E506F070E806F4069000ECA
:10F1FA00716F000E816F000E516F000E416F000E8D
:10F20A00616F000E5A6F000E5B6F000E6A6F000E80
:10F21A006B6F000E7A6F000E7B6F000E826F000E0E
:10F22A00426F000E526F180E626F000E726F4369C2
:10F23A00536963697369070E836F44695469646922
:10F24A0074690F0E846F0F0EE86F140EE26F160EBC
:10F25A000E6F210E136F220E146F130E166F170EF8
:10F26A00E56F130EE16F1200000E356E33BE42EFEA
:10F27A0079F040EF79F048EF79F0326C331ED8B06C
:10F28A00332A010E356E31BE4FEF79F04DEF79F02A
:10F29A0055EF79F0306C311ED8B0312A010E351A8B
:10F2AA00000E376E000E366E32503310D8B460EF4F
:10F2BA0079F062EF79F08AEF79F0010E346E6AEF35
:10F2CA0079F0D89032363336342A33AE6FEF79F08C
:10F2DA0071EF79F066EF79F0D890363637363250DA
:10F2EA00305C33503158D8A07DEF79F07FEF79F058
:10F2FA0084EF79F03250305E3350315A3680D890EC
:10F30A0033323232342E71EF79F03550D8B490EF6F
:10F31A0079F092EF79F096EF79F0366C371ED8B023
:10F32A00372A36C030F037C031F0120020EE6EF0C6
:10F33A0010EE4AF00B0E6F006FFFE3FFE806FBE2E8
:10F34A00000E576E030E566E2EC02FF02F380F0B7D
:10F35A00300F4D6E564A572A4A0E5624D96E000E61
:10F36A005720DA6E2F500F0B300FDF6E020E562425
:10F37A00566E000E5720576E2DC02FF04A0E562497
:10F38A00D96E000E5720DA6E2F380F0B010B300F93
:10F39A00DF6E564A572A4A0E5624D96E000E572057
:10F3AA00DA6E2F500F0B300FDF6E020E5624566E98
:10F3BA00000E5720576E2CC02FF04A0E5624D96ED5
:10F3CA00000E5720DA6E2F380F0B300FDF6E564AB9
:10F3DA00572A4A0E5624D96E000E5720DA6E2F503D
:10F3EA000F0B300FDF6E4A0E456E000E466E000E92
:10F3FA00486E0B0E476E3E0E3BEC74F01200BE0ECA
:10F40A00376EFF0E386E2EC039F03A6A2DEC7DF059
:10F41A00E00E376EFF0E386E2DC039F03A6A2DECC9
:10F42A007DF0DA0E376EFF0E386E2CC039F03A6A6C
:10F43A002DEC7DF0940E376EFF0E386E2B504D6E0C
:10F44A004E6AD8904D364E365E0E4D24D96E000E59
:10F45A004E20DA6E6F0078FF39F06F0074FF3AF0D1
:10F46A002DEC7DF07E0E376EFF0E386E2AC04DF001
:10F47A001F0E4D164D50396E3A6A2DEC7DF0840EF2
:10F48A00376EFF0E386E29C039F03A6A2DEC7DF0DE
:10F49A00F50E376EFF0E386E28C039F03A6A2DEC39
:10F4AA007DF02AC030F0316A000E336E200E326EC3
:10F4BA0039EC79F030A064EF7AF066EF7AF06EEF0B
:10F4CA007AF0F00E346EFF0E356EFAEC70F074EFCF
:10F4DA007AF0EB0E346EFF0E356EFAEC70F0120015
:10F4EA00CD82F1EC77F04D6E44EC72F00009D8B49D
:10F4FA0081EF7AF083EF7AF0EEEF7AF0090E4D1889
:10F50A00D8A48AEF7AF08CEF7AF094EF7AF0E60ECC
:10F51A00376EFF0E386E2DEC7DF097EF7AF04D5076
:10F52A0082EC71F00D0E4D18D8A49EEF7AF0A0EF80
:10F53A007AF0A3EF7AF00A0E82EC71F06D0E4D1894
:10F54A00D8B4AAEF7AF0ACEF7AF0B5EF7AF04D0EB4
:10F55A004D18D8A4B3EF7AF0B5EF7AF0BFEF7AF08E
:10F56A000B0E376EFF0E386E2DEC7DF0240E596EA1
:10F57A00ED0E5A6E730E4D18D8B4C6EF7AF0C8EF76
:10F58A007AF0D1EF7AF0530E4D18D8A4CFEF7AF073
:10F59A00D1EF7AF0DBEF7AF0F70E376EFE0E386EA7
:10F5AA002DEC7DF0AC0E596EED0E5A6E110E4D1803
:10F5BA00D8A4E2EF7AF0E4EF7AF0EEEF7AF0E30E15
:10F5CA00346EFE0E356EFAEC70F00C0E596EF90EB2
:10F5DA005A6ECD9212003BEC71F00009D8B4F8EFE4
:10F5EA007AF0FAEF7AF029EF7BF007EF7BF0D5ECAF
:10F5FA0070F074EF7BF05CEC70F074EF7BF0000E4F
:10F60A0074EF7BF013C039F014C03AF002D817EF48
:10F61A007BF00500FA6E0750FD6E0850FE6EFF6A19
:10F62A00FA501200010AD8B404EF7BF0030AD8B4E6
:10F63A00FCEF7AF0010AD8B400EF7BF0070AD8B4DD
:10F64A0004EF7BF004EF7BF046EC71F00009D8B4CC
:10F65A0031EF7BF033EF7BF073EF7BF02450030B39
:10F66A000009D8B43BEF7BF03DEF7BF049EF7BF02C
:10F67A00010E3B6E2450030B3C6E3B503C5E245003
:10F68A003C18FC0B3C18246E60007BF0D9FF60002C
:10F69A007FF0DAFFDF503F6E1E4A1F2A2006D8A0ED
:10F6AA00210620502110D8A45DEF7BF05FEF7BF09C
:10F6BA0067EF7BF0C4EC74F03B6E3B503D6E3E6AE4
:10F6CA006BEF7BF0000E3E6E030E3D6E3DC040F0C8
:10F6DA003F50C0EC70F0405074EF7BF0030E120004
:10F6EA00FA0E4A6E580EE82EFED74A2EFCD700D0E4
:10F6FA00800E456E280E466E3E0E2AEC75F0A40E5C
:10F70A00E82EFED7800E456E0E0E466E3E0E2AEC91
:10F71A0075F0A40EE82EFED7800E456E010E466ED9
:10F72A003E0E2AEC75F0200E4A6E2A0EE82EFED7FF
:10F73A004A2EFCD7800E456E020E466E3E0E2AEC0D
:10F74A0075F0A40EE82EFED7800E456E800E466E2A
:10F75A003E0E2AEC75F0A40EE82EFED78C0E456EEE
:10F76A00000E466E000E486E110E476E3E0E3BECC2
:10F77A0074F0800E456EC00E466E3E0E2AEC75F091
:10F78A00A40EE82EFED77A0E456E000E466E000EC7
:10F79A00486E110E476E3E0E3BEC74F0000E4C6E36
:10F7AA00040E4B6E0C0E4A6E340EE82EFED74A2E0D
:10F7BA00FCD74B2EFAD74C2A270E4C64E7EF7BF086
:10F7CA00E9EF7BF0D5EF7BF0800E456E010E466EB9
:10F7DA003E0E2AEC75F0040E4B6E0C0E4A6E340E79
:10F7EA00E82EFED74A2EFCD74B2EFAD712002AC093
:10F7FA0025F025500F0B300F486E25B807EF7CF027
:10F80A000AEF7CF0010E0BEF7CF0000E300F496E10
:10F81A00400E456E49C046F03E0E2AEC75F0400E89
:10F82A00456E48C046F03E0E2AEC75F0400E456E15
:10F83A003A0E466E3E0E2AEC75F029C02FF02F5074
:10F84A000F0B300F486E2F380F0B300F496E400EDA
:10F85A00456E49C046F03E0E2AEC75F0400E456EE4
:10F86A0048C046F03E0E2AEC75F0400E456E3A0E40
:10F87A00466E3E0E2AEC75F028C02FF02F500F0B63
:10F88A00300F486E2F380F0B300F496E400E456E01
:10F89A0049C046F03E0E2AEC75F0400E456E48C04F
:10F8AA0046F03E0E2AEC75F0400E456E200E466E6E
:10F8BA003E0E2AEC75F025AA65EF7CF067EF7CF026
:10F8CA0070EF7CF0400E456E500E466E3E0E2AECEE
:10F8DA0075F077EF7CF0400E456E410E466E3E0E97
:10F8EA002AEC75F0400E456E4D0E466E3E0E2AEC21
:10F8FA0075F0400E456E200E466E3E0E2AEC75F0EF
:10F90A001200CD82F1EC77F0586E0D0E5818D8B46B
:10F91A0091EF7CF093EF7CF0A3EF7CF01F0E58641C
:10F92A0099EF7CF09BEF7CF0A3EF7CF0400E456EE4
:10F93A0058C046F03E0E2AEC75F05B2A090E58189C
:10F94A00D8A4AAEF7CF0ACEF7CF0B5EF7CF0800E87
:10F95A00456E010E466E3E0E2AEC75F0800E5B6E09
:10F96A0044EC72F00009D8B4BDEF7CF0BFEF7CF034
:10F97A00F4EF7CF0090E5818D8A4C6EF7CF0C8EF53
:10F98A007CF0D0EF7CF0E60E376EFF0E386E2DEC71
:10F99A007DF0D3EF7CF0585082EC71F00D0E5818C0
:10F9AA00D8A4DAEF7CF0DCEF7CF0F4EF7CF00A0EFE
:10F9BA0082EC71F0BF0E5B64E5EF7CF0E7EF7CF060
:10F9CA00EBEF7CF0800E5B6EEDEF7CF0C00E5B6EB1
:10F9DA00800E456E5BC046F03E0E2AEC75F0130EA3
:10F9EA005818D8A4FBEF7CF0FDEF7CF007EF7DF010
:10F9FA00B20E346EFE0E356EFAEC70F0EA0E596EE7
:10FA0A00F40E5A6E140E5818D8A40EEF7DF010EFAB
:10FA1A007DF019EF7DF0CEEC71F004EC7AF0FCEC9D
:10FA2A007BF05B500B0F5B6E040E5818D8A420EFC6
:10FA3A007DF022EF7DF02BEF7DF0CEEC71F004EC3F
:10FA4A007AF09BEC79F05B500A0F5B6ECD92120054
:10FA5A00390E446E000E456E25EF7FF0250E4C18C8
:10FA6A00D8B43AEF7DF03CEF7DF041EF7DF04C5099
:10FA7A00CAEC70F025EF7FF0000E4B6E000E4A6E56
:10FA8A00000E406E4CEF7DF04084374A382A600001
:10FA9A00DFF0F6FF6000E3F0F7FFF86A0800F550C0
:10FAAA00300AD8B449EF7DF05BEF7DF06000DFF0FB
:10FABA00F6FF6000E3F0F7FFF86A0800F550C9ECBA
:10FACA0072F0D8A06BEF7DF06DEF7DF045EF7EF020
:10FADA00000E4B6E000E4A6E4AC030F04BC031F039
:10FAEA00000E336E0A0E326E2FEC72F030C04AF0FE
:10FAFA0031C04BF0D00E3B6EFF0E3C6E6000DFF063
:10FB0A00F6FF6000E3F0F7FFF86A0800F5503D6E73
:10FB1A003E6A3B503D263C503E223D504A263E50CE
:10FB2A004B22374A382A6000DFF0F6FF6000E3F024
:10FB3A00F7FFF86A0800F550C9EC72F0D8B0A8EFE0
:10FB4A007DF0AAEF7DF071EF7DF045EF7EF0600069
:10FB5A0013F1D9FF600017F1DAFF6F0078FF46F062
:10FB6A006F0074FF47F0020E4426000E45224650ED
:10FB7A004710D8A4C3EF7DF0C5EF7DF0C9EF7DF043
:10FB8A00B70E466EFF0E476E000E496E000E486EA7
:10FB9A00D1EF7DF0484A492A485046243B6E4950E5
:10FBAA0047203C6E6000EFF0F6FF6000F3F0F7FFCD
:10FBBA00000EF86E0F0EF76403D00800F55007D058
:10FBCA006F00DBFFE9FF6F00DFFFEAFFEF5000097C
:10FBDA00D8A4F2EF7DF0F4EF7DF0CFEF7DF04A503C
:10FBEA00485C4B504958D8B0FDEF7DF0FFEF7DF0EF
:10FBFA0005EF7EF048504A5E49504B5A0EEF7EF0B0
:10FC0A00000E4B6E000E4A6E0EEF7EF0200ECAEC0E
:10FC1A0070F04A06D8A04B064A2806E14B28D8A419
:10FC2A0019EF7EF01BEF7EF00BEF7EF036EF7EF0E1
:10FC3A0060001BF1F6FF60001FF1F7FF000EF86E7F
:10FC4A000F0EF76403D00800F55007D06F00DBFFF2
:10FC5A00E9FF6F00DFFFEAFFEF50CAEC70F0464A97
:10FC6A00472A4806D8A04906482806E14928D8A4C0
:10FC7A0041EF7EF043EF7EF01DEF7EF025EF7FF03F
:10FC8A006000DFF0F6FF6000E3F0F7FF374A382A3A
:10FC9A00F86A08006F00D4FF4CF04C50000AD8B440
:10FCAA003AEF7FF0730AD8B4ACEF7DF00B0AD8B400
:10FCBA0061EF7EF025EF7FF0600013F1D9FF60005D
:10FCCA0017F1DAFF6F0078FF41F06F0074FF42F01E
:10FCDA00020E4426000E4522010E4C6E4C50020DB7
:10FCEA00AA0EF324F66EFE0EF420F76EF86A000EE2
:10FCFA00F8220900F550415C0900F5504258D8B085
:10FD0A0089EF7EF08BEF7EF08DEF7EF097EF7EF03D
:10FD1A004C2A040E4C18D8A495EF7EF097EF7EF08B
:10FD2A0073EF7EF04C503B6E3C6A4A503B5C3C5051
:10FD3A00800A3D6E4B50800A3D58D8B0A7EF7EF03E
:10FD4A00A9EF7EF0AFEF7EF04C504A5E000E4B5AA0
:10FD5A00B3EF7EF0000E4B6E000E4A6E40A4B8EF71
:10FD6A007EF0BAEF7EF0D4EF7EF04A504B10D8B452
:10FD7A00C1EF7EF0C3EF7EF0ECEF7EF0300ECAECFE
:10FD8A0070F04A06D8A04B064A504B10D8A4D0EFC0
:10FD9A007EF0D2EF7EF0C3EF7EF0ECEF7EF04A50B9
:10FDAA004B10D8B4DBEF7EF0DDEF7EF0ECEF7EF0A7
:10FDBA00200ECAEC70F04A06D8A04B064A504B10E7
:10FDCA00D8A4EAEF7EF0ECEF7EF0DDEF7EF04CC0D7
:10FDDA0043F01CEF7FF041C030F042C031F0435095
:10FDEA00020DAA0EF324F66EFE0EF420F76EF86AE0
:10FDFA00000EF82209006F00D4FF32F00A006F00EB
:10FE0A00D4FF33F0D3EC75F030500F0B3F6E1F0E5A
:10FE1A003F24F66EF76AFF0EF722F86A000EF82200
:10FE2A0008006F00D4FF4CF04C50CAEC70F0430647
:10FE3A004328D8A423EF7FF025EF7FF0F0EF7EF080
:10FE4A006000DFF0F6FF6000E3F0F7FF374A382A78
:10FE5A00F86A08006F00D4FF4CF04C50D8A438EF71
:10FE6A007FF03AEF7FF033EF7DF01200008AE13441
:10FE7A00E4E0E1E0F54AEF88E99CECAAE1B8E0BCED
:10FE8A00E0E2E310E108E1B6E118E1C4E174E71C3D
:10FE9A00E8D2E14B505520415053433132393900B1
:10FEAA0001001000000100100D0A0A2A2A53657485
:10FEBA002054696D652A2A0D0A206D20666F72200A
:10FECA006D696E7574650D0A207320666F722073F2
:10FEDA0065636F6E640D0A0A000D0A43616E6365FD
:10FEEA006C2074696D65207365740D0A000D0A45EE
:10FEFA006E746572207365636F6E64732078782000
:10FF0A00000D0A456E746572206D696E75746573AD
:10FF1A002078782000303132333435363738396139
:10FF2A00626364656600094B505520415053433162
:10FF3A003239390D0A0A0009094932432052544319
:10FF4A0020544553540D0A0009092D2D2D2D202D1D
:10FF5A002D2D2D0D0A0A000C09095445535420432E
:10FF6A004F44450D0A0009092D2D2D2D202D2D2D2B
:10FF7A002D0D0A002074696D6520253032783A000B
:10FF8A005765646E65736461790020646179202520
:10FF9A00732C0053617475726461790054687572C8
:10FFAA0073646179005475657364617900286E75AC
:10FFBA006C6C290020323025782F00467269646102
:10FFCA0079004D6F6E6461790053756E64617900D2
:10FFDA00253032782C00253032782F000D0A0A0A93
:10FFEA000020414D0D0020504D0D00253032780083
:01FFFA000006
:04FFFC00E3EF73F0CC
:020000040020DA
:10000000FF0FFF0FFF0FFF0FFF0FFF0FFF0FFF0F80
:020000040030CA
:0A000000ECFEF7FF9FFFFFFFFFFF7C
:00000001FF
