:020000040000FA
:04000000FEEF7FF0A0
:10100000000420141D501F8E10FC131018BA15E296
:101010001F9A209620681D3C204420D41F3420C6EF
:101020001FF019DA18B81F4B505520415053433167
:1010300032393900094B5055204150534331323930
:10104000390D0A0A004932432064617461207365D6
:101050006E740D0A0009092D2D2D2D202D2D2D2DFD
:101060000D0A0A0009092D2D2D2D202D2D2D2D0DB8
:101070000A0009095445535420434F44450D0A00C2
:10108000090949324320544553540D0A000071ECBC
:101090000FF00009D8B44FEF08F051EF08F082EFDD
:1010A00008F05EEF08F0F1EC0FF0CEEF08F04DEC39
:1010B00010F0CEEF08F0000ECEEF08F060004CF01C
:1010C00030F0600050F031F002D870EF08F0050009
:1010D000FA6E0750FD6E0850FE6EFF6AFA5012005D
:1010E000010AD8B45BEF08F0030AD8B453EF08F054
:1010F000010AD8B457EF08F0070AD8B45BEF08F03C
:101100005BEF08F066EC0FF00009D8B48AEF08F046
:101110008CEF08F0CDEF08F02450030B0009D8B491
:1011200094EF08F096EF08F0A2EF08F0010E326E8F
:101130002450030B336E3250335E24503318FC0BB3
:101140003318246E60007BF0D9FF60007FF0DAFF77
:10115000DF50366E1E4A1F2A2006D8A021062050D6
:101160002110D8A4B6EF08F0B8EF08F0C0EF08F0EF
:1011700008EC0CF0326E3250346E356AC4EF08F071
:10118000000E356E030E346E6000D0F037F036502E
:1011900007EC10F03750CEEF08F0030E120042ECCF
:1011A0000FF0ACEC09F0720E296E100E2A6E98EC5E
:1011B0000DF0640E296E100E2A6E98EC0DF0800E64
:1011C000296E100E2A6E98EC0DF0550E296E100E39
:1011D0002A6E98EC0DF0340E296E100E2A6E98ECE3
:1011E0000DF0000E3C6E000E3D6E250E9DEC0BF0DA
:1011F000450E296E100E2A6E98EC0DF00A0E3C6E0C
:10120000FF0E3D6E250E9DEC0BF0450E296E100E67
:101210002A6E98EC0DF0CD805BEC0FF00009D8B48D
:1012200014EF09F016EF09F04DEF09F0CD824AEC0A
:101230000AF0446E48EC0EF00009D8B422EF09F031
:1012400024EF09F033EF09F0445028EC0FF00D0EB5
:101250004418D8A42EEF09F030EF09F033EF09F06D
:101260000A0E28EC0FF05EEC0EF00009D8B43BEF4C
:1012700009F03DEF09F04CEF09F0445035EC0FF068
:101280000D0E4418D8A447EF09F049EF09F04CEFD0
:1012900009F00A0E35EC0FF0CD92CD900BEF09F06E
:1012A000FEEF7FF0000EBE6E000EBD6E000EBA6E39
:1012B000000EBB6E000EBC6E070EC66EC268BF0E7F
:1012C000C36EA70EC46EFC0EC56EFC0E3A01706FA5
:1012D000670E606F7F0E506F070E806F4069000EC3
:1012E000716F000E816F000E516F000E416F000E86
:1012F000616F000E5A6F000E5B6F000E6A6F000E7A
:101300006B6F000E7A6F000E7B6F000E826F000E07
:10131000426F000E526F180E626F000E726F4369BB
:10132000536963697369070E836F4469546964691B
:1013300074690F0E846F0F0EE86F140EE26F160EB5
:101340000E6F210E136F220E146F130E166F170EF1
:10135000E56F130EE16F1200FA0E416E580EE82E83
:10136000FED7412EFCD700D0520E3C6E000E3D6ED3
:10137000000E3F6E010E3E6E3E0E3CEC0CF0A40ED5
:10138000E82EFED7530E3C6E000E3D6E000E3F6EF3
:10139000010E3E6E3E0E3CEC0CF0A40EE82EFED785
:1013A000540E3C6E000E3D6E000E3F6E010E3E6E02
:1013B0003E0E3CEC0CF0200E416E2A0EE82EFED7BD
:1013C000412EFCD7550E3C6E000E3D6E000E3F6E5A
:1013D000010E3E6E3E0E3CEC0CF0A40EE82EFED745
:1013E000600008F13CF060000CF13DF0000E3F6E33
:1013F000010E3E6E3E0E3CEC0CF012007CEC0FF049
:101400000009D8A406EF0AF008EF0AF00BEF0AF083
:10141000040E49EF0AF02450030B0009D8B413EF6F
:101420000AF015EF0AF021EF0AF0010E326E245097
:10143000030B336E3250335E24503318FC0B3318D9
:10144000246E2006D8A0210620502110D8B42BEFFE
:101450000AF02DEF0AF03AEF0AF036EC10F06000D7
:101460007BF0D9FF60007FF0DAFFDF6E1E4A1F2A93
:1014700008EF0AF0DDEC0AF0346E36EC10F0600094
:101480007BF0D9FF60007FF0DAFFDF6E1E4A1F2A73
:10149000345012003901A6A550EF0AF052EF0AF0BD
:1014A0004AEF0AF0000E256E3D01E1A75AEF0AF05F
:1014B0005CEF0AF069EF0AF0258202D869EF0AF0C2
:1014C0000500FA6E4950FD6E4A50FE6EFF6AFA50F2
:1014D00012003D01E1A36FEF0AF071EF0AF07EEF19
:1014E0000AF0258402D87EEF0AF00500FA6E475014
:1014F000FD6E4850FE6EFF6AFA5012002550D8B4B7
:1015000084EF0AF086EF0AF092EF0AF002D892EF29
:101510000AF00500FA6E4550FD6E4650FE6EFF6AF9
:10152000FA5012003D01D0511200276E010E286EB4
:1015300024B69DEF0AF09FEF0AF0DBEF0AF060009F
:101540009CF01DF024942486FC0E24160F0E226EAF
:10155000010E1C6EF40E1B6E2488A20E016E200E6E
:10156000026E000E0D6E000E0E6EA20E036E200EA9
:10157000046E000E0F6E000E106EA20E056E200E91
:10158000066E000E116E000E126EA20E076E200E79
:10159000086E000E136E000E146E9E0E096E200E65
:1015A0000A6E000E156E000E166E26EC10F031EC71
:1015B0000EF0000E286E285012002488FEEF0AF06C
:1015C00039EC10F0080E22EF0BF039EC10F0070E9A
:1015D00022EF0BF020280CEC10F0040E22EF0BF0A1
:1015E000070E2218D8B4F7EF0AF0F9EF0AF0FBEF74
:1015F0000AF03CEC10F00F0E22EF0BF0600034F01C
:1016000030F0600038F031F002D810EF0BF0050038
:10161000FA6E0150FD6E0250FE6EFF6AFA50120023
:10162000010AD8B4F0EF0AF0030AD8B4E5EF0AF0E3
:10163000010AD8B4E0EF0AF0070AD8B4EAEF0AF0DA
:10164000F0EF0AF012002B6E27502810D8B42BEFC1
:101650000BF02DEF0BF04BEF0BF02B50020D010EAA
:10166000F324D96E000EF420DA6E60009FF0DEFFE6
:101670006000A3F0DDFF2B50020D0D0EF324D96E98
:10168000000EF420DA6E6000A7F0DEFF6000ABF021
:10169000DDFF63EF0BF02B50020D010EF324D96E2A
:1016A000000EF420DA6EA20EDE6E200EDD6E2B50E0
:1016B000020D0D0EF324D96E000EF420DA6E000E2A
:1016C000DE6E000EDD6E120023EC0DF02450030BD5
:1016D0000009D8B46EEF0BF070EF0BF07CEF0BF05D
:1016E00071EC0FF00009D8B478EF0BF07AEF0BF043
:1016F0007CEF0BF0100E226E2250020D010EF3242F
:10170000F66E100EF420F76EF86A000EF82209004B
:101710006F00D4FF38F009006F00D4FF39F002D811
:101720009BEF0BF00500FA6E3850FD6E3950FE6EDF
:10173000FF6AFA501200226E12003E6E3E5095EC87
:101740000AF00009D8B4A7EF0BF0A9EF0BF09EEF59
:101750000BF0A20E2C6E1B0E2D6E3D0E2E6E000E8B
:101760002F6EFBEC0EF03C0E276E000E286E000E66
:101770002A6E010E296E9FEC0EF0000E2C6E000EEC
:101780002D6E000E2E6E000E2F6EEBEC0EF016EC92
:1017900010F074EC0EF0E806D8B4D1EF0BF0D3EFF4
:1017A0000BF0C9EF0BF01200000E3D01EC6F000EC4
:1017B000ED6F000EEE6F000EEF6F000EF06F000E7B
:1017C000F16FB00EF26F800EF36F000EF46F670EC4
:1017D000F56F000EF66F000EF76F000EF86F000E3B
:1017E000F96F000EFA6F000E276E000E286ECEEC19
:1017F0000FF0000E276E000E286EC7EC0FF0000EE3
:10180000276E000E286ED5EC0FF0000E266E12002B
:1018100024881BEF0CF039EC10F0070E3BEF0CF0B6
:1018200020280CEC10F0030E3BEF0CF03CEC10F019
:101830000A0E3BEF0CF0600034F030F0600038F03E
:1018400031F002D82DEF0CF00500FA6E0150FD6E5C
:101850000250FE6EFF6AFA501200010AD8B416EF69
:101860000CF0030AD8B40BEF0CF0060AD8B410EF52
:101870000CF016EF0CF01200406E405095EC0AF0A0
:101880000009D8B446EF0CF048EF0CF03DEF0CF037
:101890006000F0F027F06000F4F028F06000F8F04D
:1018A00029F06000FCF02AF09FEC0EF0000E2C6E88
:1018B000000E2D6E000E2E6E000E2F6EEBEC0EF055
:1018C00016EC10F074EC0EF0E806D8B46AEF0CF0E9
:1018D0006CEF0CF062EF0CF0120026EC10F0020E30
:1018E000236E7FEF0CF0F1EC0FF09BEF0CF04DEC62
:1018F00010F09BEF0CF0E3EC0FF09BEF0CF06000AE
:101900003CF030F0600040F031F002D891EF0CF084
:101910000500FA6E0350FD6E0450FE6EFF6AFA5029
:101920001200020AD8B473EF0CF0010AD8B477EFB2
:101930000CF07BEF0CF01200000E3D01D46F000E96
:10194000D66F000ED86FB00EDA6F800EDB6F000E10
:10195000DC6FE10EDD6F040EDE6F000EDF6F000E38
:10196000E06F000EE16F000EE26FA80E276E200EF2
:10197000286EB9EC0FF0A60E276E200E286EB2EC82
:101980000FF0AA0E276E200E286EC0EC0FF0000E8E
:10199000256E12003901A3A1D0EF0CF0D2EF0CF0AC
:1019A000D4EF0CF0F7EF0CF0A2AFD9EF0CF0DBEFB7
:1019B0000CF0DDEF0CF0F7EF0CF03D0179A5E3EF53
:1019C0000CF0E5EF0CF0E7EF0CF0F7EF0CF079AF6F
:1019D000ECEF0CF0EEEF0CF0F0EF0CF0F7EF0CF09A
:1019E00076A9F5EF0CF0F7EF0CF0CAEF0CF012004F
:1019F000FC0E2416020E236E249406EF0DF04BEC21
:101A000010F022EF0DF00F0E22EF0DF0600044F009
:101A100030F0600048F031F002D818EF0DF005000A
:101A2000FA6E0550FD6E0650FE6EFF6AFA50120007
:101A3000020AD8B4FFEF0CF0010AD8B4FFEF0CF0A3
:101A400003EF0DF012009DEC0FF00009D8B42BEF5E
:101A50000DF02DEF0DF031EF0DF045EC10F04BEFE8
:101A60000DF087EC0FF00009D8B439EF0DF03BEF23
:101A70000DF03FEF0DF03FEC10F04BEF0DF092EC5E
:101A80000FF00009D8B447EF0DF049EF0DF04BEF20
:101A90000DF042EC10F012003A6E010E3B6E24B4D1
:101AA00054EF0DF056EF0DF070EF0DF02484000EA2
:101AB0003B6E20500CEC10F03A50D8B462EF0DF0B1
:101AC00064EF0DF06AEF0DF0040E226E8AEC0EF05A
:101AD0006EEF0DF0030E226EA8EC0FF01AEC0FF073
:101AE0003B50120020EE02F03050D9263150DA225D
:101AF0006F0078FF27F06F0074FF28F06000C3F0DC
:101B0000D9FF6000C7F0DAFF6F0078FF29F06F009F
:101B100074FF2AF09FEC0EF0000E2C6E000E2D6E5E
:101B2000000E2E6E000E2F6EFBEC0EF0020E120059
:101B30002B0E2B6E000E2C6EA1EF0DF02D50FDEC38
:101B40000FF06000A7F0F6FF6000ABF0F7FF294A46
:101B50002A2AF86A08006F00D4FF2DF02D50D8A46F
:101B6000B4EF0DF0B6EF0DF09EEF0DF01200900EF9
:101B7000F66E200EF76E000EF86E00EE51F010EECD
:101B800005F009006F00D7FFEEFFE550E150F9E1E5
:101B900000EE01F0260EEE6AE806FDE10001CFEF4F
:101BA00008F06000C0F027F06000C4F028F0000EDC
:101BB0002A6E010E296E9FEC0EF0000E2C6E000EA8
:101BC0002D6E000E2E6E000E2F6EFBEC0EF0040E2E
:101BD00012006000C0F027F06000C4F028F0000E92
:101BE0002A6E020E296E9FEC0EF0000E2C6E000E77
:101BF0002D6E000E2E6E000E2F6EFBEC0EF0020E00
:101C000012006000C0F027F06000C4F028F0000E61
:101C10002A6E010E296E9FEC0EF0000E2C6E000E47
:101C20002D6E000E2E6E000E2F6EFBEC0EF0020ECF
:101C300012006000C0F027F06000C4F028F0000E31
:101C40002A6E020E296E9FEC0EF0000E2C6E000E16
:101C50002D6E000E2E6E000E2F6EFBEC0EF0040E9D
:101C600012003D0173BF37EF0EF039EF0EF047EF72
:101C70000EF0000E796F000E7A6F000E766F6C69B1
:101C8000510E3A016A6F510E6B6F3D01738F120056
:101C9000000E276E3901A6A750EF0EF052EF0EF09E
:101CA0005CEF0EF03D01DAAB58EF0EF05AEF0EF09C
:101CB0005CEF0EF0010E276E27501200000E276E0B
:101CC0003901A3A966EF0EF068EF0EF072EF0EF087
:101CD0003D01F2AB6EEF0EF070EF0EF072EF0EF012
:101CE000010E276E27501200010E276E24B47BEFE1
:101CF0000EF07DEF0EF088EF0EF024961D6826ECB6
:101D000010F00BEC0FF0F7EC0FF060008CF027F008
:101D1000275012002450FC0B0209246E20042110CD
:101D2000D8A495EF0EF097EF0EF099EF0EF0DDECE2
:101D30000AF0D8801D3407EC10F0040E120024A81D
:101D4000A4EF0EF0A6EF0EF0B3EF0EF060009CF0E3
:101D50001EF06000A0F01FF06000A4F020F0600012
:101D6000A8F021F0249812002DEC10F02AEC10F0CD
:101D70000009D8B4BEEF0EF0C0EF0EF0C6EF0EF0C3
:101D8000000E0CEC10F0000E07EC10F0000E12002C
:101D9000000E3901C06F000EC16F000EC26F000E41
:101DA000C36F000EC46F000EC56F000EC66F000E2D
:101DB000C76F1200040E3D01736F800E746F180E12
:101DC000756F030E7B6F000E796F000E7A6F000E39
:101DD000766F6C6912006000B0F027F06000B4F01C
:101DE00028F06000B8F029F06000BCF02AF0020E84
:101DF00023EC0BF012006000B0F027F06000B4F0AC
:101E000028F06000B8F029F06000BCF02AF0000E65
:101E100023EC0BF01200390193939395929F9391C9
:101E20003D017A917A957A9F7A9D7A937693769509
:101E30007691120020EF0FF0CAEC0CF064EC0BF07E
:101E400024B425EF0FF027EF0FF01CEF0FF0120076
:101E5000276E3901A6A72FEF0FF031EF0FF029EF12
:101E60000FF060009FF0D2FD1200276E3901A3A988
:101E70003CEF0FF03EEF0FF036EF0FF060009FF0F9
:101E8000EAFD1200C8EC0EF052EC09F04FEC0FF036
:101E90009CEC0CF0D4EC0BF0DAEC0EF01200600EBF
:101EA0003901D96F000EDB6F000EDD6F070EDF6F9B
:101EB000000EDE6F12003901A6B561EF0FF064EF7E
:101EC0000FF0010E65EF0FF0000E12003D0178BB20
:101ED0006CEF0FF06FEF0FF0010E70EF0FF0000ED0
:101EE00012003D0174BB77EF0FF07AEF0FF0010E97
:101EF0007BEF0FF0000E12003D0178B182EF0FF082
:101F000085EF0FF0010E86EF0FF0000E12003D017D
:101F100079B58DEF0FF090EF0FF0010E91EF0FF00C
:101F2000000E12003D0176B998EF0FF09BEF0FF015
:101F3000010E9CEF0FF0000E12003D0179BFA3EFE0
:101F40000FF0A6EF0FF0010EA7EF0FF0000E12003A
:101F50002450FC0B0209246E1D501D2407EC10F0C8
:101F6000030E120060009CF047F06000A0F048F003
:101F7000120060009CF049F06000A0F04AF01200EE
:101F800060009CF045F06000A0F046F01200600098
:101F90009CF04DF06000A0F04EF0120060009CF04C
:101FA0004FF06000A0F050F0120060009CF04BF089
:101FB0006000A0F04CF0120011EC10F02494020E1E
:101FC000236E0F0E120011EC10F02494000E236EFD
:101FD0000F0E120030EC10F02DEC10F002EC10F0AF
:101FE000120020500CEC10F08AEC0EF012003D01B3
:101FF000739F000E796F78851200286E285028ECA8
:102000000FF012002494000E236E0F0E1200276EA4
:1020100060009FF06BFD1200276E60009FF06CFD6A
:1020200012003D01739F7885738F1200000E4CECF7
:102030000DF0120030EC10F0090E120033EC10F02D
:10204000040E120033EC10F0030E1200000E3D01DE
:10205000796F12003D016C5112003D01739B12001B
:102060003D01748D12003D01749D12003D016A51C5
:1020700012003D01738D12003D01739D12003D0160
:10208000799512003D01769912003D01799F120069
:052090003E280E0102D4
:10209600010E1200020E1200050E1200010E1200B1
:0620A600120012001200FE
:04FFFC00B7EF0DF05E
:020000040020DA
:10000000FF0FFF0FFF0FFF0FFF0FFF0FFF0FFF0F80
:020000040030CA
:0A000000ECFEF7FF9FFFFFFFFFFF7C
:00000001FF
