:020000040000FA
:04000000FEEF7FF0A0
:10FF160000018EEF7FF094EC7FF090EF7FF0FEEF24
:10FF26007FF0A7EC7FF0B9EC7FF09BEC7FF012003E
:10FF3600600E3901D96F000EDB6F000EDD6F070E04
:10FF4600DF6F000EDE6F1200000E3901C06F000E6B
:10FF5600C16F000EC26F000EC36F000EC46F000E9D
:10FF6600C56F000EC66F000EC76F1200000EBE6E84
:10FF7600000EBD6E000EBA6E000EBB6E000EBC6E9D
:10FF8600070EC66EC268C368C468C5683A01706960
:10FF96003F0E606F5069070E806F4069000E716FEB
:10FFA600000E816F000E516F000E416F000E616FE3
:10FFB600000E5A6F000E5B6F000E6A6F000E6B6FBD
:10FFC600000E7A6F000E7B6F000E826F000E426F7E
:10FFD600000E526F000E626F000E726F4369536916
:10FFE60063697369070E836F446954696469746948
:0AFFF6000F0E846F12008BEF7FF0F6
:020000040020DA
:10000000FF0FFF0FFF0FFF0FFF0FFF0FFF0FFF0F80
:020000040030CA
:0A000000ECFFF7FF9FFFFFFFFFFF7B
:00000001FF
