:020000040000FA
:04000000FEEF7FF0A0
:10E6CC001200120012001200010E1200050E1200B0
:10E6DC00020E1200010E1200BAF6803E3D01799F27
:10E6EC0012003D01769912003D01799512003D0111
:10E6FC00739D12003D01738D12003D016A51120091
:10E70C003D01749D12003D01748D12003D01739BFF
:10E71C0012003D016C511200000E3D01796F120088
:10E72C0086EC73F0030E120086EC73F0040E1200EC
:10E73C0089EC73F0090E1200000E66EC76F01200F4
:10E74C00010E66EC76F012002EC054F02FC055F07E
:10E75C0012002EC058F02FC059F012002EC056F0E7
:10E76C002FC057F012002EC04EF02FC04FF01200E9
:10E77C002EC052F02FC053F012002EC050F02FC0FC
:10E78C0051F012003D01739F7885738F12002E6E2D
:10E79C006000BBF06CFD12002E6E6000BBF06BFDD8
:10E7AC0012002494000E236E0F0E12002F6E2F50A9
:10E7BC0094EC74F012003D01739F000E796F788514
:10E7CC0012002050CDEC73F01BEC75F0120089ECAC
:10E7DC0073F08CEC73F0D7EC73F01200C8EC73F0A0
:10E7EC002494000E236E0F0E1200C8EC73F02494C8
:10E7FC00020E236E0F0E12002450FC0B0209246E25
:10E80C001D501D24D2EC73F0030E120032C030F0F8
:10E81C0033C031F0FCEC75F00A0EDCEC73F0120036
:10E82C003901A6B51CEF74F01FEF74F0010E20EF48
:10E83C0074F0000E12003D0179BF27EF74F02AEF3F
:10E84C0074F0010E2BEF74F0000E12003D0176B93E
:10E85C0032EF74F035EF74F0010E36EF74F0000EF9
:10E86C0012003D0179B53DEF74F040EF74F0010EEC
:10E87C0041EF74F0000E12003D0178B148EF74F0D6
:10E88C004BEF74F0010E4CEF74F0000E12003D01D2
:10E89C0074BB53EF74F056EF74F0010E57EF74F035
:10E8AC00000E12003D0178BB5EEF74F061EF74F066
:10E8BC00010E62EF74F0000E1200600E3901D96F78
:10E8CC00000EDB6F000EDD6F070EDF6F000EDE6FCC
:10E8DC00120033C02EF034C02FF035C030F036C0EB
:10E8EC0031F0000E3EEC79F0120033C02EF034C043
:10E8FC002FF035C030F036C031F0020E3EEC79F01E
:10E90C001200E0EC74F0A1EC7AF063EC74F063ECC0
:10E91C0077F0F1EC77F0BEEC74F012002E6E39014A
:10E92C00A6A79BEF74F09DEF74F095EF74F0600068
:10E93C00BBF0D2FD1200A7EF74F091EC77F092ECE3
:10E94C0078F024B4ACEF74F0AEEF74F0A3EF74F085
:10E95C001200390193939395929F93913D017A9173
:10E96C007A957A9F7A9D7A93769376957691120022
:10E97C00040E3D01736F800E746F180E756F030ECD
:10E98C007B6F000E796F000E7A6F000E766F6C69DC
:10E99C00120024A8D4EF74F0D6EF74F0DFEF74F00B
:10E9AC002EC01EF02FC01FF030C020F031C021F05F
:10E9BC0024981200000E3901C06F000EC16F000EBA
:10E9CC00C26F000EC36F000EC46F000EC56F000E39
:10E9DC00C66F000EC76F12008CEC73F08FEC73F0E7
:10E9EC000009D8B4FCEF74F0FEEF74F004EF75F08E
:10E9FC00000ECDEC73F0000ED2EC73F0000E120092
:10EA0C00010E2E6E24B40DEF75F00FEF75F019EFAB
:10EA1C0075F024961D6892EC73F0AFEC74F0E1EC99
:10EA2C0073F023C02EF02E5012002450FC0B020960
:10EA3C00246E20042110D8A426EF75F028EF75F071
:10EA4C002AEF75F07FEC79F0D8801D34D2EC73F09E
:10EA5C00040E12002E5030026F00CCFF32F06F000B
:10EA6C00D0FF33F02E503102F35033262F503002AA
:10EA7C00F350332632C02EF033C02FF0120037C0C3
:10EA8C002EF038C02FF0000E316E020E306ECFEC2F
:10EA9C0074F0000E336E000E346E000E356E000EE8
:10EAAC00366E6FEC74F0040E120037C02EF038C0C6
:10EABC002FF0000E316E010E306ECFEC74F0000EA4
:10EACC00336E000E346E000E356E000E366E6FEC2B
:10EADC0074F0020E120037C02EF038C02FF0000E6A
:10EAEC00316E020E306ECFEC74F0000E336E000EF1
:10EAFC00346E000E356E000E366E6FEC74F0020E36
:10EB0C00120037C02EF038C02FF0000E316E010EFF
:10EB1C00306ECFEC74F0000E336E000E346E000EBF
:10EB2C00356E000E366E6FEC74F0040E1200000E93
:10EB3C002E6E3901A6A7A5EF75F0A7EF75F0B1EF12
:10EB4C0075F03D01DAABADEF75F0AFEF75F0B1EFED
:10EB5C0075F0010E2E6E2E5012003D0173BFB9EFF1
:10EB6C0075F0BBEF75F0C9EF75F0000E796F000E04
:10EB7C007A6F000E766F6C69510E3A016A6F510E06
:10EB8C006B6F3D01738F1200306E000E2F6E3A0EBC
:10EB9C003060D3EF75F0D5EF75F0DFEF75F02F0E19
:10EBAC003064DBEF75F0DDEF75F0DFEF75F0010E23
:10EBBC002F6E2FC02EF02E301200D5FFB8FF93FF12
:10EBCC00AFFFCEFFA6FFDCFF404D6963726F636F32
:10EBDC006E74726F6C6C65727300404B50552041B3
:10EBEC005053433132393920496E74000BEF76F0B3
:10EBFC006000C3F0F6FF6000C7F0F7FFF86A08008A
:10EC0C00F550DCEC73F0304A312A6000C3F0F6FFAB
:10EC1C006000C7F0F7FFF86A0800F5500009D8A4A7
:10EC2C001AEF76F01CEF76F0FEEF75F01200476EDF
:10EC3C004750C3EC79F00009D8B427EF76F029EFF0
:10EC4C0076F01EEF76F043C02EF044C02FF045C096
:10EC5C0030F046C031F0CFEC74F0A6EC73F006EC5B
:10EC6C0075F0E806D8B43DEF76F03FEF76F035EF6F
:10EC7C0076F0120020EE02F03750D9263850DA2206
:10EC8C006F0078FF2EF06F0074FF2FF06000DFF044
:10EC9C00D9FF6000E3F0DAFF6F0078FF30F06F000F
:10ECAC0074FF31F0CFEC74F0000E336E000E346E46
:10ECBC00000E356E000E366E6FEC74F0020E120004
:10ECCC00416E010E426E24B46EEF76F070EF76F06A
:10ECDC008AEF76F02484000E426E2050CDEC73F057
:10ECEC004150D8B47CEF76F07EEF76F084EF76F07E
:10ECFC00040E226E1BEC75F088EF76F0030E226E7C
:10ED0C0002EC74F0A1EC74F04250120021EC74F09F
:10ED1C000009D8B494EF76F096EF76F09AEF76F08F
:10ED2C0074EC73F0B4EF76F037EC74F00009D8B4EF
:10ED3C00A2EF76F0A4EF76F0A8EF76F07AEC73F011
:10ED4C00B4EF76F02CEC74F00009D8B4B0EF76F098
:10ED5C00B2EF76F0B4EF76F077EC73F01200FC0EB5
:10ED6C002416020E236E2494C3EF76F070EC73F02D
:10ED7C00DDEF76F00F0EDDEF76F011C037F012C03C
:10ED8C0038F002D8D3EF76F00500FA6E0550FD6E20
:10ED9C000650FE6EFF6AFA501200020AD8B4BCEF9D
:10EDAC0076F0010AD8B4BCEF76F0C0EF76F0120022
:10EDBC00C60EF66EEB0EF76E000EF86E00EE60F0FF
:10EDCC0010EE32F009006F00D7FFEEFFE550E15076
:10EDDC00F9E1E40EF66EE60EF76E000EF86E00EE3C
:10EDEC005AF010EE04F009006F00D7FFEEFFE5506B
:10EDFC00E150F9E100EE01F02D0EEE6AE806FDE1BE
:10EE0C00000125EF78F092EC73F0020E236E1BEFED
:10EE1C0077F0E7EC73F035EF77F06EEC73F035EFDD
:10EE2C0077F0F4EC73F035EF77F00FC037F010C0DB
:10EE3C0038F002D82BEF77F00500FA6E0350FD6E18
:10EE4C000450FE6EFF6AFA501200020AD8B40FEF9B
:10EE5C0077F0010AD8B413EF77F017EF77F01200C0
:10EE6C00476E4750C3EC79F00009D8B440EF77F007
:10EE7C0042EF77F037EF77F043C02EF044C02FF01D
:10EE8C0045C030F046C031F0CFEC74F0000E336E5C
:10EE9C00000E346E000E356E000E366E7BEC74F088
:10EEAC00A2EC73F006EC75F0E806D8B460EF77F0DE
:10EEBC0062EF77F058EF77F01200000E3D01D46F3F
:10EECC00000ED66F000ED86FB00EDA6F800EDB6FAF
:10EEDC00000EDC6FE10EDD6F040EDE6F000EDF6FD7
:10EEEC00000EE06F000EE16F000EE26FCE0E2E6E84
:10EEFC00E60E2F6EBEEC73F0D00E2E6EE60E2F6E5D
:10EF0C00C3EC73F0CC0E2E6EE60E2F6EB9EC73F0D4
:10EF1C00000E256E12003901A3A197EF77F099EF3F
:10EF2C0077F09BEF77F0BEEF77F0A2AFA0EF77F022
:10EF3C00A2EF77F0A4EF77F0BEEF77F03D0179A563
:10EF4C00AAEF77F0ACEF77F0AEEF77F0BEEF77F09B
:10EF5C0079AFB3EF77F0B5EF77F0B7EF77F0BEEFAF
:10EF6C0077F076A9BCEF77F0BEEF77F091EF77F002
:10EF7C0012002488D2EF77F080EC73F0070EF0EFDC
:10EF8C0077F02028CDEC73F0030EF0EF77F07DECEA
:10EF9C0073F00A0EF0EF77F00DC037F00EC038F0BA
:10EFAC0002D8E2EF77F00500FA6E0150FD6E0250C8
:10EFBC00FE6EFF6AFA501200010AD8B4CDEF77F05A
:10EFCC00030AD8B4C2EF77F0060AD8B4C7EF77F0CB
:10EFDC00CDEF77F01200000E3D01EC6F000EED6FDF
:10EFEC00000EEE6F000EEF6F000EF06F000EF16F63
:10EFFC00B00EF26F800EF36F000EF46F670EF56FAC
:10F00C00000EF66F000EF76F000EF86F000EF96F22
:10F01C00000EFA6F000E2E6E000E2F6EAFEC73F01A
:10F02C00000E2E6E000E2F6EB4EC73F0000E2E6ED2
:10F03C00000E2F6EAAEC73F0000E266E120087ECF9
:10F04C0074F0E1EC7CF06A0E356EFF0E366E68ECF7
:10F05C007DF0790E356EFF0E366E68EC7DF04A0E43
:10F06C00356EFF0E366E68EC7DF05B0E356EFF0E66
:10F07C00366E68EC7DF0390E356EFF0E366E68EC30
:10F08C007DF0DBEC7BF0CD8016EC74F00009D8B48D
:10F09C0052EF78F054EF78F056EF78F05DEC7BF0AF
:10F0AC00CD9049EF78F0FEEF7FF0456E4550C3EC04
:10F0BC0079F00009D8B465EF78F067EF78F05CEF81
:10F0CC0078F00E0E336EEB0E346E440E356E000E71
:10F0DC00366E6FEC74F0430E2E6E000E2F6E000E1B
:10F0EC00316E010E306ECFEC74F0000E336E000EEC
:10F0FC00346E000E356E000E366E7BEC74F0A2ECA6
:10F10C0073F006EC75F0E806D8B48FEF78F091EF59
:10F11C0078F087EF78F012008CEC76F02450030B2B
:10F12C000009D8B49CEF78F09EEF78F0AAEF78F055
:10F13C004DEC74F00009D8B4A6EF78F0A8EF78F095
:10F14C00AAEF78F0100E226E2250020DED0EF32471
:10F15C00F66EFE0EF420F76EF86A000EF822090027
:10F16C006F00D4FF3FF009006F00D4FF40F002D8CD
:10F17C00C9EF78F00500FA6E3F50FD6E4050FE6E00
:10F18C00FF6AFA501200226E1200446E000E456E99
:10F19C004450C3EC79F00009D8B4D7EF78F0D9EF2C
:10F1AC0078F0CEEF78F0B60E336EEA0E346E450E74
:10F1BC00356E000E366E6FEC74F0430E2E6E000E34
:10F1CC002F6E000E316E010E306ECFEC74F0000E0F
:10F1DC00336E000E346E000E356E000E366E7BEC08
:10F1EC0074F0A2EC73F006EC75F0E806D8B401EFFD
:10F1FC0079F003EF79F0F9EF78F01200000E336E2E
:10F20C00000E326E30503110D8B40FEF79F011EF90
:10F21C0079F039EF79F0010E346E19EF79F0D8905E
:10F22C0030363136342A31AE1EEF79F020EF79F0DA
:10F23C0015EF79F0D8903236333630502E5C315091
:10F24C002F58D8A02CEF79F02EEF79F033EF79F01E
:10F25C0030502E5E31502F5A3280D89031323032AD
:10F26C00342E20EF79F032C02EF033C02FF0120084
:10F27C00326E2E502F10D8B446EF79F048EF79F05B
:10F28C0066EF79F03250020D010EF324D96E000EA8
:10F29C00F420DA6E6000BBF0DEFF6000BFF0DDFF33
:10F2AC003250020D0D0EF324D96E000EF420DA6EDE
:10F2BC006000C3F0DEFF6000C7F0DDFF7EEF79F089
:10F2CC003250020D010EF324D96E000EF420DA6ECA
:10F2DC00D40EDE6EE60EDD6E3250020D0D0EF324F2
:10F2EC00D96E000EF420DA6E000EDE6E000EDD6EAE
:10F2FC0012002488A0EF79F080EC73F0080EC2EFB6
:10F30C0079F080EC73F0070EC2EF79F02028CDEC89
:10F31C0073F0040EC2EF79F0070E2218D8B499EFEF
:10F32C0079F09BEF79F09DEF79F07DEC73F00F0E97
:10F33C00C2EF79F00DC037F00EC038F002D8B0EF44
:10F34C0079F00500FA6E0150FD6E0250FE6EFF6AF8
:10F35C00FA501200010AD8B492EF79F0030AD8B42B
:10F36C0087EF79F0010AD8B482EF79F0070AD8B4A4
:10F37C008CEF79F092EF79F012002E6E010E2F6E59
:10F38C0024B6CBEF79F0CDEF79F008EF7AF02EC000
:10F39C001DF024942486FC0E24160F0E226E010EF2
:10F3AC001C6EF40E1B6E2488D40E016EE60E026EDB
:10F3BC00000E0D6E000E0E6ED40E036EE60E046E75
:10F3CC00000E0F6E000E106ED40E056EE60E066E5D
:10F3DC00000E116E000E126ED40E076EE60E086E45
:10F3EC00000E136E000E146ED80E096EE60E0A6E29
:10F3FC00000E156E000E166E92EC73F0B3EC75F0F9
:10F40C00000E2F6E2F5012003901A6A510EF7AF0C6
:10F41C0012EF7AF00AEF7AF0000E256E3D01E1A7AB
:10F42C001AEF7AF01CEF7AF029EF7AF0258202D8E5
:10F43C0029EF7AF00500FA6E5250FD6E5350FE6EB5
:10F44C00FF6AFA5012003D01E1A32FEF7AF031EF81
:10F45C007AF03EEF7AF0258402D83EEF7AF0050080
:10F46C00FA6E5050FD6E5150FE6EFF6AFA5012004B
:10F47C002550D8B444EF7AF046EF7AF052EF7AF098
:10F48C0002D852EF7AF00500FA6E4E50FD6E4F50D6
:10F49C00FE6EFF6AFA5012003D01D051120042EC90
:10F4AC0074F00009D8A45DEF7AF05FEF7AF062EFA8
:10F4BC007AF0040EA0EF7AF02450030B0009D8B4B4
:10F4CC006AEF7AF06CEF7AF078EF7AF0010E396E21
:10F4DC002450030B3A6E39503A5E24503A18FC0B08
:10F4EC003A18246E2006D8A0210620502110D8B43A
:10F4FC0082EF7AF084EF7AF091EF7AF083EC73F08C
:10F50C0060007BF0D9FF60007FF0DAFFDF6E1E4AEF
:10F51C001F2A5FEF7AF07FEC79F03B6E83EC73F08F
:10F52C0060007BF0D9FF60007FF0DAFFDF6E1E4ACF
:10F53C001F2A3B501200000EBE6E000EBD6E000E58
:10F54C00BA6E000EBB6E000EBC6E070EC66EC268A5
:10F55C00BF0EC36EA70EC46EFC0EC56EFC0E3A0138
:10F56C00706F670E606F7F0E506F070E806F406973
:10F57C00000E716F000E816F000E516F000E416F07
:10F58C00000E616F000E5A6F000E5B6F000E6A6FFB
:10F59C00000E6B6F000E7A6F000E7B6F000E826F89
:10F5AC00000E426F000E526F180E626F000E726FDB
:10F5BC004369536963697369070E836F44695469BE
:10F5CC00646974690F0E846F0F0EE86F140EE26F8E
:10F5DC00160E0E6F210E136F220E146F130E166F74
:10F5EC00170EE56F130EE16F1200000E336E31BE75
:10F5FC0004EF7BF002EF7BF00AEF7BF0306C311EF6
:10F60C00D8B0312A010E336E2FBE11EF7BF00FEF05
:10F61C007BF017EF7BF02E6C2F1ED8B02F2A010E2B
:10F62C00331A000E356E000E346E30503110D8B4D3
:10F63C0022EF7BF024EF7BF04CEF7BF0010E326E6F
:10F64C002CEF7BF0D89030363136322A31AE31EF98
:10F65C007BF033EF7BF028EF7BF0D89034363536E7
:10F66C0030502E5C31502F58D8A03FEF7BF041EF3B
:10F67C007BF046EF7BF030502E5E31502F5A3480A9
:10F68C00D89031323032322E33EF7BF03350D8B445
:10F69C0052EF7BF054EF7BF058EF7BF0346C351E5F
:10F6AC00D8B0352A34C02EF035C02FF01200CD82E0
:10F6BC000AEC7AF04D6E0D0E4D18D8B468EF7BF055
:10F6CC006AEF7BF072EF7BF0400E436E4DC044F05E
:10F6DC003E0E5BEC78F05C2A090E4D18D8A479EF3D
:10F6EC007BF07BEF7BF084EF7BF0800E436E010EA2
:10F6FC00446E3E0E5BEC78F0800E5C6E9DEC75F00B
:10F70C000009D8B48CEF7BF08EEF7BF0C3EF7BF06D
:10F71C00090E4D18D8A495EF7BF097EF7BF09FEF77
:10F72C007BF0F20E356EFF0E366E68EC7DF0A2EFBC
:10F73C007BF04D5094EC74F00D0E4D18D8A4A9EF3D
:10F74C007BF0ABEF7BF0C3EF7BF00A0E94EC74F024
:10F75C00BF0E5C64B4EF7BF0B6EF7BF0BAEF7BF0DE
:10F76C00800E5C6EBCEF7BF0C00E5C6E800E436E48
:10F77C005CC044F03E0E5BEC78F0130E4D18D8A430
:10F78C00CAEF7BF0CCEF7BF0CEEF7BF069EC73F043
:10F79C00140E4D18D8A4D5EF7BF0D7EF7BF0D9EF32
:10F7AC007BF0DBEC7BF0CD921200120E436E680EF8
:10F7BC00CBEC78F0270E436E000E446E000E466EB6
:10F7CC00070E456E680E1DEC76F0C70E356EFF0EFB
:10F7DC00366E2DC037F0386A68EC7DF0CA0E356E87
:10F7EC00FF0E366E2CC037F0386A68EC7DF0F70EE1
:10F7FC00356EFF0E366E2BC037F0386A68EC7DF034
:10F80C009D0E356EFF0E366E2A504B6E4C6AD8909C
:10F81C004B364C365E0E4B24D96E000E4C20DA6EF5
:10F82C006F0078FF37F06F0074FF38F068EC7DF0F4
:10F83C00870E356EFF0E366E29C04BF01F0E4B1621
:10F84C004B50376E386A68EC7DF08D0E356EFF0EBE
:10F85C00366E28C037F0386A68EC7DF0ED0E356EE8
:10F86C00FF0E366E27C037F0386A68EC7DF029C081
:10F87C002EF02F6A000E316E200E306EFBEC7AF0FB
:10F88C002EA04BEF7CF04DEF7CF055EF7CF0E80EAA
:10F89C00326EFF0E336E0CEC74F05BEF7CF0E30E0B
:10F8AC00326EFF0E336E0CEC74F012004DEC74F0F3
:10F8BC000009D8B464EF7CF066EF7CF095EF7CF037
:10F8CC0073EF7CF0E7EC73F0E0EF7CF06EEC73F030
:10F8DC00E0EF7CF0000EE0EF7CF013C037F014C0CA
:10F8EC0038F002D883EF7CF00500FA6E0750FD6EFD
:10F8FC000850FE6EFF6AFA501200010AD8B470EF7D
:10F90C007CF0030AD8B468EF7CF0010AD8B46CEF31
:10F91C007CF0070AD8B470EF7CF070EF7CF058ECF8
:10F92C0074F00009D8B49DEF7CF09FEF7CF0DFEF12
:10F93C007CF02450030B0009D8B4A7EF7CF0A9EF9E
:10F94C007CF0B5EF7CF0010E396E2450030B3A6E4F
:10F95C0039503A5E24503A18FC0B3A18246E600069
:10F96C007BF0D9FF60007FF0DAFFDF503D6E1E4A5E
:10F97C001F2A2006D8A0210620502110D8A4C9EF98
:10F98C007CF0CBEF7CF0D3EF7CF0BFEC77F0396EF2
:10F99C0039503B6E3C6AD7EF7CF0000E3C6E030E88
:10F9AC003B6E3BC03EF03D50D2EC73F03E50E0EF6E
:10F9BC007CF0030E1200FA0E486E580EE82EFED79D
:10F9CC00482EFCD700D0800E436E280E446E3E0E9F
:10F9DC005BEC78F0A40EE82EFED7800E436E0E0E74
:10F9EC00446E3E0E5BEC78F0A40EE82EFED7800E33
:10F9FC00436E010E446E3E0E5BEC78F0200E486EAA
:10FA0C002A0EE82EFED7482EFCD7800E436E020E2F
:10FA1C00446E3E0E5BEC78F0A40EE82EFED7800E02
:10FA2C00436E800E446E3E0E5BEC78F0A40EE82E16
:10FA3C00FED7800E436E000E446E000E466E110E05
:10FA4C00456E3E0E36EC77F0800E436EC00E446E63
:10FA5C003E0E5BEC78F0A40EE82EFED76E0E436ED5
:10FA6C00000E446E000E466E110E456E3E0E36ECC8
:10FA7C0077F0000E4A6E040E496E0C0E486E340E72
:10FA8C00E82EFED7482EFCD7492EFAD74A2A270E45
:10FA9C004A6453EF7DF055EF7DF041EF7DF0800E21
:10FAAC00436E010E446E3E0E5BEC78F0040E496E14
:10FABC000C0E486E340EE82EFED7482EFCD7492E7D
:10FACC00FAD71200370E426E000E436E60EF7FF0D5
:10FADC00250E4A18D8B475EF7DF077EF7DF07CEFEA
:10FAEC007DF04A50DCEC73F060EF7FF0000E496E55
:10FAFC00000E486E000E3E6E87EF7DF03E84354A58
:10FB0C00362A6000D7F0F6FF6000DBF0F7FFF86AEA
:10FB1C000800F550300AD8B484EF7DF096EF7DF0F4
:10FB2C006000D7F0F6FF6000DBF0F7FFF86A080022
:10FB3C00F550CAEC75F0D8A0A6EF7DF0A8EF7DF0DB
:10FB4C0080EF7EF0000E496E000E486E48C02EF01D
:10FB5C0049C02FF0000E316E0A0E306E30EC75F08D
:10FB6C002EC048F02FC049F0D00E396EFF0E3A6E01
:10FB7C006000D7F0F6FF6000DBF0F7FFF86A0800D2
:10FB8C00F5503B6E3C6A39503B263A503C223B5078
:10FB9C0048263C504922354A362A6000D7F0F6FFF9
:10FBAC006000DBF0F7FFF86A0800F550CAEC75F05E
:10FBBC00D8B0E3EF7DF0E5EF7DF0ACEF7DF080EFBA
:10FBCC007EF060000BF1D9FF60000FF1DAFF6F00DF
:10FBDC0078FF44F06F0074FF45F0020E4226000ED1
:10FBEC00432244504510D8A4FEEF7DF000EF7EF088
:10FBFC0004EF7EF0C00E446EFF0E456E000E476E95
:10FC0C00000E466E0CEF7EF0464A472A46504424BE
:10FC1C00396E475045203A6E6000E7F0F6FF600001
:10FC2C00EBF0F7FF000EF86E0F0EF76403D0080030
:10FC3C00F55007D06F00DBFFE9FF6F00DFFFEAFF35
:10FC4C00EF500009D8A42DEF7EF02FEF7EF00AEFD5
:10FC5C007EF04850465C49504758D8B038EF7EF09B
:10FC6C003AEF7EF040EF7EF04650485E4750495ADE
:10FC7C0049EF7EF0000E496E000E486E49EF7EF0A3
:10FC8C00200EDCEC73F04806D8A04906482806E1A3
:10FC9C004928D8A454EF7EF056EF7EF046EF7EF064
:10FCAC0071EF7EF0600013F1F6FF600017F1F7FFC3
:10FCBC00000EF86E0F0EF76403D00800F55007D055
:10FCCC006F00DBFFE9FF6F00DFFFEAFFEF50DCECBA
:10FCDC0073F0444A452A4606D8A04706462806E152
:10FCEC004728D8A47CEF7EF07EEF7EF058EF7EF0B4
:10FCFC0060EF7FF06000D7F0F6FF6000DBF0F7FFFD
:10FD0C00354A362AF86A08006F00D4FF4AF04A5088
:10FD1C00000AD8B475EF7FF0730AD8B4E7EF7DF022
:10FD2C000B0AD8B49CEF7EF060EF7FF060000BF113
:10FD3C00D9FF60000FF1DAFF6F0078FF3FF06F0022
:10FD4C0074FF40F0020E4226000E4322010E4A6E52
:10FD5C004A50020D200EF324F66EFF0EF420F76EBF
:10FD6C00F86A000EF8220900F5503F5C0900F550C6
:10FD7C004058D8B0C4EF7EF0C6EF7EF0C8EF7EF0EE
:10FD8C00D2EF7EF04A2A040E4A18D8A4D0EF7EF0A7
:10FD9C00D2EF7EF0AEEF7EF04A50396E3A6A4850A0
:10FDAC00395C3A50800A3B6E4950800A3B58D8B0B7
:10FDBC00E2EF7EF0E4EF7EF0EAEF7EF04A50485E30
:10FDCC00000E495AEEEF7EF0000E496E000E486EA2
:10FDDC003EA4F3EF7EF0F5EF7EF00FEF7FF048508E
:10FDEC004910D8B4FCEF7EF0FEEF7EF027EF7FF0E9
:10FDFC00300EDCEC73F04806D8A049064850491088
:10FE0C00D8A40BEF7FF00DEF7FF0FEEF7EF027EF25
:10FE1C007FF048504910D8B416EF7FF018EF7FF000
:10FE2C0027EF7FF0200EDCEC73F04806D8A04906D3
:10FE3C0048504910D8A425EF7FF027EF7FF018EF3A
:10FE4C007FF04AC041F057EF7FF03FC02EF040C02A
:10FE5C002FF04150020D200EF324F66EFF0EF4200D
:10FE6C00F76EF86A000EF82209006F00D4FF30F02C
:10FE7C000A006F00D4FF31F004EC79F02E500F0B18
:10FE8C003D6E280E3D24F66EF76AFF0EF722F86AD7
:10FE9C00000EF82208006F00D4FF4AF04A50DCEC48
:10FEAC0073F041064128D8A45EEF7FF060EF7FF03D
:10FEBC002BEF7FF06000D7F0F6FF6000DBF0F7FF70
:10FECC00354A362AF86A08006F00D4FF4AF04A50C7
:10FEDC00D8A473EF7FF075EF7FF06EEF7DF012001A
:10FEEC0000AEE736EA04E8B8F8AAF47EEFFEF2CEEC
:10FEFC00E7DCE6E0E6E4E934E72CE7DAE73CE7E8C0
:10FF0C00E76AED12EEF6E74B505520415053433162
:10FF1C003239390001001000000100103031323349
:10FF2C0034353637383961626364656600094B5085
:10FF3C00552041505343313239390D0A0A00090911
:10FF4C004932432052544320544553540D0A00095E
:10FF5C00092D2D2D2D202D2D2D2D0D0A0A000C09CE
:10FF6C00095445535420434F44450D0A0009092DAB
:10FF7C002D2D2D202D2D2D2D0D0A002074696D6534
:10FF8C0020253032783A005765646E657364617968
:10FF9C0000206461792025732C00536174757264A0
:10FFAC006179005468757273646179005475657376
:10FFBC0064617900286E756C6C29002032302578CC
:10FFCC002F00467269646179004D6F6E646179002F
:10FFDC0053756E6461790020414D0D0020504D0D1C
:10FFEC000025303278000D0A0A0A0025782C000012
:04FFFC00DEEF76F0CE
:020000040020DA
:10000000FF0FFF0FFF0FFF0FFF0FFF0FFF0FFF0F80
:020000040030CA
:0A000000ECFEF7FF9FFFFFFFFFFF7C
:00000001FF
