:020000040000FA
:04000000FEEF7FF0A0
:10DDAC00120012001200120012001200026E025039
:10DDBC004DEC6FF01200600004F0D2F0600008F03F
:10DDCC00D3F01200600004F0D6F0600008F0D7F039
:10DDDC001200600004F0D4F0600008F0D5F01200DE
:10DDEC00600004F0CCF0600008F0CDF01200600090
:10DDFC0004F0D0F0600008F0D1F01200600004F0E4
:10DE0C00CEF0600008F0CFF0120041505343313295
:10DE1C00393900286E756C6C290068EC6FF06FEC6A
:10DE2C0073F034EC6FF0CCEC70F0FBEC70F0120093
:10DE3C003901A6B524EF6FF027EF6FF0010E28EF34
:10DE4C006FF0000E12003901A3B72FEF6FF032EF15
:10DE5C006FF0010E33EF6FF0000E1200620E3901FD
:10DE6C00D96F000EDB6F000EDD6F070EDF6F000E3B
:10DE7C00DE6F1200016E3901A3A947EF6FF049EF75
:10DE8C006FF041EF6FF0600007F0EAFD1200016ED9
:10DE9C003901A6A754EF6FF056EF6FF04EEF6FF00D
:10DEAC00600007F0D2FD12008DEC6FF00009D8B4C1
:10DEBC0062EF6FF064EF6FF05AEF6FF0BC0E40EC56
:10DECC006FF01200000E3901C06F000EC16F000E12
:10DEDC00C26F000EC36F000EC46F000EC56F000E34
:10DEEC00C66F000EC76F120020EEBCF010EE08F0EB
:10DEFC00080E6F006FFFE3FFE806FBE2080E026EF0
:10DF0C00000E036E080E046E1FEC73F01200000E70
:10DF1C00016E3901A3A995EF6FF097EF6FF0A1EFA8
:10DF2C006FF03D01F2AB9DEF6FF09FEF6FF0A1EF43
:10DF3C006FF0010E016E01501200000E016E3901DE
:10DF4C00A6A7ABEF6FF0ADEF6FF0B7EF6FF03D0141
:10DF5C00DAABB3EF6FF0B5EF6FF0B7EF6FF0010E18
:10DF6C00016E015012009C0E0001A06F000EA16FFB
:10DF7C00000E946F000E956F600068F296F06000D2
:10DF8C006CF297F0A00E986F000E996F69EC71F01F
:10DF9C001200160EF66EDE0EF76E000EF86E00EE28
:10DFAC00BCF010EE10F009006F00D7FFEEFFE5504B
:10DFBC00E150F9E100EE60F0340EEE6AE806FDE1A6
:10DFCC0000014FEF7AF0600004F003F0600008F0FD
:10DFDC0004F0F3EF6FF0014A022A600007F0D9FF5A
:10DFEC0060000BF0DAFFDF50D8A4FFEF6FF001EF09
:10DFFC0070F0F1EF6FF00350015C016E04500258A9
:10E00C00026E1200000E126E000E116E1CEF70F0FC
:10E01C00600040F003F0046A600038F005F0600026
:10E02C003CF006F078EC74F0114A122A11500C24D2
:10E03C00D96E12500D20DA6EDF50106E1050D8A42D
:10E04C002AEF70F02CEF70F00EEF70F0120014BE8F
:10E05C003AEF70F0145006E11304D8B038EF70F0BA
:10E06C003AEF70F04CEF70F060004CF015F060007F
:10E07C0050F016F0151E161E154A162A600054F0A4
:10E08C0013F0600058F014F052EF70F060004CF098
:10E09C0013F0600050F014F012008DEC6FF00009DA
:10E0AC00D8B45BEF70F05DEF70F053EF70F0B90E19
:10E0BC0040EC6FF08DEC6FF00009D8B468EF70F0A5
:10E0CC006AEF70F060EF70F0000E40EC6FF08DECCA
:10E0DC006FF00009D8B475EF70F077EF70F06DEF5A
:10E0EC0070F0010E40EC6FF012008DEC6FF0000937
:10E0FC00D8B483EF70F085EF70F07BEF70F0B80E52
:10E10C0040EC6FF08DEC6FF00009D8B490EF70F02C
:10E11C0092EF70F088EF70F0010E40EC6FF08DEC28
:10E12C006FF00009D8B49DEF70F09FEF70F095EF91
:10E13C0070F02D0E40EC6FF01200026E8DEC6FF053
:10E14C000009D8B4ACEF70F0AEEF70F0A4EF70F043
:10E15C00B80E40EC6FF08DEC6FF00009D8B4B9EF4D
:10E16C0070F0BBEF70F0B1EF70F0010E40EC6FF09F
:10E17C008DEC6FF00009D8B4C6EF70F0C8EF70F0FA
:10E18C00BEEF70F0025040EC6FF01200000E3D013B
:10E19C00D46F000ED66F000ED86FB00EDA6F800EF3
:10E1AC00DB6F000EDC6F380EDD6F010EDE6F000EC4
:10E1BC00DF6F000EE06F000EE16F000EE26FAE0E2F
:10E1CC00016EDD0E026EFDEC6EF0B00E016EDD0E1A
:10E1DC00026E04EC6FF0AC0E016EDD0E026EF6EC0E
:10E1EC006EF0000E0001686F1200000E3D01EC6F26
:10E1FC00000EED6F000EEE6F000EEF6F000EF06F65
:10E20C00000EF16FB00EF26F800EF36F000EF46F14
:10E21C00190EF56F000EF66F000EF76F000EF86F0B
:10E22C00000EF96F000EFA6FB40E016EDD0E026E69
:10E23C00E8EC6EF0B60E016EDD0E026EEFEC6EF0D9
:10E24C00B20E016EDD0E026EE1EC6EF0000E0001FE
:10E25C00696F12009E0E0001A26F000EA36F60008A
:10E26C0068F2A4F060006CF2A5F0000EA76F000E2F
:10E27C00A66F000EA96F000EA86FA40E946F000E6F
:10E28C00956F600070F296F0600074F297F0A20E39
:10E29C00986F000E996F69EC71F0600050F2A0F06D
:10E2AC00600054F2A1F00001A6519A25D96EA75135
:10E2BC009B21DA6E000EDF6E600080F29AF0600037
:10E2CC0084F29BF01200600058F25EF060005CF289
:10E2DC005FF0000E0001616F000E606F8DEF71F04A
:10E2EC00600050F242F0600054F243F05E0E446E57
:10E2FC00000E456E600060F246F0600064F247F07C
:10E30C004CEC7DF0425000016027435061236000CB
:10E31C007BF1F6FF60007FF1F7FFF86A0800F5501B
:10E32C000009D8A49CEF71F09EEF71F076EF71F0BC
:10E33C00600080F194F0600084F195F012008DEC97
:10E34C006FF00009D8B4ADEF71F0AFEF71F0A5EF3D
:10E35C0071F0BA0E40EC6FF029EC6FF00009D8B4F4
:10E36C00BAEF71F0BCEF71F0B2EF71F0C8EF71F071
:10E37C0029EC6FF00009D8B4C6EF71F0C8EF71F05A
:10E38C00BEEF71F081EC72F0630AD8A4D0EF71F09B
:10E39C00D2EF71F0BEEF71F08DEC6FF00009D8B4D4
:10E3AC00DAEF71F0DCEF71F0D2EF71F0B70E40ECF8
:10E3BC006FF0DB0E026EFF0E036E080E046E1FEC88
:10E3CC0073F012007D0E00019A6FFF0E9B6FB9EC7B
:10E3DC006FF08DEC6FF00009D8B4F7EF71F0F9EF36
:10E3EC0071F0EFEF71F0B10E40EC6FF029EC6FF0C3
:10E3FC000009D8B404EF72F006EF72F0FCEF71F084
:10E40C0081EC72F00001A66F29EC6FF00009D8B412
:10E41C0012EF72F014EF72F00AEF72F081EC72F0FE
:10E42C000001A76FE40E9A6FFF0E9B6FA751A56FAB
:10E43C00A46BA651A4259C6F000EA5219D6FB9EC71
:10E44C006FF00001A751A56FA46BA651A425A26F74
:10E45C00000EA521A36F12003901A6A538EF72F0AA
:10E46C003AEF72F032EF72F0000E0001686F3D016E
:10E47C00E1A743EF72F045EF72F053EF72F0000139
:10E48C00688302D853EF72F00500FA6ED051FD6E1E
:10E49C00D151FE6EFF6AFA5012003D01E1A359EF13
:10E4AC0072F05BEF72F069EF72F00001688502D8D0
:10E4BC0069EF72F00500FA6ECE51FD6ECF51FE6E13
:10E4CC00FF6AFA50120000016851D8B470EF72F074
:10E4DC0072EF72F07EEF72F002D87EEF72F00500F0
:10E4EC00FA6ECC51FD6ECD51FE6EFF6AFA501200E1
:10E4FC003D01D05112003901A3A787EF72F089EFCB
:10E50C0072F081EF72F0000E0001696F3D01F9A706
:10E51C0092EF72F094EF72F0A2EF72F00001698347
:10E52C0002D8A2EF72F00500FA6ED651FD6ED751EB
:10E53C00FE6EFF6AFA5012003D01F9A3A8EF72F0CB
:10E54C00AAEF72F0B8EF72F00001698502D8B8EF4B
:10E55C0072F00500FA6ED451FD6ED551FE6EFF6A55
:10E56C00FA50120000016951D8B4BFEF72F0C1EF3C
:10E57C0072F0CDEF72F002D8CDEF72F00500FA6EAA
:10E58C00D251FD6ED351FE6EFF6AFA5012003D015E
:10E59C00E85112008DEC6FF00009D8B4D8EF72F08E
:10E5AC00DAEF72F0D0EF72F0BB0E40EC6FF08DEC46
:10E5BC006FF00009D8B4E5EF72F0E7EF72F0DDEF21
:10E5CC0072F0320E40EC6FF08DEC6FF00009D8B4A5
:10E5DC00F2EF72F0F4EF72F0EAEF72F0010E40EC31
:10E5EC006FF08DEC6FF00009D8B4FFEF72F001EF13
:10E5FC0073F0F7EF72F0140E40EC6FF08DEC6FF0DF
:10E60C000009D8B40CEF73F00EEF73F004EF73F055
:10E61C00030E40EC6FF08DEC6FF00009D8B419EFDD
:10E62C0073F01BEF73F011EF73F0BA0E40EC6FF058
:10E63C001200000E076E8DEC6FF00009D8B429EFB4
:10E64C0073F02BEF73F021EF73F0B80E40EC6FF01A
:10E65C008DEC6FF00009D8B436EF73F038EF73F02F
:10E66C002EEF73F0045040EC6FF065EF73F08DEC0F
:10E67C006FF00009D8B445EF73F047EF73F065EF16
:10E68C0073F007500224056E000E0320066E600026
:10E69C0017F0F6FF60001BF0F7FF000EF86E0F0E80
:10E6AC00F76403D00800F55007D06F00DBFFE1FFE3
:10E6BC006F00DFFFE2FFE75040EC6FF0072A0450D9
:10E6CC00075CD8A06CEF73F06EEF73F03DEF73F056
:10E6DC001200000EBE6E000EBD6E000EBA6E000E65
:10E6EC00BB6E000EBC6E070EC66EC268BF0EC36E4C
:10E6FC00BF0EC46EFC0EC56E3A0170697F0E606F62
:10E70C005F0E506F070E806F4069000E716F000E28
:10E71C00816F000E516F000E416F000E616F000E85
:10E72C005A6F000E5B6F000E6A6F000E6B6F000E5F
:10E73C007A6F000E7B6F000E826F000E426F000E20
:10E74C00526F000E626F000E726F436953696369FA
:10E75C007369070E836F44695469646974690F0E99
:10E76C00846F0F0EE86F160E0E6F130E166F170ECA
:10E77C00E56F1200000E0001AC6F000EAE6F060EBE
:10E78C00AD6F8DEC6FF00009D8B4CFEF73F0D1EF13
:10E79C0073F0C7EF73F0810E40EC6FF0ECEF73F099
:10E7AC0029EC6FF00009D8B4DEEF73F0E0EF73F0F2
:10E7BC00ECEF73F0A50E0001AC25D96EDA6A000EF1
:10E7CC00DA2281EC72F0DF6E0001AC2B0001AC514F
:10E7DC00A26FA36BAD51A25DA351800AA46FAE5181
:10E7EC00800AA459D8A0FDEF73F0FFEF73F0D6EFB9
:10E7FC0073F0A50EAD25D96E000EAE21DA6E000EAB
:10E80C00DF6EB90E9A6FFE0E9B6FA50E9C6F000EFD
:10E81C009D6FB9EC6FF0A50E026E000E036E6000DA
:10E82C00B4F204F01FEC73F01200000E0001B66F8E
:10E83C00E8EC71F0600088F2B3F060008CF2B4F098
:10E84C00AA0E00019A6F000E9B6FF40E9C6FFF0EC8
:10E85C009D6F6000CCF29EF06000D0F29FF030EC27
:10E86C0071F000019A51B56F8DEC6FF00009D8B4BE
:10E87C0042EF74F044EF74F03AEF74F0B80E40ECE1
:10E88C006FF08DEC6FF00009D8B44FEF74F051EFCE
:10E89C0074F047EF74F00001B55140EC6FF06DEF80
:10E8AC0074F08DEC6FF00009D8B45FEF74F061EF89
:10E8BC0074F06DEF74F0AA0E0001B625D96EDA6A09
:10E8CC00000EDA22DF5040EC6FF00001B62B000195
:10E8DC00B551B65DD8A075EF74F077EF74F057EFC3
:10E8EC0074F0120005500610D8B47FEF74F081EF6D
:10E8FC0074F08AEF74F005500610D8A488EF74F009
:10E90C008AEF74F08FEF74F00350DCEC6EF0E3EFF1
:10E91C0074F020EE04F00550D9260650DA22DE50B1
:10E92C00DE10D8B49CEF74F09EEF74F0B9EF74F075
:10E93C0020EE04F00550D9260650DA2210EE02F033
:10E94C000550E1260650E222DE50E65CE650800AD5
:10E95C000B6EDE50800A0B58D8B0B7EF74F0B9EFDD
:10E96C0074F0E3EF74F020EE02F00550D926065057
:10E97C00DA226F0078FF07F06F0074FF08F0600078
:10E98C0017F0D9FF60001BF0DAFF6F0078FF09F079
:10E99C006F0074FF0AF007500924D96E08500A2042
:10E9AC00DA6E60000FF0DFFF20EE02F00550D92682
:10E9BC000650DA22DE2A000EDD22120009500A105F
:10E9CC000B100C100D100E100F101010D8B4F1EF1E
:10E9DC0074F0F3EF74F03BEF75F0010E116E01EF74
:10E9EC0075F0D89009360A360B360C360D360E36C5
:10E9FC000F361036112A10AE06EF75F008EF75F0D1
:10EA0C00F7EF74F00950015C0A5002580B50035890
:10EA1C000C5004580D5005580E5006580F500758FE
:10EA2C0010500858D8A01DEF75F01FEF75F02FEFA0
:10EA3C0075F00950015E0A50025A0B50035A0C50E3
:10EA4C00045A0D50055A0E50065A0F50075A1050C2
:10EA5C00085AD89010320F320E320D320C320B3263
:10EA6C000A320932112E08EF75F0600004F001F043
:10EA7C00600008F002F060000CF003F0600010F091
:10EA8C0004F0600014F005F0600018F006F060006F
:10EA9C001CF007F0600020F008F01200000166A1E5
:10EAAC005AEF75F05CEF75F06AEF75F0600054F09A
:10EABC000CF0600058F00DF060004CF00EF06000AF
:10EACC0050F00FF008EC70F018BE6FEF75F071EFAE
:10EADC0075F079EF75F060005CF01CF0600060F090
:10EAEC001DF07DEF75F0000E1D6E000E1C6E000EFD
:10EAFC001B6E000E1A6E91EF75F0000E046E200E58
:10EB0C00036E60004CF005F0600050F006F078ECFD
:10EB1C0074F01A4A1B2A1C501A5C1B50800A196E7E
:10EB2C001D50800A1958D8A09EEF75F0A0EF75F013
:10EB3C0083EF75F0000166B1A6EF75F0A8EF75F0E4
:10EB4C00B6EF75F0600054F00CF0600058F00DF06A
:10EB5C0060004CF00EF0600050F00FF008EC70F01C
:10EB6C00600054F001F0600058F002F0E9EC6FF036
:10EB7C001C500124136E1D500220146E1200660EE0
:10EB8C0000019A6FFF0E9B6FB9EC6FF08DEC6FF07C
:10EB9C000009D8B4D4EF75F0D6EF75F0CCEF75F062
:10EBAC00CD82870E40EC6FF0000E0001B26F29ECA5
:10EBBC006FF00009D8B4E5EF75F0E7EF75F0DDEF15
:10EBCC0075F0A80E0001B225D96EDA6A000EDA22B1
:10EBDC0081EC72F0DF6E29EC6FF00009D8B4F9EF1C
:10EBEC0075F0FBEF75F0F1EF75F0AD0E0001B2258D
:10EBFC00D96EDA6A000EDA2281EC72F0DF6EAD0E9D
:10EC0C000001B225D96EDA6A000EDA22DF50A46F49
:10EC1C00A451A66FA56BA80EB225D96EDA6A000EA8
:10EC2C00DA22DF50A76FA751A527000EA623B251F9
:10EC3C00020D8A0EF324D96E000EF420DA6E6000F9
:10EC4C0097F2DEFF60009BF2DDFFB22B040EB26583
:10EC5C0032EF76F034EF76F0DDEF75F0CD928A0E70
:10EC6C00A26F000EA36F120020EE11F0070EDE6AE9
:10EC7C00E806FDE209500A100B100C100D100E10D6
:10EC8C000F101010D8B44DEF76F04FEF76F0A1EFD7
:10EC9C0076F0010E196E5DEF76F0D89009360A36D3
:10ECAC000B360C360D360E360F361036192A10AEC2
:10ECBC0062EF76F064EF76F053EF76F0D890113681
:10ECCC0012361336143615361636173618360950D2
:10ECDC00015C0A5002580B5003580C5004580D504C
:10ECEC0005580E5006580F50075810500858D8A009
:10ECFC0082EF76F084EF76F095EF76F00950015EB6
:10ED0C000A50025A0B50035A0C50045A0D50055A13
:10ED1C000E50065A0F50075A1050085A1180D890AE
:10ED2C0010320F320E320D320C320B320A320932E3
:10ED3C00192E64EF76F0600044F001F0600048F0AA
:10ED4C0002F060004CF003F0600050F004F0600042
:10ED5C0054F005F0600058F006F060005CF007F02D
:10ED6C00600060F008F01200000E126E08BEC3EFD7
:10ED7C0076F0C1EF76F0D5EF76F0081E071E061E72
:10ED8C00051E041E031E021E016C000E022203222D
:10ED9C0004220522062207220822010E126E10BE42
:10EDAC00DCEF76F0DAEF76F0ECEF76F0101E0F1E5B
:10EDBC000E1E0D1E0C1E0B1E0A1E096C000E0A22C6
:10EDCC000B220C220D220E220F22102209500A10A7
:10EDDC000B100C100D100E100F101010D8B4F9EF02
:10EDEC0076F0FBEF76F043EF77F0010E116E09EF42
:10EDFC0077F0D89009360A360B360C360D360E36AF
:10EE0C000F361036112A10AE0EEF77F010EF77F0A8
:10EE1C00FFEF76F00950015C0A5002580B50035872
:10EE2C000C5004580D5005580E5006580F500758EA
:10EE3C0010500858D8A025EF77F027EF77F037EF70
:10EE4C0077F00950015E0A50025A0B50035A0C50CD
:10EE5C00045A0D50055A0E50065A0F50075A1050AE
:10EE6C00085AD89010320F320E320D320C320B324F
:10EE7C000A320932112E10EF77F01250D8B449EF44
:10EE8C0077F04BEF77F05BEF77F0081E071E061E4E
:10EE9C00051E041E031E021E016C000E022203221C
:10EEAC0004220522062207220822600004F001F049
:10EEBC00600008F002F060000CF003F0600010F04D
:10EECC0004F0600014F005F0600018F006F060002B
:10EEDC001CF007F0600020F008F01200000E126E1B
:10EEEC0010BE7DEF77F07BEF77F08FEF77F0101E91
:10EEFC000F1E0E1E0D1E0C1E0B1E0A1E096C000E84
:10EF0C000A220B220C220D220E220F221022010E9D
:10EF1C00126E08BE96EF77F094EF77F0A8EF77F0CB
:10EF2C00081E071E061E051E041E031E021E016C73
:10EF3C00000E0222032204220522062207220822A6
:10EF4C00010E121A20EE13F0070EDE6AE806FDE23F
:10EF5C0009500A100B100C100D100E100F10101081
:10EF6C00D8B4BBEF77F0BDEF77F00FEF78F0010E70
:10EF7C00116ECBEF77F0D89009360A360B360C367B
:10EF8C000D360E360F361036112A10AED0EF77F044
:10EF9C00D2EF77F0C1EF77F0D890133614361536E0
:10EFAC0016361736183619361A360950015C0A50BF
:10EFBC0002580B5003580C5004580D5005580E5065
:10EFCC0006580F50075810500858D8A0F0EF77F09B
:10EFDC00F2EF77F003EF78F00950015E0A50025A15
:10EFEC000B50035A0C50045A0D50055A0E50065A29
:10EFFC000F50075A1050085A1380D89010320F3205
:10F00C000E320D320C320B320A320932112ED2EF83
:10F01C0077F01250D8B415EF78F017EF78F027EF9F
:10F02C0078F01A1E191E181E171E161E151E141EF9
:10F03C00136C000E142215221622172218221922E4
:10F04C001A2260004CF001F0600050F002F06000F9
:10F05C0054F003F0600058F004F060005CF005F030
:10F06C00600060F006F0600064F007F0600068F08B
:10F07C0008F0120020EEC5F010EE11F0060E6F0035
:10F08C006FFFE3FFE806FBE2600038F01CF0600065
:10F09C003CF01DF01C501D10D8A457EF78F059EF20
:10F0AC0078F05DEF78F0110E1C6E000E1D6E600096
:10F0BC0070F001F0600074F002F0E9EC6FF06000A9
:10F0CC0004F020F0600008F021F0600090F11EF0D8
:10F0DC00600094F11FF01FBE76EF78F078EF78F0B7
:10F0EC008FEF78F020501E5C1F50800A106E21505C
:10F0FC00800A1058D8A085EF78F087EF78F089EF68
:10F10C0078F08FEF78F0600078F020F060007CF001
:10F11C0021F0600080F01EF0600084F01FF06000B1
:10F12C0088F11AF060008CF11BF0000166B1A1EFC0
:10F13C0078F0A3EF78F0C2EF78F0B3EF78F0000E30
:10F14C00046E200E036E600030F005F0600034F0A9
:10F15C0006F078EC74F0204A212A1A50205C2150D9
:10F16C00800A106E1B50800A1058D8A0C0EF78F09F
:10F17C00C2EF78F0A5EF78F0000E196E000E186E45
:10F18C00DFEF78F0600073F0D9FF600077F0DAFF02
:10F19C00DF50106E1050036E046A600030F005F002
:10F1AC00600034F006F078EC74F01C4A1D2A184A02
:10F1BC00192A1E50185C1950800A106E1F50800AB4
:10F1CC001058D8A0ECEF78F0EEEF78F0C8EF78F0AC
:10F1DC00000166A1F4EF78F0F6EF78F015EF79F016
:10F1EC0006EF79F0000E046E200E036E600030F016
:10F1FC0005F0600034F006F078EC74F0204A212A17
:10F20C001A50205C2150800A106E1B50800A105836
:10F21C00D8A013EF79F015EF79F0F8EF78F06000E3
:10F22C0080F00CF0600084F00DF01200000165BF5E
:10F23C0022EF79F024EF79F025EF79F0669365BF32
:10F24C0032EF79F0655106E16405D8B030EF79F012
:10F25C0032EF79F038EF79F0000E316E010E306E2E
:10F26C003EEF79F0600090F130F0600094F131F0F5
:10F27C00600088F132F060008CF133F0600080F0B7
:10F28C0034F0600084F035F0600088F036F06000F7
:10F29C008CF037F0600090F038F0600094F039F0AA
:10F2AC00600098F03AF060009CF03BF0000E3D6E70
:10F2BC001F0E3C6E000E896FFAEF79F03C06D8A059
:10F2CC003D066A0E3C24D96E000E3D20DA6E6000BD
:10F2DC00D0F001F06000D4F002F06000D8F003F040
:10F2EC006000DCF004F06000E0F005F06000E4F099
:10F2FC0006F06000E8F007F06000ECF008F00A0E91
:10F30C00096E000E0A6E000E0B6E000E0C6E000ED7
:10F31C000D6E000E0E6E000E0F6E000E106EE4ECF5
:10F32C0074F0600004F028F0600008F029F0600030
:10F33C000CF02AF0600010F02BF0600014F02CF0B0
:10F34C00600018F02DF060001CF02EF0600020F032
:10F35C002FF02850300FDF6E3006D8A03106320661
:10F36C00D8A033066000D0F001F06000D4F002F0B9
:10F37C006000D8F003F06000DCF004F06000E0F016
:10F38C0005F06000E4F006F06000E8F007F06000C3
:10F39C00ECF008F00A0E096E000E0A6E000E0B6EF1
:10F3AC00000E0C6E000E0D6E000E0E6E000E0F6E2B
:10F3BC00000E106E3AEC76F0600004F034F0600051
:10F3CC0008F035F060000CF036F0600010F037F00B
:10F3DC00600014F038F0600018F039F060001CF098
:10F3EC003AF0600020F03BF03C503D10D8B401EFF7
:10F3FC007AF003EF7AF034EF7AF03450351036109F
:10F40C003710381039103A103B10D8A410EF7AF09E
:10F41C0012EF7AF064EF79F031BE1FEF7AF03150D1
:10F42C0006E13004D8B01DEF7AF01FEF7AF064EFEC
:10F43C0079F033BE2AEF7AF0335008E13204D8A0C9
:10F44C002AEF7AF02CEF7AF034EF7AF0000166B301
:10F45C0032EF7AF034EF7AF064EF79F0600078F004
:10F46C0013F060007CF014F06A0E3C24156E000E54
:10F47C003D20166E6000C8F017F06000CCF018F05C
:10F48C0054EC75F060004CF01EF0600050F01FF072
:10F49C00120013EC6FF0A40E00019A6FFF0E9B6F1D
:10F4AC00B9EC6FF0D00E00019A6FFF0E9B6FB9ECA8
:10F4BC006FF0C30E00019A6FFF0E9B6FB9EC6FF0EB
:10F4CC004D0E00019A6FFF0E9B6FB9EC6FF0330E6F
:10F4DC0000019A6FFF0E9B6FB9EC6FF0DC0E000110
:10F4EC009A6FFE0E9B6FB9EC6FF0930E00019A6F42
:10F4FC00FF0E9B6FB9EC6FF0190E00019A6FFF0EA7
:10F50C009B6FB9EC6FF0FD0E00019A6FFE0E9B6FB6
:10F51C00B9EC6FF0470E00019A6FFE0E9B6FB9ECC1
:10F52C006FF0950E00019A6FFE0E9B6FB9EC6FF0A9
:10F53C006F0E00019A6FFE0E9B6FB9EC6FF0B50E5B
:10F54C0000019A6FFF0E9B6FB9EC6FF01BEC74F01F
:10F55C0053EC70F0CBAAB5EF7AF0B7EF7AF0C1EFBD
:10F56C007AF0EF0E026EFF0E036E040E046E1FECAB
:10F57C0073F0C9EF7AF0EC0E026EFF0E036E070EFD
:10F58C00046E1FEC73F0CBAACEEF7AF0D0EF7AF0CA
:10F59C000BEF7BF0A5EC71F0D0EC72F0C5EC75F0D4
:10F5AC00600088F2B9F060008CF2BAF0180E00011D
:10F5BC00B76F5F0EE82EFED7B72FFCD76000E7F2CF
:10F5CC00D9FF6000EBF2DAFFF50EDE5C010EDE58BF
:10F5DC00D8B0F3EF7AF0F5EF7AF007EF7BF000019B
:10F5EC0020EE08F0B951D926BA51DA22F50EDE5CBC
:10F5FC00010EDE58D8A005EF7BF007EF7BF0D4EFBF
:10F60C007AF05AEC6FF009EF7BF0CD801EEC6FF0C6
:10F61C000009D8B414EF7BF016EF7BF0A1EF7BF070
:10F62C00CD8232EC72F00001BB6FA3EC6FF00009DD
:10F63C00D8B423EF7BF025EF7BF036EF7BF00001A5
:10F64C00BB514DEC6FF00D0E0001BB19D8A431EF7E
:10F65C007BF033EF7BF036EF7BF00A0E4DEC6FF066
:10F66C00310E0001BB19D8A43EEF7BF040EF7BF0CC
:10F67C0044EF7BF0E8EC71F0A0EF7BF0320EBB199D
:10F68C00D8A44BEF7BF04DEF7BF051EF7BF01BECF4
:10F69C0074F0A0EF7BF0400EBB19D8A458EF7BF0B0
:10F6AC005AEF7BF05EEF7BF0C0EC73F0A0EF7BF0D9
:10F6BC00630EBB19D8A465EF7BF067EF7BF06CEFA2
:10F6CC007BF0B70E40EC6FF0A0EF7BF02D0EBB196A
:10F6DC00D8A473EF7BF075EF7BF079EF7BF07BECCC
:10F6EC0070F0A0EF7BF07E0EBB19D8A480EF7BF0FE
:10F6FC0082EF7BF086EF7BF07AEC6FF0A0EF7BF083
:10F70C000D0EBB19D8A48DEF7BF08FEF7BF093EF30
:10F71C007BF053EC70F0A0EF7BF01F0EBB6599EF04
:10F72C007BF09BEF7BF0A0EF7BF0BB51A3EC70F078
:10F73C00A0EF7BF0CD92CD900BEF7BF0FEEF7FF046
:10F74C00600080F038F0600084F039F0600088F0E0
:10F75C003AF060008CF03BF0600090F03CF0600000
:10F76C0094F03DF0600098F03EF060009CF03FF0AB
:10F77C003FBEC3EF7BF0C6EF7BF0010EC7EF7BF013
:10F78C00000E366E376A36503710D8B4D0EF7BF097
:10F79C00D2EF7BF0E2EF7BF03F1E3E1E3D1E3C1E87
:10F7AC003B1E3A1E391E386C000E39223A223B227F
:10F7BC003C223D223E223F22000165BFE8EF7BF058
:10F7CC00EAEF7BF0EBEF7BF0669365BFF8EF7BF035
:10F7DC00655106E16405D8B0F6EF7BF0F8EF7BF0ED
:10F7EC00FEEF7BF0000E336E010E326E04EF7CF0F8
:10F7FC00600090F132F0600094F133F0600088F119
:10F80C0034F060008CF135F036503710D8A411EF7D
:10F81C007CF013EF7CF01AEF7CF066A518EF7CF00F
:10F82C001AEF7CF01DEF7CF03406D8A03506000EE4
:10F83C00416E1F0E406E000E896FC3EF7CF04006C8
:10F84C00D8A041066A0E4024D96E000E4120DA6E13
:10F85C006000E0F001F06000E4F002F06000E8F01D
:10F86C0003F06000ECF004F06000F0F005F06000D4
:10F87C00F4F006F06000F8F007F06000FCF008F01F
:10F88C000A0E096E000E0A6E000E0B6E000E0C6E48
:10F89C00000E0D6E000E0E6E000E0F6E000E106E32
:10F8AC00BAEC76F0600004F028F0600008F029F063
:10F8BC0060000CF02AF0600010F02BF0600014F0E7
:10F8CC002CF0600018F02DF060001CF02EF06000A1
:10F8DC0020F02FF06000A0F013F06000A8F014F0FE
:10F8EC002DEC70F01350300FDF6E3206D8A03306BB
:10F8FC003406D8A035066000E0F001F06000E4F0BA
:10F90C0002F06000E8F003F06000ECF004F060003E
:10F91C00F0F005F06000F4F006F06000F8F007F08D
:10F92C006000FCF008F00A0E096E000E0A6E000E64
:10F93C000B6E000E0C6E000E0D6E000E0E6E000E99
:10F94C000F6E000E106E74EC77F0600004F038F05F
:10F95C00600008F039F060000CF03AF0600010F034
:10F96C003BF0600014F03CF0600018F03DF06000DB
:10F97C001CF03EF0600020F03FF041BECEEF7CF07A
:10F98C00415008E14004D8A0CEEF7CF0D0EF7CF0E1
:10F99C0001EF7DF0385039103A103B103C103D10FF
:10F9AC003E103F10D8A4DDEF7CF0DFEF7CF025EFAC
:10F9BC007CF033BEECEF7CF0335006E13204D8B06F
:10F9CC00EAEF7CF0ECEF7CF025EF7CF035BEF7EF46
:10F9DC007CF0355008E13404D8A0F7EF7CF0F9EF57
:10F9EC007CF001EF7DF0000166B3FFEF7CF001EFDE
:10F9FC007DF025EF7CF036503710D8A408EF7DF061
:10FA0C000AEF7DF012EF7DF0000166A510EF7DF09E
:10FA1C0012EF7DF031EF7DF04006D8A04106365054
:10FA2C003710D8A41CEF7DF01EEF7DF024EF7DF095
:10FA3C00000E316E2B0E306E28EF7DF0000E316E05
:10FA4C002D0E306E6A0E4024D96E000E4120DA6EF7
:10FA5C006000C3F0DFFF600078F013F060007CF012
:10FA6C0014F06A0E4024156E000E4120166E6000D4
:10FA7C00D0F017F06000D4F018F054EC75F0600082
:10FA8C004CF01EF0600050F01FF01200600013F1FB
:10FA9C00D9FF600017F1DAFF6F007BFFF6FF6F00F4
:10FAAC0077FFF7FFF86A0800F550250AD8A461EF34
:10FABC007DF063EF7DF0FEEF7EF0600013F1D9FF77
:10FACC00600017F1DAFFDE2A000EDD22000E0001C5
:10FADC00636F000E626F62C066F063C067F06469AA
:10FAEC006569600013F1D9FF600017F1DAFF6F0050
:10FAFC007BFFF6FF6F0077FFF7FFF86A0800F55001
:10FB0C00640AD8B48CEF7DF08EEF7DF0A5EF7DF01C
:10FB1C00600013F1D9FF600017F1DAFF6F007BFF73
:10FB2C00F6FF6F0077FFF7FFF86A0800F550690AD7
:10FB3C00D8A4A3EF7DF0A5EF7DF0FBEF7DF0600086
:10FB4C0013F1D9FF600017F1DAFFDE2A000EDD2277
:10FB5C0060001BF1D9FF60001FF1DAFF6F007CFF22
:10FB6C0048F0020EDE266F007CFF49F0000EDD220D
:10FB7C00600023F1D9FF600027F1DAFF6F0078FFF6
:10FB8C004CF06F0074FF4DF0000E4DBEFF0E4E6E2C
:10FB9C004F6E506E516E526E536E600008F11EF037
:10FBAC0060000CF11FF0600030F120F0600034F1C7
:10FBBC0021F0600038F122F060003CF123F060008D
:10FBCC0040F124F0600044F125F0600048F126F08B
:10FBDC0060004CF127F0A6EC7BF0600078F042F06E
:10FBEC0060007CF043F022EF7FF0600013F1D9FF4E
:10FBFC00600017F1DAFF6F007BFFF6FF6F0077FFF5
:10FC0C00F7FFF86A0800F550730AD8A410EF7EF0DD
:10FC1C0012EF7EF04DEF7EF0600013F1D9FF600023
:10FC2C0017F1DAFFDE2A000EDD2260001BF1D9FF8E
:10FC3C0060001FF1DAFF6F007CFF48F0020EDE2639
:10FC4C006F007CFF49F0000EDD22600023F1D9FF2C
:10FC5C00600027F1DAFF6F0078FF5CF06F0074FF33
:10FC6C005DF0600008F10CF060000CF10DF060002C
:10FC7C0070F10EF0600074F10FF040EC78F0600061
:10FC8C0030F042F0600034F043F022EF7FF060007F
:10FC9C0013F1D9FF600017F1DAFF6F007BFFF6FF5D
:10FCAC006F0077FFF7FFF86A0800F550750AD8A4C3
:10FCBC0062EF7EF064EF7EF0BDEF7EF0600013F13A
:10FCCC00D9FF600017F1DAFFDE2A000EDD2260009A
:10FCDC001BF1D9FF60001FF1DAFF6F007CFF48F0C9
:10FCEC00020EDE266F007CFF49F0000EDD22600064
:10FCFC0023F1D9FF600027F1DAFF6F0078FF4AF09B
:10FD0C006F0074FF4BF0600028F154F060002CF190
:10FD1C0055F0566A576A586A596A5A6A5B6A6000A3
:10FD2C0008F11EF060000CF11FF0600050F120F0A3
:10FD3C00600054F121F0600058F122F060005CF199
:10FD4C0023F0600060F124F0600064F125F06000A5
:10FD5C0068F126F060006CF127F01CEC79F0600083
:10FD6C0078F042F060007CF043F022EF7FF060000E
:10FD7C0013F1D9FF600017F1DAFF6F007BFFF6FF7C
:10FD8C006F0077FFF7FFF86A0800F550250AD8A432
:10FD9C00D2EF7EF0D4EF7EF0EFEF7EF0600013F147
:10FDAC00D9FF600017F1DAFFDE2A000EDD22000E0B
:10FDBC00046E250E036E600008F105F060000CF176
:10FDCC0006F078EC74F0000E436E010E426E22EFDA
:10FDDC007FF0600013F1D9FF600017F1DAFFDE2A23
:10FDEC00000EDD22000E436E000E426E22EF7FF0FD
:10FDFC00600013F1D9FF600017F1DAFF6F007BFF91
:10FE0C00F6FF6F0077FFF7FFF86A0800F550036EF6
:10FE1C00046A600008F105F060000CF106F078EC63
:10FE2C0074F0600013F1D9FF600017F1DAFFDE2ADD
:10FE3C00000EDD22E9EF7EF01200000909726574F4
:10FE4C0075726E2E204C434420676F20746F2073A4
:10FE5C0074617274206F66206C696E652074776FA4
:10FE6C000D0A0009092720272E204C4344206469E1
:10FE7C0073706C6179206572726F7220616E642090
:10FE8C006865782032300D0A0009093F2E204C435A
:10FE9C004420646973706C6179206572726F722092
:10FEAC00616E64206865782033460D0A000D0A09DE
:10FEBC00546865205369676E61747572652066724B
:10FECC006F6D203350692069733A2025730D0A0039
:10FEDC000909322E20446973706C6179206D5620AB
:10FEEC0072656164696E6720696E204C43440D0A2B
:10FEFC000009097E2E204C4344206D6573736167A5
:10FF0C00652041505343313239390D0A0009092D0E
:10FF1C002E2053656E642068797068656E20746F4E
:10FF2C00204C43440D0A000909312E20446973709A
:10FF3C006C6179206D562072656164696E670D0A7B
:10FF4C00000909402E20506F6C6F6C752053696747
:10FF5C006E61747572653F0D0A000D0A0953656E6A
:10FF6C00736F722052656164696E6773203D202047
:10FF7C00000D0A094261747465727920566F6C74B5
:10FF8C00616765203D20000909632E20436C656183
:10FF9C0072204C43440D0A00094B505520415053DC
:10FFAC0043313239390A0A0D0009092D2D2D2D2D19
:10FFBC002D2D2D0D0A0A0009092D2D2D2D2D2D2D40
:10FFCC002D0D0A00090920204D656E750A0D0043A0
:10FFDC00616C20446F6E65002564206D560D0A001F
:0FFFEC004E6F20526F616D002575206D5600001D
:04FFFC00CFEF6FF0E4
:020000040020DA
:10000000FF0FFF0FFF0FFF0FFF0FFF0FFF0FFF0F80
:020000040030CA
:0A000000ECFEF7FF9FFFFFFFFFFF7C
:00000001FF
